{
  "_format": "hh-sol-artifact-1",
  "contractName": "sUSDeStrategy",
  "sourceName": "contracts/tranches/strategies/ethena/sUSDeStrategy.sol",
  "abi": [
    {
      "inputs": [
        {
          "internalType": "contract IERC4626",
          "name": "sUSDe_",
          "type": "address"
        }
      ],
      "stateMutability": "nonpayable",
      "type": "constructor"
    },
    {
      "inputs": [
        {
          "internalType": "address",
          "name": "account",
          "type": "address"
        },
        {
          "internalType": "bytes32",
          "name": "neededRole",
          "type": "bytes32"
        }
      ],
      "name": "AccessControlUnauthorizedAccount",
      "type": "error"
    },
    {
      "inputs": [],
      "name": "AlreadyConfigured",
      "type": "error"
    },
    {
      "inputs": [
        {
          "internalType": "address",
          "name": "tranche",
          "type": "address"
        }
      ],
      "name": "DepositCapReached",
      "type": "error"
    },
    {
      "inputs": [
        {
          "internalType": "address",
          "name": "tranche",
          "type": "address"
        }
      ],
      "name": "DepositsDisabled",
      "type": "error"
    },
    {
      "inputs": [
        {
          "internalType": "address",
          "name": "caller",
          "type": "address"
        }
      ],
      "name": "InvalidCaller",
      "type": "error"
    },
    {
      "inputs": [],
      "name": "InvalidConfigCooldown",
      "type": "error"
    },
    {
      "inputs": [],
      "name": "InvalidInitialization",
      "type": "error"
    },
    {
      "inputs": [
        {
          "internalType": "address",
          "name": "tranche",
          "type": "address"
        }
      ],
      "name": "InvalidTranche",
      "type": "error"
    },
    {
      "inputs": [],
      "name": "MinSharesViolation",
      "type": "error"
    },
    {
      "inputs": [],
      "name": "NotInitializing",
      "type": "error"
    },
    {
      "inputs": [
        {
          "internalType": "address",
          "name": "owner",
          "type": "address"
        }
      ],
      "name": "OwnableInvalidOwner",
      "type": "error"
    },
    {
      "inputs": [
        {
          "internalType": "address",
          "name": "account",
          "type": "address"
        }
      ],
      "name": "OwnableUnauthorizedAccount",
      "type": "error"
    },
    {
      "inputs": [],
      "name": "ReentrancyGuardReentrantCall",
      "type": "error"
    },
    {
      "inputs": [
        {
          "internalType": "address",
          "name": "token",
          "type": "address"
        }
      ],
      "name": "SafeERC20FailedOperation",
      "type": "error"
    },
    {
      "inputs": [
        {
          "internalType": "address",
          "name": "sender",
          "type": "address"
        },
        {
          "internalType": "address",
          "name": "calledContract",
          "type": "address"
        },
        {
          "internalType": "bytes4",
          "name": "sel",
          "type": "bytes4"
        }
      ],
      "name": "Unauthorized",
      "type": "error"
    },
    {
      "inputs": [
        {
          "internalType": "address",
          "name": "token",
          "type": "address"
        }
      ],
      "name": "UnsupportedToken",
      "type": "error"
    },
    {
      "inputs": [
        {
          "internalType": "address",
          "name": "tranche",
          "type": "address"
        }
      ],
      "name": "WithdrawalCapReached",
      "type": "error"
    },
    {
      "inputs": [
        {
          "internalType": "address",
          "name": "tranche",
          "type": "address"
        }
      ],
      "name": "WithdrawalsDisabled",
      "type": "error"
    },
    {
      "inputs": [],
      "name": "ZeroAddress",
      "type": "error"
    },
    {
      "inputs": [],
      "name": "ZeroAmount",
      "type": "error"
    },
    {
      "anonymous": false,
      "inputs": [
        {
          "indexed": false,
          "internalType": "uint256",
          "name": "jrt",
          "type": "uint256"
        },
        {
          "indexed": false,
          "internalType": "uint256",
          "name": "srt",
          "type": "uint256"
        }
      ],
      "name": "CooldownsChanged",
      "type": "event"
    },
    {
      "anonymous": false,
      "inputs": [
        {
          "indexed": false,
          "internalType": "uint64",
          "name": "version",
          "type": "uint64"
        }
      ],
      "name": "Initialized",
      "type": "event"
    },
    {
      "anonymous": false,
      "inputs": [
        {
          "indexed": false,
          "internalType": "address",
          "name": "accessControlManager",
          "type": "address"
        }
      ],
      "name": "NewAccessControlManager",
      "type": "event"
    },
    {
      "anonymous": false,
      "inputs": [
        {
          "indexed": true,
          "internalType": "address",
          "name": "previousOwner",
          "type": "address"
        },
        {
          "indexed": true,
          "internalType": "address",
          "name": "newOwner",
          "type": "address"
        }
      ],
      "name": "OwnershipTransferStarted",
      "type": "event"
    },
    {
      "anonymous": false,
      "inputs": [
        {
          "indexed": true,
          "internalType": "address",
          "name": "previousOwner",
          "type": "address"
        },
        {
          "indexed": true,
          "internalType": "address",
          "name": "newOwner",
          "type": "address"
        }
      ],
      "name": "OwnershipTransferred",
      "type": "event"
    },
    {
      "inputs": [],
      "name": "COOLDOWN_WORKER_ROLE",
      "outputs": [
        {
          "internalType": "bytes32",
          "name": "",
          "type": "bytes32"
        }
      ],
      "stateMutability": "view",
      "type": "function"
    },
    {
      "inputs": [],
      "name": "PAUSER_ROLE",
      "outputs": [
        {
          "internalType": "bytes32",
          "name": "",
          "type": "bytes32"
        }
      ],
      "stateMutability": "view",
      "type": "function"
    },
    {
      "inputs": [],
      "name": "RESERVE_MANAGER_ROLE",
      "outputs": [
        {
          "internalType": "bytes32",
          "name": "",
          "type": "bytes32"
        }
      ],
      "stateMutability": "view",
      "type": "function"
    },
    {
      "inputs": [],
      "name": "UPDATER_CDO_APR_ROLE",
      "outputs": [
        {
          "internalType": "bytes32",
          "name": "",
          "type": "bytes32"
        }
      ],
      "stateMutability": "view",
      "type": "function"
    },
    {
      "inputs": [],
      "name": "UPDATER_FEED_ROLE",
      "outputs": [
        {
          "internalType": "bytes32",
          "name": "",
          "type": "bytes32"
        }
      ],
      "stateMutability": "view",
      "type": "function"
    },
    {
      "inputs": [],
      "name": "UPDATER_STRAT_CONFIG_ROLE",
      "outputs": [
        {
          "internalType": "bytes32",
          "name": "",
          "type": "bytes32"
        }
      ],
      "stateMutability": "view",
      "type": "function"
    },
    {
      "inputs": [],
      "name": "USDe",
      "outputs": [
        {
          "internalType": "contract IERC20",
          "name": "",
          "type": "address"
        }
      ],
      "stateMutability": "view",
      "type": "function"
    },
    {
      "inputs": [],
      "name": "acceptOwnership",
      "outputs": [],
      "stateMutability": "nonpayable",
      "type": "function"
    },
    {
      "inputs": [],
      "name": "acm",
      "outputs": [
        {
          "internalType": "contract IAccessControlManager",
          "name": "",
          "type": "address"
        }
      ],
      "stateMutability": "view",
      "type": "function"
    },
    {
      "inputs": [],
      "name": "cdo",
      "outputs": [
        {
          "internalType": "contract IStrataCDO",
          "name": "",
          "type": "address"
        }
      ],
      "stateMutability": "view",
      "type": "function"
    },
    {
      "inputs": [
        {
          "internalType": "address",
          "name": "token",
          "type": "address"
        },
        {
          "internalType": "uint256",
          "name": "tokenAmount",
          "type": "uint256"
        },
        {
          "internalType": "enum Math.Rounding",
          "name": "rounding",
          "type": "uint8"
        }
      ],
      "name": "convertToAssets",
      "outputs": [
        {
          "internalType": "uint256",
          "name": "",
          "type": "uint256"
        }
      ],
      "stateMutability": "view",
      "type": "function"
    },
    {
      "inputs": [
        {
          "internalType": "address",
          "name": "token",
          "type": "address"
        },
        {
          "internalType": "uint256",
          "name": "baseAssets",
          "type": "uint256"
        },
        {
          "internalType": "enum Math.Rounding",
          "name": "rounding",
          "type": "uint8"
        }
      ],
      "name": "convertToTokens",
      "outputs": [
        {
          "internalType": "uint256",
          "name": "",
          "type": "uint256"
        }
      ],
      "stateMutability": "view",
      "type": "function"
    },
    {
      "inputs": [
        {
          "internalType": "address",
          "name": "tranche",
          "type": "address"
        },
        {
          "internalType": "address",
          "name": "token",
          "type": "address"
        },
        {
          "internalType": "uint256",
          "name": "tokenAmount",
          "type": "uint256"
        },
        {
          "internalType": "uint256",
          "name": "baseAssets",
          "type": "uint256"
        },
        {
          "internalType": "address",
          "name": "owner",
          "type": "address"
        }
      ],
      "name": "deposit",
      "outputs": [
        {
          "internalType": "uint256",
          "name": "",
          "type": "uint256"
        }
      ],
      "stateMutability": "nonpayable",
      "type": "function"
    },
    {
      "inputs": [],
      "name": "erc20Cooldown",
      "outputs": [
        {
          "internalType": "contract IERC20Cooldown",
          "name": "",
          "type": "address"
        }
      ],
      "stateMutability": "view",
      "type": "function"
    },
    {
      "inputs": [],
      "name": "getCDOAddress",
      "outputs": [
        {
          "internalType": "address",
          "name": "",
          "type": "address"
        }
      ],
      "stateMutability": "view",
      "type": "function"
    },
    {
      "inputs": [],
      "name": "getSupportedTokens",
      "outputs": [
        {
          "internalType": "contract IERC20[]",
          "name": "",
          "type": "address[]"
        }
      ],
      "stateMutability": "view",
      "type": "function"
    },
    {
      "inputs": [
        {
          "internalType": "address",
          "name": "owner_",
          "type": "address"
        },
        {
          "internalType": "address",
          "name": "acm_",
          "type": "address"
        },
        {
          "internalType": "contract IStrataCDO",
          "name": "cdo_",
          "type": "address"
        },
        {
          "internalType": "contract IERC20Cooldown",
          "name": "erc20Cooldown_",
          "type": "address"
        },
        {
          "internalType": "contract IUnstakeCooldown",
          "name": "unstakeCooldown_",
          "type": "address"
        }
      ],
      "name": "initialize",
      "outputs": [],
      "stateMutability": "nonpayable",
      "type": "function"
    },
    {
      "inputs": [],
      "name": "owner",
      "outputs": [
        {
          "internalType": "address",
          "name": "",
          "type": "address"
        }
      ],
      "stateMutability": "view",
      "type": "function"
    },
    {
      "inputs": [],
      "name": "pendingOwner",
      "outputs": [
        {
          "internalType": "address",
          "name": "",
          "type": "address"
        }
      ],
      "stateMutability": "view",
      "type": "function"
    },
    {
      "inputs": [
        {
          "internalType": "address",
          "name": "token",
          "type": "address"
        },
        {
          "internalType": "uint256",
          "name": "tokenAmount",
          "type": "uint256"
        },
        {
          "internalType": "address",
          "name": "receiver",
          "type": "address"
        }
      ],
      "name": "reduceReserve",
      "outputs": [],
      "stateMutability": "nonpayable",
      "type": "function"
    },
    {
      "inputs": [],
      "name": "renounceOwnership",
      "outputs": [],
      "stateMutability": "nonpayable",
      "type": "function"
    },
    {
      "inputs": [],
      "name": "sUSDe",
      "outputs": [
        {
          "internalType": "contract IERC4626",
          "name": "",
          "type": "address"
        }
      ],
      "stateMutability": "view",
      "type": "function"
    },
    {
      "inputs": [],
      "name": "sUSDeCooldownJrt",
      "outputs": [
        {
          "internalType": "uint256",
          "name": "",
          "type": "uint256"
        }
      ],
      "stateMutability": "view",
      "type": "function"
    },
    {
      "inputs": [],
      "name": "sUSDeCooldownSrt",
      "outputs": [
        {
          "internalType": "uint256",
          "name": "",
          "type": "uint256"
        }
      ],
      "stateMutability": "view",
      "type": "function"
    },
    {
      "inputs": [
        {
          "internalType": "address",
          "name": "accessControlManager_",
          "type": "address"
        }
      ],
      "name": "setAccessControlManager",
      "outputs": [],
      "stateMutability": "nonpayable",
      "type": "function"
    },
    {
      "inputs": [
        {
          "internalType": "uint256",
          "name": "sUSDeCooldownJrt_",
          "type": "uint256"
        },
        {
          "internalType": "uint256",
          "name": "sUSDeCooldownSrt_",
          "type": "uint256"
        }
      ],
      "name": "setCooldowns",
      "outputs": [],
      "stateMutability": "nonpayable",
      "type": "function"
    },
    {
      "inputs": [],
      "name": "totalAssets",
      "outputs": [
        {
          "internalType": "uint256",
          "name": "baseAssets",
          "type": "uint256"
        }
      ],
      "stateMutability": "view",
      "type": "function"
    },
    {
      "inputs": [
        {
          "internalType": "address",
          "name": "newOwner",
          "type": "address"
        }
      ],
      "name": "transferOwnership",
      "outputs": [],
      "stateMutability": "nonpayable",
      "type": "function"
    },
    {
      "inputs": [],
      "name": "unstakeCooldown",
      "outputs": [
        {
          "internalType": "contract IUnstakeCooldown",
          "name": "",
          "type": "address"
        }
      ],
      "stateMutability": "view",
      "type": "function"
    },
    {
      "inputs": [
        {
          "internalType": "address",
          "name": "tranche",
          "type": "address"
        },
        {
          "internalType": "address",
          "name": "token",
          "type": "address"
        },
        {
          "internalType": "uint256",
          "name": "tokenAmount",
          "type": "uint256"
        },
        {
          "internalType": "uint256",
          "name": "baseAssets",
          "type": "uint256"
        },
        {
          "internalType": "address",
          "name": "sender",
          "type": "address"
        },
        {
          "internalType": "address",
          "name": "receiver",
          "type": "address"
        }
      ],
      "name": "withdraw",
      "outputs": [
        {
          "internalType": "uint256",
          "name": "",
          "type": "uint256"
        }
      ],
      "stateMutability": "nonpayable",
      "type": "function"
    }
  ],
  "bytecode": "0x60c0806040523461021b57602081611d3f803803809161001f8285610220565b83398101031261021b57516001600160a01b03811680820361021b577ff0c57e16840df040f15088dc2f81fe391c3923bec73e23a9662efc9c229c6a00549060ff8260401c1661020a576004926020926002600160401b03196001600160401b038216016101a2575b506080526040516338d52e0f60e01b815292839182905afa9081156101965760009161014d575b506001600160a01b031660a052604051611ae5908161025a82396080518181816102b70152818161031c015281816104e101528181610c1c01528181610df901528181610fd901528181611247015281816113cc01528181611589015281816116ed0152611743015260a051818181610352015281816103f50152818161103201528181611272015281816113f7015281816115b401526116b70152f35b6020813d60201161018e575b8161016660209383610220565b8101031261018a5751906001600160a01b03821682036101875750386100af565b80fd5b5080fd5b3d9150610159565b6040513d6000823e3d90fd5b6001600160401b0319166001600160401b039081177ff0c57e16840df040f15088dc2f81fe391c3923bec73e23a9662efc9c229c6a00556040519081527fc7f505b2f371ae2175ee4913f4499e1f2633a7b5936321eed1cdaeb6115181d2908490a138610088565b63f92ee8a960e01b60005260046000fd5b600080fd5b601f909101601f19168101906001600160401b0382119082101761024357604052565b634e487b7160e01b600052604160045260246000fdfe608080604052600436101561001357600080fd5b600090813560e01c90816301e1d11414610dd55750806302a1bf4b14610db75780630e32cb8614610d385780631459457a14610a4f578063387a723714610925578063390425b0146109ea5780633922b602146109c1578063392802ae146109a35780633fe26fee14610989578063668983ee1461094e5780636b1c5dba146109255780636fb93754146108c4578063715018a6146108435780637338ddcc1461081c578063737b332d146107e157806379ba5097146107905780637eefd5ae146107675780638da5cb5b146107315780638f3cc657146106f65780639447d016146106dc578063a3ed9cd01461066f578063c5f8725714610634578063cd123d4114610424578063d1609502146103df578063d3c7c2c7146102e6578063e0d05d39146102a1578063e30c39781461026b578063e63ab1e914610230578063f2fde38b146101a85763fb2fa6281461016b57600080fd5b346101a557806003193601126101a55760206040517f67944e0027e2f9a2b0c3419bbf4470c579a0ff7f0007c5554d431924b9d578978152f35b80fd5b50346101a55760203660031901126101a5576101c2610ef2565b6101ca611870565b600080516020611a9083398151915280546001600160a01b0319166001600160a01b03928316908117909155600080516020611a50833981519152549091167f38d16b8cac22d99fc7c124b9cd0de2d3fa1faef420bfe791d8c362d765e227008380a380f35b50346101a557806003193601126101a55760206040517f65d7a28e3265b37a6474929f336521b332c1681b933f6cb9f3376673440d862a8152f35b50346101a557806003193601126101a557600080516020611a90833981519152546040516001600160a01b039091168152602090f35b50346101a557806003193601126101a5576040517f00000000000000000000000000000000000000000000000000000000000000006001600160a01b03168152602090f35b50346101a557806003193601126101a557604051610305606082610f6c565b60028152602081019060403683378051156103cb577f00000000000000000000000000000000000000000000000000000000000000006001600160a01b031682528051600110156103cb577f00000000000000000000000000000000000000000000000000000000000000006001600160a01b031660408083019190915280516020808252925192810183905293849391840192905b8181106103a9575050500390f35b82516001600160a01b031684528594506020938401939092019160010161039b565b634e487b7160e01b83526032600452602483fd5b50346101a557806003193601126101a5576040517f00000000000000000000000000000000000000000000000000000000000000006001600160a01b03168152602090f35b50346101a55760403660031901126101a5576004356024356044602060018060a01b0385541660405192838092632474521560e21b82527fb93bf808defb265d057ca8bf7be1ab7ec2ab3c0b320ee05f77fe3cb0e08fbff460048301523360248301525afa90811561059c578491610605575b50156105ce5762093a80821180156105c2575b6105b3578160665580606755828215806105ab575b6064546001600160a01b0316803b156105a7576040516316d0bf8360e01b81527f00000000000000000000000000000000000000000000000000000000000000006001600160a01b0316600482015291151560248301529091908290604490829084905af1801561059c57610563575b507fa511110c6a4c957d42e6c11505646efe1f808483d2d116a146fb5d61550f7d5a9160409182519182526020820152a180f35b9183610593604093957fa511110c6a4c957d42e6c11505646efe1f808483d2d116a146fb5d61550f7d5a95610f6c565b9391509161052f565b6040513d86823e3d90fd5b8280fd5b5081156104bf565b630591f09f60e21b8352600483fd5b5062093a8081116104aa565b63e2517d3f60e01b8352336004527fb93bf808defb265d057ca8bf7be1ab7ec2ab3c0b320ee05f77fe3cb0e08fbff4602452604483fd5b610627915060203d60201161062d575b61061f8183610f6c565b810190610fa4565b38610497565b503d610615565b50346101a557806003193601126101a55760206040517fcc938097bd07c9f1619d5e95c26b457140e80b889795c7c1cbd51a28005e02ac8152f35b50346101a55760a03660031901126101a557610689610ef2565b50610692610f0d565b61069a610f23565b6032549092906001600160a01b031633036106c95760206106c1846064356044358661166c565b604051908152f35b63065ece9760e51b815233600452602490fd5b50346101a55760206106c16106f036610f39565b91611579565b50346101a557806003193601126101a55760206040517f2c85ecd23ea927ba843f342b5bafa7879dfdc212a00052897f68d65c2ee8491b8152f35b50346101a557806003193601126101a557600080516020611a50833981519152546040516001600160a01b039091168152602090f35b50346101a557806003193601126101a5576065546040516001600160a01b039091168152602090f35b50346101a557806003193601126101a557600080516020611a9083398151915254336001600160a01b03909116036107ce576107cb33611958565b80f35b63118cdaa760e01b815233600452602490fd5b50346101a557806003193601126101a55760206040517f97d8f58e0f008a842799f9fb6a4e6212ac93db0249409467f149ba102924e8808152f35b50346101a557806003193601126101a557546040516001600160a01b039091168152602090f35b50346101a557806003193601126101a55761085c611870565b600080516020611a9083398151915280546001600160a01b0319908116909155600080516020611a508339815191528054918216905581906001600160a01b03167f8be0079c531659141344cd1fd0a4f28419497f9722a3daafe3b4186f6b6457e08280a380f35b50346101a55760603660031901126101a5576108de610ef2565b604435906001600160a01b03821682036105a7576032546001600160a01b0316330361091257906107cb91602435906113bc565b63065ece9760e51b835233600452602483fd5b50346101a557806003193601126101a5576032546040516001600160a01b039091168152602090f35b50346101a557806003193601126101a55760206040517fb93bf808defb265d057ca8bf7be1ab7ec2ab3c0b320ee05f77fe3cb0e08fbff48152f35b50346101a55760206106c161099d36610f39565b91611237565b50346101a557806003193601126101a5576020606754604051908152f35b50346101a557806003193601126101a5576064546040516001600160a01b039091168152602090f35b50346101a55760c03660031901126101a557610a04610ef2565b610a0c610f0d565b90610a15610f23565b60a435939092906001600160a01b03851685036101a5576032546001600160a01b031633036106c95760206106c186866064358688610fbc565b50346101a55760a03660031901126101a557610a69610ef2565b90610a72610f0d565b6044356001600160a01b0381169391908490036105a7576064356001600160a01b0381169190829003610d34576084356001600160a01b0381169190829003610d3057600080516020611a70833981519152549360ff8560401c16159467ffffffffffffffff811680159081610d28575b6001149081610d1e575b159081610d15575b50610d065767ffffffffffffffff198116600117600080516020611a708339815191525585610cd9575b50610b286119c6565b610b306119c6565b6001600160a01b03811615610cc557610b4890611958565b610b506119c6565b6001600160a01b0316948515610cb6577fea8b2c76280ebcfc6d3bce461d1446949d91929a61dc9c679740f01fddbda81d602087610c559697986001600160601b0360a01b8a5416178955604051908152a1610baa6119c6565b610bb26119c6565b60017f9b779b17422d0df92223018b32b4d1fa46e071723d6817e2486d003becc55f00556001600160601b0360a01b6032541617603255816001600160601b0360a01b60645416176064556001600160601b0360a01b6065541617606555610c4360018060a01b037f00000000000000000000000000000000000000000000000000000000000000001691826118a6565b6065546001600160a01b0316906118a6565b610c5c5780f35b68ff000000000000000019600080516020611a708339815191525416600080516020611a70833981519152557fc7f505b2f371ae2175ee4913f4499e1f2633a7b5936321eed1cdaeb6115181d2602060405160018152a180f35b63d92e233d60e01b8552600485fd5b631e4fbdf760e01b86526004869052602486fd5b68ffffffffffffffffff19166801000000000000000117600080516020611a708339815191525538610b1f565b63f92ee8a960e01b8752600487fd5b90501538610af5565b303b159150610aed565b879150610ae3565b8480fd5b8380fd5b50346101a55760203660031901126101a557610d52610ef2565b610d5a611870565b6001600160a01b03168015610da85781546001600160a01b031916811782556040519081527fea8b2c76280ebcfc6d3bce461d1446949d91929a61dc9c679740f01fddbda81d90602090a180f35b63d92e233d60e01b8252600482fd5b50346101a557806003193601126101a5576020606654604051908152f35b905034610e9d5781600319360112610e9d576370a0823160e01b81523060048201527f00000000000000000000000000000000000000000000000000000000000000006001600160a01b031690602081602481855afa8015610ee7578390610eb4575b6020915060246040518094819363266d6a8360e11b835260048301525afa908115610ea9578291610e6f575b602082604051908152f35b90506020813d602011610ea1575b81610e8a60209383610f6c565b81010312610e9d57602091505138610e64565b5080fd5b3d9150610e7d565b6040513d84823e3d90fd5b506020813d602011610edf575b81610ece60209383610f6c565b810103126105a75760209051610e38565b3d9150610ec1565b6040513d85823e3d90fd5b600435906001600160a01b0382168203610f0857565b600080fd5b602435906001600160a01b0382168203610f0857565b608435906001600160a01b0382168203610f0857565b6060906003190112610f08576004356001600160a01b0381168103610f085790602435906044356004811015610f085790565b90601f8019910116810190811067ffffffffffffffff821117610f8e57604052565b634e487b7160e01b600052604160045260246000fd5b90816020910312610f0857518015158103610f085790565b604051630a28a47760e01b815260048101849052600095919490927f000000000000000000000000000000000000000000000000000000000000000091906001600160a01b03831690602086602481855afa95861561122c5789966111f4575b506001600160a01b0316968188146110f85750507f00000000000000000000000000000000000000000000000000000000000000006001600160a01b0316861461107457635f8b555b60e11b87526004869052602487fd5b9091929395945060018060a01b036065541691823b156110f457604051633c6340f360e21b81526001600160a01b039182166004820152918116602483015292909216604483015260648201929092529082908290608490829084905af18015610ea9576110e157505090565b6110ec828092610f6c565b6101a5575090565b8580fd5b603254604051634243ec4b60e01b81526001600160a01b039283166004820152969998509496509194909390925060209183916024918391165afa9081156111e95785916111ca575b50156111c2576066545b6064546001600160a01b031690813b156110f457918560a492819594604051978896879563481fd22360e11b8752600487015260018060a01b0316602486015260018060a01b0316604485015289606485015260848401525af18015610ea9576111b457505090565b816111be91610f6c565b5090565b60675461114b565b6111e3915060203d60201161062d5761061f8183610f6c565b38611141565b6040513d87823e3d90fd5b9095506020813d602011611224575b8161121060209383610f6c565b810103126112205751943861101c565b8880fd5b3d9150611203565b6040513d8b823e3d90fd5b6001600160a01b039081169392907f0000000000000000000000000000000000000000000000000000000000000000168481146112b95750507f00000000000000000000000000000000000000000000000000000000000000006001600160a01b031683146112b55782635f8b555b60e11b60005260045260246000fd5b9150565b919092935060048310156113a65760009261133a57602091925060246040518094819363ef8b30f760e01b835260048301525afa90811561132e576000916112ff575090565b90506020813d602011611326575b8161131a60209383610f6c565b81010312610f08575190565b3d915061130d565b6040513d6000823e3d90fd5b602090602460405180948193630a28a47760e01b835260048301525afa91821561139a57809261136957505090565b9091506020823d602011611392575b8161138560209383610f6c565b810103126101a557505190565b3d9150611378565b604051903d90823e3d90fd5b634e487b7160e01b600052602160045260246000fd5b6001600160a01b039081169392907f0000000000000000000000000000000000000000000000000000000000000000908116858114611511577f00000000000000000000000000000000000000000000000000000000000000006001600160a01b0316861461143a5785635f8b555b60e11b60005260045260246000fd5b602493949550602090604051948580926363737ac960e11b825260009860048301525afa92831561059c5784936114dd575b506065546001600160a01b031690813b15610d3057604051633c6340f360e21b81526001600160a01b039182166004820152921660248301819052604483015260648201929092529082908290608490829084905af18015610ea9576114d0575050565b816114da91610f6c565b50565b9092506020813d602011611509575b816114f960209383610f6c565b81010312610d345751913861146c565b3d91506114ec565b6064549495506000949091506001600160a01b0316803b15610d30578492918360a492604051968795869463481fd22360e11b8652600486015260018060a01b0316806024860152604485015260648401528160848401525af18015610ea9576114d0575050565b6001600160a01b039081169392907f0000000000000000000000000000000000000000000000000000000000000000168481146115f75750507f00000000000000000000000000000000000000000000000000000000000000006001600160a01b031683146112b55782635f8b555b60e11b60005260045260246000fd5b919092935060048310156113a65760009261163d57602091925060246040518094819363266d6a8360e11b835260048301525afa90811561132e576000916112ff575090565b60209060246040518094819363b3d7f6b960e01b835260048301525afa91821561139a57809261136957505090565b6040516323b872dd60e01b60208201526001600160a01b03948516602482015230604482015260648082018490528152931693926116b5906116af608482610f6c565b856119f4565b7f00000000000000000000000000000000000000000000000000000000000000006001600160a01b03811690858214611730575050507f00000000000000000000000000000000000000000000000000000000000000006001600160a01b031683146112b55782635f8b555b60e11b60005260045260246000fd5b6020929495506000935060018060a01b037f0000000000000000000000000000000000000000000000000000000000000000169160405190848681840163095ea7b360e01b815286602486015289604486015260448552611792606486610f6c565b84519082875af1903d8751908361184e575b5050501561180b575b5050604460405180948193636e553f6560e01b83528760048401523060248401525af1801561132e576117de575090565b6020813d602011611803575b816117f760209383610f6c565b81010312610f08575090565b3d91506117ea565b6118479161184260405163095ea7b360e01b878201528560248201528760448201526044815261183c606482610f6c565b826119f4565b6119f4565b38806117ad565b9091925015871461186657503b15155b3880806117a4565b600191501461185e565b600080516020611a50833981519152546001600160a01b0316330361189157565b63118cdaa760e01b6000523360045260246000fd5b60405190602060008184019463095ea7b360e01b865260018060a01b03169485602486015281196044860152604485526118e1606486610f6c565b84519082855af16000513d82611933575b5050156118fe57505050565b611842611931936040519063095ea7b360e01b60208301526024820152600060448201526044815261183c606482610f6c565b565b90915061195057506001600160a01b0381163b15155b38806118f2565b600114611949565b600080516020611a9083398151915280546001600160a01b0319908116909155600080516020611a5083398151915280549182166001600160a01b0393841690811790915591167f8be0079c531659141344cd1fd0a4f28419497f9722a3daafe3b4186f6b6457e0600080a3565b60ff600080516020611a708339815191525460401c16156119e357565b631afcd79f60e31b60005260046000fd5b906000602091828151910182855af11561132e576000513d611a4657506001600160a01b0381163b155b611a255750565b635274afe760e01b60009081526001600160a01b0391909116600452602490fd5b60011415611a1e56fe9016d09d72d40fdae2fd8ceac6b6234c7706214fd39c1cd1e609a0528c199300f0c57e16840df040f15088dc2f81fe391c3923bec73e23a9662efc9c229c6a00237e158222e3e6968b72b9db0d8043aacf074ad9f650f0d1606b4d82ee432c00a26469706673582212201e9ecc222b82bdcbdf7d49434e0732d758787a7ff4678d7099933310c71d9bc064736f6c634300081c0033",
  "linkReferences": {},
  "deployedLinkReferences": {}
}