{
  "_format": "hh-sol-artifact-1",
  "contractName": "Accounting",
  "sourceName": "contracts/tranches/Accounting.sol",
  "abi": [
    {
      "inputs": [
        {
          "internalType": "address",
          "name": "account",
          "type": "address"
        },
        {
          "internalType": "bytes32",
          "name": "neededRole",
          "type": "bytes32"
        }
      ],
      "name": "AccessControlUnauthorizedAccount",
      "type": "error"
    },
    {
      "inputs": [],
      "name": "AlreadyConfigured",
      "type": "error"
    },
    {
      "inputs": [
        {
          "internalType": "address",
          "name": "tranche",
          "type": "address"
        }
      ],
      "name": "DepositCapReached",
      "type": "error"
    },
    {
      "inputs": [
        {
          "internalType": "address",
          "name": "tranche",
          "type": "address"
        }
      ],
      "name": "DepositsDisabled",
      "type": "error"
    },
    {
      "inputs": [
        {
          "internalType": "address",
          "name": "caller",
          "type": "address"
        }
      ],
      "name": "InvalidCaller",
      "type": "error"
    },
    {
      "inputs": [],
      "name": "InvalidConfigCooldown",
      "type": "error"
    },
    {
      "inputs": [],
      "name": "InvalidInitialization",
      "type": "error"
    },
    {
      "inputs": [
        {
          "internalType": "uint256",
          "name": "navT1",
          "type": "uint256"
        },
        {
          "internalType": "uint256",
          "name": "jrtAssets",
          "type": "uint256"
        },
        {
          "internalType": "uint256",
          "name": "srtAssets",
          "type": "uint256"
        },
        {
          "internalType": "uint256",
          "name": "reserveAssets",
          "type": "uint256"
        }
      ],
      "name": "InvalidNavSplit",
      "type": "error"
    },
    {
      "inputs": [
        {
          "internalType": "address",
          "name": "tranche",
          "type": "address"
        }
      ],
      "name": "InvalidTranche",
      "type": "error"
    },
    {
      "inputs": [],
      "name": "MinSharesViolation",
      "type": "error"
    },
    {
      "inputs": [],
      "name": "NotInitializing",
      "type": "error"
    },
    {
      "inputs": [
        {
          "internalType": "address",
          "name": "owner",
          "type": "address"
        }
      ],
      "name": "OwnableInvalidOwner",
      "type": "error"
    },
    {
      "inputs": [
        {
          "internalType": "address",
          "name": "account",
          "type": "address"
        }
      ],
      "name": "OwnableUnauthorizedAccount",
      "type": "error"
    },
    {
      "inputs": [
        {
          "internalType": "uint256",
          "name": "x",
          "type": "uint256"
        },
        {
          "internalType": "uint256",
          "name": "y",
          "type": "uint256"
        }
      ],
      "name": "PRBMath_MulDiv18_Overflow",
      "type": "error"
    },
    {
      "inputs": [
        {
          "internalType": "UD60x18",
          "name": "x",
          "type": "uint256"
        }
      ],
      "name": "PRBMath_UD60x18_Exp2_InputTooBig",
      "type": "error"
    },
    {
      "inputs": [
        {
          "internalType": "UD60x18",
          "name": "x",
          "type": "uint256"
        }
      ],
      "name": "PRBMath_UD60x18_Log_InputTooSmall",
      "type": "error"
    },
    {
      "inputs": [],
      "name": "ReentrancyGuardReentrantCall",
      "type": "error"
    },
    {
      "inputs": [
        {
          "internalType": "uint256",
          "name": "reserveNav",
          "type": "uint256"
        },
        {
          "internalType": "uint256",
          "name": "requestedNav",
          "type": "uint256"
        }
      ],
      "name": "ReserveTooLow",
      "type": "error"
    },
    {
      "inputs": [
        {
          "internalType": "address",
          "name": "sender",
          "type": "address"
        },
        {
          "internalType": "address",
          "name": "calledContract",
          "type": "address"
        },
        {
          "internalType": "bytes4",
          "name": "sel",
          "type": "bytes4"
        }
      ],
      "name": "Unauthorized",
      "type": "error"
    },
    {
      "inputs": [
        {
          "internalType": "address",
          "name": "token",
          "type": "address"
        }
      ],
      "name": "UnsupportedToken",
      "type": "error"
    },
    {
      "inputs": [
        {
          "internalType": "address",
          "name": "tranche",
          "type": "address"
        }
      ],
      "name": "WithdrawalCapReached",
      "type": "error"
    },
    {
      "inputs": [
        {
          "internalType": "address",
          "name": "tranche",
          "type": "address"
        }
      ],
      "name": "WithdrawalsDisabled",
      "type": "error"
    },
    {
      "inputs": [],
      "name": "ZeroAddress",
      "type": "error"
    },
    {
      "inputs": [],
      "name": "ZeroAmount",
      "type": "error"
    },
    {
      "anonymous": false,
      "inputs": [
        {
          "indexed": false,
          "internalType": "UD60x18",
          "name": "aprTarget",
          "type": "uint256"
        },
        {
          "indexed": false,
          "internalType": "UD60x18",
          "name": "aprBase",
          "type": "uint256"
        }
      ],
      "name": "AprDataChangedViaPush",
      "type": "event"
    },
    {
      "anonymous": false,
      "inputs": [
        {
          "indexed": false,
          "internalType": "address",
          "name": "aprPairFeed",
          "type": "address"
        }
      ],
      "name": "AprPairFeedChanged",
      "type": "event"
    },
    {
      "anonymous": false,
      "inputs": [
        {
          "indexed": false,
          "internalType": "uint64",
          "name": "version",
          "type": "uint64"
        }
      ],
      "name": "Initialized",
      "type": "event"
    },
    {
      "anonymous": false,
      "inputs": [
        {
          "indexed": false,
          "internalType": "uint256",
          "name": "ratio",
          "type": "uint256"
        }
      ],
      "name": "MinimumJrtSrtRatioBufferChanged",
      "type": "event"
    },
    {
      "anonymous": false,
      "inputs": [
        {
          "indexed": false,
          "internalType": "uint256",
          "name": "ratio",
          "type": "uint256"
        }
      ],
      "name": "MinimumJrtSrtRatioChanged",
      "type": "event"
    },
    {
      "anonymous": false,
      "inputs": [
        {
          "indexed": false,
          "internalType": "address",
          "name": "accessControlManager",
          "type": "address"
        }
      ],
      "name": "NewAccessControlManager",
      "type": "event"
    },
    {
      "anonymous": false,
      "inputs": [
        {
          "indexed": true,
          "internalType": "address",
          "name": "previousOwner",
          "type": "address"
        },
        {
          "indexed": true,
          "internalType": "address",
          "name": "newOwner",
          "type": "address"
        }
      ],
      "name": "OwnershipTransferStarted",
      "type": "event"
    },
    {
      "anonymous": false,
      "inputs": [
        {
          "indexed": true,
          "internalType": "address",
          "name": "previousOwner",
          "type": "address"
        },
        {
          "indexed": true,
          "internalType": "address",
          "name": "newOwner",
          "type": "address"
        }
      ],
      "name": "OwnershipTransferred",
      "type": "event"
    },
    {
      "anonymous": false,
      "inputs": [
        {
          "indexed": false,
          "internalType": "uint256",
          "name": "reserveBps",
          "type": "uint256"
        }
      ],
      "name": "ReservePercentageChanged",
      "type": "event"
    },
    {
      "anonymous": false,
      "inputs": [
        {
          "indexed": false,
          "internalType": "UD60x18",
          "name": "x",
          "type": "uint256"
        },
        {
          "indexed": false,
          "internalType": "UD60x18",
          "name": "y",
          "type": "uint256"
        },
        {
          "indexed": false,
          "internalType": "UD60x18",
          "name": "k",
          "type": "uint256"
        }
      ],
      "name": "RiskParametersChanged",
      "type": "event"
    },
    {
      "inputs": [],
      "name": "COOLDOWN_WORKER_ROLE",
      "outputs": [
        {
          "internalType": "bytes32",
          "name": "",
          "type": "bytes32"
        }
      ],
      "stateMutability": "view",
      "type": "function"
    },
    {
      "inputs": [],
      "name": "PAUSER_ROLE",
      "outputs": [
        {
          "internalType": "bytes32",
          "name": "",
          "type": "bytes32"
        }
      ],
      "stateMutability": "view",
      "type": "function"
    },
    {
      "inputs": [],
      "name": "RESERVE_MANAGER_ROLE",
      "outputs": [
        {
          "internalType": "bytes32",
          "name": "",
          "type": "bytes32"
        }
      ],
      "stateMutability": "view",
      "type": "function"
    },
    {
      "inputs": [],
      "name": "UPDATER_CDO_APR_ROLE",
      "outputs": [
        {
          "internalType": "bytes32",
          "name": "",
          "type": "bytes32"
        }
      ],
      "stateMutability": "view",
      "type": "function"
    },
    {
      "inputs": [],
      "name": "UPDATER_FEED_ROLE",
      "outputs": [
        {
          "internalType": "bytes32",
          "name": "",
          "type": "bytes32"
        }
      ],
      "stateMutability": "view",
      "type": "function"
    },
    {
      "inputs": [],
      "name": "UPDATER_STRAT_CONFIG_ROLE",
      "outputs": [
        {
          "internalType": "bytes32",
          "name": "",
          "type": "bytes32"
        }
      ],
      "stateMutability": "view",
      "type": "function"
    },
    {
      "inputs": [],
      "name": "acceptOwnership",
      "outputs": [],
      "stateMutability": "nonpayable",
      "type": "function"
    },
    {
      "inputs": [],
      "name": "acm",
      "outputs": [
        {
          "internalType": "contract IAccessControlManager",
          "name": "",
          "type": "address"
        }
      ],
      "stateMutability": "view",
      "type": "function"
    },
    {
      "inputs": [],
      "name": "aprBase",
      "outputs": [
        {
          "internalType": "UD60x18",
          "name": "",
          "type": "uint256"
        }
      ],
      "stateMutability": "view",
      "type": "function"
    },
    {
      "inputs": [],
      "name": "aprPairFeed",
      "outputs": [
        {
          "internalType": "contract IAprPairFeed",
          "name": "",
          "type": "address"
        }
      ],
      "stateMutability": "view",
      "type": "function"
    },
    {
      "inputs": [],
      "name": "aprSrt",
      "outputs": [
        {
          "internalType": "UD60x18",
          "name": "",
          "type": "uint256"
        }
      ],
      "stateMutability": "view",
      "type": "function"
    },
    {
      "inputs": [],
      "name": "aprTarget",
      "outputs": [
        {
          "internalType": "UD60x18",
          "name": "",
          "type": "uint256"
        }
      ],
      "stateMutability": "view",
      "type": "function"
    },
    {
      "inputs": [
        {
          "internalType": "uint256",
          "name": "navT0",
          "type": "uint256"
        },
        {
          "internalType": "uint256",
          "name": "jrtNavT0",
          "type": "uint256"
        },
        {
          "internalType": "uint256",
          "name": "srtNavT0",
          "type": "uint256"
        },
        {
          "internalType": "uint256",
          "name": "reserveNavT0",
          "type": "uint256"
        },
        {
          "internalType": "uint256",
          "name": "navT1",
          "type": "uint256"
        }
      ],
      "name": "calculateNAVSplit",
      "outputs": [
        {
          "internalType": "uint256",
          "name": "jrtNavT1",
          "type": "uint256"
        },
        {
          "internalType": "uint256",
          "name": "srtNavT1",
          "type": "uint256"
        },
        {
          "internalType": "uint256",
          "name": "reserveNavT1",
          "type": "uint256"
        }
      ],
      "stateMutability": "view",
      "type": "function"
    },
    {
      "inputs": [],
      "name": "cdo",
      "outputs": [
        {
          "internalType": "contract IStrataCDO",
          "name": "",
          "type": "address"
        }
      ],
      "stateMutability": "view",
      "type": "function"
    },
    {
      "inputs": [],
      "name": "getCDOAddress",
      "outputs": [
        {
          "internalType": "address",
          "name": "",
          "type": "address"
        }
      ],
      "stateMutability": "view",
      "type": "function"
    },
    {
      "inputs": [],
      "name": "indexTimestamp",
      "outputs": [
        {
          "internalType": "uint256",
          "name": "",
          "type": "uint256"
        }
      ],
      "stateMutability": "view",
      "type": "function"
    },
    {
      "inputs": [
        {
          "internalType": "address",
          "name": "owner_",
          "type": "address"
        },
        {
          "internalType": "address",
          "name": "acm_",
          "type": "address"
        },
        {
          "internalType": "contract IStrataCDO",
          "name": "cdo_",
          "type": "address"
        },
        {
          "internalType": "contract IAprPairFeed",
          "name": "aprPairFeed_",
          "type": "address"
        }
      ],
      "name": "initialize",
      "outputs": [],
      "stateMutability": "nonpayable",
      "type": "function"
    },
    {
      "inputs": [],
      "name": "jrtNav",
      "outputs": [
        {
          "internalType": "uint256",
          "name": "",
          "type": "uint256"
        }
      ],
      "stateMutability": "view",
      "type": "function"
    },
    {
      "inputs": [
        {
          "internalType": "bool",
          "name": "isJrt",
          "type": "bool"
        }
      ],
      "name": "maxDeposit",
      "outputs": [
        {
          "internalType": "uint256",
          "name": "",
          "type": "uint256"
        }
      ],
      "stateMutability": "view",
      "type": "function"
    },
    {
      "inputs": [
        {
          "internalType": "bool",
          "name": "isJrt",
          "type": "bool"
        }
      ],
      "name": "maxWithdraw",
      "outputs": [
        {
          "internalType": "uint256",
          "name": "",
          "type": "uint256"
        }
      ],
      "stateMutability": "view",
      "type": "function"
    },
    {
      "inputs": [],
      "name": "minimumJrtSrtRatio",
      "outputs": [
        {
          "internalType": "uint256",
          "name": "",
          "type": "uint256"
        }
      ],
      "stateMutability": "view",
      "type": "function"
    },
    {
      "inputs": [],
      "name": "minimumJrtSrtRatioBuffer",
      "outputs": [
        {
          "internalType": "uint256",
          "name": "",
          "type": "uint256"
        }
      ],
      "stateMutability": "view",
      "type": "function"
    },
    {
      "inputs": [],
      "name": "nav",
      "outputs": [
        {
          "internalType": "uint256",
          "name": "",
          "type": "uint256"
        }
      ],
      "stateMutability": "view",
      "type": "function"
    },
    {
      "inputs": [],
      "name": "onAprChanged",
      "outputs": [],
      "stateMutability": "nonpayable",
      "type": "function"
    },
    {
      "inputs": [],
      "name": "owner",
      "outputs": [
        {
          "internalType": "address",
          "name": "",
          "type": "address"
        }
      ],
      "stateMutability": "view",
      "type": "function"
    },
    {
      "inputs": [],
      "name": "pendingOwner",
      "outputs": [
        {
          "internalType": "address",
          "name": "",
          "type": "address"
        }
      ],
      "stateMutability": "view",
      "type": "function"
    },
    {
      "inputs": [
        {
          "internalType": "uint256",
          "name": "amount",
          "type": "uint256"
        }
      ],
      "name": "reduceReserve",
      "outputs": [],
      "stateMutability": "nonpayable",
      "type": "function"
    },
    {
      "inputs": [],
      "name": "renounceOwnership",
      "outputs": [],
      "stateMutability": "nonpayable",
      "type": "function"
    },
    {
      "inputs": [],
      "name": "reserveBps",
      "outputs": [
        {
          "internalType": "uint256",
          "name": "",
          "type": "uint256"
        }
      ],
      "stateMutability": "view",
      "type": "function"
    },
    {
      "inputs": [],
      "name": "reserveNav",
      "outputs": [
        {
          "internalType": "uint256",
          "name": "",
          "type": "uint256"
        }
      ],
      "stateMutability": "view",
      "type": "function"
    },
    {
      "inputs": [],
      "name": "riskK",
      "outputs": [
        {
          "internalType": "UD60x18",
          "name": "",
          "type": "uint256"
        }
      ],
      "stateMutability": "view",
      "type": "function"
    },
    {
      "inputs": [],
      "name": "riskX",
      "outputs": [
        {
          "internalType": "UD60x18",
          "name": "",
          "type": "uint256"
        }
      ],
      "stateMutability": "view",
      "type": "function"
    },
    {
      "inputs": [],
      "name": "riskY",
      "outputs": [
        {
          "internalType": "UD60x18",
          "name": "",
          "type": "uint256"
        }
      ],
      "stateMutability": "view",
      "type": "function"
    },
    {
      "inputs": [
        {
          "internalType": "address",
          "name": "accessControlManager_",
          "type": "address"
        }
      ],
      "name": "setAccessControlManager",
      "outputs": [],
      "stateMutability": "nonpayable",
      "type": "function"
    },
    {
      "inputs": [
        {
          "internalType": "contract IAprPairFeed",
          "name": "aprPairFeed_",
          "type": "address"
        }
      ],
      "name": "setAprPairFeed",
      "outputs": [],
      "stateMutability": "nonpayable",
      "type": "function"
    },
    {
      "inputs": [
        {
          "internalType": "uint256",
          "name": "ratio",
          "type": "uint256"
        }
      ],
      "name": "setMinimumJrtSrtRatio",
      "outputs": [],
      "stateMutability": "nonpayable",
      "type": "function"
    },
    {
      "inputs": [
        {
          "internalType": "uint256",
          "name": "ratio",
          "type": "uint256"
        }
      ],
      "name": "setMinimumJrtSrtRatioBuffer",
      "outputs": [],
      "stateMutability": "nonpayable",
      "type": "function"
    },
    {
      "inputs": [
        {
          "internalType": "uint256",
          "name": "bps",
          "type": "uint256"
        }
      ],
      "name": "setReserveBps",
      "outputs": [],
      "stateMutability": "nonpayable",
      "type": "function"
    },
    {
      "inputs": [
        {
          "internalType": "UD60x18",
          "name": "riskX_",
          "type": "uint256"
        },
        {
          "internalType": "UD60x18",
          "name": "riskY_",
          "type": "uint256"
        },
        {
          "internalType": "UD60x18",
          "name": "riskK_",
          "type": "uint256"
        }
      ],
      "name": "setRiskParameters",
      "outputs": [],
      "stateMutability": "nonpayable",
      "type": "function"
    },
    {
      "inputs": [],
      "name": "srtNav",
      "outputs": [
        {
          "internalType": "uint256",
          "name": "",
          "type": "uint256"
        }
      ],
      "stateMutability": "view",
      "type": "function"
    },
    {
      "inputs": [],
      "name": "srtTargetIndex",
      "outputs": [
        {
          "internalType": "uint256",
          "name": "",
          "type": "uint256"
        }
      ],
      "stateMutability": "view",
      "type": "function"
    },
    {
      "inputs": [
        {
          "internalType": "uint256",
          "name": "navT1",
          "type": "uint256"
        }
      ],
      "name": "totalAssets",
      "outputs": [
        {
          "internalType": "uint256",
          "name": "jrtNavT1",
          "type": "uint256"
        },
        {
          "internalType": "uint256",
          "name": "srtNavT1",
          "type": "uint256"
        },
        {
          "internalType": "uint256",
          "name": "reserveNavT1",
          "type": "uint256"
        }
      ],
      "stateMutability": "view",
      "type": "function"
    },
    {
      "inputs": [],
      "name": "totalAssetsT0",
      "outputs": [
        {
          "internalType": "uint256",
          "name": "jrtNavT0",
          "type": "uint256"
        },
        {
          "internalType": "uint256",
          "name": "srtNavT0",
          "type": "uint256"
        },
        {
          "internalType": "uint256",
          "name": "reserveNavT0",
          "type": "uint256"
        }
      ],
      "stateMutability": "view",
      "type": "function"
    },
    {
      "inputs": [],
      "name": "totalReserve",
      "outputs": [
        {
          "internalType": "uint256",
          "name": "",
          "type": "uint256"
        }
      ],
      "stateMutability": "view",
      "type": "function"
    },
    {
      "inputs": [
        {
          "internalType": "address",
          "name": "newOwner",
          "type": "address"
        }
      ],
      "name": "transferOwnership",
      "outputs": [],
      "stateMutability": "nonpayable",
      "type": "function"
    },
    {
      "inputs": [
        {
          "internalType": "uint256",
          "name": "navT1",
          "type": "uint256"
        }
      ],
      "name": "updateAccounting",
      "outputs": [],
      "stateMutability": "nonpayable",
      "type": "function"
    },
    {
      "inputs": [
        {
          "internalType": "uint256",
          "name": "jrtAssetsIn",
          "type": "uint256"
        },
        {
          "internalType": "uint256",
          "name": "jrtAssetsOut",
          "type": "uint256"
        },
        {
          "internalType": "uint256",
          "name": "srtAssetsIn",
          "type": "uint256"
        },
        {
          "internalType": "uint256",
          "name": "srtAssetsOut",
          "type": "uint256"
        }
      ],
      "name": "updateBalanceFlow",
      "outputs": [],
      "stateMutability": "nonpayable",
      "type": "function"
    }
  ],
  "bytecode": "0x6080806040523460d2577ff0c57e16840df040f15088dc2f81fe391c3923bec73e23a9662efc9c229c6a005460ff8160401c1660c1576002600160401b03196001600160401b03821601605c575b60405161288a90816100d88239f35b6001600160401b0319166001600160401b039081177ff0c57e16840df040f15088dc2f81fe391c3923bec73e23a9662efc9c229c6a005581527fc7f505b2f371ae2175ee4913f4499e1f2633a7b5936321eed1cdaeb6115181d290602090a13880604d565b63f92ee8a960e01b60005260046000fd5b600080fdfe608080604052600436101561001357600080fd5b60003560e01c908163025163fe1461157757508063053931b51461155957806306d8e7a01461153b57806307da41471461151d5780630e32cb86146114ac5780631fc9857a1461148e57806329b391581461127b578063379e145e1461125d578063384c80a71461118c578063387a723714610f6e578063389254491461116e5780633a3ef88f146110f55780633bc35c21146110c757806341642c9e1461109e5780634c68df671461100e5780635ed4594314610ff05780636319665e14610fd2578063668983ee14610f975780636b1c5dba14610f6e5780636b6216ad14610e75578063715018a614610df45780637338ddcc14610dcb578063737b332d14610d9057806375fa55f114610d72578063798ed8ca14610d4a57806379ba509714610cf857806381cb657e14610b585780638da5cb5b14610b225780638f3cc65714610ae75780639460585714610ac857806394f749ae14610a985780639e1ef4a714610a7a5780639f351c8714610a5c578063b12524ad14610a14578063b54678e61461093f578063bd74817614610828578063c1590cd71461080a578063c5f87257146107cf578063e30c397814610799578063e50d4e7214610762578063e63ab1e914610727578063e9308c25146105e3578063eda83644146105c5578063f2fde38b1461053e578063f8c8765e14610282578063f9411446146102645763fb2fa6281461022457600080fd5b3461025f57600036600319011261025f5760206040517f67944e0027e2f9a2b0c3419bbf4470c579a0ff7f0007c5554d431924b9d578978152f35b600080fd5b3461025f57600036600319011261025f576020606e54604051908152f35b3461025f57608036600319011261025f5761029b611592565b6024356001600160a01b0381169081900361025f576044356001600160a01b0381169081900361025f576064356001600160a01b038116929083900361025f57600080516020612815833981519152549360ff8560401c16159467ffffffffffffffff811680159081610536575b600114908161052c575b159081610523575b506105125767ffffffffffffffff19811660011760008051602061281583398151915255856104e5575b5061034e611d84565b610356611d84565b6001600160a01b038116156104cf5761036e90611b86565b610376611d84565b80156104be576020817fea8b2c76280ebcfc6d3bce461d1446949d91929a61dc9c679740f01fddbda81d926001600160601b0360a01b6000541617600055604051908152a16103c3611d84565b6103cb611d84565b60017f9b779b17422d0df92223018b32b4d1fa46e071723d6817e2486d003becc55f00556001600160601b0360a01b60325416176032556001600160601b0360a01b60645416176064556702c68af0bb140000606f556702c68af0bb140000607055670429d069189e0000607155670de0b6b3a76400006069554260685566b1a2bc2ec5000060725566d529ae9e86000060735561046557005b68ff0000000000000000196000805160206128158339815191525416600080516020612815833981519152557fc7f505b2f371ae2175ee4913f4499e1f2633a7b5936321eed1cdaeb6115181d2602060405160018152a1005b63d92e233d60e01b60005260046000fd5b631e4fbdf760e01b600052600060045260246000fd5b68ffffffffffffffffff191668010000000000000001176000805160206128158339815191525585610345565b63f92ee8a960e01b60005260046000fd5b9050158761031b565b303b159150610313565b879150610309565b3461025f57602036600319011261025f57610557611592565b61055f61191e565b60008051602061283583398151915280546001600160a01b0319166001600160a01b039283169081179091556000805160206127f5833981519152549091167f38d16b8cac22d99fc7c124b9cd0de2d3fa1faef420bfe791d8c362d765e22700600080a3005b3461025f57600036600319011261025f576020606f54604051908152f35b3461025f57602036600319011261025f576004356105ff61191e565b66470de4df8200008111158061071b575b156106e257603254604051638e57fd9d60e01b815290602090829060049082906001600160a01b03165afa9081156106d657600091610684575b7fb08e95705936bddb163725a7fd2a7cd66e0a36e8cd12bcca94b39df92fcef77b6020846106778561193f565b80606a55604051908152a1005b90506020813d6020116106ce575b8161069f602093836115a8565b8101031261025f57517fb08e95705936bddb163725a7fd2a7cd66e0a36e8cd12bcca94b39df92fcef77b61064a565b3d9150610692565b6040513d6000823e3d90fd5b60405162461bcd60e51b8152602060048201526011602482015270496e76616c69644e65775265736572766560781b6044820152606490fd5b50606a54811415610610565b3461025f57600036600319011261025f5760206040517f65d7a28e3265b37a6474929f336521b332c1681b933f6cb9f3376673440d862a8152f35b3461025f57600036600319011261025f57606c54606d54606e546040805193845260208401929092529082015280606081015b0390f35b3461025f57600036600319011261025f57600080516020612835833981519152546040516001600160a01b039091168152602090f35b3461025f57600036600319011261025f5760206040517fcc938097bd07c9f1619d5e95c26b457140e80b889795c7c1cbd51a28005e02ac8152f35b3461025f57600036600319011261025f576020606b54604051908152f35b3461025f57602036600319011261025f57610841611592565b61084961191e565b60405163313ce56760e01b81526001600160a01b039190911690602081600481855afa9081156106d6576000916108fb575b5060ff600c9116036108c8576020817f7d77e6671e7ada28e8882c8f603662b0f32734aed4cd99615e7275cf9fbf018b926001600160601b0360a01b6064541617606455604051908152a1005b60405162461bcd60e51b815260206004820152600b60248201526a125b9d985b1a591199595960aa1b6044820152606490fd5b6020813d602011610937575b81610914602093836115a8565b8101031261093357519060ff82168203610930575060ff61087b565b80fd5b5080fd5b3d9150610907565b3461025f57602036600319011261025f5760043561095b61191e565b68056bc75e2d6310000081116109e05760725481106109a5576020817fa13d48dfe6ae2da42af7c75c0d400a27957bce7f761e350a5cad646125c9d34d92607355604051908152a1005b60405162461bcd60e51b81526020600482015260136024820152722930ba34b7a132b637bba430b932233637b7b960691b6044820152606490fd5b60405162461bcd60e51b815260206004820152600c60248201526b0a4c2e8d2dea8dede90d2ced60a31b6044820152606490fd5b3461025f5760a036600319011261025f57610795610a3f608435606435604435602435600435611703565b604080519384526020840192909252908201529081906060820190565b3461025f57600036600319011261025f576020606d54604051908152f35b3461025f57600036600319011261025f576020606c54604051908152f35b3461025f57602036600319011261025f57600435801515810361025f57610ac06020916116a8565b604051908152f35b3461025f57602036600319011261025f57610795610a3f60043561168a565b3461025f57600036600319011261025f5760206040517f2c85ecd23ea927ba843f342b5bafa7879dfdc212a00052897f68d65c2ee8491b8152f35b3461025f57600036600319011261025f576000805160206127f5833981519152546040516001600160a01b039091168152602090f35b3461025f57600036600319011261025f57600054604051632474521560e21b81527f2c85ecd23ea927ba843f342b5bafa7879dfdc212a00052897f68d65c2ee8491b600482015233602482015290602090829060449082906001600160a01b03165afa9081156106d657600091610cbd575b5015610c8457603254604051638e57fd9d60e01b815290602090829060049082906001600160a01b03165afa80156106d657600090610c50575b610c0e915061193f565b610c16611a42565b9091610c1e57005b7f0a6fc4e02a7ad85d6b3b9164f731b05f5a9e4497acfee6c6ec471a451fe4d5319160409182519182526020820152a1005b506020813d602011610c7c575b81610c6a602093836115a8565b8101031261025f57610c0e9051610c04565b3d9150610c5d565b63e2517d3f60e01b600052336004527f2c85ecd23ea927ba843f342b5bafa7879dfdc212a00052897f68d65c2ee8491b60245260446000fd5b6020813d602011610cf0575b81610cd6602093836115a8565b810103126109335751908115158203610930575081610bca565b3d9150610cc9565b3461025f57600036600319011261025f5760008051602061283583398151915254336001600160a01b0390911603610d3557610d3333611b86565b005b63118cdaa760e01b6000523360045260246000fd5b3461025f57602036600319011261025f57600435801515810361025f57610ac0602091611643565b3461025f57600036600319011261025f576020607254604051908152f35b3461025f57600036600319011261025f5760206040517f97d8f58e0f008a842799f9fb6a4e6212ac93db0249409467f149ba102924e8808152f35b3461025f57600036600319011261025f576000546040516001600160a01b039091168152602090f35b3461025f57600036600319011261025f57610e0d61191e565b60008051602061283583398151915280546001600160a01b03199081169091556000805160206127f5833981519152805491821690556000906001600160a01b03167f8be0079c531659141344cd1fd0a4f28419497f9722a3daafe3b4186f6b6457e08280a3005b3461025f57602036600319011261025f57603254600435906001600160a01b031633819003610f5957602060049160405192838092638e57fd9d60e01b82525afa80156106d657600090610f25575b610ece915061193f565b606e54808211610f0e5790610ee681610ef193611603565b606e55606b54611603565b606b55610efc611a42565b909115610f0557005b610d3391611977565b633c7f295360e11b60005260045260245260446000fd5b506020813d602011610f51575b81610f3f602093836115a8565b8101031261025f57610ece9051610ec4565b3d9150610f32565b63065ece9760e51b6000523360045260246000fd5b3461025f57600036600319011261025f576032546040516001600160a01b039091168152602090f35b3461025f57600036600319011261025f5760206040517fb93bf808defb265d057ca8bf7be1ab7ec2ab3c0b320ee05f77fe3cb0e08fbff48152f35b3461025f57600036600319011261025f576020607154604051908152f35b3461025f57600036600319011261025f576020606754604051908152f35b3461025f57600036600319011261025f57603254604051638e57fd9d60e01b815290602090829060049082906001600160a01b03165afa9081156106d65760009161106a575b602061105f8361168a565b915050604051908152f35b90506020813d602011611096575b81611085602093836115a8565b8101031261025f575161105f611054565b3d9150611078565b3461025f57600036600319011261025f576064546040516001600160a01b039091168152602090f35b3461025f57602036600319011261025f576032546001600160a01b03163303610f5957610d3360043561193f565b3461025f57608036600319011261025f57603254600435906064359060443590602435906001600160a01b03163303610f5957611146611146926111698661114b85611146610ef19a606c546115e0565b611603565b606c5561115e8761114685606d546115e0565b606d55606b546115e0565b6115e0565b3461025f57600036600319011261025f576020606a54604051908152f35b3461025f57602036600319011261025f576004356111a861191e565b607354811161122257655af3107a400081106111ef576020817ffef268331ac7133f71f9fad2b4fa27573656ecd055c3717aecfa52726ffefb2092607255604051908152a1005b60405162461bcd60e51b815260206004820152600b60248201526a526174696f546f6f4c6f7760a81b6044820152606490fd5b60405162461bcd60e51b81526020600482015260136024820152722930ba34b7a0b137bb32a9b7b33a233637b7b960691b6044820152606490fd5b3461025f57600036600319011261025f576020606854604051908152f35b3461025f57606036600319011261025f57600435602435604435916044602060018060a01b036000541660405192838092632474521560e21b82527fb93bf808defb265d057ca8bf7be1ab7ec2ab3c0b320ee05f77fe3cb0e08fbff460048301523360248301525afa9081156106d657600091611453575b501561141a57603254604051638e57fd9d60e01b815290602090829060049082906001600160a01b03165afa80156106d6576000906113e6575b611337915061193f565b80606f558160705582607155670de0b6b3a764000061136d611367611361670de0b6b3a764000090565b8561275c565b836115e0565b10156113b8577fdd210e02f5b4a6f3edf967c92df5966f8111f6255adef07b8cd55554033056d19260609260405192835260208301526040820152a1610d3360655460665490611977565b60405162461bcd60e51b81526020600482015260066024820152653e3d3130302560d01b6044820152606490fd5b506020813d602011611412575b81611400602093836115a8565b8101031261025f57611337905161132d565b3d91506113f3565b63e2517d3f60e01b600052336004527fb93bf808defb265d057ca8bf7be1ab7ec2ab3c0b320ee05f77fe3cb0e08fbff460245260446000fd5b6020813d602011611486575b8161146c602093836115a8565b8101031261093357519081151582036109305750846112f3565b3d915061145f565b3461025f57600036600319011261025f576020607054604051908152f35b3461025f57602036600319011261025f576114c5611592565b6114cd61191e565b6001600160a01b031680156104be576020817fea8b2c76280ebcfc6d3bce461d1446949d91929a61dc9c679740f01fddbda81d926001600160601b0360a01b6000541617600055604051908152a1005b3461025f57600036600319011261025f576020606954604051908152f35b3461025f57600036600319011261025f576020606554604051908152f35b3461025f57600036600319011261025f576020606654604051908152f35b3461025f57600036600319011261025f576020906073548152f35b600435906001600160a01b038216820361025f57565b90601f8019910116810190811067ffffffffffffffff8211176115ca57604052565b634e487b7160e01b600052604160045260246000fd5b919082018092116115ed57565b634e487b7160e01b600052601160045260246000fd5b919082039182116115ed57565b818102929181159184041417156115ed57565b811561162d570490565b634e487b7160e01b600052601260045260246000fd5b61168457606c54670de0b6b3a7640000810290808204670de0b6b3a764000014901517156115ed5760735461167791611623565b606d548103908111150290565b60001990565b6116a190606b54606c54606d5490606e5492611703565b9192909190565b6116b257606d5490565b670de0b6b3a76400006116ca606d5460725490611610565b04606c54908103908111150290565b818103929160001380158285131691841216176115ed57565b600160ff1b81146115ed5760000390565b9492909394841580611916575b8061190d575b6119005761172490866116d9565b60008112611860575b611754919060008180151580611855575b611828575b5061174e91926115e0565b946115e0565b61177a82611775611763611bf4565b6117706069549184611610565b611623565b6116d9565b600081126117f6575b906117ac6117b292670de0b6b3a763ffff19830183811115029081808210911802188092611603565b926115e0565b936117c18461116987856115e0565b81036117cd5750929190565b8385608493604051936359862cf760e11b85526004850152602484015260448301526064820152fd5b6117b2919261181961180a61181f936116f2565b80831081841802188092611603565b936115e0565b90506000611783565b905061174e915061184f670de0b6b3a7640000611847606a5484611610565b048092611603565b91611743565b50606a54151561173e565b61186d90949192946116f2565b906118818282108383180283188093611603565b6118948185108286180282188092611603565b928387108488180284189384036118ce57611754936118b96118bf926118c595611603565b97611603565b93611603565b9050600061172d565b60405162461bcd60e51b815260206004820152600a60248201526904c6f73733e6e617654360b41b6044820152606490fd5b5060009485945092915050565b50851515611716565b508215611710565b6000805160206127f5833981519152546001600160a01b03163303610d3557565b61195681606b54606c54606d5490606e5492611703565b92611962929192611bf4565b60695542606855606b55606c55606d55606e55565b90606d5480156000146119e357506119ae60005b6119a8606f54916119a26070549160715490611c0c565b9061275c565b906115e0565b670de0b6b3a764000003670de0b6b3a764000081116115ed576119d09161275c565b8082106119dd5750606755565b60675550565b670de0b6b3a7640000810290808204670de0b6b3a7640000036115ed576119ae91611a14611a1a92606c54906115e0565b90611623565b61198b565b51908160070b820361025f57565b519067ffffffffffffffff8216820361025f57565b6064546001600160a01b03168015611b7a57608060049160405192838092633fabe5a360e21b82525afa9081156106d657600091611ad8575b5090611a9a6020611a8f845160070b611cdc565b93015160070b611cdc565b906065548314801590611acc575b611ab3576000929190565b8260655581606655611ac58284611977565b6001929190565b50606654821415611aa8565b6080813d608011611b72575b81611af1608093836115a8565b810103126109335760405191608083019083821067ffffffffffffffff831117611b5e5750611b5391606091604052611b2981611a1f565b8452611b3760208201611a1f565b6020850152611b4860408201611a2d565b604085015201611a2d565b606082015238611a7b565b634e487b7160e01b81526041600452602490fd5b3d9150611ae4565b50606554606654600092565b60008051602061283583398151915280546001600160a01b03199081169091556000805160206127f583398151915280549182166001600160a01b0393841690811790915591167f8be0079c531659141344cd1fd0a4f28419497f9722a3daafe3b4186f6b6457e0600080a3565b611c0960695460685490606754914291611d2b565b90565b80158015611c2b575050611c2657670de0b6b3a764000090565b600090565b670de0b6b3a76400008214611ccd5782611c4e57505050670de0b6b3a764000090565b670de0b6b3a76400008314611cc757670de0b6b3a7640000821115611c885750611c0991611c7e611c8392611db2565b61275c565b611eba565b61162d57611cad91611c7e611c83926ec097ce7bc90715b34b9f100000000004611db2565b801561162d576ec097ce7bc90715b34b9f10000000000490565b50905090565b505050670de0b6b3a764000090565b60008160070b12611d23575b6501d1a94a20008160070b13611d16575b60070b620f4240810290808204620f424014901517156115ed5790565b506501d1a94a2000611cf9565b506000611ce8565b929190611d3791611603565b908115611d7f576301e1338091611d4d91611610565b04670de0b6b3a7640000019081670de0b6b3a7640000116115ed57670de0b6b3a764000091611d7b91611610565b0490565b505090565b60ff6000805160206128158339815191525460401c1615611da157565b631afcd79f60e31b60005260046000fd5b670de0b6b3a76400008110611ea657670de0b6b3a764000081046fffffffffffffffffffffffffffffffff811160071b90811c67ffffffffffffffff811160061b90811c63ffffffff811160051b90811c61ffff811160041b90811c9060ff821160031b91821c92600f841160021b93841c94600160038711811b96871c11961717171717171790670de0b6b3a76400008202911c670de0b6b3a76400008114611ea2576706f05b59d3b2000090815b611e6b57505090565b80670de0b6b3a764000091020490671bc16d674ec80000821015611e94575b60011c9081611e62565b809192019160011c90611e8a565b5090565b63036d32ef60e41b60005260045260246000fd5b680a688906bd8affffff811161274857670de0b6b3a76400009060401b04600160bf1b67ff00000000000000821661261f575b670de0b6b3a76400009066ff000000000000831661250f575b65ff00000000008316612407575b64ff000000008316612307575b63ff000000831661220f575b62ff0000831661211f575b61ff008316612037575b60ff8316611f57575b029060401c60bf031c90565b60808316612024575b60408316612011575b60208316611ffe575b60108316611feb575b60088316611fd8575b60048316611fc5575b60028316611fb2575b6001831615611f4b57680100000000000000010260401c611f4b565b680100000000000000010260401c611f96565b680100000000000000030260401c611f8d565b680100000000000000060260401c611f84565b6801000000000000000b0260401c611f7b565b680100000000000000160260401c611f72565b6801000000000000002c0260401c611f69565b680100000000000000590260401c611f60565b618000831661210c575b61400083166120f9575b61200083166120e6575b61100083166120d3575b61080083166120c0575b61040083166120ad575b610200831661209a575b610100831615611f4257680100000000000000b10260401c611f42565b680100000000000001630260401c61207d565b680100000000000002c60260401c612073565b6801000000000000058c0260401c612069565b68010000000000000b170260401c61205f565b6801000000000000162e0260401c612055565b68010000000000002c5d0260401c61204b565b680100000000000058b90260401c612041565b6280000083166121fc575b6240000083166121e9575b6220000083166121d6575b6210000083166121c3575b6208000083166121b0575b62040000831661219d575b62020000831661218a575b62010000831615611f38576801000000000000b1720260401c611f38565b680100000000000162e40260401c61216c565b6801000000000002c5c80260401c612161565b68010000000000058b910260401c612156565b680100000000000b17210260401c61214b565b68010000000000162e430260401c612140565b680100000000002c5c860260401c612135565b6801000000000058b90c0260401c61212a565b638000000083166122f4575b634000000083166122e1575b632000000083166122ce575b631000000083166122bb575b630800000083166122a8575b63040000008316612295575b63020000008316612282575b6301000000831615611f2d5768010000000000b172180260401c611f2d565b6801000000000162e4300260401c612263565b68010000000002c5c8600260401c612257565b680100000000058b90c00260401c61224b565b6801000000000b17217f0260401c61223f565b680100000000162e42ff0260401c612233565b6801000000002c5c85fe0260401c612227565b68010000000058b90bfc0260401c61221b565b64800000000083166123f4575b64400000000083166123e1575b64200000000083166123ce575b64100000000083166123bb575b64080000000083166123a8575b6404000000008316612395575b6402000000008316612382575b640100000000831615611f2157680100000000b17217f80260401c611f21565b68010000000162e42ff10260401c612362565b680100000002c5c85fe30260401c612355565b6801000000058b90bfce0260401c612348565b68010000000b17217fbb0260401c61233b565b6801000000162e42fff00260401c61232e565b68010000002c5c8601cc0260401c612321565b680100000058b90c0b490260401c612314565b6580000000000083166124fc575b6540000000000083166124e9575b6520000000000083166124d6575b6510000000000083166124c3575b6508000000000083166124b0575b65040000000000831661249d575b65020000000000831661248a575b65010000000000831615611f14576801000000b1721835510260401c611f14565b680100000162e430e5a20260401c612469565b6801000002c5c863b73f0260401c61245b565b68010000058b90cf1e6e0260401c61244d565b680100000b1721bcfc9a0260401c61243f565b68010000162e43f4f8310260401c612431565b680100002c5c89d5ec6d0260401c612423565b6801000058b91b5bc9ae0260401c612415565b6680000000000000831661260c575b664000000000000083166125f9575b662000000000000083166125e6575b661000000000000083166125d3575b660800000000000083166125c0575b660400000000000083166125ad575b6602000000000000831661259a575b6601000000000000831615611f065768010000b17255775c040260401c611f06565b6801000162e525ee05470260401c612578565b68010002c5cc37da94920260401c612569565b680100058ba01fb9f96d0260401c61255a565b6801000b175effdc76ba0260401c61254b565b680100162f3904051fa10260401c61253c565b6801002c605e2e8cec500260401c61252d565b68010058c86da1c09ea20260401c61251e565b6780000000000000008216612735575b670de0b6b3a7640000906740000000000000008316612722575b672000000000000000831661270f575b67100000000000000083166126fc575b67080000000000000083166126e9575b67040000000000000083166126d6575b67020000000000000083166126c3575b67010000000000000083166126b0575b9050611eed565b680100b1afa5abcbed610260401c6126a9565b68010163da9fb33356d80260401c612699565b680102c9a3e778060ee70260401c612689565b6801059b0d31585743ae0260401c612679565b68010b5586cf9890f62a0260401c612669565b6801172b83c7d517adce0260401c612659565b6801306fe0a31b7152df0260401c612649565b5068016a09e667f3bcc909607f1b61262f565b63b3b6ba1f60e01b60005260045260246000fd5b909190600019838209838202918280831092039180830392146127e357670de0b6b3a76400008210156127ca577faccb18165bd6fe31ae1cf318dc5b51eee0e1ba569b88cd74c1773b91fac106699394670de0b6b3a7640000910990828211900360ee1b910360121c170290565b8490635173648d60e01b60005260045260245260446000fd5b5050670de0b6b3a76400009004915056fe9016d09d72d40fdae2fd8ceac6b6234c7706214fd39c1cd1e609a0528c199300f0c57e16840df040f15088dc2f81fe391c3923bec73e23a9662efc9c229c6a00237e158222e3e6968b72b9db0d8043aacf074ad9f650f0d1606b4d82ee432c00a26469706673582212209ca35b5f3d81d8899b10cc3a4508f65ee003e5dfde9a859c8b0f4cd2967fcd4164736f6c634300081c0033",
  "linkReferences": {},
  "deployedLinkReferences": {}
}