{
  "_format": "hh-sol-artifact-1",
  "contractName": "sUSDeCooldownRequestImpl",
  "sourceName": "contracts/tranches/strategies/ethena/sUSDeCooldownRequestImpl.sol",
  "abi": [
    {
      "inputs": [
        {
          "internalType": "contract IsUSDe",
          "name": "sUSDe_",
          "type": "address"
        }
      ],
      "stateMutability": "nonpayable",
      "type": "constructor"
    },
    {
      "inputs": [],
      "name": "HasActiveRequest",
      "type": "error"
    },
    {
      "inputs": [],
      "name": "InvalidInitialization",
      "type": "error"
    },
    {
      "inputs": [],
      "name": "NotInitializing",
      "type": "error"
    },
    {
      "anonymous": false,
      "inputs": [
        {
          "indexed": false,
          "internalType": "uint64",
          "name": "version",
          "type": "uint64"
        }
      ],
      "name": "Initialized",
      "type": "event"
    },
    {
      "inputs": [],
      "name": "finalize",
      "outputs": [
        {
          "internalType": "uint256",
          "name": "amount",
          "type": "uint256"
        }
      ],
      "stateMutability": "nonpayable",
      "type": "function"
    },
    {
      "inputs": [],
      "name": "getPendingAmount",
      "outputs": [
        {
          "internalType": "uint256",
          "name": "amount",
          "type": "uint256"
        }
      ],
      "stateMutability": "view",
      "type": "function"
    },
    {
      "inputs": [],
      "name": "handler",
      "outputs": [
        {
          "internalType": "address",
          "name": "",
          "type": "address"
        }
      ],
      "stateMutability": "view",
      "type": "function"
    },
    {
      "inputs": [
        {
          "internalType": "address",
          "name": "handler_",
          "type": "address"
        },
        {
          "internalType": "address",
          "name": "user_",
          "type": "address"
        }
      ],
      "name": "initialize",
      "outputs": [],
      "stateMutability": "nonpayable",
      "type": "function"
    },
    {
      "inputs": [],
      "name": "isCooldownActive",
      "outputs": [
        {
          "internalType": "bool",
          "name": "",
          "type": "bool"
        }
      ],
      "stateMutability": "view",
      "type": "function"
    },
    {
      "inputs": [],
      "name": "pending",
      "outputs": [
        {
          "internalType": "bool",
          "name": "",
          "type": "bool"
        }
      ],
      "stateMutability": "view",
      "type": "function"
    },
    {
      "inputs": [],
      "name": "receiver",
      "outputs": [
        {
          "internalType": "address",
          "name": "",
          "type": "address"
        }
      ],
      "stateMutability": "view",
      "type": "function"
    },
    {
      "inputs": [
        {
          "internalType": "address",
          "name": "receiver_",
          "type": "address"
        }
      ],
      "name": "request",
      "outputs": [
        {
          "internalType": "uint256",
          "name": "unlockAt",
          "type": "uint256"
        }
      ],
      "stateMutability": "nonpayable",
      "type": "function"
    },
    {
      "inputs": [],
      "name": "request",
      "outputs": [
        {
          "internalType": "uint256",
          "name": "unlockAt",
          "type": "uint256"
        }
      ],
      "stateMutability": "nonpayable",
      "type": "function"
    },
    {
      "inputs": [],
      "name": "requestedAt",
      "outputs": [
        {
          "internalType": "uint256",
          "name": "",
          "type": "uint256"
        }
      ],
      "stateMutability": "view",
      "type": "function"
    },
    {
      "inputs": [],
      "name": "sUSDe",
      "outputs": [
        {
          "internalType": "contract IsUSDe",
          "name": "",
          "type": "address"
        }
      ],
      "stateMutability": "view",
      "type": "function"
    },
    {
      "inputs": [],
      "name": "user",
      "outputs": [
        {
          "internalType": "address",
          "name": "",
          "type": "address"
        }
      ],
      "stateMutability": "view",
      "type": "function"
    }
  ],
  "bytecode": "0x60a03461014657601f610aee38819003918201601f19168301916001600160401b0383118484101761014b5780849260209460405283398101031261014657516001600160a01b0381168103610146577ff0c57e16840df040f15088dc2f81fe391c3923bec73e23a9662efc9c229c6a005460ff8160401c16610135576002600160401b03196001600160401b038216016100cc575b5060805260405161098c9081610162823960805181818160f7015281816101bc01528181610293015281816105e401526107560152f35b6001600160401b0319166001600160401b039081177ff0c57e16840df040f15088dc2f81fe391c3923bec73e23a9662efc9c229c6a00556040519081527fc7f505b2f371ae2175ee4913f4499e1f2633a7b5936321eed1cdaeb6115181d290602090a138610095565b63f92ee8a960e01b60005260046000fd5b600080fd5b634e487b7160e01b600052604160045260246000fdfe6080604052600436101561001257600080fd5b6000803560e01c80631c4c78431461055757806327c78c4214610533578063338cdca114610502578063485cc955146103835780634bb278f3146102595780634f8632ba146102305780637b53d17b14610212578063c80916d4146101eb578063e0d05d39146101a6578063e20ccec314610183578063e81ab3ff146100cc5763f7260d3e146100a157600080fd5b346100c957806003193601126100c9576002546040516001600160a01b039091168152602090f35b80fd5b50346100c957806003193601126100c95760408051629907f160e11b815230600482015290816024817f00000000000000000000000000000000000000000000000000000000000000006001600160a01b03165afa918215610177576020926001600160981b0392849291610148575b50015116604051908152f35b61016a915060403d604011610170575b6101628183610597565b8101906106b5565b3861013c565b503d610158565b604051903d90823e3d90fd5b50346100c957806003193601126100c957602060ff600454166040519015158152f35b50346100c957806003193601126100c9576040517f00000000000000000000000000000000000000000000000000000000000000006001600160a01b03168152602090f35b50346100c957806003193601126100c957546040516001600160a01b039091168152602090f35b50346100c957806003193601126100c9576020600354604051908152f35b50346100c957806003193601126100c9576001546040516001600160a01b039091168152602090f35b50346100c957806003193601126100c95761027e60018060a01b038254163314610679565b60408051629907f160e11b81523060048201527f00000000000000000000000000000000000000000000000000000000000000006001600160a01b03169183919081602481865afa908115610378576001600160981b03916020918491610359575b500151169160018060a01b036002541690803b156103555760248392604051968793849263f2888dbb60e01b845260048401525af192831561034857602093610338575b505060ff1960045416600455604051908152f35b8161034291610597565b38610324565b50604051903d90823e3d90fd5b8280fd5b610372915060403d604011610170576101628183610597565b386102e0565b6040513d84823e3d90fd5b50346100c95760403660031901126100c95761039d61057c565b6024356001600160a01b038116919082900361035557600080516020610937833981519152549160ff8360401c16159267ffffffffffffffff8116801590816104fa575b60011490816104f0575b1590816104e7575b506104d85767ffffffffffffffff19811660011760008051602061093783398151915255836104ab575b506001600160601b0360a01b600154161760015560018060a01b03166001600160601b0360a01b8354161782556104515780f35b68ff0000000000000000196000805160206109378339815191525416600080516020610937833981519152557fc7f505b2f371ae2175ee4913f4499e1f2633a7b5936321eed1cdaeb6115181d2602060405160018152a180f35b68ffffffffffffffffff19166801000000000000000117600080516020610937833981519152553861041d565b63f92ee8a960e01b8552600485fd5b905015386103f3565b303b1591506103eb565b8591506103e1565b50346100c957806003193601126100c95760015460209061052b906001600160a01b031661072c565b604051908152f35b50346100c95760203660031901126100c957602061052b61055261057c565b61072c565b50346100c957806003193601126100c95760206105726105cf565b6040519015158152f35b600435906001600160a01b038216820361059257565b600080fd5b90601f8019910116810190811067ffffffffffffffff8211176105b957604052565b634e487b7160e01b600052604160045260246000fd5b604051633526931560e01b81526020816004817f00000000000000000000000000000000000000000000000000000000000000006001600160a01b03165afa90811561066d57600091610628575b5062ffffff16151590565b6020813d602011610665575b8161064160209383610597565b8101031261066157519062ffffff821682036100c9575062ffffff61061d565b5080fd5b3d9150610634565b6040513d6000823e3d90fd5b1561068057565b60405162461bcd60e51b815260206004820152600d60248201526c139bdd105d5d1a1bdc9a5e9959609a1b6044820152606490fd5b90816040910312610592576000604051916040830183811067ffffffffffffffff8211176107185760405280516cffffffffffffffffffffffffff8116810361035557835260200151906001600160981b03821682036100c95750602082015290565b634e487b7160e01b83526041600452602483fd5b61074160018060a01b03600054163314610679565b6040516370a0823160e01b81523060048201527f00000000000000000000000000000000000000000000000000000000000000006001600160a01b031690602081602481855afa90811561066d57600091610904575b506107a06105cf565b1561088d5760405190639343d9e160e01b825260048201526020816024816000865af1801561066d5761085a575b506040906024924260035560018060a01b03166001600160601b0360a01b6002541617600255600160ff196004541617600455815192838092629907f160e11b82523060048301525afa801561066d576cffffffffffffffffffffffffff9160009161083b575b50511690565b610854915060403d604011610170576101628183610597565b38610835565b906020823d602011610885575b8161087460209383610597565b8101031261059257905060406107ce565b3d9150610867565b604051635d043b2960e11b815260048101919091526001600160a01b039092166024830152306044830152602090829060649082906000905af1801561066d576108d657504290565b6020813d6020116108fc575b816108ef60209383610597565b8101031261059257504290565b3d91506108e2565b906020823d60201161092e575b8161091e60209383610597565b810103126100c957505138610797565b3d915061091156fef0c57e16840df040f15088dc2f81fe391c3923bec73e23a9662efc9c229c6a00a2646970667358221220887b6d6bf63378a2a62294aaf383106094562edb036cbd04976a45da00e1a3aa64736f6c634300081c0033",
  "linkReferences": {},
  "deployedLinkReferences": {}
}