{
  "_format": "hh-sol-artifact-1",
  "contractName": "pUSDeDepositor",
  "sourceName": "contracts/predeposit/pUSDeDepositor.sol",
  "abi": [
    {
      "inputs": [],
      "stateMutability": "nonpayable",
      "type": "constructor"
    },
    {
      "inputs": [
        {
          "internalType": "address",
          "name": "asset",
          "type": "address"
        }
      ],
      "name": "InvalidAsset",
      "type": "error"
    },
    {
      "inputs": [],
      "name": "InvalidInitialization",
      "type": "error"
    },
    {
      "inputs": [],
      "name": "NotInitializing",
      "type": "error"
    },
    {
      "inputs": [
        {
          "internalType": "address",
          "name": "owner",
          "type": "address"
        }
      ],
      "name": "OwnableInvalidOwner",
      "type": "error"
    },
    {
      "inputs": [
        {
          "internalType": "address",
          "name": "account",
          "type": "address"
        }
      ],
      "name": "OwnableUnauthorizedAccount",
      "type": "error"
    },
    {
      "inputs": [
        {
          "internalType": "address",
          "name": "token",
          "type": "address"
        }
      ],
      "name": "SafeERC20FailedOperation",
      "type": "error"
    },
    {
      "anonymous": false,
      "inputs": [
        {
          "indexed": false,
          "internalType": "uint64",
          "name": "version",
          "type": "uint64"
        }
      ],
      "name": "Initialized",
      "type": "event"
    },
    {
      "anonymous": false,
      "inputs": [
        {
          "indexed": true,
          "internalType": "address",
          "name": "previousOwner",
          "type": "address"
        },
        {
          "indexed": true,
          "internalType": "address",
          "name": "newOwner",
          "type": "address"
        }
      ],
      "name": "OwnershipTransferred",
      "type": "event"
    },
    {
      "anonymous": false,
      "inputs": [
        {
          "indexed": true,
          "internalType": "address",
          "name": "token",
          "type": "address"
        }
      ],
      "name": "SwapInfoChanged",
      "type": "event"
    },
    {
      "inputs": [],
      "name": "USDe",
      "outputs": [
        {
          "internalType": "contract IERC20",
          "name": "",
          "type": "address"
        }
      ],
      "stateMutability": "view",
      "type": "function"
    },
    {
      "inputs": [
        {
          "internalType": "contract IERC20",
          "name": "asset",
          "type": "address"
        },
        {
          "internalType": "uint256",
          "name": "amount",
          "type": "uint256"
        },
        {
          "internalType": "address",
          "name": "receiver",
          "type": "address"
        }
      ],
      "name": "deposit",
      "outputs": [
        {
          "internalType": "uint256",
          "name": "",
          "type": "uint256"
        }
      ],
      "stateMutability": "nonpayable",
      "type": "function"
    },
    {
      "inputs": [
        {
          "internalType": "contract IERC20",
          "name": "asset",
          "type": "address"
        },
        {
          "internalType": "uint256",
          "name": "amount",
          "type": "uint256"
        },
        {
          "internalType": "address",
          "name": "receiver",
          "type": "address"
        },
        {
          "components": [
            {
              "internalType": "uint256",
              "name": "swapDeadline",
              "type": "uint256"
            },
            {
              "internalType": "uint256",
              "name": "swapAmountOutMinimum",
              "type": "uint256"
            }
          ],
          "internalType": "struct pUSDeDepositor.TDepositParams",
          "name": "params",
          "type": "tuple"
        }
      ],
      "name": "deposit",
      "outputs": [
        {
          "internalType": "uint256",
          "name": "",
          "type": "uint256"
        }
      ],
      "stateMutability": "nonpayable",
      "type": "function"
    },
    {
      "inputs": [
        {
          "internalType": "address",
          "name": "owner_",
          "type": "address"
        },
        {
          "internalType": "contract IERC20",
          "name": "USDe_",
          "type": "address"
        },
        {
          "internalType": "contract IERC4626",
          "name": "sUSDe_",
          "type": "address"
        },
        {
          "internalType": "contract IERC4626",
          "name": "pUSDe_",
          "type": "address"
        }
      ],
      "name": "initialize",
      "outputs": [],
      "stateMutability": "nonpayable",
      "type": "function"
    },
    {
      "inputs": [],
      "name": "owner",
      "outputs": [
        {
          "internalType": "address",
          "name": "",
          "type": "address"
        }
      ],
      "stateMutability": "view",
      "type": "function"
    },
    {
      "inputs": [],
      "name": "pUSDe",
      "outputs": [
        {
          "internalType": "contract IERC4626",
          "name": "",
          "type": "address"
        }
      ],
      "stateMutability": "view",
      "type": "function"
    },
    {
      "inputs": [],
      "name": "renounceOwnership",
      "outputs": [],
      "stateMutability": "nonpayable",
      "type": "function"
    },
    {
      "inputs": [],
      "name": "sUSDe",
      "outputs": [
        {
          "internalType": "contract IERC4626",
          "name": "",
          "type": "address"
        }
      ],
      "stateMutability": "view",
      "type": "function"
    },
    {
      "inputs": [
        {
          "internalType": "address",
          "name": "newOwner",
          "type": "address"
        }
      ],
      "name": "transferOwnership",
      "outputs": [],
      "stateMutability": "nonpayable",
      "type": "function"
    },
    {
      "inputs": [
        {
          "internalType": "contract IERC20",
          "name": "token",
          "type": "address"
        },
        {
          "components": [
            {
              "internalType": "address",
              "name": "router",
              "type": "address"
            },
            {
              "internalType": "uint24",
              "name": "fee",
              "type": "uint24"
            },
            {
              "internalType": "uint24",
              "name": "minimumReturnPercentage",
              "type": "uint24"
            }
          ],
          "internalType": "struct pUSDeDepositor.TAutoSwap",
          "name": "swapInfo",
          "type": "tuple"
        }
      ],
      "name": "updateSwapInfo",
      "outputs": [],
      "stateMutability": "nonpayable",
      "type": "function"
    }
  ],
  "bytecode": "0x6080604052348015600f57600080fd5b506016601a565b60ca565b7ff0c57e16840df040f15088dc2f81fe391c3923bec73e23a9662efc9c229c6a00805468010000000000000000900460ff161560695760405163f92ee8a960e01b815260040160405180910390fd5b80546001600160401b039081161460c75780546001600160401b0319166001600160401b0390811782556040519081527fc7f505b2f371ae2175ee4913f4499e1f2633a7b5936321eed1cdaeb6115181d29060200160405180910390a15b50565b611295806100d96000396000f3fe608060405234801561001057600080fd5b506004361061009e5760003560e01c8063e0d05d3911610066578063e0d05d391461012f578063f2fde38b14610142578063f45346dc14610155578063f8c8765e14610176578063fd7efb381461018957600080fd5b8063715018a6146100a357806372ea3fca146100ad5780638da5cb5b146100c057806396298a1914610109578063d16095021461011c575b600080fd5b6100ab61019c565b005b6100ab6100bb366004610ea3565b6101b0565b7f9016d09d72d40fdae2fd8ceac6b6234c7706214fd39c1cd1e609a0528c199300546001600160a01b03165b6040516001600160a01b0390911681526020015b60405180910390f35b6002546100ec906001600160a01b031681565b6000546100ec906001600160a01b031681565b6001546100ec906001600160a01b031681565b6100ab610150366004610ee4565b6103b6565b610168610163366004610f08565b6103f4565b604051908152602001610100565b6100ab610184366004610f4a565b610420565b610168610197366004610fa6565b61055c565b6101a4610581565b6101ae60006105dc565b565b6101b8610581565b6001600160a01b0382166102025760405162461bcd60e51b815260206004820152600c60248201526b5a45524f5f4144445245535360a01b60448201526064015b60405180910390fd5b60006102116020830183610ee4565b6001600160a01b0316036102565760405162461bcd60e51b815260206004820152600c60248201526b5a45524f5f4144445245535360a01b60448201526064016101f9565b6102666040820160208301611012565b62ffffff1660641115801561029157506127106102896040830160208401611012565b62ffffff1611155b6102d05760405162461bcd60e51b815260206004820152601060248201526f24a72b20a624a22fa322a2afaa24a2a960811b60448201526064016101f9565b6102e06060820160408301611012565b62ffffff166103841115801561030c57506103e86103046060830160408401611012565b62ffffff1611155b6103585760405162461bcd60e51b815260206004820152601960248201527f494e56414c49445f52455455524e5f50455243454e544147450000000000000060448201526064016101f9565b6001600160a01b0382166000908152600360205260409020819061037c828261102f565b50506040516001600160a01b038316907fae16a60062bfc6045e207bea236f2c6576ec256e9f5e103b4abb6875e33d13bc90600090a25050565b6103be610581565b6001600160a01b0381166103e857604051631e4fbdf760e01b8152600060048201526024016101f9565b6103f1816105dc565b50565b6000610418848484604051806040016040528060008152602001600081525061064d565b949350505050565b600061042a610772565b805490915060ff600160401b820416159067ffffffffffffffff166000811580156104525750825b905060008267ffffffffffffffff16600114801561046f5750303b155b90508115801561047d575080155b1561049b5760405163f92ee8a960e01b815260040160405180910390fd5b845467ffffffffffffffff1916600117855583156104c557845460ff60401b1916600160401b1785555b6104ce8961079d565b600080546001600160a01b03808b166001600160a01b031992831617909255600180548a84169083161790556002805492891692909116919091179055831561055157845460ff60401b19168555604051600181527fc7f505b2f371ae2175ee4913f4499e1f2633a7b5936321eed1cdaeb6115181d29060200160405180910390a15b505050505050505050565b6000610578858585610573368790038701876110bb565b61064d565b95945050505050565b336105b37f9016d09d72d40fdae2fd8ceac6b6234c7706214fd39c1cd1e609a0528c199300546001600160a01b031690565b6001600160a01b0316146101ae5760405163118cdaa760e01b81523360048201526024016101f9565b7f9016d09d72d40fdae2fd8ceac6b6234c7706214fd39c1cd1e609a0528c19930080546001600160a01b031981166001600160a01b03848116918217845560405192169182907f8be0079c531659141344cd1fd0a4f28419497f9722a3daafe3b4186f6b6457e090600090a3505050565b60015460009033906001600160a01b039081169087160361067b576106738186866107a5565b915050610418565b6000546001600160a01b039081169087160361069c57610673818686610923565b6001600160a01b0386811660009081526003602052604090205416156106c9576106738187878787610a18565b6002546001600160a01b03166106e187833089610c97565b6106ec878288610d04565b604051633d14d1b760e21b81526001600160a01b03888116600483015260248201889052868116604483015282169063f45346dc906064016020604051808303816000875af1158015610743573d6000803e3d6000fd5b505050506040513d601f19601f82011682018060405250810190610767919061111d565b979650505050505050565b6000807ff0c57e16840df040f15088dc2f81fe391c3923bec73e23a9662efc9c229c6a005b92915050565b6103be610d94565b60008083116107e85760405162461bcd60e51b815260206004820152600f60248201526e4465706f736974206973207a65726f60881b60448201526064016101f9565b600154600254604080516302ad6a1760e11b815290516001600160a01b039384169390921691600091839163055ad42e916004808201926020929091908290030181865afa15801561083e573d6000803e3d6000fd5b505050506040513d601f19601f820116820180604052508101906108629190611136565b9050600181600181111561087857610878611157565b146108b55760405162461bcd60e51b815260206004820152600d60248201526c494e56414c49445f504841534560981b60448201526064016101f9565b6108c183883089610c97565b6108cc838388610d04565b604051633d14d1b760e21b81526001600160a01b03848116600483015260248201889052868116604483015283169063f45346dc906064016020604051808303816000875af1158015610743573d6000803e3d6000fd5b60008083116109665760405162461bcd60e51b815260206004820152600f60248201526e4465706f736974206973207a65726f60881b60448201526064016101f9565b6000546002546001600160a01b039182169190811690861630146109905761099082873088610c97565b61099b828287610d04565b604051636e553f6560e01b8152600481018690526001600160a01b038581166024830152821690636e553f65906044016020604051808303816000875af11580156109ea573d6000803e3d6000fd5b505050506040513d601f19601f82011682018060405250810190610a0e919061111d565b9695505050505050565b6000610a2685873087610c97565b6001600160a01b038086166000908152600360209081526040918290208251606081018452905493841680825262ffffff600160a01b8604811693830193909352600160b81b9094049091169181019190915290610a8690879087610d04565b60208301516000819003610ab9576103e8826040015162ffffff1687610aac9190611183565b610ab6919061119a565b90505b83516000819003610ad257610acf42600f6111bc565b90505b600080546040516370a0823160e01b81523060048201526001600160a01b03909116919082906370a0823190602401602060405180830381865afa158015610b1e573d6000803e3d6000fd5b505050506040513d601f19601f82011682018060405250810190610b42919061111d565b60408051610100810182526001600160a01b03808e16825285811660208084019190915289015162ffffff16828401523060608301526080820187905260a082018d905260c08201889052600060e08301528851925163414bf38960e01b8152939450909291169063414bf38990610bbe9084906004016111cf565b6020604051808303816000875af1158015610bdd573d6000803e3d6000fd5b505050506040513d601f19601f82011682018060405250810190610c01919061111d565b506040516370a0823160e01b815230600482015260009083906001600160a01b038616906370a0823190602401602060405180830381865afa158015610c4b573d6000803e3d6000fd5b505050506040513d601f19601f82011682018060405250810190610c6f919061111d565b610c79919061124c565b9050610c8630828c610923565b9d9c50505050505050505050505050565b6040516001600160a01b038481166024830152838116604483015260648201839052610cfe9186918216906323b872dd906084015b604051602081830303815290604052915060e01b6020820180516001600160e01b038381831617835250505050610db9565b50505050565b604080516001600160a01b038416602482015260448082018490528251808303909101815260649091019091526020810180516001600160e01b031663095ea7b360e01b179052610d558482610e2a565b610cfe576040516001600160a01b03848116602483015260006044830152610d8a91869182169063095ea7b390606401610ccc565b610cfe8482610db9565b610d9c610e74565b6101ae57604051631afcd79f60e31b815260040160405180910390fd5b600080602060008451602086016000885af180610ddc576040513d6000823e3d81fd5b50506000513d91508115610df4578060011415610e01565b6001600160a01b0384163b155b15610cfe57604051635274afe760e01b81526001600160a01b03851660048201526024016101f9565b6000806000806020600086516020880160008a5af192503d91506000519050828015610a0e57508115610e605780600114610a0e565b50505050506001600160a01b03163b151590565b6000610e7e610772565b54600160401b900460ff16919050565b6001600160a01b03811681146103f157600080fd5b6000808284036080811215610eb757600080fd5b8335610ec281610e8e565b92506060601f1982011215610ed657600080fd5b506020830190509250929050565b600060208284031215610ef657600080fd5b8135610f0181610e8e565b9392505050565b600080600060608486031215610f1d57600080fd5b8335610f2881610e8e565b9250602084013591506040840135610f3f81610e8e565b809150509250925092565b60008060008060808587031215610f6057600080fd5b8435610f6b81610e8e565b93506020850135610f7b81610e8e565b92506040850135610f8b81610e8e565b91506060850135610f9b81610e8e565b939692955090935050565b60008060008084860360a0811215610fbd57600080fd5b8535610fc881610e8e565b9450602086013593506040860135610fdf81610e8e565b92506040605f1982011215610ff357600080fd5b509295919450926060019150565b62ffffff811681146103f157600080fd5b60006020828403121561102457600080fd5b8135610f0181611001565b813561103a81610e8e565b81546001600160a01b031981166001600160a01b03929092169182178355602084013561106681611001565b62ffffff60a01b60a09190911b166001600160b81b03198216831781178455604085013561109381611001565b6001600160d01b0319929092169092179190911760b89190911b62ffffff60b81b1617905550565b600060408284031280156110ce57600080fd5b600090506040516040810181811067ffffffffffffffff8211171561110157634e487b7160e01b83526041600452602483fd5b6040528335815260209384013593810193909352509092915050565b60006020828403121561112f57600080fd5b5051919050565b60006020828403121561114857600080fd5b815160028110610f0157600080fd5b634e487b7160e01b600052602160045260246000fd5b634e487b7160e01b600052601160045260246000fd5b80820281158282048414176107975761079761116d565b6000826111b757634e487b7160e01b600052601260045260246000fd5b500490565b808201808211156107975761079761116d565b81516001600160a01b03908116825260208084015182169083015260408084015162ffffff169083015260608084015191821690830152610100820190506080830151608083015260a083015160a083015260c083015160c083015260e083015161124560e08401826001600160a01b03169052565b5092915050565b818103818111156107975761079761116d56fea2646970667358221220d76be90b1f9907911cd3b100f223ec706d5de435aec0c8d23609d361b1dc85a464736f6c634300081c0033",
  "linkReferences": {},
  "deployedLinkReferences": {}
}