{
  "_format": "hh-sol-artifact-1",
  "contractName": "sUSDeAprPairProvider",
  "sourceName": "contracts/tranches/strategies/ethena/sUSDeAprPairProvider.sol",
  "abi": [
    {
      "inputs": [
        {
          "internalType": "contract IsUSDS",
          "name": "_sUSDS",
          "type": "address"
        },
        {
          "internalType": "contract IsUSDe",
          "name": "_sUSDe",
          "type": "address"
        }
      ],
      "stateMutability": "nonpayable",
      "type": "constructor"
    },
    {
      "inputs": [],
      "name": "getAPRbase",
      "outputs": [
        {
          "internalType": "int64",
          "name": "",
          "type": "int64"
        }
      ],
      "stateMutability": "view",
      "type": "function"
    },
    {
      "inputs": [],
      "name": "getAPRtarget",
      "outputs": [
        {
          "internalType": "int64",
          "name": "",
          "type": "int64"
        }
      ],
      "stateMutability": "view",
      "type": "function"
    },
    {
      "inputs": [],
      "name": "getAprPair",
      "outputs": [
        {
          "internalType": "int64",
          "name": "aprTarget",
          "type": "int64"
        },
        {
          "internalType": "int64",
          "name": "aprBase",
          "type": "int64"
        },
        {
          "internalType": "uint64",
          "name": "timestamp",
          "type": "uint64"
        }
      ],
      "stateMutability": "view",
      "type": "function"
    },
    {
      "inputs": [],
      "name": "sUSDS",
      "outputs": [
        {
          "internalType": "contract IsUSDS",
          "name": "",
          "type": "address"
        }
      ],
      "stateMutability": "view",
      "type": "function"
    },
    {
      "inputs": [],
      "name": "sUSDe",
      "outputs": [
        {
          "internalType": "contract IsUSDe",
          "name": "",
          "type": "address"
        }
      ],
      "stateMutability": "view",
      "type": "function"
    }
  ],
  "bytecode": "0x608034609357601f61053838819003918201601f19168301916001600160401b03831184841017609857808492604094855283398101031260935780516001600160a01b0381169190829003609357602001516001600160a01b038116919082900360935760018060a01b0319600054161760005560018060a01b0319600154161760015560405161048990816100af8239f35b600080fd5b634e487b7160e01b600052604160045260246000fdfe6080604052600436101561001257600080fd5b60003560e01c806345c703e7146100eb5780634f14f259146100d05780634f5a19df146100a7578063dc349e26146100815763e0d05d391461005357600080fd5b3461007c57600036600319011261007c576001546040516001600160a01b039091168152602090f35b600080fd5b3461007c57600036600319011261007c57602061009c61036f565b6040519060070b8152f35b3461007c57600036600319011261007c576000546040516001600160a01b039091168152602090f35b3461007c57600036600319011261007c57602061009c610189565b3461007c57600036600319011261007c57606061010661036f565b61010e610189565b6040519160070b825260070b602082015267ffffffffffffffff42166040820152f35b90601f8019910116810190811067ffffffffffffffff82111761015357604052565b634e487b7160e01b600052604160045260246000fd5b8115610173570490565b634e487b7160e01b600052601260045260246000fd5b600154604051632095093360e01b81526001600160a01b0390911690602081600481855afa9081156102f25760009161033d575b5042034281116102a85761708081101561033657604051631cf854c160e31b815291602083600481845afa9283156102f2576000936102fe575b50906020600492604051938480926278744560e21b82525afa9182156102f2576000926102be575b506301e133808302928084046301e1338014811517156102a8576a1a1601fc4ea7109e0000000292808404670de0b6b3a764000014901517156102a857617080039161708083116102a85761027c9261027791610169565b610169565b64e8d4a5100081029080820464e8d4a5100014901517156102a857670de0b6b3a7640000900460070b90565b634e487b7160e01b600052601160045260246000fd5b9091506020813d6020116102ea575b816102da60209383610131565b8101031261007c5751903861021f565b3d91506102cd565b6040513d6000823e3d90fd5b90926020823d60201161032e575b8161031960209383610131565b8101031261032b5750519160206101f7565b80fd5b3d915061030c565b5050600090565b90506020813d602011610367575b8161035860209383610131565b8101031261007c5751386101bd565b3d915061034b565b6000546040516303607ceb60e01b815290602090829060049082906001600160a01b03165afa9081156102f257600091610421575b506b033b2e3c9fd0803ce8000000811061041b576b033b2e3c9fd0803ce7ffffff1981019081116102a8576301e133808102908082046301e1338014811517156102a8576801b5a660ea44b80000029080820464e8d4a5100014901517156102a8576b033b2e3c9fd0803ce8000000900460070b90565b50600090565b906020823d60201161044b575b8161043b60209383610131565b8101031261032b575051386103a4565b3d915061042e56fea264697066735822122024940c8faeb4a711d9c8792c6bf65accaf10f73f9699c6c17084612252fd899764736f6c634300081c0033",
  "linkReferences": {},
  "deployedLinkReferences": {}
}