{
  "_format": "hh-sol-artifact-1",
  "contractName": "UnstakeCooldown",
  "sourceName": "contracts/tranches/base/cooldown/UnstakeCooldown.sol",
  "abi": [
    {
      "inputs": [
        {
          "internalType": "address",
          "name": "account",
          "type": "address"
        },
        {
          "internalType": "bytes32",
          "name": "neededRole",
          "type": "bytes32"
        }
      ],
      "name": "AccessControlUnauthorizedAccount",
      "type": "error"
    },
    {
      "inputs": [
        {
          "internalType": "contract IERC20",
          "name": "token",
          "type": "address"
        },
        {
          "internalType": "address",
          "name": "from",
          "type": "address"
        },
        {
          "internalType": "address",
          "name": "to",
          "type": "address"
        },
        {
          "internalType": "uint256",
          "name": "amount",
          "type": "uint256"
        }
      ],
      "name": "ExternalReceiverRequestLimitReached",
      "type": "error"
    },
    {
      "inputs": [],
      "name": "FailedDeployment",
      "type": "error"
    },
    {
      "inputs": [
        {
          "internalType": "uint256",
          "name": "balance",
          "type": "uint256"
        },
        {
          "internalType": "uint256",
          "name": "needed",
          "type": "uint256"
        }
      ],
      "name": "InsufficientBalance",
      "type": "error"
    },
    {
      "inputs": [],
      "name": "InvalidInitialization",
      "type": "error"
    },
    {
      "inputs": [],
      "name": "InvalidTime",
      "type": "error"
    },
    {
      "inputs": [],
      "name": "NotInitializing",
      "type": "error"
    },
    {
      "inputs": [],
      "name": "NothingToFinalize",
      "type": "error"
    },
    {
      "inputs": [
        {
          "internalType": "address",
          "name": "owner",
          "type": "address"
        }
      ],
      "name": "OwnableInvalidOwner",
      "type": "error"
    },
    {
      "inputs": [
        {
          "internalType": "address",
          "name": "account",
          "type": "address"
        }
      ],
      "name": "OwnableUnauthorizedAccount",
      "type": "error"
    },
    {
      "inputs": [],
      "name": "ReentrancyGuardReentrantCall",
      "type": "error"
    },
    {
      "inputs": [
        {
          "internalType": "address",
          "name": "token",
          "type": "address"
        }
      ],
      "name": "SafeERC20FailedOperation",
      "type": "error"
    },
    {
      "inputs": [
        {
          "internalType": "address",
          "name": "sender",
          "type": "address"
        },
        {
          "internalType": "address",
          "name": "calledContract",
          "type": "address"
        },
        {
          "internalType": "bytes4",
          "name": "sel",
          "type": "bytes4"
        }
      ],
      "name": "Unauthorized",
      "type": "error"
    },
    {
      "inputs": [
        {
          "internalType": "address",
          "name": "token",
          "type": "address"
        }
      ],
      "name": "UnsupportedToken",
      "type": "error"
    },
    {
      "inputs": [],
      "name": "ZeroAddress",
      "type": "error"
    },
    {
      "anonymous": false,
      "inputs": [
        {
          "indexed": true,
          "internalType": "contract IERC20",
          "name": "token",
          "type": "address"
        },
        {
          "indexed": true,
          "internalType": "address",
          "name": "user",
          "type": "address"
        },
        {
          "indexed": false,
          "internalType": "uint256",
          "name": "amount",
          "type": "uint256"
        }
      ],
      "name": "Finalized",
      "type": "event"
    },
    {
      "anonymous": false,
      "inputs": [
        {
          "indexed": false,
          "internalType": "uint64",
          "name": "version",
          "type": "uint64"
        }
      ],
      "name": "Initialized",
      "type": "event"
    },
    {
      "anonymous": false,
      "inputs": [
        {
          "indexed": false,
          "internalType": "address",
          "name": "accessControlManager",
          "type": "address"
        }
      ],
      "name": "NewAccessControlManager",
      "type": "event"
    },
    {
      "anonymous": false,
      "inputs": [
        {
          "indexed": true,
          "internalType": "address",
          "name": "previousOwner",
          "type": "address"
        },
        {
          "indexed": true,
          "internalType": "address",
          "name": "newOwner",
          "type": "address"
        }
      ],
      "name": "OwnershipTransferStarted",
      "type": "event"
    },
    {
      "anonymous": false,
      "inputs": [
        {
          "indexed": true,
          "internalType": "address",
          "name": "previousOwner",
          "type": "address"
        },
        {
          "indexed": true,
          "internalType": "address",
          "name": "newOwner",
          "type": "address"
        }
      ],
      "name": "OwnershipTransferred",
      "type": "event"
    },
    {
      "anonymous": false,
      "inputs": [
        {
          "indexed": true,
          "internalType": "contract IERC20",
          "name": "token",
          "type": "address"
        },
        {
          "indexed": true,
          "internalType": "address",
          "name": "from",
          "type": "address"
        },
        {
          "indexed": true,
          "internalType": "address",
          "name": "to",
          "type": "address"
        },
        {
          "indexed": false,
          "internalType": "uint256",
          "name": "amount",
          "type": "uint256"
        },
        {
          "indexed": false,
          "internalType": "uint256",
          "name": "unlockAt",
          "type": "uint256"
        }
      ],
      "name": "TransferRequested",
      "type": "event"
    },
    {
      "anonymous": false,
      "inputs": [
        {
          "indexed": true,
          "internalType": "address",
          "name": "user",
          "type": "address"
        },
        {
          "indexed": false,
          "internalType": "address",
          "name": "proxy",
          "type": "address"
        }
      ],
      "name": "UserProxyCreated",
      "type": "event"
    },
    {
      "anonymous": false,
      "inputs": [
        {
          "indexed": false,
          "internalType": "address",
          "name": "token",
          "type": "address"
        },
        {
          "indexed": false,
          "internalType": "address",
          "name": "impl",
          "type": "address"
        }
      ],
      "name": "UserProxyImplementationSet",
      "type": "event"
    },
    {
      "inputs": [],
      "name": "COOLDOWN_WORKER_ROLE",
      "outputs": [
        {
          "internalType": "bytes32",
          "name": "",
          "type": "bytes32"
        }
      ],
      "stateMutability": "view",
      "type": "function"
    },
    {
      "inputs": [],
      "name": "PAUSER_ROLE",
      "outputs": [
        {
          "internalType": "bytes32",
          "name": "",
          "type": "bytes32"
        }
      ],
      "stateMutability": "view",
      "type": "function"
    },
    {
      "inputs": [],
      "name": "RESERVE_MANAGER_ROLE",
      "outputs": [
        {
          "internalType": "bytes32",
          "name": "",
          "type": "bytes32"
        }
      ],
      "stateMutability": "view",
      "type": "function"
    },
    {
      "inputs": [],
      "name": "UPDATER_CDO_APR_ROLE",
      "outputs": [
        {
          "internalType": "bytes32",
          "name": "",
          "type": "bytes32"
        }
      ],
      "stateMutability": "view",
      "type": "function"
    },
    {
      "inputs": [],
      "name": "UPDATER_FEED_ROLE",
      "outputs": [
        {
          "internalType": "bytes32",
          "name": "",
          "type": "bytes32"
        }
      ],
      "stateMutability": "view",
      "type": "function"
    },
    {
      "inputs": [],
      "name": "UPDATER_STRAT_CONFIG_ROLE",
      "outputs": [
        {
          "internalType": "bytes32",
          "name": "",
          "type": "bytes32"
        }
      ],
      "stateMutability": "view",
      "type": "function"
    },
    {
      "inputs": [],
      "name": "acceptOwnership",
      "outputs": [],
      "stateMutability": "nonpayable",
      "type": "function"
    },
    {
      "inputs": [],
      "name": "acm",
      "outputs": [
        {
          "internalType": "contract IAccessControlManager",
          "name": "",
          "type": "address"
        }
      ],
      "stateMutability": "view",
      "type": "function"
    },
    {
      "inputs": [
        {
          "internalType": "address",
          "name": "token",
          "type": "address"
        },
        {
          "internalType": "address",
          "name": "account",
          "type": "address"
        },
        {
          "internalType": "uint256",
          "name": "",
          "type": "uint256"
        }
      ],
      "name": "activeRequests",
      "outputs": [
        {
          "internalType": "uint64",
          "name": "unlockAt",
          "type": "uint64"
        },
        {
          "internalType": "contract IUnstakeHandler",
          "name": "proxy",
          "type": "address"
        }
      ],
      "stateMutability": "view",
      "type": "function"
    },
    {
      "inputs": [
        {
          "internalType": "contract IERC20",
          "name": "token",
          "type": "address"
        },
        {
          "internalType": "address",
          "name": "user",
          "type": "address"
        },
        {
          "internalType": "uint256",
          "name": "at",
          "type": "uint256"
        }
      ],
      "name": "balanceOf",
      "outputs": [
        {
          "components": [
            {
              "internalType": "uint256",
              "name": "pending",
              "type": "uint256"
            },
            {
              "internalType": "uint256",
              "name": "claimable",
              "type": "uint256"
            },
            {
              "internalType": "uint256",
              "name": "nextUnlockAt",
              "type": "uint256"
            },
            {
              "internalType": "uint256",
              "name": "nextUnlockAmount",
              "type": "uint256"
            },
            {
              "internalType": "uint256",
              "name": "totalRequests",
              "type": "uint256"
            }
          ],
          "internalType": "struct ICooldown.TBalanceState",
          "name": "",
          "type": "tuple"
        }
      ],
      "stateMutability": "view",
      "type": "function"
    },
    {
      "inputs": [
        {
          "internalType": "contract IERC20",
          "name": "token",
          "type": "address"
        },
        {
          "internalType": "address",
          "name": "user",
          "type": "address"
        }
      ],
      "name": "balanceOf",
      "outputs": [
        {
          "components": [
            {
              "internalType": "uint256",
              "name": "pending",
              "type": "uint256"
            },
            {
              "internalType": "uint256",
              "name": "claimable",
              "type": "uint256"
            },
            {
              "internalType": "uint256",
              "name": "nextUnlockAt",
              "type": "uint256"
            },
            {
              "internalType": "uint256",
              "name": "nextUnlockAmount",
              "type": "uint256"
            },
            {
              "internalType": "uint256",
              "name": "totalRequests",
              "type": "uint256"
            }
          ],
          "internalType": "struct ICooldown.TBalanceState",
          "name": "",
          "type": "tuple"
        }
      ],
      "stateMutability": "view",
      "type": "function"
    },
    {
      "inputs": [
        {
          "internalType": "contract IERC20",
          "name": "token",
          "type": "address"
        },
        {
          "internalType": "address",
          "name": "user",
          "type": "address"
        },
        {
          "internalType": "uint256",
          "name": "at",
          "type": "uint256"
        }
      ],
      "name": "finalize",
      "outputs": [
        {
          "internalType": "uint256",
          "name": "claimed",
          "type": "uint256"
        }
      ],
      "stateMutability": "nonpayable",
      "type": "function"
    },
    {
      "inputs": [
        {
          "internalType": "contract IERC20",
          "name": "token",
          "type": "address"
        },
        {
          "internalType": "address",
          "name": "user",
          "type": "address"
        }
      ],
      "name": "finalize",
      "outputs": [
        {
          "internalType": "uint256",
          "name": "claimed",
          "type": "uint256"
        }
      ],
      "stateMutability": "nonpayable",
      "type": "function"
    },
    {
      "inputs": [
        {
          "internalType": "address",
          "name": "token",
          "type": "address"
        }
      ],
      "name": "implementations",
      "outputs": [
        {
          "internalType": "contract IUnstakeHandler",
          "name": "unstakeImpl",
          "type": "address"
        }
      ],
      "stateMutability": "view",
      "type": "function"
    },
    {
      "inputs": [
        {
          "internalType": "address",
          "name": "owner_",
          "type": "address"
        },
        {
          "internalType": "address",
          "name": "acm_",
          "type": "address"
        }
      ],
      "name": "initialize",
      "outputs": [],
      "stateMutability": "nonpayable",
      "type": "function"
    },
    {
      "inputs": [],
      "name": "owner",
      "outputs": [
        {
          "internalType": "address",
          "name": "",
          "type": "address"
        }
      ],
      "stateMutability": "view",
      "type": "function"
    },
    {
      "inputs": [],
      "name": "pendingOwner",
      "outputs": [
        {
          "internalType": "address",
          "name": "",
          "type": "address"
        }
      ],
      "stateMutability": "view",
      "type": "function"
    },
    {
      "inputs": [
        {
          "internalType": "address",
          "name": "token",
          "type": "address"
        },
        {
          "internalType": "address",
          "name": "account",
          "type": "address"
        },
        {
          "internalType": "uint256",
          "name": "",
          "type": "uint256"
        }
      ],
      "name": "proxiesPool",
      "outputs": [
        {
          "internalType": "contract IUnstakeHandler",
          "name": "proxy",
          "type": "address"
        }
      ],
      "stateMutability": "view",
      "type": "function"
    },
    {
      "inputs": [],
      "name": "renounceOwnership",
      "outputs": [],
      "stateMutability": "nonpayable",
      "type": "function"
    },
    {
      "inputs": [
        {
          "internalType": "address",
          "name": "accessControlManager_",
          "type": "address"
        }
      ],
      "name": "setAccessControlManager",
      "outputs": [],
      "stateMutability": "nonpayable",
      "type": "function"
    },
    {
      "inputs": [
        {
          "internalType": "address[]",
          "name": "tokens_",
          "type": "address[]"
        },
        {
          "internalType": "contract IUnstakeHandler[]",
          "name": "implementations_",
          "type": "address[]"
        }
      ],
      "name": "setImplementations",
      "outputs": [],
      "stateMutability": "nonpayable",
      "type": "function"
    },
    {
      "inputs": [
        {
          "internalType": "contract IERC20",
          "name": "token",
          "type": "address"
        },
        {
          "internalType": "address",
          "name": "initialFrom",
          "type": "address"
        },
        {
          "internalType": "address",
          "name": "to",
          "type": "address"
        },
        {
          "internalType": "uint256",
          "name": "amount",
          "type": "uint256"
        }
      ],
      "name": "transfer",
      "outputs": [],
      "stateMutability": "nonpayable",
      "type": "function"
    },
    {
      "inputs": [
        {
          "internalType": "address",
          "name": "newOwner",
          "type": "address"
        }
      ],
      "name": "transferOwnership",
      "outputs": [],
      "stateMutability": "nonpayable",
      "type": "function"
    }
  ],
  "bytecode": "0x6080806040523460d2577ff0c57e16840df040f15088dc2f81fe391c3923bec73e23a9662efc9c229c6a005460ff8160401c1660c1576002600160401b03196001600160401b03821601605c575b604051611b1e90816100d88239f35b6001600160401b0319166001600160401b039081177ff0c57e16840df040f15088dc2f81fe391c3923bec73e23a9662efc9c229c6a005581527fc7f505b2f371ae2175ee4913f4499e1f2633a7b5936321eed1cdaeb6115181d290602090a13880604d565b63f92ee8a960e01b60005260046000fd5b600080fdfe6080604052600436101561001257600080fd5b60003560e01c80630e32cb86146101875780631f16095114610182578063476393211461017d578063485cc955146101785780635e9d2afe14610173578063668983ee1461016e578063715018a6146101695780637338ddcc14610164578063737b332d1461015f57806379ba50971461015a5780638da5cb5b146101555780638f3cc65714610150578063bcdf569b1461014b578063be5a880a14610146578063c5f8725714610141578063e30c39781461013c578063e63ab1e914610137578063e93119d914610132578063f18d03cc1461012d578063f2fde38b14610128578063f7888aec14610123578063f79eb32c1461011e5763fb2fa6281461011957600080fd5b610b7a565b610b35565b610b11565b610a86565b610970565b610917565b6108dc565b6108a6565b61086b565b6107fd565b6107e3565b610780565b61074a565b6106f8565b6106bd565b610694565b610622565b6105e7565b6105bb565b61043a565b6103c3565b61025d565b6101a2565b6001600160a01b0381160361019d57565b600080fd5b3461019d57602036600319011261019d576004356101bf8161018c565b6101c761174c565b6001600160a01b0316801561021c576020817fea8b2c76280ebcfc6d3bce461d1446949d91929a61dc9c679740f01fddbda81d926bffffffffffffffffffffffff60a01b6000541617600055604051908152a1005b63d92e233d60e01b60005260046000fd5b9181601f8401121561019d578235916001600160401b03831161019d576020808501948460051b01011161019d57565b3461019d57604036600319011261019d576004356001600160401b03811161019d5761028d90369060040161022d565b6024356001600160401b03811161019d576102ac90369060040161022d565b906102b561174c565b60005b8381106102c157005b807f44b73fa84c8a836f9ef02cd2b10d207bd06616138779e62859669e90048070066102f06001938789610bb5565b356102fa8161018c565b610305838787610bb5565b3561030f8161018c565b60a085901b85900382811660009081526032602090815260409182902080546001600160a01b0319166001600160a01b038681169190911790915582519581168652939092169092169083015290a1016102b8565b606090600319011261019d5760043561037c8161018c565b906024356103898161018c565b9060443590565b634e487b7160e01b600052603260045260246000fd5b80548210156103be5760005260206000200190600090565b610390565b3461019d576104026103d436610364565b929160018060a01b0316600052603360205260406000209060018060a01b0316600052602052604060002090565b805482101561019d57604091610417916103a6565b505481516001600160401b038216815290821c6001600160a01b03166020820152f35b3461019d57604036600319011261019d576004356104578161018c565b602435906104648261018c565b600080516020611aa983398151915254916001600160401b0361049660ff604086901c1615946001600160401b031690565b16801590816105b3575b60011490816105a9575b1590816105a0575b5061058f576104f791836104ee60016001600160401b0319600080516020611aa9833981519152541617600080516020611aa983398151915255565b6105585761176d565b6104fd57005b61052960ff60401b19600080516020611aa98339815191525416600080516020611aa983398151915255565b604051600181527fc7f505b2f371ae2175ee4913f4499e1f2633a7b5936321eed1cdaeb6115181d290602090a1005b61058a600160401b60ff60401b19600080516020611aa9833981519152541617600080516020611aa983398151915255565b61176d565b63f92ee8a960e01b60005260046000fd5b905015386104b2565b303b1591506104aa565b8491506104a0565b3461019d5760206105d46105ce36610364565b91610de4565b604051908152f35b600091031261019d57565b3461019d57600036600319011261019d5760206040517fb93bf808defb265d057ca8bf7be1ab7ec2ab3c0b320ee05f77fe3cb0e08fbff48152f35b3461019d57600036600319011261019d5761063b61174c565b610643610cbc565b600080516020611a8983398151915280546001600160a01b031981169091556000906001600160a01b03167f8be0079c531659141344cd1fd0a4f28419497f9722a3daafe3b4186f6b6457e08280a3005b3461019d57600036600319011261019d576000546040516001600160a01b039091168152602090f35b3461019d57600036600319011261019d5760206040517f97d8f58e0f008a842799f9fb6a4e6212ac93db0249409467f149ba102924e8808152f35b3461019d57600036600319011261019d57600080516020611ac983398151915254336001600160a01b0390911603610735576107333361183c565b005b63118cdaa760e01b6000523360045260246000fd5b3461019d57600036600319011261019d57600080516020611a89833981519152546040516001600160a01b039091168152602090f35b3461019d57600036600319011261019d5760206040517f2c85ecd23ea927ba843f342b5bafa7879dfdc212a00052897f68d65c2ee8491b8152f35b604090600319011261019d576004356107d38161018c565b906024356107e08161018c565b90565b3461019d5760206105d46107f6366107bb565b4291610de4565b3461019d5761083c61080e36610364565b929160018060a01b0316600052603460205260406000209060018060a01b0316600052602052604060002090565b90815481101561019d5761084f916103a6565b905460405160039290921b1c6001600160a01b03168152602090f35b3461019d57600036600319011261019d5760206040517fcc938097bd07c9f1619d5e95c26b457140e80b889795c7c1cbd51a28005e02ac8152f35b3461019d57600036600319011261019d57600080516020611ac9833981519152546040516001600160a01b039091168152602090f35b3461019d57600036600319011261019d5760206040517f65d7a28e3265b37a6474929f336521b332c1681b933f6cb9f3376673440d862a8152f35b3461019d5761096c61093161092b36610364565b916110b9565b6040519182918291909160808060a0830194805184526020810151602085015260408101516040850152606081015160608501520151910152565b0390f35b3461019d57608036600319011261019d5760043561098d8161018c565b6024356109998161018c565b6044356109a58161018c565b600054604051632474521560e21b81527f97d8f58e0f008a842799f9fb6a4e6212ac93db0249409467f149ba102924e88060048201523360248201526064359391602090829060449082906001600160a01b03165afa908115610a8157600091610a52575b5015610a19576107339361136e565b63e2517d3f60e01b600052336004527f97d8f58e0f008a842799f9fb6a4e6212ac93db0249409467f149ba102924e88060245260446000fd5b610a74915060203d602011610a7a575b610a6c8183610bdb565b810190610c01565b38610a0a565b503d610a62565b610c19565b3461019d57602036600319011261019d57600435610aa38161018c565b610aab61174c565b600080516020611ac983398151915280546001600160a01b0319166001600160a01b03928316908117909155600080516020611a89833981519152549091167f38d16b8cac22d99fc7c124b9cd0de2d3fa1faef420bfe791d8c362d765e22700600080a3005b3461019d5761096c610931610b25366107bb565b610b2d61107e565b5042916110b9565b3461019d57602036600319011261019d57600435610b528161018c565b6001600160a01b03908116600090815260326020908152604091829020549151919092168152f35b3461019d57600036600319011261019d5760206040517f67944e0027e2f9a2b0c3419bbf4470c579a0ff7f0007c5554d431924b9d578978152f35b91908110156103be5760051b0190565b634e487b7160e01b600052604160045260246000fd5b90601f801991011681019081106001600160401b03821117610bfc57604052565b610bc5565b9081602091031261019d5751801515810361019d5790565b6040513d6000823e3d90fd5b60405190610c3460a083610bdb565b565b60405190610c34604083610bdb565b90604051604081018181106001600160401b03821117610bfc57604090815292546001600160401b038116825290921c6001600160a01b03166020830152565b9081602091031261019d575190565b634e487b7160e01b600052601160045260246000fd5b91908201809211610cb757565b610c94565b600080516020611ac983398151915280546001600160a01b0319169055565b805490600160401b821015610bfc5781610cfd916001610d1f940181556103a6565b815491936001600160a01b0360039290921b82811b19909316911690911b1790565b9055565b600019810191908211610cb757565b634e487b7160e01b600052600060045260246000fd5b90610da257818103610d58575050565b8154815467ffffffffffffffff19166001600160401b0391909116178155610c349154815468010000000000000000600160e01b031916600160401b600160e01b03909116179055565b610d32565b634e487b7160e01b600052603160045260246000fd5b80548015610ddf576000190190610dd482826103a6565b610da2576000905555565b610da7565b9160009242821161106d576001600160a01b03166000818152603360205260409020909190610e279084905b9060018060a01b0316600052602052604060002090565b6001600160a01b0383166000908152603460205260409020610e4a908590610e10565b9060046020610e8a610e7e610e718860018060a01b03166000526032602052604060002090565b546001600160a01b031690565b6001600160a01b031690565b604051631c4c784360e01b815292839182905afa908115610a815760009161104e575b50918154906000915b808310610f16575050505050508215610f05576040518381526001600160a01b0392909216917fcfe4c15b673982888f9e722f36b7cb1e43b2ce80353df741f7644e1fbdebf50590602090a390565b6344b0c3ef60e11b60005260046000fd5b610f29610f2384866103a6565b50610c45565b8580611026575b61101a57602060009101996020610f50610e7e8d5160018060a01b031690565b600460405180958193634bb278f360e01b83525af1918215610a8157610f9a92610f9492610f8692600092610fea575b50610caa565b9a516001600160a01b031690565b83610cdb565b610fa381610d23565b8310610fbf575b610fb384610dbd565b60001901935b93610eb6565b610fe5610fd4610fce83610d23565b866103a6565b50610fdf85876103a6565b90610d48565b610faa565b61100c91925060203d8111611013575b6110048183610bdb565b810190610c85565b9038610f80565b503d610ffa565b50939160010191610fb9565b508661104861103c83516001600160401b031690565b6001600160401b031690565b11610f30565b611067915060203d602011610a7a57610a6c8183610bdb565b38610ead565b6337bf561360e11b60005260046000fd5b6040519060a082018281106001600160401b03821117610bfc5760405260006080838281528260208201528260408201528260608201520152565b6020611111610e7e610e716110f56004959796976110d561107e565b506001600160a01b03166000818152603360205260409020909890610e10565b6001600160a01b03909716600090815260326020526040902090565b604051631c4c784360e01b815292839182905afa908115610a81576000916112c0575b508254600093909284928392839283925b8784106111725750505050611158610c25565b948552602085015260408401526060830152608082015290565b90919293600490611186610f2387876103a6565b60208181015161119e906001600160a01b0316610e7e565b60405163e81ab3ff60e01b815294859182905afa928315610a81576000936112a0575b50838061127e575b6111e557506001916111da91610caa565b945b01929190611145565b99826111f49197939297610caa565b9987158015611262575b611240576001600160401b0361121c8992516001600160401b031690565b161461122c575b506001906111dc565b6112399060019298610caa565b9690611223565b51919750955060019061125b906001600160401b031661103c565b95966111dc565b508761127861103c83516001600160401b031690565b106111fe565b50846001600160401b0361129983516001600160401b031690565b16116111c9565b6112b991935060203d8111611013576110048183610bdb565b91386111c1565b6112d9915060203d602011610a7a57610a6c8183610bdb565b38611134565b80548015610ddf5760001901906112f682826103a6565b81546001600160a01b0360039290921b9190911b1916905555565b8054600160401b811015610bfc5761132e916001820181556103a6565b610da25781518154602090930151600160401b600160e01b0360409190911b166001600160e01b03199093166001600160401b0390911617919091179055565b929190918015611746576001600160a01b038416600081815260326020526040902061139d90610e7e90610e71565b6001600160a01b038116949092908515611728576001600160a01b03831660009081526033602052604090206113d4908690610e10565b946113f581610e108660018060a01b03166000526034602052604060002090565b86546001600160a01b03808416979294919360009391831692909190838a14158061171d575b6116e457508461166e575b83156115dd57505060009850602061145a61144961144386610d23565b8b6103a6565b505460401c6001600160a01b031690565b9a5b6001600160a01b038c1690611476908890839033906119c0565b6004604051809c819363338cdca160e01b83525af1988915610a81576000996115ba575b5060408051868152602081018b905288929188917ff4b813f5b75d4b48250e927566057ec3372ee6ec2518b4e52bfbe1f0161829ec9190a461156d575042861115611523575050505061151e610c349361150e6001600160401b036114fd610c36565b951685906001600160401b03169052565b6001600160a01b03166020840152565b611311565b611558919295507fcfe4c15b673982888f9e722f36b7cb1e43b2ce80353df741f7644e1fbdebf5059450956115689396610cdb565b6040519081529081906020820190565b0390a3565b96505050505042821161157f57505050565b61159d6001600160401b0391611597610c3495610d23565b906103a6565b5091166001600160401b03166001600160401b0319825416179055565b879199506115d69060203d602011611013576110048183610bdb565b989061149a565b85548015611657576115fa6115f461160f92610d23565b886103a6565b905460039190911b1c6001600160a01b031690565b9a611619876112df565b61162e610e7e6001600160a01b038e166119af565b03611641575b505060206000999a61145c565b60009a506020916116519161189a565b99611634565b5060009a506020916116689161189a565b9a61145c565b925060468410801590611682575b92611426565b506004602061169a610e7e6114498d6115978a610d23565b604051637b53d17b60e01b815292839182905afa908115610a81576000916116c5575b50421461167c565b6116de915060203d602011611013576110048183610bdb565b386116bd565b6040516309f8406b60e01b81526001600160a01b038e811660048301529182166024820152908316604482015260648101889052608490fd5b50602886101561141b565b635f8b555b60e11b6000526001600160a01b03831660045260246000fd5b50505050565b600080516020611a89833981519152546001600160a01b0316330361073557565b611775611a5a565b61177d611a5a565b6001600160a01b03811615611826576117959061183c565b61179d611a5a565b6001600160a01b0316801561021c576020817fea8b2c76280ebcfc6d3bce461d1446949d91929a61dc9c679740f01fddbda81d926bffffffffffffffffffffffff60a01b6000541617600055604051908152a16117f8611a5a565b611800611a5a565b60017f9b779b17422d0df92223018b32b4d1fa46e071723d6817e2486d003becc55f0055565b631e4fbdf760e01b600052600060045260246000fd5b611844610cbc565b600080516020611a8983398151915280546001600160a01b039283166001600160a01b0319821681179092559091167f8be0079c531659141344cd1fd0a4f28419497f9722a3daafe3b4186f6b6457e0600080a3565b6e5af43d82803e903d91602b57fd5bf390763d602d80600a3d3981f3363d3d373d3d3d363d7300000062ffffff8260881c161760005260781b17602052603760096000f06001600160a01b0381161561199e576001600160a01b0316908190813b1561019d5760405163485cc95560e01b81523060048201526001600160a01b03821660248201529060008260448183875af1908115610a81577f55ee63e5b8bda5bbf6b14fc92f9e70a6d006dfb0cd33ec2656122771728fdcb79261197d92611983575b506040516001600160a01b0394851681529316929081906020820190565b0390a290565b80611992600061199893610bdb565b806105dc565b3861195f565b63b06ebf3d60e01b60005260046000fd5b6020600a60405180933c5160601c90565b6040516323b872dd60e01b60208083019182526001600160a01b0394851660248401529490931660448201526064808201959095529384529260009190611a08608482610bdb565b519082855af115610c19576000513d611a5157506001600160a01b0381163b155b611a305750565b635274afe760e01b60009081526001600160a01b0391909116600452602490fd5b60011415611a29565b60ff600080516020611aa98339815191525460401c1615611a7757565b631afcd79f60e31b60005260046000fdfe9016d09d72d40fdae2fd8ceac6b6234c7706214fd39c1cd1e609a0528c199300f0c57e16840df040f15088dc2f81fe391c3923bec73e23a9662efc9c229c6a00237e158222e3e6968b72b9db0d8043aacf074ad9f650f0d1606b4d82ee432c00a2646970667358221220b610e401ae8517902bee24b84d57356058f7dcaff7e56e0e3959d34973fed30e64736f6c634300081c0033",
  "linkReferences": {},
  "deployedLinkReferences": {}
}