{
  "_format": "hh-sol-artifact-1",
  "contractName": "StakedUSDe",
  "sourceName": "contracts/test/ethena/StakedUSDe.sol",
  "abi": [
    {
      "inputs": [
        {
          "internalType": "contract IERC20",
          "name": "_asset",
          "type": "address"
        },
        {
          "internalType": "address",
          "name": "_initialRewarder",
          "type": "address"
        },
        {
          "internalType": "address",
          "name": "_owner",
          "type": "address"
        }
      ],
      "stateMutability": "nonpayable",
      "type": "constructor"
    },
    {
      "inputs": [],
      "name": "AccessControlBadConfirmation",
      "type": "error"
    },
    {
      "inputs": [
        {
          "internalType": "address",
          "name": "account",
          "type": "address"
        },
        {
          "internalType": "bytes32",
          "name": "neededRole",
          "type": "bytes32"
        }
      ],
      "name": "AccessControlUnauthorizedAccount",
      "type": "error"
    },
    {
      "inputs": [],
      "name": "CantBlacklistOwner",
      "type": "error"
    },
    {
      "inputs": [],
      "name": "ECDSAInvalidSignature",
      "type": "error"
    },
    {
      "inputs": [
        {
          "internalType": "uint256",
          "name": "length",
          "type": "uint256"
        }
      ],
      "name": "ECDSAInvalidSignatureLength",
      "type": "error"
    },
    {
      "inputs": [
        {
          "internalType": "bytes32",
          "name": "s",
          "type": "bytes32"
        }
      ],
      "name": "ECDSAInvalidSignatureS",
      "type": "error"
    },
    {
      "inputs": [
        {
          "internalType": "address",
          "name": "spender",
          "type": "address"
        },
        {
          "internalType": "uint256",
          "name": "allowance",
          "type": "uint256"
        },
        {
          "internalType": "uint256",
          "name": "needed",
          "type": "uint256"
        }
      ],
      "name": "ERC20InsufficientAllowance",
      "type": "error"
    },
    {
      "inputs": [
        {
          "internalType": "address",
          "name": "sender",
          "type": "address"
        },
        {
          "internalType": "uint256",
          "name": "balance",
          "type": "uint256"
        },
        {
          "internalType": "uint256",
          "name": "needed",
          "type": "uint256"
        }
      ],
      "name": "ERC20InsufficientBalance",
      "type": "error"
    },
    {
      "inputs": [
        {
          "internalType": "address",
          "name": "approver",
          "type": "address"
        }
      ],
      "name": "ERC20InvalidApprover",
      "type": "error"
    },
    {
      "inputs": [
        {
          "internalType": "address",
          "name": "receiver",
          "type": "address"
        }
      ],
      "name": "ERC20InvalidReceiver",
      "type": "error"
    },
    {
      "inputs": [
        {
          "internalType": "address",
          "name": "sender",
          "type": "address"
        }
      ],
      "name": "ERC20InvalidSender",
      "type": "error"
    },
    {
      "inputs": [
        {
          "internalType": "address",
          "name": "spender",
          "type": "address"
        }
      ],
      "name": "ERC20InvalidSpender",
      "type": "error"
    },
    {
      "inputs": [
        {
          "internalType": "uint256",
          "name": "deadline",
          "type": "uint256"
        }
      ],
      "name": "ERC2612ExpiredSignature",
      "type": "error"
    },
    {
      "inputs": [
        {
          "internalType": "address",
          "name": "signer",
          "type": "address"
        },
        {
          "internalType": "address",
          "name": "owner",
          "type": "address"
        }
      ],
      "name": "ERC2612InvalidSigner",
      "type": "error"
    },
    {
      "inputs": [
        {
          "internalType": "address",
          "name": "receiver",
          "type": "address"
        },
        {
          "internalType": "uint256",
          "name": "assets",
          "type": "uint256"
        },
        {
          "internalType": "uint256",
          "name": "max",
          "type": "uint256"
        }
      ],
      "name": "ERC4626ExceededMaxDeposit",
      "type": "error"
    },
    {
      "inputs": [
        {
          "internalType": "address",
          "name": "receiver",
          "type": "address"
        },
        {
          "internalType": "uint256",
          "name": "shares",
          "type": "uint256"
        },
        {
          "internalType": "uint256",
          "name": "max",
          "type": "uint256"
        }
      ],
      "name": "ERC4626ExceededMaxMint",
      "type": "error"
    },
    {
      "inputs": [
        {
          "internalType": "address",
          "name": "owner",
          "type": "address"
        },
        {
          "internalType": "uint256",
          "name": "shares",
          "type": "uint256"
        },
        {
          "internalType": "uint256",
          "name": "max",
          "type": "uint256"
        }
      ],
      "name": "ERC4626ExceededMaxRedeem",
      "type": "error"
    },
    {
      "inputs": [
        {
          "internalType": "address",
          "name": "owner",
          "type": "address"
        },
        {
          "internalType": "uint256",
          "name": "assets",
          "type": "uint256"
        },
        {
          "internalType": "uint256",
          "name": "max",
          "type": "uint256"
        }
      ],
      "name": "ERC4626ExceededMaxWithdraw",
      "type": "error"
    },
    {
      "inputs": [
        {
          "internalType": "address",
          "name": "account",
          "type": "address"
        },
        {
          "internalType": "uint256",
          "name": "currentNonce",
          "type": "uint256"
        }
      ],
      "name": "InvalidAccountNonce",
      "type": "error"
    },
    {
      "inputs": [],
      "name": "InvalidAdminChange",
      "type": "error"
    },
    {
      "inputs": [],
      "name": "InvalidAmount",
      "type": "error"
    },
    {
      "inputs": [],
      "name": "InvalidShortString",
      "type": "error"
    },
    {
      "inputs": [],
      "name": "InvalidToken",
      "type": "error"
    },
    {
      "inputs": [],
      "name": "InvalidZeroAddress",
      "type": "error"
    },
    {
      "inputs": [],
      "name": "MinSharesViolation",
      "type": "error"
    },
    {
      "inputs": [],
      "name": "NotPendingAdmin",
      "type": "error"
    },
    {
      "inputs": [],
      "name": "OperationNotAllowed",
      "type": "error"
    },
    {
      "inputs": [],
      "name": "ReentrancyGuardReentrantCall",
      "type": "error"
    },
    {
      "inputs": [
        {
          "internalType": "address",
          "name": "token",
          "type": "address"
        }
      ],
      "name": "SafeERC20FailedOperation",
      "type": "error"
    },
    {
      "inputs": [],
      "name": "StillVesting",
      "type": "error"
    },
    {
      "inputs": [
        {
          "internalType": "string",
          "name": "str",
          "type": "string"
        }
      ],
      "name": "StringTooLong",
      "type": "error"
    },
    {
      "anonymous": false,
      "inputs": [
        {
          "indexed": true,
          "internalType": "address",
          "name": "oldAdmin",
          "type": "address"
        },
        {
          "indexed": true,
          "internalType": "address",
          "name": "newAdmin",
          "type": "address"
        }
      ],
      "name": "AdminTransferRequested",
      "type": "event"
    },
    {
      "anonymous": false,
      "inputs": [
        {
          "indexed": true,
          "internalType": "address",
          "name": "oldAdmin",
          "type": "address"
        },
        {
          "indexed": true,
          "internalType": "address",
          "name": "newAdmin",
          "type": "address"
        }
      ],
      "name": "AdminTransferred",
      "type": "event"
    },
    {
      "anonymous": false,
      "inputs": [
        {
          "indexed": true,
          "internalType": "address",
          "name": "owner",
          "type": "address"
        },
        {
          "indexed": true,
          "internalType": "address",
          "name": "spender",
          "type": "address"
        },
        {
          "indexed": false,
          "internalType": "uint256",
          "name": "value",
          "type": "uint256"
        }
      ],
      "name": "Approval",
      "type": "event"
    },
    {
      "anonymous": false,
      "inputs": [
        {
          "indexed": true,
          "internalType": "address",
          "name": "sender",
          "type": "address"
        },
        {
          "indexed": true,
          "internalType": "address",
          "name": "owner",
          "type": "address"
        },
        {
          "indexed": false,
          "internalType": "uint256",
          "name": "assets",
          "type": "uint256"
        },
        {
          "indexed": false,
          "internalType": "uint256",
          "name": "shares",
          "type": "uint256"
        }
      ],
      "name": "Deposit",
      "type": "event"
    },
    {
      "anonymous": false,
      "inputs": [],
      "name": "EIP712DomainChanged",
      "type": "event"
    },
    {
      "anonymous": false,
      "inputs": [
        {
          "indexed": true,
          "internalType": "address",
          "name": "from",
          "type": "address"
        },
        {
          "indexed": true,
          "internalType": "address",
          "name": "to",
          "type": "address"
        },
        {
          "indexed": false,
          "internalType": "uint256",
          "name": "amount",
          "type": "uint256"
        }
      ],
      "name": "LockedAmountRedistributed",
      "type": "event"
    },
    {
      "anonymous": false,
      "inputs": [
        {
          "indexed": false,
          "internalType": "uint256",
          "name": "amount",
          "type": "uint256"
        }
      ],
      "name": "RewardsReceived",
      "type": "event"
    },
    {
      "anonymous": false,
      "inputs": [
        {
          "indexed": true,
          "internalType": "bytes32",
          "name": "role",
          "type": "bytes32"
        },
        {
          "indexed": true,
          "internalType": "bytes32",
          "name": "previousAdminRole",
          "type": "bytes32"
        },
        {
          "indexed": true,
          "internalType": "bytes32",
          "name": "newAdminRole",
          "type": "bytes32"
        }
      ],
      "name": "RoleAdminChanged",
      "type": "event"
    },
    {
      "anonymous": false,
      "inputs": [
        {
          "indexed": true,
          "internalType": "bytes32",
          "name": "role",
          "type": "bytes32"
        },
        {
          "indexed": true,
          "internalType": "address",
          "name": "account",
          "type": "address"
        },
        {
          "indexed": true,
          "internalType": "address",
          "name": "sender",
          "type": "address"
        }
      ],
      "name": "RoleGranted",
      "type": "event"
    },
    {
      "anonymous": false,
      "inputs": [
        {
          "indexed": true,
          "internalType": "bytes32",
          "name": "role",
          "type": "bytes32"
        },
        {
          "indexed": true,
          "internalType": "address",
          "name": "account",
          "type": "address"
        },
        {
          "indexed": true,
          "internalType": "address",
          "name": "sender",
          "type": "address"
        }
      ],
      "name": "RoleRevoked",
      "type": "event"
    },
    {
      "anonymous": false,
      "inputs": [
        {
          "indexed": true,
          "internalType": "address",
          "name": "from",
          "type": "address"
        },
        {
          "indexed": true,
          "internalType": "address",
          "name": "to",
          "type": "address"
        },
        {
          "indexed": false,
          "internalType": "uint256",
          "name": "value",
          "type": "uint256"
        }
      ],
      "name": "Transfer",
      "type": "event"
    },
    {
      "anonymous": false,
      "inputs": [
        {
          "indexed": true,
          "internalType": "address",
          "name": "sender",
          "type": "address"
        },
        {
          "indexed": true,
          "internalType": "address",
          "name": "receiver",
          "type": "address"
        },
        {
          "indexed": true,
          "internalType": "address",
          "name": "owner",
          "type": "address"
        },
        {
          "indexed": false,
          "internalType": "uint256",
          "name": "assets",
          "type": "uint256"
        },
        {
          "indexed": false,
          "internalType": "uint256",
          "name": "shares",
          "type": "uint256"
        }
      ],
      "name": "Withdraw",
      "type": "event"
    },
    {
      "inputs": [],
      "name": "DEFAULT_ADMIN_ROLE",
      "outputs": [
        {
          "internalType": "bytes32",
          "name": "",
          "type": "bytes32"
        }
      ],
      "stateMutability": "view",
      "type": "function"
    },
    {
      "inputs": [],
      "name": "DOMAIN_SEPARATOR",
      "outputs": [
        {
          "internalType": "bytes32",
          "name": "",
          "type": "bytes32"
        }
      ],
      "stateMutability": "view",
      "type": "function"
    },
    {
      "inputs": [],
      "name": "acceptAdmin",
      "outputs": [],
      "stateMutability": "nonpayable",
      "type": "function"
    },
    {
      "inputs": [
        {
          "internalType": "address",
          "name": "target",
          "type": "address"
        },
        {
          "internalType": "bool",
          "name": "isFullBlacklisting",
          "type": "bool"
        }
      ],
      "name": "addToBlacklist",
      "outputs": [],
      "stateMutability": "nonpayable",
      "type": "function"
    },
    {
      "inputs": [
        {
          "internalType": "address",
          "name": "owner",
          "type": "address"
        },
        {
          "internalType": "address",
          "name": "spender",
          "type": "address"
        }
      ],
      "name": "allowance",
      "outputs": [
        {
          "internalType": "uint256",
          "name": "",
          "type": "uint256"
        }
      ],
      "stateMutability": "view",
      "type": "function"
    },
    {
      "inputs": [
        {
          "internalType": "address",
          "name": "spender",
          "type": "address"
        },
        {
          "internalType": "uint256",
          "name": "value",
          "type": "uint256"
        }
      ],
      "name": "approve",
      "outputs": [
        {
          "internalType": "bool",
          "name": "",
          "type": "bool"
        }
      ],
      "stateMutability": "nonpayable",
      "type": "function"
    },
    {
      "inputs": [],
      "name": "asset",
      "outputs": [
        {
          "internalType": "address",
          "name": "",
          "type": "address"
        }
      ],
      "stateMutability": "view",
      "type": "function"
    },
    {
      "inputs": [
        {
          "internalType": "address",
          "name": "account",
          "type": "address"
        }
      ],
      "name": "balanceOf",
      "outputs": [
        {
          "internalType": "uint256",
          "name": "",
          "type": "uint256"
        }
      ],
      "stateMutability": "view",
      "type": "function"
    },
    {
      "inputs": [
        {
          "internalType": "uint256",
          "name": "shares",
          "type": "uint256"
        }
      ],
      "name": "convertToAssets",
      "outputs": [
        {
          "internalType": "uint256",
          "name": "",
          "type": "uint256"
        }
      ],
      "stateMutability": "view",
      "type": "function"
    },
    {
      "inputs": [
        {
          "internalType": "uint256",
          "name": "assets",
          "type": "uint256"
        }
      ],
      "name": "convertToShares",
      "outputs": [
        {
          "internalType": "uint256",
          "name": "",
          "type": "uint256"
        }
      ],
      "stateMutability": "view",
      "type": "function"
    },
    {
      "inputs": [],
      "name": "decimals",
      "outputs": [
        {
          "internalType": "uint8",
          "name": "",
          "type": "uint8"
        }
      ],
      "stateMutability": "pure",
      "type": "function"
    },
    {
      "inputs": [
        {
          "internalType": "uint256",
          "name": "assets",
          "type": "uint256"
        },
        {
          "internalType": "address",
          "name": "receiver",
          "type": "address"
        }
      ],
      "name": "deposit",
      "outputs": [
        {
          "internalType": "uint256",
          "name": "",
          "type": "uint256"
        }
      ],
      "stateMutability": "nonpayable",
      "type": "function"
    },
    {
      "inputs": [],
      "name": "eip712Domain",
      "outputs": [
        {
          "internalType": "bytes1",
          "name": "fields",
          "type": "bytes1"
        },
        {
          "internalType": "string",
          "name": "name",
          "type": "string"
        },
        {
          "internalType": "string",
          "name": "version",
          "type": "string"
        },
        {
          "internalType": "uint256",
          "name": "chainId",
          "type": "uint256"
        },
        {
          "internalType": "address",
          "name": "verifyingContract",
          "type": "address"
        },
        {
          "internalType": "bytes32",
          "name": "salt",
          "type": "bytes32"
        },
        {
          "internalType": "uint256[]",
          "name": "extensions",
          "type": "uint256[]"
        }
      ],
      "stateMutability": "view",
      "type": "function"
    },
    {
      "inputs": [
        {
          "internalType": "bytes32",
          "name": "role",
          "type": "bytes32"
        }
      ],
      "name": "getRoleAdmin",
      "outputs": [
        {
          "internalType": "bytes32",
          "name": "",
          "type": "bytes32"
        }
      ],
      "stateMutability": "view",
      "type": "function"
    },
    {
      "inputs": [],
      "name": "getUnvestedAmount",
      "outputs": [
        {
          "internalType": "uint256",
          "name": "",
          "type": "uint256"
        }
      ],
      "stateMutability": "view",
      "type": "function"
    },
    {
      "inputs": [
        {
          "internalType": "bytes32",
          "name": "role",
          "type": "bytes32"
        },
        {
          "internalType": "address",
          "name": "account",
          "type": "address"
        }
      ],
      "name": "grantRole",
      "outputs": [],
      "stateMutability": "nonpayable",
      "type": "function"
    },
    {
      "inputs": [
        {
          "internalType": "bytes32",
          "name": "role",
          "type": "bytes32"
        },
        {
          "internalType": "address",
          "name": "account",
          "type": "address"
        }
      ],
      "name": "hasRole",
      "outputs": [
        {
          "internalType": "bool",
          "name": "",
          "type": "bool"
        }
      ],
      "stateMutability": "view",
      "type": "function"
    },
    {
      "inputs": [],
      "name": "lastDistributionTimestamp",
      "outputs": [
        {
          "internalType": "uint256",
          "name": "",
          "type": "uint256"
        }
      ],
      "stateMutability": "view",
      "type": "function"
    },
    {
      "inputs": [
        {
          "internalType": "address",
          "name": "",
          "type": "address"
        }
      ],
      "name": "maxDeposit",
      "outputs": [
        {
          "internalType": "uint256",
          "name": "",
          "type": "uint256"
        }
      ],
      "stateMutability": "view",
      "type": "function"
    },
    {
      "inputs": [
        {
          "internalType": "address",
          "name": "",
          "type": "address"
        }
      ],
      "name": "maxMint",
      "outputs": [
        {
          "internalType": "uint256",
          "name": "",
          "type": "uint256"
        }
      ],
      "stateMutability": "view",
      "type": "function"
    },
    {
      "inputs": [
        {
          "internalType": "address",
          "name": "owner",
          "type": "address"
        }
      ],
      "name": "maxRedeem",
      "outputs": [
        {
          "internalType": "uint256",
          "name": "",
          "type": "uint256"
        }
      ],
      "stateMutability": "view",
      "type": "function"
    },
    {
      "inputs": [
        {
          "internalType": "address",
          "name": "owner",
          "type": "address"
        }
      ],
      "name": "maxWithdraw",
      "outputs": [
        {
          "internalType": "uint256",
          "name": "",
          "type": "uint256"
        }
      ],
      "stateMutability": "view",
      "type": "function"
    },
    {
      "inputs": [
        {
          "internalType": "uint256",
          "name": "shares",
          "type": "uint256"
        },
        {
          "internalType": "address",
          "name": "receiver",
          "type": "address"
        }
      ],
      "name": "mint",
      "outputs": [
        {
          "internalType": "uint256",
          "name": "",
          "type": "uint256"
        }
      ],
      "stateMutability": "nonpayable",
      "type": "function"
    },
    {
      "inputs": [],
      "name": "name",
      "outputs": [
        {
          "internalType": "string",
          "name": "",
          "type": "string"
        }
      ],
      "stateMutability": "view",
      "type": "function"
    },
    {
      "inputs": [
        {
          "internalType": "address",
          "name": "owner",
          "type": "address"
        }
      ],
      "name": "nonces",
      "outputs": [
        {
          "internalType": "uint256",
          "name": "",
          "type": "uint256"
        }
      ],
      "stateMutability": "view",
      "type": "function"
    },
    {
      "inputs": [],
      "name": "owner",
      "outputs": [
        {
          "internalType": "address",
          "name": "",
          "type": "address"
        }
      ],
      "stateMutability": "view",
      "type": "function"
    },
    {
      "inputs": [
        {
          "internalType": "address",
          "name": "owner",
          "type": "address"
        },
        {
          "internalType": "address",
          "name": "spender",
          "type": "address"
        },
        {
          "internalType": "uint256",
          "name": "value",
          "type": "uint256"
        },
        {
          "internalType": "uint256",
          "name": "deadline",
          "type": "uint256"
        },
        {
          "internalType": "uint8",
          "name": "v",
          "type": "uint8"
        },
        {
          "internalType": "bytes32",
          "name": "r",
          "type": "bytes32"
        },
        {
          "internalType": "bytes32",
          "name": "s",
          "type": "bytes32"
        }
      ],
      "name": "permit",
      "outputs": [],
      "stateMutability": "nonpayable",
      "type": "function"
    },
    {
      "inputs": [
        {
          "internalType": "uint256",
          "name": "assets",
          "type": "uint256"
        }
      ],
      "name": "previewDeposit",
      "outputs": [
        {
          "internalType": "uint256",
          "name": "",
          "type": "uint256"
        }
      ],
      "stateMutability": "view",
      "type": "function"
    },
    {
      "inputs": [
        {
          "internalType": "uint256",
          "name": "shares",
          "type": "uint256"
        }
      ],
      "name": "previewMint",
      "outputs": [
        {
          "internalType": "uint256",
          "name": "",
          "type": "uint256"
        }
      ],
      "stateMutability": "view",
      "type": "function"
    },
    {
      "inputs": [
        {
          "internalType": "uint256",
          "name": "shares",
          "type": "uint256"
        }
      ],
      "name": "previewRedeem",
      "outputs": [
        {
          "internalType": "uint256",
          "name": "",
          "type": "uint256"
        }
      ],
      "stateMutability": "view",
      "type": "function"
    },
    {
      "inputs": [
        {
          "internalType": "uint256",
          "name": "assets",
          "type": "uint256"
        }
      ],
      "name": "previewWithdraw",
      "outputs": [
        {
          "internalType": "uint256",
          "name": "",
          "type": "uint256"
        }
      ],
      "stateMutability": "view",
      "type": "function"
    },
    {
      "inputs": [
        {
          "internalType": "uint256",
          "name": "shares",
          "type": "uint256"
        },
        {
          "internalType": "address",
          "name": "receiver",
          "type": "address"
        },
        {
          "internalType": "address",
          "name": "owner",
          "type": "address"
        }
      ],
      "name": "redeem",
      "outputs": [
        {
          "internalType": "uint256",
          "name": "",
          "type": "uint256"
        }
      ],
      "stateMutability": "nonpayable",
      "type": "function"
    },
    {
      "inputs": [
        {
          "internalType": "address",
          "name": "from",
          "type": "address"
        },
        {
          "internalType": "address",
          "name": "to",
          "type": "address"
        }
      ],
      "name": "redistributeLockedAmount",
      "outputs": [],
      "stateMutability": "nonpayable",
      "type": "function"
    },
    {
      "inputs": [
        {
          "internalType": "address",
          "name": "target",
          "type": "address"
        },
        {
          "internalType": "bool",
          "name": "isFullBlacklisting",
          "type": "bool"
        }
      ],
      "name": "removeFromBlacklist",
      "outputs": [],
      "stateMutability": "nonpayable",
      "type": "function"
    },
    {
      "inputs": [
        {
          "internalType": "bytes32",
          "name": "",
          "type": "bytes32"
        },
        {
          "internalType": "address",
          "name": "",
          "type": "address"
        }
      ],
      "name": "renounceRole",
      "outputs": [],
      "stateMutability": "nonpayable",
      "type": "function"
    },
    {
      "inputs": [
        {
          "internalType": "address",
          "name": "token",
          "type": "address"
        },
        {
          "internalType": "uint256",
          "name": "amount",
          "type": "uint256"
        },
        {
          "internalType": "address",
          "name": "to",
          "type": "address"
        }
      ],
      "name": "rescueTokens",
      "outputs": [],
      "stateMutability": "nonpayable",
      "type": "function"
    },
    {
      "inputs": [
        {
          "internalType": "bytes32",
          "name": "role",
          "type": "bytes32"
        },
        {
          "internalType": "address",
          "name": "account",
          "type": "address"
        }
      ],
      "name": "revokeRole",
      "outputs": [],
      "stateMutability": "nonpayable",
      "type": "function"
    },
    {
      "inputs": [
        {
          "internalType": "bytes4",
          "name": "interfaceId",
          "type": "bytes4"
        }
      ],
      "name": "supportsInterface",
      "outputs": [
        {
          "internalType": "bool",
          "name": "",
          "type": "bool"
        }
      ],
      "stateMutability": "view",
      "type": "function"
    },
    {
      "inputs": [],
      "name": "symbol",
      "outputs": [
        {
          "internalType": "string",
          "name": "",
          "type": "string"
        }
      ],
      "stateMutability": "view",
      "type": "function"
    },
    {
      "inputs": [],
      "name": "totalAssets",
      "outputs": [
        {
          "internalType": "uint256",
          "name": "",
          "type": "uint256"
        }
      ],
      "stateMutability": "view",
      "type": "function"
    },
    {
      "inputs": [],
      "name": "totalSupply",
      "outputs": [
        {
          "internalType": "uint256",
          "name": "",
          "type": "uint256"
        }
      ],
      "stateMutability": "view",
      "type": "function"
    },
    {
      "inputs": [
        {
          "internalType": "address",
          "name": "to",
          "type": "address"
        },
        {
          "internalType": "uint256",
          "name": "value",
          "type": "uint256"
        }
      ],
      "name": "transfer",
      "outputs": [
        {
          "internalType": "bool",
          "name": "",
          "type": "bool"
        }
      ],
      "stateMutability": "nonpayable",
      "type": "function"
    },
    {
      "inputs": [
        {
          "internalType": "address",
          "name": "newAdmin",
          "type": "address"
        }
      ],
      "name": "transferAdmin",
      "outputs": [],
      "stateMutability": "nonpayable",
      "type": "function"
    },
    {
      "inputs": [
        {
          "internalType": "address",
          "name": "from",
          "type": "address"
        },
        {
          "internalType": "address",
          "name": "to",
          "type": "address"
        },
        {
          "internalType": "uint256",
          "name": "value",
          "type": "uint256"
        }
      ],
      "name": "transferFrom",
      "outputs": [
        {
          "internalType": "bool",
          "name": "",
          "type": "bool"
        }
      ],
      "stateMutability": "nonpayable",
      "type": "function"
    },
    {
      "inputs": [
        {
          "internalType": "uint256",
          "name": "amount",
          "type": "uint256"
        }
      ],
      "name": "transferInRewards",
      "outputs": [],
      "stateMutability": "nonpayable",
      "type": "function"
    },
    {
      "inputs": [],
      "name": "vestingAmount",
      "outputs": [
        {
          "internalType": "uint256",
          "name": "",
          "type": "uint256"
        }
      ],
      "stateMutability": "view",
      "type": "function"
    },
    {
      "inputs": [
        {
          "internalType": "uint256",
          "name": "assets",
          "type": "uint256"
        },
        {
          "internalType": "address",
          "name": "receiver",
          "type": "address"
        },
        {
          "internalType": "address",
          "name": "owner",
          "type": "address"
        }
      ],
      "name": "withdraw",
      "outputs": [
        {
          "internalType": "uint256",
          "name": "",
          "type": "uint256"
        }
      ],
      "stateMutability": "nonpayable",
      "type": "function"
    }
  ],
  "bytecode": "0x6101a060405234801561001157600080fd5b50604051612df6380380612df683398101604081905261003091610553565b604080518082018252600580825264735553446560d81b6020808401829052845180860186526001808252603160f81b8284015286518088018852600b81526a5374616b6564205553446560a81b81850152875180890190985294875291860192909252600355869383929060076100a8838261063f565b5060086100b5828261063f565b506100c591508390506009610225565b610120526100d481600a610225565b61014052815160208084019190912060e052815190820120610100524660a05261016160e05161010051604080517f8b73c3c69bb8fe3d512ecc4cf759cc79239f7b179b0ffacaa9a75d522b39400f60208201529081019290925260608201524660808201523060a082015260009060c00160405160208183030381529060405280519060200120905090565b60805250503060c0525060008061017783610258565b9150915081610187576012610189565b805b60ff166101805250506001600160a01b0390811661016052811615806101b657506001600160a01b038216155b806101c857506001600160a01b038316155b156101e65760405163f6b2911f60e01b815260040160405180910390fd5b6102107fbeec13769b5f410b0584f69811bfd923818456d5edcf426b0e31cf90eed7a3f683610334565b5061021c600082610334565b505050506107ad565b60006020835110156102415761023a836103c7565b9050610252565b8161024c848261063f565b5060ff90505b92915050565b60408051600481526024810182526020810180516001600160e01b031663313ce56760e01b17905290516000918291829182916001600160a01b0387169161029f91610721565b600060405180830381855afa9150503d80600081146102da576040519150601f19603f3d011682016040523d82523d6000602084013e6102df565b606091505b50915091508180156102f357506020815110155b156103275760008180602001905181019061030e919061073d565b905060ff8111610325576001969095509350505050565b505b5060009485945092505050565b6000826103b6576001546040516001600160a01b038085169216907ff8ccb027dfcd135e000e9d45e6cc2d662578a8825d4c45b5e32e0adf67e79ec690600090a360015461038d906000906001600160a01b031661040e565b50600180546001600160a01b0384166001600160a01b0319918216179091556002805490911690555b6103c08383610499565b9392505050565b600080829050601f815111156103fb578260405163305a27a960e01b81526004016103f29190610756565b60405180910390fd5b805161040682610789565b179392505050565b6000828152602081815260408083206001600160a01b038516845290915281205460ff1615610491576000838152602081815260408083206001600160a01b0386168085529252808320805460ff1916905551339286917ff6391f5c32d9c69d2a47ea670b442974b53935d1edc7fd64eb21e047a839171b9190a4506001610252565b506000610252565b6000828152602081815260408083206001600160a01b038516845290915281205460ff16610491576000838152602081815260408083206001600160a01b03861684529091529020805460ff191660011790556104f33390565b6001600160a01b0316826001600160a01b0316847f2f8788117e7eff1d82e926ec794901d17c78024a50270940304540a733656f0d60405160405180910390a4506001610252565b6001600160a01b038116811461055057600080fd5b50565b60008060006060848603121561056857600080fd5b83516105738161053b565b60208501519093506105848161053b565b60408501519092506105958161053b565b809150509250925092565b634e487b7160e01b600052604160045260246000fd5b600181811c908216806105ca57607f821691505b6020821081036105ea57634e487b7160e01b600052602260045260246000fd5b50919050565b601f82111561063a57806000526020600020601f840160051c810160208510156106175750805b601f840160051c820191505b818110156106375760008155600101610623565b50505b505050565b81516001600160401b03811115610658576106586105a0565b61066c8161066684546105b6565b846105f0565b6020601f8211600181146106a057600083156106885750848201515b600019600385901b1c1916600184901b178455610637565b600084815260208120601f198516915b828110156106d057878501518255602094850194600190920191016106b0565b50848210156106ee5786840151600019600387901b60f8161c191681555b50505050600190811b01905550565b60005b83811015610718578181015183820152602001610700565b50506000910152565b600082516107338184602087016106fd565b9190910192915050565b60006020828403121561074f57600080fd5b5051919050565b60208152600082518060208401526107758160408501602087016106fd565b601f01601f19169190910160400192915050565b805160208083015191908110156105ea5760001960209190910360031b1b16919050565b60805160a05160c05160e05161010051610120516101405161016051610180516125b961083d60003960005050600081816103be0152818161062601528181610b1201528181610d1201528181611a400152611c5001526000611416015260006113e9015260006112d1015260006112a9015260006112040152600061122e0152600061125801526125b96000f3fe608060405234801561001057600080fd5b50600436106102945760003560e01c806384b0196e11610167578063c336a084116100ce578063d547741f11610087578063d547741f146105a0578063d905777e146105b3578063dd62ed3e146105c6578063e7c2a608146105ff578063ef8b30f714610554578063f298f42c1461060757600080fd5b8063c336a08414610541578063c63d75b6146103f6578063c6e6f59214610554578063c80ef11014610567578063ce96cb771461057a578063d505accf1461058d57600080fd5b8063a217fddf11610120578063a217fddf146104da578063a9059cbb146104e2578063b37fd190146104f5578063b3d7f6b914610508578063b460af941461051b578063ba0876521461052e57600080fd5b806384b0196e1461046d5780638da5cb5b1461048857806391d148541461049957806394bf804d146104ac57806395d89b41146104bf578063a0776b82146104c757600080fd5b8063248a9ca31161020b578063402d267d116101c4578063402d267d146103f65780634cdad506146102f55780636e553f651461040b57806370a082311461041e57806375829def146104475780637ecebe001461045a57600080fd5b8063248a9ca31461035c5780632f2ff15d1461037f578063313ce567146103925780633644e515146103a157806336568abe146103a957806338d52e0f146103bc57600080fd5b8063095ea7b31161025d578063095ea7b3146103085780630a28a4771461031b5780630e18b6811461032e57806318160ddd14610338578063209509331461034057806323b872dd1461034957600080fd5b8062728f761461029957806301e1d114146102b557806301ffc9a7146102bd57806306fdde03146102e057806307a2d13a146102f5575b600080fd5b6102a2600c5481565b6040519081526020015b60405180910390f35b6102a261061a565b6102d06102cb366004611fde565b6106be565b60405190151581526020016102ac565b6102e86106f5565b6040516102ac919061204e565b6102a2610303366004612061565b610787565b6102d0610316366004612096565b610794565b6102a2610329366004612061565b6107ac565b6103366107b9565b005b6006546102a2565b6102a2600d5481565b6102d06103573660046120c0565b6107f2565b6102a261036a366004612061565b60009081526020819052604090206001015490565b61033661038d3660046120fd565b610818565b604051601281526020016102ac565b6102a2610853565b6103366103b73660046120fd565b61085d565b7f00000000000000000000000000000000000000000000000000000000000000005b6040516001600160a01b0390911681526020016102ac565b6102a2610404366004612129565b5060001990565b6102a26104193660046120fd565b610876565b6102a261042c366004612129565b6001600160a01b031660009081526004602052604090205490565b610336610455366004612129565b6108aa565b6102a2610468366004612129565b610931565b61047561094f565b6040516102ac9796959493929190612144565b6001546001600160a01b03166103de565b6102d06104a73660046120fd565b610995565b6102a26104ba3660046120fd565b6109be565b6102e86109dc565b6103366104d53660046121dc565b6109eb565b6102a2600081565b6102d06104f0366004612096565b610aef565b610336610503366004612206565b610afd565b6102a2610516366004612061565b610b86565b6102a2610529366004612242565b610b93565b6102a261053c366004612242565b610beb565b61033661054f366004612275565b610c3a565b6102a2610562366004612061565b610c9b565b610336610575366004612061565b610ca8565b6102a2610588366004612129565b610d79565b61033661059b3660046122b1565b610d9d565b6103366105ae3660046120fd565b610ed7565b6102a26105c1366004612129565b610f0b565b6102a26105d43660046121dc565b6001600160a01b03918216600090815260056020908152604080832093909416825291909152205490565b6102a2610f29565b610336610615366004612275565b610f72565b6000610624610f29565b7f00000000000000000000000000000000000000000000000000000000000000006040516370a0823160e01b81523060048201526001600160a01b0391909116906370a0823190602401602060405180830381865afa15801561068b573d6000803e3d6000fd5b505050506040513d601f19601f820116820180604052508101906106af9190612324565b6106b99190612353565b905090565b60006001600160e01b03198216637965db0b60e01b14806106ef57506301ffc9a760e01b6001600160e01b03198316145b92915050565b60606007805461070490612366565b80601f016020809104026020016040519081016040528092919081815260200182805461073090612366565b801561077d5780601f106107525761010080835404028352916020019161077d565b820191906000526020600020905b81548152906001019060200180831161076057829003601f168201915b5050505050905090565b60006106ef82600061101f565b6000336107a2818585611059565b5060019392505050565b60006106ef826001611066565b6002546001600160a01b031633146107e45760405163058d9a1b60e01b815260040160405180910390fd5b6107ef600033611096565b50565b600033610800858285611122565b61080b85858561118e565b60019150505b9392505050565b6000610823816111ed565b82806108425760405163318bd07d60e11b815260040160405180910390fd5b61084c8484611096565b5050505050565b60006106b96111f7565b604051637a851da960e11b815260040160405180910390fd5b6000600019610889565b60405180910390fd5b600061089485610c9b565b90506108a233858784611322565b949350505050565b60006108b5816111ed565b336001600160a01b038316036108de5760405163318bd07d60e11b815260040160405180910390fd5b600280546001600160a01b0319166001600160a01b03848116918217909255600154604051919216907fefdcbba819467e00b0262c12892dda980bac68580b72178e57a162368b80876690600090a35050565b6001600160a01b0381166000908152600b60205260408120546106ef565b6000606080600080600060606109636113e2565b61096b61140f565b60408051600080825260208201909252600f60f81b9b939a50919850469750309650945092509050565b6000918252602082815260408084206001600160a01b0393909316845291905290205460ff1690565b600060001960006109ce85610b86565b90506108a233858388611322565b60606008805461070490612366565b6109f361143c565b60006109fe816111ed565b610a1660008051602061256483398151915284610995565b8015610a375750610a3560008051602061256483398151915283610995565b155b1561085d576001600160a01b03831660009081526004602052604081205490610a5f82610787565b9050610a6b8583611466565b6001600160a01b038416610a8757610a828161149c565b610a91565b610a9184836114cd565b836001600160a01b0316856001600160a01b03167fb8ef21f2b52f8ca740012254a6b10f17d2fd6e589f97ebf401fde0e8b921893784604051610ad691815260200190565b60405180910390a3505050610aeb6001600355565b5050565b6000336107a281858561118e565b610b0561143c565b6000610b10816111ed565b7f00000000000000000000000000000000000000000000000000000000000000006001600160a01b0316846001600160a01b031603610b625760405163c1ab6dc160e01b815260040160405180910390fd5b610b766001600160a01b0385168385611503565b50610b816001600355565b505050565b60006106ef82600161101f565b600080610b9f83610d79565b905080851115610bc857828582604051633fa733bb60e21b8152600401610880939291906123a0565b6000610bd3866107ac565b9050610be23386868985611562565b95945050505050565b600080610bf783610f0b565b905080851115610c2057828582604051632e52afbb60e21b8152600401610880939291906123a0565b6000610c2b86610787565b9050610be2338686848a611562565b7ff988e4fb62b8e14f4820fed03192306ddf4d7dbfa215595ba1c6ba4b76b369ee610c64816111ed565b600082610c7f57600080516020612544833981519152610c8f565b6000805160206125648339815191525b905061084c8185611641565b60006106ef826000611066565b610cb061143c565b7fbeec13769b5f410b0584f69811bfd923818456d5edcf426b0e31cf90eed7a3f6610cda816111ed565b8180600003610cfc5760405163162908e360e11b815260040160405180910390fd5b610d058361149c565b610d3a6001600160a01b037f0000000000000000000000000000000000000000000000000000000000000000163330866116b4565b6040518381527fbb28dd7cd6be6f61828ea9158a04c5182c716a946a6d2f31f4864edb87471aa69060200160405180910390a150506107ef6001600355565b6001600160a01b0381166000908152600460205260408120546106ef90600061101f565b83421115610dc15760405163313c898160e11b815260048101859052602401610880565b60007f6e71edae12b1b97f4d1f60370fef10105fa2faae0126114a169c64845d6126c9888888610e0e8c6001600160a01b03166000908152600b6020526040902080546001810190915590565b6040805160208101969096526001600160a01b0394851690860152929091166060840152608083015260a082015260c0810186905260e0016040516020818303038152906040528051906020012090506000610e69826116ed565b90506000610e798287878761171a565b9050896001600160a01b0316816001600160a01b031614610ec0576040516325c0072360e11b81526001600160a01b0380831660048301528b166024820152604401610880565b610ecb8a8a8a611059565b50505050505050505050565b6000610ee2816111ed565b8280610f015760405163318bd07d60e11b815260040160405180910390fd5b61084c8484611641565b6001600160a01b0381166000908152600460205260408120546106ef565b600080600d5442610f3a9190612353565b90506170808110610f4d57600091505090565b600c5461708082810391610f6190836123c1565b610f6b91906123ee565b9250505090565b7ff988e4fb62b8e14f4820fed03192306ddf4d7dbfa215595ba1c6ba4b76b369ee610f9c816111ed565b82610faf6001546001600160a01b031690565b6001600160a01b0316816001600160a01b031603610fe0576040516303f9f15d60e61b815260040160405180910390fd5b600083610ffb5760008051602061254483398151915261100b565b6000805160206125648339815191525b90506110178186611096565b505050505050565b600061081161102c61061a565b611037906001612402565b6110436000600a6124fc565b6006546110509190612402565b85919085611748565b610b81838383600161178c565b600061081161107682600a6124fc565b6006546110839190612402565b61108b61061a565b611050906001612402565b600082611118576001546040516001600160a01b038085169216907ff8ccb027dfcd135e000e9d45e6cc2d662578a8825d4c45b5e32e0adf67e79ec690600090a36001546110ef906000906001600160a01b0316611641565b50600180546001600160a01b0384166001600160a01b0319918216179091556002805490911690555b6108118383611861565b6001600160a01b03838116600090815260056020908152604080832093861683529290522054600019811015611188578181101561117957828183604051637dc7a0d960e11b8152600401610880939291906123a0565b6111888484848403600061178c565b50505050565b6001600160a01b0383166111b857604051634b637e8f60e11b815260006004820152602401610880565b6001600160a01b0382166111e25760405163ec442f0560e01b815260006004820152602401610880565b610b818383836118eb565b6107ef8133611a02565b6000306001600160a01b037f00000000000000000000000000000000000000000000000000000000000000001614801561125057507f000000000000000000000000000000000000000000000000000000000000000046145b1561127a57507f000000000000000000000000000000000000000000000000000000000000000090565b6106b9604080517f8b73c3c69bb8fe3d512ecc4cf759cc79239f7b179b0ffacaa9a75d522b39400f60208201527f0000000000000000000000000000000000000000000000000000000000000000918101919091527f000000000000000000000000000000000000000000000000000000000000000060608201524660808201523060a082015260009060c00160405160208183030381529060405280519060200120905090565b61132a61143c565b818060000361134c5760405163162908e360e11b815260040160405180910390fd5b818060000361136e5760405163162908e360e11b815260040160405180910390fd5b61138660008051602061254483398151915287610995565b806113a457506113a460008051602061254483398151915286610995565b156113c257604051637a851da960e11b815260040160405180910390fd5b6113ce86868686611a3b565b6113d6611abf565b50506111886001600355565b60606106b97f00000000000000000000000000000000000000000000000000000000000000006009611b01565b60606106b97f0000000000000000000000000000000000000000000000000000000000000000600a611b01565b60026003540361145f57604051633ee5aeb560e01b815260040160405180910390fd5b6002600355565b6001600160a01b03821661149057604051634b637e8f60e11b815260006004820152602401610880565b610aeb826000836118eb565b60006114a6610f29565b11156114c457604051628099ef60e11b815260040160405180910390fd5b600c5542600d55565b6001600160a01b0382166114f75760405163ec442f0560e01b815260006004820152602401610880565b610aeb600083836118eb565b6040516001600160a01b03838116602483015260448201839052610b8191859182169063a9059cbb906064015b604051602081830303815290604052915060e01b6020820180516001600160e01b038381831617835250505050611bac565b61156a61143c565b818060000361158c5760405163162908e360e11b815260040160405180910390fd5b81806000036115ae5760405163162908e360e11b815260040160405180910390fd5b6115c660008051602061256483398151915288610995565b806115e457506115e460008051602061256483398151915287610995565b80611602575061160260008051602061256483398151915286610995565b1561162057604051637a851da960e11b815260040160405180910390fd5b61162d8787878787611c1d565b611635611abf565b505061084c6001600355565b600061164d8383610995565b156116ac576000838152602081815260408083206001600160a01b0386168085529252808320805460ff1916905551339286917ff6391f5c32d9c69d2a47ea670b442974b53935d1edc7fd64eb21e047a839171b9190a45060016106ef565b5060006106ef565b6040516001600160a01b0384811660248301528381166044830152606482018390526111889186918216906323b872dd90608401611530565b60006106ef6116fa6111f7565b8360405161190160f01b8152600281019290925260228201526042902090565b60008060008061172c88888888611cdd565b92509250925061173c8282611dac565b50909695505050505050565b600061177761175683611e65565b801561177257506000848061176d5761176d6123d8565b868809115b151590565b611782868686611e92565b610be29190612402565b6001600160a01b0384166117b65760405163e602df0560e01b815260006004820152602401610880565b6001600160a01b0383166117e057604051634a1406b160e11b815260006004820152602401610880565b6001600160a01b038085166000908152600560209081526040808320938716835292905220829055801561118857826001600160a01b0316846001600160a01b03167f8c5be1e5ebec7d5bd14f71427d1e84f3dd0314c0f7b2291e5b200ac8c7c3b9258460405161185391815260200190565b60405180910390a350505050565b600061186d8383610995565b6116ac576000838152602081815260408083206001600160a01b03861684529091529020805460ff191660011790556118a33390565b6001600160a01b0316826001600160a01b0316847f2f8788117e7eff1d82e926ec794901d17c78024a50270940304540a733656f0d60405160405180910390a45060016106ef565b6001600160a01b03831661191657806006600082825461190b9190612402565b909155506119759050565b6001600160a01b038316600090815260046020526040902054818110156119565783818360405163391434e360e21b8152600401610880939291906123a0565b6001600160a01b03841660009081526004602052604090209082900390555b6001600160a01b038216611991576006805482900390556119b0565b6001600160a01b03821660009081526004602052604090208054820190555b816001600160a01b0316836001600160a01b03167fddf252ad1be2c89b69c2b068fc378daa952ba7f163c4a11628f55a4df523b3ef836040516119f591815260200190565b60405180910390a3505050565b611a0c8282610995565b610aeb5760405163e2517d3f60e01b81526001600160a01b038216600482015260248101839052604401610880565b611a677f00000000000000000000000000000000000000000000000000000000000000008530856116b4565b611a7183826114cd565b826001600160a01b0316846001600160a01b03167fdcbc1c05240f31ff3ad067ef1ee35ce4997762752e3a095284754544f4c709d78484604051611853929190918252602082015260400190565b6000611aca60065490565b9050600081118015611ae35750670de0b6b3a764000081105b156107ef57604051635a5c1b5560e11b815260040160405180910390fd5b606060ff8314611b1b57611b1483611f47565b90506106ef565b818054611b2790612366565b80601f0160208091040260200160405190810160405280929190818152602001828054611b5390612366565b8015611ba05780601f10611b7557610100808354040283529160200191611ba0565b820191906000526020600020905b815481529060010190602001808311611b8357829003601f168201915b505050505090506106ef565b600080602060008451602086016000885af180611bcf576040513d6000823e3d81fd5b50506000513d91508115611be7578060011415611bf4565b6001600160a01b0384163b155b1561118857604051635274afe760e01b81526001600160a01b0385166004820152602401610880565b826001600160a01b0316856001600160a01b031614611c4157611c41838683611122565b611c4b8382611466565b611c767f00000000000000000000000000000000000000000000000000000000000000008584611503565b826001600160a01b0316846001600160a01b0316866001600160a01b03167ffbde797d201c681b91056529119e0b02407c7bb96a4a2c75c01fc9667232c8db8585604051611cce929190918252602082015260400190565b60405180910390a45050505050565b600080807f7fffffffffffffffffffffffffffffff5d576e7357a4501ddfe92f46681b20a0841115611d185750600091506003905082611da2565b604080516000808252602082018084528a905260ff891692820192909252606081018790526080810186905260019060a0016020604051602081039080840390855afa158015611d6c573d6000803e3d6000fd5b5050604051601f1901519150506001600160a01b038116611d9857506000925060019150829050611da2565b9250600091508190505b9450945094915050565b6000826003811115611dc057611dc061250b565b03611dc9575050565b6001826003811115611ddd57611ddd61250b565b03611dfb5760405163f645eedf60e01b815260040160405180910390fd5b6002826003811115611e0f57611e0f61250b565b03611e305760405163fce698f760e01b815260048101829052602401610880565b6003826003811115611e4457611e4461250b565b03610aeb576040516335e2f38360e21b815260048101829052602401610880565b60006002826003811115611e7b57611e7b61250b565b611e859190612521565b60ff166001149050919050565b6000806000611ea18686611f86565b9150915081600003611ec657838181611ebc57611ebc6123d8565b0492505050610811565b818411611edd57611edd6003851502601118611fa4565b6000848688096000868103871696879004966002600389028118808a02820302808a02820302808a02820302808a02820302808a02820302808a02909103029181900381900460010185841190960395909502919093039390930492909217029150509392505050565b60606000611f5483611fb6565b604080516020808252818301909252919250600091906020820181803683375050509182525060208101929092525090565b60008060001983850993909202808410938190039390930393915050565b634e487b71600052806020526024601cfd5b600060ff8216601f8111156106ef57604051632cd44ac360e21b815260040160405180910390fd5b600060208284031215611ff057600080fd5b81356001600160e01b03198116811461081157600080fd5b6000815180845260005b8181101561202e57602081850181015186830182015201612012565b506000602082860101526020601f19601f83011685010191505092915050565b6020815260006108116020830184612008565b60006020828403121561207357600080fd5b5035919050565b80356001600160a01b038116811461209157600080fd5b919050565b600080604083850312156120a957600080fd5b6120b28361207a565b946020939093013593505050565b6000806000606084860312156120d557600080fd5b6120de8461207a565b92506120ec6020850161207a565b929592945050506040919091013590565b6000806040838503121561211057600080fd5b823591506121206020840161207a565b90509250929050565b60006020828403121561213b57600080fd5b6108118261207a565b60ff60f81b8816815260e06020820152600061216360e0830189612008565b82810360408401526121758189612008565b606084018890526001600160a01b038716608085015260a0840186905283810360c08501528451808252602080870193509091019060005b818110156121cb5783518352602093840193909201916001016121ad565b50909b9a5050505050505050505050565b600080604083850312156121ef57600080fd5b6121f88361207a565b91506121206020840161207a565b60008060006060848603121561221b57600080fd5b6122248461207a565b9250602084013591506122396040850161207a565b90509250925092565b60008060006060848603121561225757600080fd5b833592506122676020850161207a565b91506122396040850161207a565b6000806040838503121561228857600080fd5b6122918361207a565b9150602083013580151581146122a657600080fd5b809150509250929050565b600080600080600080600060e0888a0312156122cc57600080fd5b6122d58861207a565b96506122e36020890161207a565b95506040880135945060608801359350608088013560ff8116811461230757600080fd5b9699959850939692959460a0840135945060c09093013592915050565b60006020828403121561233657600080fd5b5051919050565b634e487b7160e01b600052601160045260246000fd5b818103818111156106ef576106ef61233d565b600181811c9082168061237a57607f821691505b60208210810361239a57634e487b7160e01b600052602260045260246000fd5b50919050565b6001600160a01b039390931683526020830191909152604082015260600190565b80820281158282048414176106ef576106ef61233d565b634e487b7160e01b600052601260045260246000fd5b6000826123fd576123fd6123d8565b500490565b808201808211156106ef576106ef61233d565b6001815b6001841115612450578085048111156124345761243461233d565b600184161561244257908102905b60019390931c928002612419565b935093915050565b600082612467575060016106ef565b81612474575060006106ef565b816001811461248a5760028114612494576124b0565b60019150506106ef565b60ff8411156124a5576124a561233d565b50506001821b6106ef565b5060208310610133831016604e8410600b84101617156124d3575081810a6106ef565b6124e06000198484612415565b80600019048211156124f4576124f461233d565b029392505050565b600061081160ff841683612458565b634e487b7160e01b600052602160045260246000fd5b600060ff831680612534576125346123d8565b8060ff8416069150509291505056fe8f7080408a06296c6347c87c115ad99669141ae35eae974c12dff8bd01680cb60a4af4bcc1942295207d9f047442ebdae6170a6e324850f758b14cf99b65c3bda26469706673582212202dbe550f5bbf84cb08b400b4fc3e91e2d10cef1a1063d1c6ba1b676191a1a2c064736f6c634300081c0033",
  "linkReferences": {},
  "deployedLinkReferences": {}
}