{
  "_format": "hh-sol-artifact-1",
  "contractName": "ERC20Cooldown",
  "sourceName": "contracts/tranches/base/cooldown/ERC20Cooldown.sol",
  "abi": [
    {
      "inputs": [
        {
          "internalType": "address",
          "name": "account",
          "type": "address"
        },
        {
          "internalType": "bytes32",
          "name": "neededRole",
          "type": "bytes32"
        }
      ],
      "name": "AccessControlUnauthorizedAccount",
      "type": "error"
    },
    {
      "inputs": [
        {
          "internalType": "contract IERC20",
          "name": "token",
          "type": "address"
        },
        {
          "internalType": "address",
          "name": "from",
          "type": "address"
        },
        {
          "internalType": "address",
          "name": "to",
          "type": "address"
        },
        {
          "internalType": "uint256",
          "name": "amount",
          "type": "uint256"
        }
      ],
      "name": "ExternalReceiverRequestLimitReached",
      "type": "error"
    },
    {
      "inputs": [],
      "name": "InvalidInitialization",
      "type": "error"
    },
    {
      "inputs": [],
      "name": "InvalidTime",
      "type": "error"
    },
    {
      "inputs": [],
      "name": "NotInitializing",
      "type": "error"
    },
    {
      "inputs": [],
      "name": "NothingToFinalize",
      "type": "error"
    },
    {
      "inputs": [
        {
          "internalType": "address",
          "name": "owner",
          "type": "address"
        }
      ],
      "name": "OwnableInvalidOwner",
      "type": "error"
    },
    {
      "inputs": [
        {
          "internalType": "address",
          "name": "account",
          "type": "address"
        }
      ],
      "name": "OwnableUnauthorizedAccount",
      "type": "error"
    },
    {
      "inputs": [],
      "name": "ReentrancyGuardReentrantCall",
      "type": "error"
    },
    {
      "inputs": [
        {
          "internalType": "address",
          "name": "token",
          "type": "address"
        }
      ],
      "name": "SafeERC20FailedOperation",
      "type": "error"
    },
    {
      "inputs": [
        {
          "internalType": "address",
          "name": "sender",
          "type": "address"
        },
        {
          "internalType": "address",
          "name": "calledContract",
          "type": "address"
        },
        {
          "internalType": "bytes4",
          "name": "sel",
          "type": "bytes4"
        }
      ],
      "name": "Unauthorized",
      "type": "error"
    },
    {
      "inputs": [
        {
          "internalType": "address",
          "name": "token",
          "type": "address"
        }
      ],
      "name": "UnsupportedToken",
      "type": "error"
    },
    {
      "inputs": [],
      "name": "ZeroAddress",
      "type": "error"
    },
    {
      "anonymous": false,
      "inputs": [
        {
          "indexed": true,
          "internalType": "contract IERC20",
          "name": "token",
          "type": "address"
        },
        {
          "indexed": true,
          "internalType": "address",
          "name": "user",
          "type": "address"
        },
        {
          "indexed": false,
          "internalType": "uint256",
          "name": "amount",
          "type": "uint256"
        }
      ],
      "name": "Finalized",
      "type": "event"
    },
    {
      "anonymous": false,
      "inputs": [
        {
          "indexed": false,
          "internalType": "uint64",
          "name": "version",
          "type": "uint64"
        }
      ],
      "name": "Initialized",
      "type": "event"
    },
    {
      "anonymous": false,
      "inputs": [
        {
          "indexed": false,
          "internalType": "address",
          "name": "accessControlManager",
          "type": "address"
        }
      ],
      "name": "NewAccessControlManager",
      "type": "event"
    },
    {
      "anonymous": false,
      "inputs": [
        {
          "indexed": true,
          "internalType": "address",
          "name": "previousOwner",
          "type": "address"
        },
        {
          "indexed": true,
          "internalType": "address",
          "name": "newOwner",
          "type": "address"
        }
      ],
      "name": "OwnershipTransferStarted",
      "type": "event"
    },
    {
      "anonymous": false,
      "inputs": [
        {
          "indexed": true,
          "internalType": "address",
          "name": "previousOwner",
          "type": "address"
        },
        {
          "indexed": true,
          "internalType": "address",
          "name": "newOwner",
          "type": "address"
        }
      ],
      "name": "OwnershipTransferred",
      "type": "event"
    },
    {
      "anonymous": false,
      "inputs": [
        {
          "indexed": true,
          "internalType": "contract IERC20",
          "name": "token",
          "type": "address"
        },
        {
          "indexed": true,
          "internalType": "address",
          "name": "from",
          "type": "address"
        },
        {
          "indexed": true,
          "internalType": "address",
          "name": "to",
          "type": "address"
        },
        {
          "indexed": false,
          "internalType": "uint256",
          "name": "amount",
          "type": "uint256"
        },
        {
          "indexed": false,
          "internalType": "uint256",
          "name": "unlockAt",
          "type": "uint256"
        }
      ],
      "name": "TransferRequested",
      "type": "event"
    },
    {
      "inputs": [],
      "name": "COOLDOWN_WORKER_ROLE",
      "outputs": [
        {
          "internalType": "bytes32",
          "name": "",
          "type": "bytes32"
        }
      ],
      "stateMutability": "view",
      "type": "function"
    },
    {
      "inputs": [],
      "name": "PAUSER_ROLE",
      "outputs": [
        {
          "internalType": "bytes32",
          "name": "",
          "type": "bytes32"
        }
      ],
      "stateMutability": "view",
      "type": "function"
    },
    {
      "inputs": [],
      "name": "RESERVE_MANAGER_ROLE",
      "outputs": [
        {
          "internalType": "bytes32",
          "name": "",
          "type": "bytes32"
        }
      ],
      "stateMutability": "view",
      "type": "function"
    },
    {
      "inputs": [],
      "name": "UPDATER_CDO_APR_ROLE",
      "outputs": [
        {
          "internalType": "bytes32",
          "name": "",
          "type": "bytes32"
        }
      ],
      "stateMutability": "view",
      "type": "function"
    },
    {
      "inputs": [],
      "name": "UPDATER_FEED_ROLE",
      "outputs": [
        {
          "internalType": "bytes32",
          "name": "",
          "type": "bytes32"
        }
      ],
      "stateMutability": "view",
      "type": "function"
    },
    {
      "inputs": [],
      "name": "UPDATER_STRAT_CONFIG_ROLE",
      "outputs": [
        {
          "internalType": "bytes32",
          "name": "",
          "type": "bytes32"
        }
      ],
      "stateMutability": "view",
      "type": "function"
    },
    {
      "inputs": [],
      "name": "acceptOwnership",
      "outputs": [],
      "stateMutability": "nonpayable",
      "type": "function"
    },
    {
      "inputs": [],
      "name": "acm",
      "outputs": [
        {
          "internalType": "contract IAccessControlManager",
          "name": "",
          "type": "address"
        }
      ],
      "stateMutability": "view",
      "type": "function"
    },
    {
      "inputs": [
        {
          "internalType": "address",
          "name": "token",
          "type": "address"
        },
        {
          "internalType": "address",
          "name": "account",
          "type": "address"
        },
        {
          "internalType": "uint256",
          "name": "",
          "type": "uint256"
        }
      ],
      "name": "activeRequests",
      "outputs": [
        {
          "internalType": "uint64",
          "name": "unlockAt",
          "type": "uint64"
        },
        {
          "internalType": "uint192",
          "name": "amount",
          "type": "uint192"
        }
      ],
      "stateMutability": "view",
      "type": "function"
    },
    {
      "inputs": [
        {
          "internalType": "contract IERC20",
          "name": "token",
          "type": "address"
        },
        {
          "internalType": "address",
          "name": "user",
          "type": "address"
        },
        {
          "internalType": "uint256",
          "name": "at",
          "type": "uint256"
        }
      ],
      "name": "balanceOf",
      "outputs": [
        {
          "components": [
            {
              "internalType": "uint256",
              "name": "pending",
              "type": "uint256"
            },
            {
              "internalType": "uint256",
              "name": "claimable",
              "type": "uint256"
            },
            {
              "internalType": "uint256",
              "name": "nextUnlockAt",
              "type": "uint256"
            },
            {
              "internalType": "uint256",
              "name": "nextUnlockAmount",
              "type": "uint256"
            },
            {
              "internalType": "uint256",
              "name": "totalRequests",
              "type": "uint256"
            }
          ],
          "internalType": "struct ICooldown.TBalanceState",
          "name": "",
          "type": "tuple"
        }
      ],
      "stateMutability": "view",
      "type": "function"
    },
    {
      "inputs": [
        {
          "internalType": "contract IERC20",
          "name": "token",
          "type": "address"
        },
        {
          "internalType": "address",
          "name": "user",
          "type": "address"
        }
      ],
      "name": "balanceOf",
      "outputs": [
        {
          "components": [
            {
              "internalType": "uint256",
              "name": "pending",
              "type": "uint256"
            },
            {
              "internalType": "uint256",
              "name": "claimable",
              "type": "uint256"
            },
            {
              "internalType": "uint256",
              "name": "nextUnlockAt",
              "type": "uint256"
            },
            {
              "internalType": "uint256",
              "name": "nextUnlockAmount",
              "type": "uint256"
            },
            {
              "internalType": "uint256",
              "name": "totalRequests",
              "type": "uint256"
            }
          ],
          "internalType": "struct ICooldown.TBalanceState",
          "name": "",
          "type": "tuple"
        }
      ],
      "stateMutability": "view",
      "type": "function"
    },
    {
      "inputs": [
        {
          "internalType": "address",
          "name": "token",
          "type": "address"
        }
      ],
      "name": "cooldownDisabled",
      "outputs": [
        {
          "internalType": "bool",
          "name": "isCooldownDisabled",
          "type": "bool"
        }
      ],
      "stateMutability": "view",
      "type": "function"
    },
    {
      "inputs": [
        {
          "internalType": "contract IERC20",
          "name": "token",
          "type": "address"
        },
        {
          "internalType": "address",
          "name": "user",
          "type": "address"
        },
        {
          "internalType": "uint256",
          "name": "at",
          "type": "uint256"
        }
      ],
      "name": "finalize",
      "outputs": [
        {
          "internalType": "uint256",
          "name": "claimed",
          "type": "uint256"
        }
      ],
      "stateMutability": "nonpayable",
      "type": "function"
    },
    {
      "inputs": [
        {
          "internalType": "contract IERC20",
          "name": "token",
          "type": "address"
        },
        {
          "internalType": "address",
          "name": "user",
          "type": "address"
        }
      ],
      "name": "finalize",
      "outputs": [
        {
          "internalType": "uint256",
          "name": "claimed",
          "type": "uint256"
        }
      ],
      "stateMutability": "nonpayable",
      "type": "function"
    },
    {
      "inputs": [
        {
          "internalType": "address",
          "name": "owner_",
          "type": "address"
        },
        {
          "internalType": "address",
          "name": "acm_",
          "type": "address"
        }
      ],
      "name": "initialize",
      "outputs": [],
      "stateMutability": "nonpayable",
      "type": "function"
    },
    {
      "inputs": [],
      "name": "owner",
      "outputs": [
        {
          "internalType": "address",
          "name": "",
          "type": "address"
        }
      ],
      "stateMutability": "view",
      "type": "function"
    },
    {
      "inputs": [],
      "name": "pendingOwner",
      "outputs": [
        {
          "internalType": "address",
          "name": "",
          "type": "address"
        }
      ],
      "stateMutability": "view",
      "type": "function"
    },
    {
      "inputs": [],
      "name": "renounceOwnership",
      "outputs": [],
      "stateMutability": "nonpayable",
      "type": "function"
    },
    {
      "inputs": [
        {
          "internalType": "address",
          "name": "accessControlManager_",
          "type": "address"
        }
      ],
      "name": "setAccessControlManager",
      "outputs": [],
      "stateMutability": "nonpayable",
      "type": "function"
    },
    {
      "inputs": [
        {
          "internalType": "contract IERC20",
          "name": "token",
          "type": "address"
        },
        {
          "internalType": "bool",
          "name": "isCooldownDisabled",
          "type": "bool"
        }
      ],
      "name": "setCooldownDisabled",
      "outputs": [],
      "stateMutability": "nonpayable",
      "type": "function"
    },
    {
      "inputs": [
        {
          "internalType": "contract IERC20",
          "name": "token",
          "type": "address"
        },
        {
          "internalType": "address",
          "name": "initialFrom",
          "type": "address"
        },
        {
          "internalType": "address",
          "name": "to",
          "type": "address"
        },
        {
          "internalType": "uint256",
          "name": "amount",
          "type": "uint256"
        },
        {
          "internalType": "uint256",
          "name": "cooldownSeconds",
          "type": "uint256"
        }
      ],
      "name": "transfer",
      "outputs": [],
      "stateMutability": "nonpayable",
      "type": "function"
    },
    {
      "inputs": [
        {
          "internalType": "address",
          "name": "newOwner",
          "type": "address"
        }
      ],
      "name": "transferOwnership",
      "outputs": [],
      "stateMutability": "nonpayable",
      "type": "function"
    }
  ],
  "bytecode": "0x6080806040523460d2577ff0c57e16840df040f15088dc2f81fe391c3923bec73e23a9662efc9c229c6a005460ff8160401c1660c1576002600160401b03196001600160401b03821601605c575b60405161146990816100d88239f35b6001600160401b0319166001600160401b039081177ff0c57e16840df040f15088dc2f81fe391c3923bec73e23a9662efc9c229c6a005581527fc7f505b2f371ae2175ee4913f4499e1f2633a7b5936321eed1cdaeb6115181d290602090a13880604d565b63f92ee8a960e01b60005260046000fd5b600080fdfe6080604052600436101561001257600080fd5b60003560e01c80630e32cb86146108d157806316d0bf831461087a57806329662bbf1461083b57806347639321146107be578063485cc955146105915780635e9d2afe14610578578063668983ee1461053d578063715018a6146104bc5780637338ddcc14610493578063737b332d1461045857806379ba5097146104085780638da5cb5b146103d25780638f3cc65714610397578063903fa44614610346578063bcdf569b14610311578063c5f87257146102d6578063e30c3978146102a0578063e63ab1e914610265578063e93119d91461024b578063f2fde38b146101c4578063f7888aec1461014e5763fb2fa6281461010e57600080fd5b346101495760003660031901126101495760206040517f67944e0027e2f9a2b0c3419bbf4470c579a0ff7f0007c5554d431924b9d578978152f35b600080fd5b34610149576040366003190112610149576101c061018561016d610947565b61017561095d565b61017d610fe6565b504291611011565b6040519182918291909160808060a0830194805184526020810151602085015260408101516040850152606081015160608501520151910152565b0390f35b34610149576020366003190112610149576101dd610947565b6101e561117f565b60008051602061141483398151915280546001600160a01b0319166001600160a01b039283169081179091556000805160206113d4833981519152549091167f38d16b8cac22d99fc7c124b9cd0de2d3fa1faef420bfe791d8c362d765e22700600080a3005b34610149576101c061018561025f366109a1565b91611011565b346101495760003660031901126101495760206040517f65d7a28e3265b37a6474929f336521b332c1681b933f6cb9f3376673440d862a8152f35b3461014957600036600319011261014957600080516020611414833981519152546040516001600160a01b039091168152602090f35b346101495760003660031901126101495760206040517fcc938097bd07c9f1619d5e95c26b457140e80b889795c7c1cbd51a28005e02ac8152f35b3461014957604036600319011261014957602061033e61032f610947565b61033761095d565b4291610a90565b604051908152f35b346101495760a03660031901126101495761035f610947565b61036761095d565b604435916001600160a01b03831683036101495761039592610388336111a0565b6084359260643592610cd7565b005b346101495760003660031901126101495760206040517f2c85ecd23ea927ba843f342b5bafa7879dfdc212a00052897f68d65c2ee8491b8152f35b34610149576000366003190112610149576000805160206113d4833981519152546040516001600160a01b039091168152602090f35b346101495760003660031901126101495760008051602061141483398151915254336001600160a01b03909116036104435761039533611296565b63118cdaa760e01b6000523360045260246000fd5b346101495760003660031901126101495760206040517f97d8f58e0f008a842799f9fb6a4e6212ac93db0249409467f149ba102924e8808152f35b34610149576000366003190112610149576000546040516001600160a01b039091168152602090f35b34610149576000366003190112610149576104d561117f565b60008051602061141483398151915280546001600160a01b03199081169091556000805160206113d4833981519152805491821690556000906001600160a01b03167f8be0079c531659141344cd1fd0a4f28419497f9722a3daafe3b4186f6b6457e08280a3005b346101495760003660031901126101495760206040517fb93bf808defb265d057ca8bf7be1ab7ec2ab3c0b320ee05f77fe3cb0e08fbff48152f35b3461014957602061033e61058b366109a1565b91610a90565b34610149576040366003190112610149576105aa610947565b6105b261095d565b6000805160206113f483398151915254916001600160401b0360ff8460401c16159316801590816107b6575b60011490816107ac575b1590816107a3575b50610792578260016001600160401b03196000805160206113f48339815191525416176000805160206113f483398151915255610760575b61063061134a565b61063861134a565b6001600160a01b0381161561074a5761065090611296565b61065861134a565b6001600160a01b03168015610739576020817fea8b2c76280ebcfc6d3bce461d1446949d91929a61dc9c679740f01fddbda81d926bffffffffffffffffffffffff60a01b6000541617600055604051908152a16106b361134a565b6106bb61134a565b60017f9b779b17422d0df92223018b32b4d1fa46e071723d6817e2486d003becc55f00556106e557005b60ff60401b196000805160206113f483398151915254166000805160206113f4833981519152557fc7f505b2f371ae2175ee4913f4499e1f2633a7b5936321eed1cdaeb6115181d2602060405160018152a1005b63d92e233d60e01b60005260046000fd5b631e4fbdf760e01b600052600060045260246000fd5b600160401b60ff60401b196000805160206113f48339815191525416176000805160206113f483398151915255610628565b63f92ee8a960e01b60005260046000fd5b905015846105f0565b303b1591506105e8565b8491506105de565b34610149576060366003190112610149576107d7610947565b6107df61095d565b6044359160018060a01b0316600052603260205260406000209060018060a01b0316600052602052604060002080548210156101495760409161082191610973565b50548151906001600160401b0381168252821c6020820152f35b34610149576020366003190112610149576001600160a01b0361085c610947565b166000526033602052602060ff604060002054166040519015158152f35b3461014957604036600319011261014957610893610947565b60243590811515809203610149576108aa336111a0565b60018060a01b0316600052603360205260406000209060ff80198354169116179055600080f35b34610149576020366003190112610149576108ea610947565b6108f261117f565b6001600160a01b03168015610739576020817fea8b2c76280ebcfc6d3bce461d1446949d91929a61dc9c679740f01fddbda81d926bffffffffffffffffffffffff60a01b6000541617600055604051908152a1005b600435906001600160a01b038216820361014957565b602435906001600160a01b038216820361014957565b805482101561098b5760005260206000200190600090565b634e487b7160e01b600052603260045260246000fd5b6060906003190112610149576004356001600160a01b038116810361014957906024356001600160a01b0381168103610149579060443590565b604081019081106001600160401b038211176109f657604052565b634e487b7160e01b600052604160045260246000fd5b60a081019081106001600160401b038211176109f657604052565b90601f801991011681019081106001600160401b038211176109f657604052565b90604051610a55816109db565b91546001600160401b038116835260401c6020830152565b91908201809211610a7a57565b634e487b7160e01b600052601160045260246000fd5b9091600092428211610cad5760018060a01b0383169182600052603260205260408060002060009060018060a01b03851682526020522083600052603360205260ff6040600020541615908054926000905b848210610b745750505050508315610b635760405163a9059cbb60e01b60208201526001600160a01b03909116602482018190526044808301869052825292610b369190610b31606483610a27565b611378565b7fcfe4c15b673982888f9e722f36b7cb1e43b2ce80353df741f7644e1fbdebf5056020604051858152a390565b6344b0c3ef60e11b60005260046000fd5b9091929397610b8c610b868486610973565b50610a48565b8580610c9a575b610c8d5760200151610bb0916001600160c01b0390911690610a6d565b976000198101908111610a7a57808310610c1b575b83548015610c055760001901610bdb8186610973565b610bef57600090558455935b929190610ae2565b634e487b7160e01b600052600060045260246000fd5b634e487b7160e01b600052603160045260246000fd5b6000610c278286610973565b5090610c338587610973565b919091610c795750818103610c4a575b5050610bc5565b815481546001600160401b0390911667ffffffffffffffff199182168117835592541690911790553880610c43565b634e487b7160e01b81526004819052602490fd5b5097939160010191610be7565b50826001600160401b0382511611610b93565b6337bf561360e11b60005260046000fd5b6001600160c01b039182169082160191908211610a7a57565b93929190938215610fdf578315610f93576001600160a01b038181166000818152603260209081526040808320968516808452969091529020805494979092169590949193908688141580610f88575b610f5e57610d3d6001600160401b039142610a6d565b16906046811015610ea95780151580610e80575b15610de7576000198101908111610a7a5782604094610dd1610d97610dda947ff4b813f5b75d4b48250e927566057ec3372ee6ec2518b4e52bfbe1f0161829ec99610973565b508054610db0906001600160c01b038616908a1c610cbe565b81546001600160401b031660409190911b67ffffffffffffffff1916179055565b30903390611304565b82519182526020820152a4565b506040519293610df6846109db565b8184526001600160c01b038316602085019081528154909190600160401b8110156109f657610e2a91600182018155610973565b919091610bef57935193516001600160401b0390941667ffffffffffffffff19604095861b161790557ff4b813f5b75d4b48250e927566057ec3372ee6ec2518b4e52bfbe1f0161829ec93610dda908390610dd1565b506000198101818111610a7a576001600160401b03610ea0849288610973565b50541614610d51565b600019810194908511610a7a5782604094610ee87ff4b813f5b75d4b48250e927566057ec3372ee6ec2518b4e52bfbe1f0161829ec97610dda94610973565b508054610f2690610f05906001600160c01b038616908a1c610cbe565b82546001600160401b031660409190911b67ffffffffffffffff1916178255565b846001600160401b0382541610610f3e575b50610dd1565b805467ffffffffffffffff19166001600160401b03861617905538610f38565b608486848a8a604051936309f8406b60e01b85526004850152602484015260448301526064820152fd5b506028821015610d27565b935081925080610fc87fcfe4c15b673982888f9e722f36b7cb1e43b2ce80353df741f7644e1fbdebf505936020933388611304565b6040519384526001600160a01b03908116941692a3565b5050505050565b60405190610ff382610a0c565b60006080838281528260208201528260408201528260608201520152565b611019610fe6565b506001600160a01b0390811660008181526032602090815260408083209590941682529384528281209181526033909352908220548154929384928392839283929160ff16155b87841061109157505050506040519461107886610a0c565b8552602085015260408401526060830152608082015290565b909192936110a2610b868686610973565b828061116c575b6110d257602001516001916110c7916001600160c01b031690610a6d565b945b01929190611060565b986110ee60208b979397019160018060c01b0383511690610a6d565b9987158015611159575b61113857516001600160401b03168714611116575b506001906110c9565b519096600191611131916001600160c01b0390911690610a6d565b969061110d565b5190516001600160c01b031697506001600160401b031695506001906110c9565b50876001600160401b03825116106110f8565b50836001600160401b03825116116110a9565b6000805160206113d4833981519152546001600160a01b0316330361044357565b600054604051632474521560e21b81527f97d8f58e0f008a842799f9fb6a4e6212ac93db0249409467f149ba102924e88060048201526001600160a01b039283166024820181905292909160209183916044918391165afa90811561128a57600091611248575b50156112105750565b63e2517d3f60e01b6000526004527f97d8f58e0f008a842799f9fb6a4e6212ac93db0249409467f149ba102924e88060245260446000fd5b6020813d602011611282575b8161126160209383610a27565b8101031261127e575190811515820361127b575038611207565b80fd5b5080fd5b3d9150611254565b6040513d6000823e3d90fd5b60008051602061141483398151915280546001600160a01b03199081169091556000805160206113d483398151915280549182166001600160a01b0393841690811790915591167f8be0079c531659141344cd1fd0a4f28419497f9722a3daafe3b4186f6b6457e0600080a3565b6040516323b872dd60e01b60208201526001600160a01b03928316602482015292909116604483015260648083019390935291815261134891610b31608483610a27565b565b60ff6000805160206113f48339815191525460401c161561136757565b631afcd79f60e31b60005260046000fd5b906000602091828151910182855af11561128a576000513d6113ca57506001600160a01b0381163b155b6113a95750565b635274afe760e01b60009081526001600160a01b0391909116600452602490fd5b600114156113a256fe9016d09d72d40fdae2fd8ceac6b6234c7706214fd39c1cd1e609a0528c199300f0c57e16840df040f15088dc2f81fe391c3923bec73e23a9662efc9c229c6a00237e158222e3e6968b72b9db0d8043aacf074ad9f650f0d1606b4d82ee432c00a26469706673582212206cf8bf4905b4fcb5237bfe871ecc959ff1b279246aff49c394978f78370f49f564736f6c634300081c0033",
  "linkReferences": {},
  "deployedLinkReferences": {}
}