{
  "_format": "hh-sol-artifact-1",
  "contractName": "pUSDeVault",
  "sourceName": "contracts/predeposit/pUSDeVault.sol",
  "abi": [
    {
      "inputs": [],
      "name": "DepositsDisabled",
      "type": "error"
    },
    {
      "inputs": [
        {
          "internalType": "address",
          "name": "spender",
          "type": "address"
        },
        {
          "internalType": "uint256",
          "name": "allowance",
          "type": "uint256"
        },
        {
          "internalType": "uint256",
          "name": "needed",
          "type": "uint256"
        }
      ],
      "name": "ERC20InsufficientAllowance",
      "type": "error"
    },
    {
      "inputs": [
        {
          "internalType": "address",
          "name": "sender",
          "type": "address"
        },
        {
          "internalType": "uint256",
          "name": "balance",
          "type": "uint256"
        },
        {
          "internalType": "uint256",
          "name": "needed",
          "type": "uint256"
        }
      ],
      "name": "ERC20InsufficientBalance",
      "type": "error"
    },
    {
      "inputs": [
        {
          "internalType": "address",
          "name": "approver",
          "type": "address"
        }
      ],
      "name": "ERC20InvalidApprover",
      "type": "error"
    },
    {
      "inputs": [
        {
          "internalType": "address",
          "name": "receiver",
          "type": "address"
        }
      ],
      "name": "ERC20InvalidReceiver",
      "type": "error"
    },
    {
      "inputs": [
        {
          "internalType": "address",
          "name": "sender",
          "type": "address"
        }
      ],
      "name": "ERC20InvalidSender",
      "type": "error"
    },
    {
      "inputs": [
        {
          "internalType": "address",
          "name": "spender",
          "type": "address"
        }
      ],
      "name": "ERC20InvalidSpender",
      "type": "error"
    },
    {
      "inputs": [
        {
          "internalType": "address",
          "name": "receiver",
          "type": "address"
        },
        {
          "internalType": "uint256",
          "name": "assets",
          "type": "uint256"
        },
        {
          "internalType": "uint256",
          "name": "max",
          "type": "uint256"
        }
      ],
      "name": "ERC4626ExceededMaxDeposit",
      "type": "error"
    },
    {
      "inputs": [
        {
          "internalType": "address",
          "name": "receiver",
          "type": "address"
        },
        {
          "internalType": "uint256",
          "name": "shares",
          "type": "uint256"
        },
        {
          "internalType": "uint256",
          "name": "max",
          "type": "uint256"
        }
      ],
      "name": "ERC4626ExceededMaxMint",
      "type": "error"
    },
    {
      "inputs": [
        {
          "internalType": "address",
          "name": "owner",
          "type": "address"
        },
        {
          "internalType": "uint256",
          "name": "shares",
          "type": "uint256"
        },
        {
          "internalType": "uint256",
          "name": "max",
          "type": "uint256"
        }
      ],
      "name": "ERC4626ExceededMaxRedeem",
      "type": "error"
    },
    {
      "inputs": [
        {
          "internalType": "address",
          "name": "owner",
          "type": "address"
        },
        {
          "internalType": "uint256",
          "name": "assets",
          "type": "uint256"
        },
        {
          "internalType": "uint256",
          "name": "max",
          "type": "uint256"
        }
      ],
      "name": "ERC4626ExceededMaxWithdraw",
      "type": "error"
    },
    {
      "inputs": [],
      "name": "InvalidInitialization",
      "type": "error"
    },
    {
      "inputs": [],
      "name": "MinSharesViolation",
      "type": "error"
    },
    {
      "inputs": [],
      "name": "NotInitializing",
      "type": "error"
    },
    {
      "inputs": [
        {
          "internalType": "address",
          "name": "owner",
          "type": "address"
        }
      ],
      "name": "OwnableInvalidOwner",
      "type": "error"
    },
    {
      "inputs": [
        {
          "internalType": "address",
          "name": "account",
          "type": "address"
        }
      ],
      "name": "OwnableUnauthorizedAccount",
      "type": "error"
    },
    {
      "inputs": [
        {
          "internalType": "address",
          "name": "asset",
          "type": "address"
        }
      ],
      "name": "PausedAsset",
      "type": "error"
    },
    {
      "inputs": [
        {
          "internalType": "address",
          "name": "token",
          "type": "address"
        }
      ],
      "name": "SafeERC20FailedOperation",
      "type": "error"
    },
    {
      "inputs": [
        {
          "internalType": "address",
          "name": "asset",
          "type": "address"
        }
      ],
      "name": "UnsupportedAsset",
      "type": "error"
    },
    {
      "inputs": [],
      "name": "WithdrawalsDisabled",
      "type": "error"
    },
    {
      "anonymous": false,
      "inputs": [
        {
          "indexed": true,
          "internalType": "address",
          "name": "owner",
          "type": "address"
        },
        {
          "indexed": true,
          "internalType": "address",
          "name": "spender",
          "type": "address"
        },
        {
          "indexed": false,
          "internalType": "uint256",
          "name": "value",
          "type": "uint256"
        }
      ],
      "name": "Approval",
      "type": "event"
    },
    {
      "anonymous": false,
      "inputs": [
        {
          "indexed": true,
          "internalType": "address",
          "name": "sender",
          "type": "address"
        },
        {
          "indexed": true,
          "internalType": "address",
          "name": "owner",
          "type": "address"
        },
        {
          "indexed": false,
          "internalType": "uint256",
          "name": "assets",
          "type": "uint256"
        },
        {
          "indexed": false,
          "internalType": "uint256",
          "name": "shares",
          "type": "uint256"
        }
      ],
      "name": "Deposit",
      "type": "event"
    },
    {
      "anonymous": false,
      "inputs": [
        {
          "indexed": false,
          "internalType": "bool",
          "name": "enabled",
          "type": "bool"
        }
      ],
      "name": "DepositsStateChanged",
      "type": "event"
    },
    {
      "anonymous": false,
      "inputs": [
        {
          "indexed": false,
          "internalType": "uint64",
          "name": "version",
          "type": "uint64"
        }
      ],
      "name": "Initialized",
      "type": "event"
    },
    {
      "anonymous": false,
      "inputs": [
        {
          "indexed": true,
          "internalType": "address",
          "name": "owner",
          "type": "address"
        },
        {
          "indexed": true,
          "internalType": "address",
          "name": "token",
          "type": "address"
        },
        {
          "indexed": false,
          "internalType": "uint256",
          "name": "tokenAssets",
          "type": "uint256"
        },
        {
          "indexed": false,
          "internalType": "uint256",
          "name": "shares",
          "type": "uint256"
        }
      ],
      "name": "OnMetaDeposit",
      "type": "event"
    },
    {
      "anonymous": false,
      "inputs": [
        {
          "indexed": true,
          "internalType": "address",
          "name": "owner",
          "type": "address"
        },
        {
          "indexed": true,
          "internalType": "address",
          "name": "token",
          "type": "address"
        },
        {
          "indexed": false,
          "internalType": "uint256",
          "name": "tokenAssets",
          "type": "uint256"
        },
        {
          "indexed": false,
          "internalType": "uint256",
          "name": "shares",
          "type": "uint256"
        }
      ],
      "name": "OnMetaWithdraw",
      "type": "event"
    },
    {
      "anonymous": false,
      "inputs": [
        {
          "indexed": true,
          "internalType": "address",
          "name": "token",
          "type": "address"
        }
      ],
      "name": "OnVaultAdded",
      "type": "event"
    },
    {
      "anonymous": false,
      "inputs": [
        {
          "indexed": true,
          "internalType": "address",
          "name": "token",
          "type": "address"
        },
        {
          "indexed": false,
          "internalType": "bool",
          "name": "paused",
          "type": "bool"
        }
      ],
      "name": "OnVaultPausedStateChanged",
      "type": "event"
    },
    {
      "anonymous": false,
      "inputs": [
        {
          "indexed": true,
          "internalType": "address",
          "name": "token",
          "type": "address"
        }
      ],
      "name": "OnVaultRemoved",
      "type": "event"
    },
    {
      "anonymous": false,
      "inputs": [
        {
          "indexed": false,
          "internalType": "address",
          "name": "vault",
          "type": "address"
        },
        {
          "indexed": false,
          "internalType": "uint256",
          "name": "amount",
          "type": "uint256"
        }
      ],
      "name": "OnVaultWithdrawalFailed",
      "type": "event"
    },
    {
      "anonymous": false,
      "inputs": [
        {
          "indexed": true,
          "internalType": "address",
          "name": "previousOwner",
          "type": "address"
        },
        {
          "indexed": true,
          "internalType": "address",
          "name": "newOwner",
          "type": "address"
        }
      ],
      "name": "OwnershipTransferred",
      "type": "event"
    },
    {
      "anonymous": false,
      "inputs": [
        {
          "indexed": false,
          "internalType": "enum PreDepositPhase",
          "name": "phase",
          "type": "uint8"
        }
      ],
      "name": "PhaseStarted",
      "type": "event"
    },
    {
      "anonymous": false,
      "inputs": [
        {
          "indexed": true,
          "internalType": "address",
          "name": "from",
          "type": "address"
        },
        {
          "indexed": true,
          "internalType": "address",
          "name": "to",
          "type": "address"
        },
        {
          "indexed": false,
          "internalType": "uint256",
          "name": "value",
          "type": "uint256"
        }
      ],
      "name": "Transfer",
      "type": "event"
    },
    {
      "anonymous": false,
      "inputs": [
        {
          "indexed": true,
          "internalType": "address",
          "name": "sender",
          "type": "address"
        },
        {
          "indexed": true,
          "internalType": "address",
          "name": "receiver",
          "type": "address"
        },
        {
          "indexed": true,
          "internalType": "address",
          "name": "owner",
          "type": "address"
        },
        {
          "indexed": false,
          "internalType": "uint256",
          "name": "assets",
          "type": "uint256"
        },
        {
          "indexed": false,
          "internalType": "uint256",
          "name": "shares",
          "type": "uint256"
        }
      ],
      "name": "Withdraw",
      "type": "event"
    },
    {
      "anonymous": false,
      "inputs": [
        {
          "indexed": false,
          "internalType": "bool",
          "name": "enabled",
          "type": "bool"
        }
      ],
      "name": "WithdrawalsStateChanged",
      "type": "event"
    },
    {
      "anonymous": false,
      "inputs": [
        {
          "indexed": false,
          "internalType": "address",
          "name": "yUSDeAddress",
          "type": "address"
        }
      ],
      "name": "YUSDeVaultUpdated",
      "type": "event"
    },
    {
      "inputs": [],
      "name": "USDe",
      "outputs": [
        {
          "internalType": "contract IERC20",
          "name": "",
          "type": "address"
        }
      ],
      "stateMutability": "view",
      "type": "function"
    },
    {
      "inputs": [
        {
          "internalType": "address",
          "name": "vaultAddress",
          "type": "address"
        }
      ],
      "name": "addVault",
      "outputs": [],
      "stateMutability": "nonpayable",
      "type": "function"
    },
    {
      "inputs": [
        {
          "internalType": "address",
          "name": "owner",
          "type": "address"
        },
        {
          "internalType": "address",
          "name": "spender",
          "type": "address"
        }
      ],
      "name": "allowance",
      "outputs": [
        {
          "internalType": "uint256",
          "name": "",
          "type": "uint256"
        }
      ],
      "stateMutability": "view",
      "type": "function"
    },
    {
      "inputs": [
        {
          "internalType": "address",
          "name": "spender",
          "type": "address"
        },
        {
          "internalType": "uint256",
          "name": "value",
          "type": "uint256"
        }
      ],
      "name": "approve",
      "outputs": [
        {
          "internalType": "bool",
          "name": "",
          "type": "bool"
        }
      ],
      "stateMutability": "nonpayable",
      "type": "function"
    },
    {
      "inputs": [],
      "name": "asset",
      "outputs": [
        {
          "internalType": "address",
          "name": "",
          "type": "address"
        }
      ],
      "stateMutability": "view",
      "type": "function"
    },
    {
      "inputs": [
        {
          "internalType": "uint256",
          "name": "",
          "type": "uint256"
        }
      ],
      "name": "assetsArr",
      "outputs": [
        {
          "internalType": "address",
          "name": "asset",
          "type": "address"
        },
        {
          "internalType": "enum IMetaVault.EAssetType",
          "name": "kind",
          "type": "uint8"
        },
        {
          "internalType": "bool",
          "name": "paused",
          "type": "bool"
        }
      ],
      "stateMutability": "view",
      "type": "function"
    },
    {
      "inputs": [
        {
          "internalType": "address",
          "name": "metaToken",
          "type": "address"
        }
      ],
      "name": "assetsMap",
      "outputs": [
        {
          "internalType": "address",
          "name": "asset",
          "type": "address"
        },
        {
          "internalType": "enum IMetaVault.EAssetType",
          "name": "kind",
          "type": "uint8"
        },
        {
          "internalType": "bool",
          "name": "paused",
          "type": "bool"
        }
      ],
      "stateMutability": "view",
      "type": "function"
    },
    {
      "inputs": [
        {
          "internalType": "address",
          "name": "account",
          "type": "address"
        }
      ],
      "name": "balanceOf",
      "outputs": [
        {
          "internalType": "uint256",
          "name": "",
          "type": "uint256"
        }
      ],
      "stateMutability": "view",
      "type": "function"
    },
    {
      "inputs": [
        {
          "internalType": "uint256",
          "name": "shares",
          "type": "uint256"
        }
      ],
      "name": "convertToAssets",
      "outputs": [
        {
          "internalType": "uint256",
          "name": "",
          "type": "uint256"
        }
      ],
      "stateMutability": "view",
      "type": "function"
    },
    {
      "inputs": [
        {
          "internalType": "uint256",
          "name": "assets",
          "type": "uint256"
        }
      ],
      "name": "convertToShares",
      "outputs": [
        {
          "internalType": "uint256",
          "name": "",
          "type": "uint256"
        }
      ],
      "stateMutability": "view",
      "type": "function"
    },
    {
      "inputs": [],
      "name": "currentPhase",
      "outputs": [
        {
          "internalType": "enum PreDepositPhase",
          "name": "",
          "type": "uint8"
        }
      ],
      "stateMutability": "view",
      "type": "function"
    },
    {
      "inputs": [],
      "name": "decimals",
      "outputs": [
        {
          "internalType": "uint8",
          "name": "",
          "type": "uint8"
        }
      ],
      "stateMutability": "view",
      "type": "function"
    },
    {
      "inputs": [
        {
          "internalType": "uint256",
          "name": "assets",
          "type": "uint256"
        },
        {
          "internalType": "address",
          "name": "receiver",
          "type": "address"
        }
      ],
      "name": "deposit",
      "outputs": [
        {
          "internalType": "uint256",
          "name": "",
          "type": "uint256"
        }
      ],
      "stateMutability": "nonpayable",
      "type": "function"
    },
    {
      "inputs": [
        {
          "internalType": "address",
          "name": "token",
          "type": "address"
        },
        {
          "internalType": "uint256",
          "name": "tokenAssets",
          "type": "uint256"
        },
        {
          "internalType": "address",
          "name": "receiver",
          "type": "address"
        }
      ],
      "name": "deposit",
      "outputs": [
        {
          "internalType": "uint256",
          "name": "",
          "type": "uint256"
        }
      ],
      "stateMutability": "nonpayable",
      "type": "function"
    },
    {
      "inputs": [],
      "name": "depositedBase",
      "outputs": [
        {
          "internalType": "uint256",
          "name": "",
          "type": "uint256"
        }
      ],
      "stateMutability": "view",
      "type": "function"
    },
    {
      "inputs": [],
      "name": "depositsEnabled",
      "outputs": [
        {
          "internalType": "bool",
          "name": "",
          "type": "bool"
        }
      ],
      "stateMutability": "view",
      "type": "function"
    },
    {
      "inputs": [
        {
          "internalType": "address",
          "name": "owner_",
          "type": "address"
        },
        {
          "internalType": "contract IERC20",
          "name": "USDe_",
          "type": "address"
        },
        {
          "internalType": "contract IERC4626",
          "name": "sUSDe_",
          "type": "address"
        }
      ],
      "name": "initialize",
      "outputs": [],
      "stateMutability": "nonpayable",
      "type": "function"
    },
    {
      "inputs": [
        {
          "internalType": "address",
          "name": "token",
          "type": "address"
        }
      ],
      "name": "isAssetSupported",
      "outputs": [
        {
          "internalType": "bool",
          "name": "",
          "type": "bool"
        }
      ],
      "stateMutability": "view",
      "type": "function"
    },
    {
      "inputs": [
        {
          "internalType": "address",
          "name": "owner",
          "type": "address"
        }
      ],
      "name": "maxDeposit",
      "outputs": [
        {
          "internalType": "uint256",
          "name": "",
          "type": "uint256"
        }
      ],
      "stateMutability": "view",
      "type": "function"
    },
    {
      "inputs": [
        {
          "internalType": "address",
          "name": "owner",
          "type": "address"
        }
      ],
      "name": "maxMint",
      "outputs": [
        {
          "internalType": "uint256",
          "name": "",
          "type": "uint256"
        }
      ],
      "stateMutability": "view",
      "type": "function"
    },
    {
      "inputs": [
        {
          "internalType": "address",
          "name": "owner",
          "type": "address"
        }
      ],
      "name": "maxRedeem",
      "outputs": [
        {
          "internalType": "uint256",
          "name": "",
          "type": "uint256"
        }
      ],
      "stateMutability": "view",
      "type": "function"
    },
    {
      "inputs": [
        {
          "internalType": "address",
          "name": "owner",
          "type": "address"
        }
      ],
      "name": "maxWithdraw",
      "outputs": [
        {
          "internalType": "uint256",
          "name": "",
          "type": "uint256"
        }
      ],
      "stateMutability": "view",
      "type": "function"
    },
    {
      "inputs": [
        {
          "internalType": "address",
          "name": "token",
          "type": "address"
        },
        {
          "internalType": "uint256",
          "name": "shares",
          "type": "uint256"
        },
        {
          "internalType": "address",
          "name": "receiver",
          "type": "address"
        }
      ],
      "name": "mint",
      "outputs": [
        {
          "internalType": "uint256",
          "name": "",
          "type": "uint256"
        }
      ],
      "stateMutability": "nonpayable",
      "type": "function"
    },
    {
      "inputs": [
        {
          "internalType": "uint256",
          "name": "shares",
          "type": "uint256"
        },
        {
          "internalType": "address",
          "name": "receiver",
          "type": "address"
        }
      ],
      "name": "mint",
      "outputs": [
        {
          "internalType": "uint256",
          "name": "",
          "type": "uint256"
        }
      ],
      "stateMutability": "nonpayable",
      "type": "function"
    },
    {
      "inputs": [],
      "name": "name",
      "outputs": [
        {
          "internalType": "string",
          "name": "",
          "type": "string"
        }
      ],
      "stateMutability": "view",
      "type": "function"
    },
    {
      "inputs": [],
      "name": "owner",
      "outputs": [
        {
          "internalType": "address",
          "name": "",
          "type": "address"
        }
      ],
      "stateMutability": "view",
      "type": "function"
    },
    {
      "inputs": [
        {
          "internalType": "uint256",
          "name": "assets",
          "type": "uint256"
        }
      ],
      "name": "previewDeposit",
      "outputs": [
        {
          "internalType": "uint256",
          "name": "",
          "type": "uint256"
        }
      ],
      "stateMutability": "view",
      "type": "function"
    },
    {
      "inputs": [
        {
          "internalType": "uint256",
          "name": "shares",
          "type": "uint256"
        }
      ],
      "name": "previewMint",
      "outputs": [
        {
          "internalType": "uint256",
          "name": "",
          "type": "uint256"
        }
      ],
      "stateMutability": "view",
      "type": "function"
    },
    {
      "inputs": [
        {
          "internalType": "uint256",
          "name": "shares",
          "type": "uint256"
        }
      ],
      "name": "previewRedeem",
      "outputs": [
        {
          "internalType": "uint256",
          "name": "",
          "type": "uint256"
        }
      ],
      "stateMutability": "view",
      "type": "function"
    },
    {
      "inputs": [
        {
          "internalType": "address",
          "name": "caller",
          "type": "address"
        },
        {
          "internalType": "uint256",
          "name": "shares",
          "type": "uint256"
        }
      ],
      "name": "previewRedeem",
      "outputs": [
        {
          "internalType": "uint256",
          "name": "",
          "type": "uint256"
        }
      ],
      "stateMutability": "view",
      "type": "function"
    },
    {
      "inputs": [
        {
          "internalType": "uint256",
          "name": "assets",
          "type": "uint256"
        }
      ],
      "name": "previewWithdraw",
      "outputs": [
        {
          "internalType": "uint256",
          "name": "",
          "type": "uint256"
        }
      ],
      "stateMutability": "view",
      "type": "function"
    },
    {
      "inputs": [
        {
          "internalType": "address",
          "name": "caller",
          "type": "address"
        },
        {
          "internalType": "uint256",
          "name": "shares",
          "type": "uint256"
        }
      ],
      "name": "previewYield",
      "outputs": [
        {
          "internalType": "uint256",
          "name": "caller_yield_USDe",
          "type": "uint256"
        }
      ],
      "stateMutability": "view",
      "type": "function"
    },
    {
      "inputs": [
        {
          "internalType": "uint256",
          "name": "shares",
          "type": "uint256"
        },
        {
          "internalType": "address",
          "name": "receiver",
          "type": "address"
        },
        {
          "internalType": "address",
          "name": "owner",
          "type": "address"
        }
      ],
      "name": "redeem",
      "outputs": [
        {
          "internalType": "uint256",
          "name": "",
          "type": "uint256"
        }
      ],
      "stateMutability": "nonpayable",
      "type": "function"
    },
    {
      "inputs": [
        {
          "internalType": "address",
          "name": "token",
          "type": "address"
        },
        {
          "internalType": "uint256",
          "name": "shares",
          "type": "uint256"
        },
        {
          "internalType": "address",
          "name": "receiver",
          "type": "address"
        },
        {
          "internalType": "address",
          "name": "owner",
          "type": "address"
        }
      ],
      "name": "redeem",
      "outputs": [
        {
          "internalType": "uint256",
          "name": "",
          "type": "uint256"
        }
      ],
      "stateMutability": "nonpayable",
      "type": "function"
    },
    {
      "inputs": [
        {
          "internalType": "address",
          "name": "vaultAddress",
          "type": "address"
        }
      ],
      "name": "removeVault",
      "outputs": [],
      "stateMutability": "nonpayable",
      "type": "function"
    },
    {
      "inputs": [],
      "name": "renounceOwnership",
      "outputs": [],
      "stateMutability": "nonpayable",
      "type": "function"
    },
    {
      "inputs": [],
      "name": "sUSDe",
      "outputs": [
        {
          "internalType": "contract IERC4626",
          "name": "",
          "type": "address"
        }
      ],
      "stateMutability": "view",
      "type": "function"
    },
    {
      "inputs": [
        {
          "internalType": "bool",
          "name": "depositsEnabled_",
          "type": "bool"
        }
      ],
      "name": "setDepositsEnabled",
      "outputs": [],
      "stateMutability": "nonpayable",
      "type": "function"
    },
    {
      "inputs": [
        {
          "internalType": "address",
          "name": "vaultAddress",
          "type": "address"
        },
        {
          "internalType": "bool",
          "name": "paused",
          "type": "bool"
        }
      ],
      "name": "setVaultPauseState",
      "outputs": [],
      "stateMutability": "nonpayable",
      "type": "function"
    },
    {
      "inputs": [
        {
          "internalType": "bool",
          "name": "withdrawalsEnabled_",
          "type": "bool"
        }
      ],
      "name": "setWithdrawalsEnabled",
      "outputs": [],
      "stateMutability": "nonpayable",
      "type": "function"
    },
    {
      "inputs": [],
      "name": "startYieldPhase",
      "outputs": [],
      "stateMutability": "nonpayable",
      "type": "function"
    },
    {
      "inputs": [],
      "name": "symbol",
      "outputs": [
        {
          "internalType": "string",
          "name": "",
          "type": "string"
        }
      ],
      "stateMutability": "view",
      "type": "function"
    },
    {
      "inputs": [],
      "name": "totalAssets",
      "outputs": [
        {
          "internalType": "uint256",
          "name": "",
          "type": "uint256"
        }
      ],
      "stateMutability": "view",
      "type": "function"
    },
    {
      "inputs": [],
      "name": "totalSupply",
      "outputs": [
        {
          "internalType": "uint256",
          "name": "",
          "type": "uint256"
        }
      ],
      "stateMutability": "view",
      "type": "function"
    },
    {
      "inputs": [
        {
          "internalType": "address",
          "name": "to",
          "type": "address"
        },
        {
          "internalType": "uint256",
          "name": "value",
          "type": "uint256"
        }
      ],
      "name": "transfer",
      "outputs": [
        {
          "internalType": "bool",
          "name": "",
          "type": "bool"
        }
      ],
      "stateMutability": "nonpayable",
      "type": "function"
    },
    {
      "inputs": [
        {
          "internalType": "address",
          "name": "from",
          "type": "address"
        },
        {
          "internalType": "address",
          "name": "to",
          "type": "address"
        },
        {
          "internalType": "uint256",
          "name": "value",
          "type": "uint256"
        }
      ],
      "name": "transferFrom",
      "outputs": [
        {
          "internalType": "bool",
          "name": "",
          "type": "bool"
        }
      ],
      "stateMutability": "nonpayable",
      "type": "function"
    },
    {
      "inputs": [
        {
          "internalType": "address",
          "name": "newOwner",
          "type": "address"
        }
      ],
      "name": "transferOwnership",
      "outputs": [],
      "stateMutability": "nonpayable",
      "type": "function"
    },
    {
      "inputs": [
        {
          "internalType": "address",
          "name": "yUSDeAddress",
          "type": "address"
        }
      ],
      "name": "updateYUSDeVault",
      "outputs": [],
      "stateMutability": "nonpayable",
      "type": "function"
    },
    {
      "inputs": [
        {
          "internalType": "uint256",
          "name": "assets",
          "type": "uint256"
        },
        {
          "internalType": "address",
          "name": "receiver",
          "type": "address"
        },
        {
          "internalType": "address",
          "name": "owner",
          "type": "address"
        }
      ],
      "name": "withdraw",
      "outputs": [
        {
          "internalType": "uint256",
          "name": "",
          "type": "uint256"
        }
      ],
      "stateMutability": "nonpayable",
      "type": "function"
    },
    {
      "inputs": [
        {
          "internalType": "address",
          "name": "token",
          "type": "address"
        },
        {
          "internalType": "uint256",
          "name": "tokenAssets",
          "type": "uint256"
        },
        {
          "internalType": "address",
          "name": "receiver",
          "type": "address"
        },
        {
          "internalType": "address",
          "name": "owner",
          "type": "address"
        }
      ],
      "name": "withdraw",
      "outputs": [
        {
          "internalType": "uint256",
          "name": "",
          "type": "uint256"
        }
      ],
      "stateMutability": "nonpayable",
      "type": "function"
    },
    {
      "inputs": [],
      "name": "withdrawalsEnabled",
      "outputs": [
        {
          "internalType": "bool",
          "name": "",
          "type": "bool"
        }
      ],
      "stateMutability": "view",
      "type": "function"
    },
    {
      "inputs": [],
      "name": "yUSDe",
      "outputs": [
        {
          "internalType": "contract IERC4626",
          "name": "",
          "type": "address"
        }
      ],
      "stateMutability": "view",
      "type": "function"
    }
  ],
  "bytecode": "0x6080604052348015600f57600080fd5b506016601a565b60ca565b7ff0c57e16840df040f15088dc2f81fe391c3923bec73e23a9662efc9c229c6a00805468010000000000000000900460ff161560695760405163f92ee8a960e01b815260040160405180910390fd5b80546001600160401b039081161460c75780546001600160401b0319166001600160401b0390811782556040519081527fc7f505b2f371ae2175ee4913f4499e1f2633a7b5936321eed1cdaeb6115181d29060200160405180910390a15b50565b61395e806100d96000396000f3fe608060405234801561001057600080fd5b506004361061030c5760003560e01c80638da5cb5b1161019d578063cbe52ae3116100e9578063dd62ed3e116100a2578063ef8b30f71161007c578063ef8b30f7146105ea578063f2fde38b146106ad578063f45346dc146106c0578063fea53be1146106d357600080fd5b8063dd62ed3e14610674578063dfcd412e14610687578063e0d05d391461069a57600080fd5b8063cbe52ae3146105fd578063ce96cb7714610610578063ceb68c2314610623578063d0dbcd2414610636578063d160950214610648578063d905777e1461066157600080fd5b8063af53701e11610156578063ba08765211610130578063ba087652146105c4578063c0c53b8b146105d7578063c63d75b614610449578063c6e6f592146105ea57600080fd5b8063af53701e1461058b578063b3d7f6b91461059e578063b460af94146105b157600080fd5b80638da5cb5b1461050357806394bf804d1461050b57806395d89b411461051e5780639f04586c14610526578063a341f1b114610539578063a9059cbb1461057857600080fd5b806338d52e0f1161025c5780635392fd1c116102155780636e553f65116101ef5780636e553f65146104c257806370a08231146104d5578063715018a6146104e8578063820d8614146104f057600080fd5b80635392fd1c146104a45780635d3b23ed146104b15780636998144e146104b957600080fd5b806338d52e0f14610429578063402d267d14610449578063464b41581461045c578063494625131461046f5780634cdad50614610350578063516aa6951461048257600080fd5b80630a28a477116102c957806320a14e02116102a357806320a14e02146103d657806323b872dd146103e9578063256b5a02146103fc578063313ce5671461040f57600080fd5b80630a28a4771461039b5780630d4d1513146103ae57806318160ddd146103c157600080fd5b806301e1d11414610311578063055ad42e1461032857806306fdde031461033b57806307a2d13a14610350578063095ea7b3146103635780630a17932714610386575b600080fd5b6064545b6040519081526020015b60405180910390f35b60005460ff1660405161031f919061320e565b6103436106e6565b60405161031f9190613245565b61031561035e366004613278565b6107a9565b6103766103713660046132a6565b6107bc565b604051901515815260200161031f565b6103996103943660046132e7565b6107d4565b005b6103156103a9366004613278565b610830565b6103156103bc366004613302565b61083d565b60008051602061390983398151915254610315565b6103996103e4366004613344565b61090e565b6103766103f7366004613361565b610964565b61039961040a366004613344565b610988565b6104176109d9565b60405160ff909116815260200161031f565b610431610a1d565b6040516001600160a01b03909116815260200161031f565b610315610457366004613344565b610a52565b61037661046a366004613344565b610a73565b61031561047d3660046132a6565b610ab8565b610495610490366004613278565b610c43565b60405161031f939291906133a2565b6032546103769060ff1681565b610399610c82565b61031560645481565b6103156104d03660046133d1565b610d2d565b6103156104e3366004613344565b610d83565b610399610dab565b6103996104fe366004613401565b610dbf565b610431610e73565b6103156105193660046133d1565b610e9c565b610343610eea565b6103996105343660046132e7565b610f29565b610495610547366004613344565b6066602052600090815260409020546001600160a01b0381169060ff600160a01b8204811691600160a81b90041683565b6103766105863660046132a6565b610f72565b609654610431906001600160a01b031681565b6103156105ac366004613278565b610f80565b6103156105bf366004613436565b610f8d565b6103156105d2366004613436565b610fdc565b6103996105e536600461346d565b61102b565b6103156105f8366004613278565b611180565b61031561060b3660046132a6565b61118d565b61031561061e366004613344565b6111ac565b610399610631366004613344565b6111d3565b60325461037690610100900460ff1681565b603254610431906201000090046001600160a01b031681565b61031561066f366004613344565b611258565b61031561068236600461349d565b61127f565b6103156106953660046134cb565b6112c9565b603354610431906001600160a01b031681565b6103996106bb366004613344565b6113d1565b6103156106ce366004613302565b61140c565b6103156106e13660046134cb565b6114ca565b7f52c63247e1f47db19d5ce0460030c497f067ca4cebf71ba98eeadabe20bace0380546060916000805160206138e9833981519152916107259061351e565b80601f01602080910402602001604051908101604052809291908181526020018280546107519061351e565b801561079e5780601f106107735761010080835404028352916020019161079e565b820191906000526020600020905b81548152906001019060200180831161078157829003601f168201915b505050505091505090565b60006107b68260006115c1565b92915050565b6000336107ca818585611609565b5060019392505050565b6107dc61161b565b603280548215156101000261ff00199091161790556040517f8bf44ce16cd7f9cc1d627a597add24085d5c8c6ac21c942fb31d44814603efa69061082590831515815260200190565b60405180910390a150565b60006107b682600161164d565b6000610847610a1d565b6001600160a01b0316846001600160a01b031603610870576108698383610e9c565b9050610907565b61087984611685565b600061088484610f80565b604051630a28a47760e01b8152600481018290529091506000906001600160a01b03871690630a28a47790602401602060405180830381865afa1580156108cf573d6000803e3d6000fd5b505050506040513d601f19601f820116820180604052508101906108f39190613558565b905061090386338685858a6116de565b9150505b9392505050565b61091661161b565b609680546001600160a01b0319166001600160a01b0383169081179091556040519081527f9fb27ea88099784a1ac473e648b358d3feb7eaf27e46992bebc8ef3d69320c4b90602001610825565b600033610972858285611889565b61097d8585856118dd565b506001949350505050565b61099061161b565b60005460ff1660018111156109a7576109a76131da565b156109cd5760405162461bcd60e51b81526004016109c490613571565b60405180910390fd5b6109d68161193c565b50565b6000807f0773e532dfede91f04b12a73d3d2acd361424f41f76b4fb79f090161e36b4e00905060008154610a179190600160a01b900460ff166135b2565b91505090565b6000807f0773e532dfede91f04b12a73d3d2acd361424f41f76b4fb79f090161e36b4e005b546001600160a01b031692915050565b60325460009060ff1615158103610a6b57506000919050565b6000196107b6565b6000610a7d610a1d565b6001600160a01b0316826001600160a01b031614806107b65750506001600160a01b0390811660009081526066602052604090205416151590565b6000805460ff166001811115610ad057610ad06131da565b6001148015610ae757506001600160a01b03831615155b8015610b0057506096546001600160a01b038481169116145b15610c3b576033546040516370a0823160e01b81523060048201526000916001600160a01b0316906370a0823190602401602060405180830381865afa158015610b4e573d6000803e3d6000fd5b505050506040513d601f19601f82011682018060405250810190610b729190613558565b60335460405163266d6a8360e11b8152600481018390529192506000916001600160a01b0390911690634cdad50690602401602060405180830381865afa158015610bc1573d6000803e3d6000fd5b505050506040513d601f19601f82011682018060405250810190610be59190613558565b90506000610bf582606454611c22565b610bff90836135cb565b90506000610c0c87610d83565b905080600003610c235760009450505050506107b6565b610c308287836000611c32565b9450505050506107b6565b5060006107b6565b60658181548110610c5357600080fd5b6000918252602090912001546001600160a01b038116915060ff600160a01b8204811691600160a81b90041683565b610c8a61161b565b610c92611c7f565b610c9a611d1c565b6032546040516370a0823160e01b81523060048201526000916201000090046001600160a01b0316906370a0823190602401602060405180830381865afa158015610ce9573d6000803e3d6000fd5b505050506040513d601f19601f82011682018060405250810190610d0d9190613558565b9050610d1881611e73565b6033546109d6906001600160a01b031661193c565b600080610d3983610a52565b905080841115610d6257828482604051633c8097d960e11b81526004016109c4939291906135de565b6000610d6d85611180565b9050610d7b33858784611f4d565b949350505050565b6001600160a01b031660009081526000805160206138e9833981519152602052604090205490565b610db361161b565b610dbd6000611fa0565b565b610dc761161b565b60005460ff166001811115610dde57610dde6131da565b15610dfb5760405162461bcd60e51b81526004016109c490613571565b610e0482612011565b6001600160a01b038216600081815260666020526040908190208054841515600160a81b0260ff60a81b19909116179055517f14ac7b8feec336434e1c0f828bfb92ac1b6f512fec3c68ca3437c0311d9f6d6090610e6790841515815260200190565b60405180910390a25050565b6000807f9016d09d72d40fdae2fd8ceac6b6234c7706214fd39c1cd1e609a0528c199300610a42565b600080610ea883610a52565b905080841115610ed15782848260405163284ff66760e01b81526004016109c4939291906135de565b6000610edc85610f80565b9050610d7b33858388611f4d565b7f52c63247e1f47db19d5ce0460030c497f067ca4cebf71ba98eeadabe20bace0480546060916000805160206138e9833981519152916107259061351e565b610f3161161b565b6032805460ff19168215159081179091556040519081527fa19ff7bfc86050040cb9ec5fabfe0d4e87324cf8119f9905f40cf27dc3223faf90602001610825565b6000336107ca8185856118dd565b60006107b68260016115c1565b600080610f99836111ac565b905080851115610fc257828582604051633fa733bb60e21b81526004016109c4939291906135de565b6000610fcd86610830565b90506109033386868985612055565b600080610fe883611258565b90508085111561101157828582604051632e52afbb60e21b81526004016109c4939291906135de565b600061101c866107a9565b9050610903338686848a612055565b6000611035612286565b805490915060ff600160401b820416159067ffffffffffffffff1660008115801561105d5750825b905060008267ffffffffffffffff16600114801561107a5750303b155b905081158015611088575080155b156110a65760405163f92ee8a960e01b815260040160405180910390fd5b845467ffffffffffffffff1916600117855583156110d057845460ff60401b1916600160401b1785555b611130886040518060400160405280602081526020017f537472617461205072652d6465706f736974205265636569707420546f6b656e81525060405180604001604052806005815260200164705553446560d81b8152508a8a8c6122af565b831561117657845460ff60401b19168555604051600181527fc7f505b2f371ae2175ee4913f4499e1f2633a7b5936321eed1cdaeb6115181d29060200160405180910390a15b5050505050505050565b60006107b682600061164d565b60006111998383610ab8565b6111a2836107a9565b61090791906135ff565b603254600090610100900460ff16151581036111ca57506000919050565b6107b682612311565b6111db61161b565b60005460ff1660018111156111f2576111f26131da565b1561120f5760405162461bcd60e51b81526004016109c490613571565b61121881612011565b61122181612326565b6040516001600160a01b038216907ff85b51ea561b46f6547beaeac0856745c592a9d93055c95229dd574f3d0ccc2690600090a250565b603254600090610100900460ff161515810361127657506000919050565b6107b682612579565b6001600160a01b0391821660009081527f52c63247e1f47db19d5ce0460030c497f067ca4cebf71ba98eeadabe20bace016020908152604080832093909416825291909152205490565b60006112d3610a1d565b6001600160a01b0316856001600160a01b0316036112fd576112f6848484610f8d565b9050610d7b565b61130685612011565b60405163266d6a8360e11b8152600481018590526000906001600160a01b03871690634cdad50690602401602060405180830381865afa15801561134e573d6000803e3d6000fd5b505050506040513d601f19601f820116820180604052508101906113729190613558565b9050600061137f846111ac565b9050808211156113a857838282604051633fa733bb60e21b81526004016109c4939291906135de565b60006113b383610830565b90506113c6883388888760008d88612584565b979650505050505050565b6113d961161b565b6001600160a01b03811661140357604051631e4fbdf760e01b8152600060048201526024016109c4565b6109d681611fa0565b6000611416610a1d565b6001600160a01b0316846001600160a01b031603611438576108698383610d2d565b61144184611685565b60405163266d6a8360e11b8152600481018490526000906001600160a01b03861690634cdad50690602401602060405180830381865afa158015611489573d6000803e3d6000fd5b505050506040513d601f19601f820116820180604052508101906114ad9190613558565b905060006114ba82611180565b90506109038633868589866116de565b60006114d4610a1d565b6001600160a01b0316856001600160a01b0316036114f7576112f6848484610fdc565b61150085612011565b600061150b83611258565b90508085111561153457828582604051632e52afbb60e21b81526004016109c4939291906135de565b600061153f866107a9565b604051630a28a47760e01b8152600481018290529091506000906001600160a01b03891690630a28a47790602401602060405180830381865afa15801561158a573d6000803e3d6000fd5b505050506040513d601f19601f820116820180604052508101906115ae9190613558565b90506113c688338888866000878e612584565b60006109076115cf60645490565b6115da9060016135ff565b6115e66000600a6136f9565b6000805160206139098339815191525461160091906135ff565b85919085611c32565b611616838383600161269f565b505050565b33611624610e73565b6001600160a01b031614610dbd5760405163118cdaa760e01b81523360048201526024016109c4565b600061090761165d82600a6136f9565b6000805160206139098339815191525461167791906135ff565b6064546116009060016135ff565b61168e81612011565b6001600160a01b038116600090815260666020526040902054600160a81b900460ff1615156001036109d65760405163f9c711b560e01b81526001600160a01b03821660048201526024016109c4565b60405163ce96cb7760e01b81526001600160a01b0386811660048301526000919088169063ce96cb7790602401602060405180830381865afa158015611728573d6000803e3d6000fd5b505050506040513d601f19601f8201168201806040525081019061174c9190613558565b90508381101561179e5760405162461bcd60e51b815260206004820152601c60248201527f4d6574615661756c7445786365656465644d617857697468647261770000000060448201526064016109c4565b83606460008282546117b091906135ff565b909155506117c2905087873086612786565b6117cc85836127ed565b6117d4612823565b846001600160a01b0316866001600160a01b03167fdcbc1c05240f31ff3ad067ef1ee35ce4997762752e3a095284754544f4c709d78685604051611822929190918252602082015260400190565b60405180910390a3866001600160a01b0316856001600160a01b03167fd14f23ec6d59a2dbf066633e0a02215a6922aa2bf30061945c3b7de4b0b340ca8585604051611878929190918252602082015260400190565b60405180910390a350505050505050565b6000611895848461127f565b90506000198110156118d757818110156118c857828183604051637dc7a0d960e11b81526004016109c4939291906135de565b6118d78484848403600061269f565b50505050565b6001600160a01b03831661190757604051634b637e8f60e11b8152600060048201526024016109c4565b6001600160a01b0382166119315760405163ec442f0560e01b8152600060048201526024016109c4565b611616838383612846565b611944610a1d565b6001600160a01b0316816001600160a01b0316036119915760405162461bcd60e51b815260206004820152600a6024820152691350525397d054d4d15560b21b60448201526064016109c4565b6001600160a01b0381811660009081526066602052604090205416156119eb5760405162461bcd60e51b815260206004820152600f60248201526e111554131250d0551157d054d4d155608a1b60448201526064016109c4565b6119f3610a1d565b6001600160a01b0316816001600160a01b03166338d52e0f6040518163ffffffff1660e01b8152600401602060405180830381865afa158015611a3a573d6000803e3d6000fd5b505050506040513d601f19601f82011682018060405250810190611a5e9190613708565b6001600160a01b031614611aaa5760405162461bcd60e51b815260206004820152601360248201527209a82929cbe82a6a68aa8be9a92a69a82a8869606b1b60448201526064016109c4565b604080516060810182526001600160a01b038381168083526000602080850182815285870183905292825260669052939093208251815492166001600160a01b0319831681178255935192938493919283916001600160a81b031990911617600160a01b836001811115611b2057611b206131da565b0217905550604091909101518154901515600160a81b0260ff60a81b19909116179055606580546001818101835560009290925282517f8ff97419363ffd7000167f130ef7168fbea05faf9251824ca5043f113cc6a7c790910180546001600160a01b039092166001600160a01b0319831681178255602085015185949293909284926001600160a81b031990921690911790600160a01b908490811115611bca57611bca6131da565b02179055506040918201518154901515600160a81b0260ff60a81b19909116179055516001600160a01b038316907f3242562a9245e82671cc5de50f2805fb9c8c0687f252412916544886ef87d67590600090a25050565b6000828218828410028218610907565b6000611c61611c4083612971565b8015611c5c575060008480611c5757611c57613725565b868809115b151590565b611c6c86868661299e565b611c7691906135ff565b95945050505050565b600160005460ff166001811115611c9857611c986131da565b03611cd45760405162461bcd60e51b815260206004820152600c60248201526b4143544956455f504841534560a01b60448201526064016109c4565b6000805460ff191660019081179091556040517ff1b5215cc7283811b174590fd35599532e586f1e3f4c3789bbeb6af841f7660e91611d129161320e565b60405180910390a1565b60655460005b81811015611e6657600060658281548110611d3f57611d3f61373b565b60009182526020822001546040516370a0823160e01b81523060048201526001600160a01b03909116925082906370a0823190602401602060405180830381865afa158015611d92573d6000803e3d6000fd5b505050506040513d601f19601f82011682018060405250810190611db69190613558565b90508015611e3857604051635d043b2960e11b815260048101829052306024820181905260448201526001600160a01b0383169063ba087652906064016020604051808303816000875af1158015611e12573d6000803e3d6000fd5b505050506040513d601f19601f82011682018060405250810190611e369190613558565b505b506001600160a01b0316600090815260666020526040902080546001600160b01b0319169055600101611d22565b506109d66065600061319e565b60008111611eb15760405162461bcd60e51b815260206004820152600b60248201526a454d5054595f5354414b4560a81b60448201526064016109c4565b603254603354611ed4916001600160a01b03620100009091048116911683612a53565b603354604051636e553f6560e01b8152600481018390523060248201526001600160a01b0390911690636e553f65906044016020604051808303816000875af1158015611f25573d6000803e3d6000fd5b505050506040513d601f19601f82011682018060405250810190611f499190613558565b5050565b611f5984848484612ae3565b60005460ff166001811115611f7057611f706131da565b600103611f8057611f8082611e73565b8160646000828254611f9291906135ff565b909155506118d79050612823565b7f9016d09d72d40fdae2fd8ceac6b6234c7706214fd39c1cd1e609a0528c19930080546001600160a01b031981166001600160a01b03848116918217845560405192169182907f8be0079c531659141344cd1fd0a4f28419497f9722a3daafe3b4186f6b6457e090600090a3505050565b6001600160a01b038082166000908152606660205260409020541680611f495760405163ee84f40b60e01b81526001600160a01b03831660048201526024016109c4565b60005460ff16600181111561206c5761206c6131da565b60010361212557600061207f8683610ab8565b6033549091506000906001600160a01b031663c6e6f5926120a084876135ff565b6040518263ffffffff1660e01b81526004016120be91815260200190565b602060405180830381865afa1580156120db573d6000803e3d6000fd5b505050506040513d601f19601f820116820180604052508101906120ff9190613558565b60335490915061211e906001600160a01b03168888888887878a612584565b505061227f565b60005460ff16600181111561213c5761213c6131da565b156121795760405162461bcd60e51b815260206004820152600d60248201526c494e56414c49445f504841534560981b60448201526064016109c4565b6064548211156121c15760405162461bcd60e51b8152602060048201526013602482015272494e53554646494349454e545f41535345545360681b60448201526064016109c4565b6032546040516370a0823160e01b81523060048201526000916201000090046001600160a01b0316906370a0823190602401602060405180830381865afa158015612210573d6000803e3d6000fd5b505050506040513d601f19601f820116820180604052508101906122349190613558565b9050808311156122505761225061224b82856135cb565b612b4e565b826064600082825461226291906135cb565b9091555061227590508686868686612d42565b61227d612de9565b505b5050505050565b6000807ff0c57e16840df040f15088dc2f81fe391c3923bec73e23a9662efc9c229c6a006107b6565b6122b7612e4f565b6122c18585612e74565b6122ca81612ec5565b6122d386612f49565b506032805462010000600160b01b031916620100006001600160a01b0394851602179055603380546001600160a01b03191691909216179055505050565b60006107b661231f83610d83565b60006115c1565b6040516370a0823160e01b81523060048201526000906001600160a01b038316906370a0823190602401602060405180830381865afa15801561236d573d6000803e3d6000fd5b505050506040513d601f19601f820116820180604052508101906123919190613558565b9050801561241357604051635d043b2960e11b815260048101829052306024820181905260448201526001600160a01b0383169063ba087652906064016020604051808303816000875af11580156123ed573d6000803e3d6000fd5b505050506040513d601f19601f820116820180604052508101906124119190613558565b505b6001600160a01b038216600090815260666020526040812080546001600160b01b0319169055606554905b818110156118d757836001600160a01b0316606582815481106124635761246361373b565b6000918252602090912001546001600160a01b03160361257157606561248a6001846135cb565b8154811061249a5761249a61373b565b90600052602060002001606582815481106124b7576124b761373b565b600091825260209091208254910180546001600160a01b031981166001600160a01b0390931692831782558354919260ff600160a01b93849004169284926001600160a81b03191690911790836001811115612515576125156131da565b02179055509054815460ff60a81b1916600160a81b9182900460ff161515909102179055606580548061254a5761254a613751565b600082815260209020810160001990810180546001600160b01b03191690550190556118d7565b60010161243e565b60006107b682610d83565b846001600160a01b0316876001600160a01b0316146125a8576125a8858883611889565b83606460008282546125ba91906135cb565b909155506125ca90508582612f51565b6125d5888784612f87565b6125dd612de9565b846001600160a01b0316866001600160a01b0316886001600160a01b03167ffbde797d201c681b91056529119e0b02407c7bb96a4a2c75c01fc9667232c8db868861262891906135ff565b60408051918252602082018790520160405180910390a4876001600160a01b0316866001600160a01b03167fc3cbc5a1840ff34ce3ad9dad8d51b8e21c417750f3bf62e25f57f70ba835de1d848460405161268d929190918252602082015260400190565b60405180910390a35050505050505050565b6000805160206138e98339815191526001600160a01b0385166126d85760405163e602df0560e01b8152600060048201526024016109c4565b6001600160a01b03841661270257604051634a1406b160e11b8152600060048201526024016109c4565b6001600160a01b0380861660009081526001830160209081526040808320938816835292905220839055811561227f57836001600160a01b0316856001600160a01b03167f8c5be1e5ebec7d5bd14f71427d1e84f3dd0314c0f7b2291e5b200ac8c7c3b9258560405161277791815260200190565b60405180910390a35050505050565b6040516001600160a01b0384811660248301528381166044830152606482018390526118d79186918216906323b872dd906084015b604051602081830303815290604052915060e01b6020820180516001600160e01b038381831617835250505050612fb8565b6001600160a01b0382166128175760405163ec442f0560e01b8152600060048201526024016109c4565b611f4960008383612846565b60325460ff16610dbd57604051630e2f42c960e31b815260040160405180910390fd5b6000805160206138e98339815191526001600160a01b038416612882578181600201600082825461287791906135ff565b909155506128e19050565b6001600160a01b038416600090815260208290526040902054828110156128c25784818460405163391434e360e21b81526004016109c4939291906135de565b6001600160a01b03851660009081526020839052604090209083900390555b6001600160a01b0383166128ff57600281018054839003905561291e565b6001600160a01b03831660009081526020829052604090208054830190555b826001600160a01b0316846001600160a01b03167fddf252ad1be2c89b69c2b068fc378daa952ba7f163c4a11628f55a4df523b3ef8460405161296391815260200190565b60405180910390a350505050565b60006002826003811115612987576129876131da565b6129919190613767565b60ff166001149050919050565b60008060006129ad8686613029565b91509150816000036129d2578381816129c8576129c8613725565b0492505050610907565b8184116129e9576129e96003851502601118613047565b6000848688096000868103871696879004966002600389028118808a02820302808a02820302808a02820302808a02820302808a02820302808a02909103029181900381900460010185841190960395909502919093039390930492909217029150509392505050565b604080516001600160a01b038416602482015260448082018490528251808303909101815260649091019091526020810180516001600160e01b031663095ea7b360e01b179052612aa48482613059565b6118d7576040516001600160a01b03848116602483015260006044830152612ad991869182169063095ea7b3906064016127bb565b6118d78482612fb8565b612af6612aee610a1d565b853085612786565b612b0083826127ed565b826001600160a01b0316846001600160a01b03167fdcbc1c05240f31ff3ad067ef1ee35ce4997762752e3a095284754544f4c709d78484604051612963929190918252602082015260400190565b8060005b60655481108015612b635750600082115b15612cf357600060658281548110612b7d57612b7d61373b565b600091825260208220015460405163ce96cb7760e01b81523060048201526001600160a01b039091169250829063ce96cb7790602401602060405180830381865afa158015612bd0573d6000803e3d6000fd5b505050506040513d601f19601f82011682018060405250810190612bf49190613558565b905080600003612c05575050612ce1565b6000612c118583611c22565b604051632d182be560e21b815260048101829052306024820181905260448201529091506001600160a01b0384169063b460af94906064016020604051808303816000875af1925050508015612c84575060408051601f3d908101601f19168201909252612c8191810190613558565b60015b612ccf57604080516001600160a01b0385168152602081018390527f0f92907acd069f9c065378e4208b8fffb50e150a9d32b5c7f01e91e319737845910160405180910390a1612cdd565b50612cda81866135cb565b94505b5050505b80612ceb81613797565b915050612b52565b508015611f495760405162461bcd60e51b815260206004820152601860248201527f496e73756666696369656e745661756c7442616c616e6365000000000000000060448201526064016109c4565b826001600160a01b0316856001600160a01b031614612d6657612d66838683611889565b612d708382612f51565b612d82612d7b610a1d565b8584612f87565b826001600160a01b0316846001600160a01b0316866001600160a01b03167ffbde797d201c681b91056529119e0b02407c7bb96a4a2c75c01fc9667232c8db8585604051612dda929190918252602082015260400190565b60405180910390a45050505050565b603254610100900460ff16612e11576040516346ee9e3560e01b815260040160405180910390fd5b67016345785d8a0000612e306000805160206139098339815191525490565b1015610dbd57604051635a5c1b5560e11b815260040160405180910390fd5b612e576130a8565b610dbd57604051631afcd79f60e31b815260040160405180910390fd5b612e7c612e4f565b6000805160206138e98339815191527f52c63247e1f47db19d5ce0460030c497f067ca4cebf71ba98eeadabe20bace03612eb6848261380d565b50600481016118d7838261380d565b612ecd612e4f565b7f0773e532dfede91f04b12a73d3d2acd361424f41f76b4fb79f090161e36b4e00600080612efa846130c2565b9150915081612f0a576012612f0c565b805b83546001600160a81b031916600160a01b60ff92909216919091026001600160a01b031916176001600160a01b0394909416939093179091555050565b6113d9612e4f565b6001600160a01b038216612f7b57604051634b637e8f60e11b8152600060048201526024016109c4565b611f4982600083612846565b6040516001600160a01b0383811660248301526044820183905261161691859182169063a9059cbb906064016127bb565b600080602060008451602086016000885af180612fdb576040513d6000823e3d81fd5b50506000513d91508115612ff3578060011415613000565b6001600160a01b0384163b155b156118d757604051635274afe760e01b81526001600160a01b03851660048201526024016109c4565b60008060001983850993909202808410938190039390930393915050565b634e487b71600052806020526024601cfd5b6000806000806020600086516020880160008a5af192503d9150600051905082801561309e5750811561308f578060011461309e565b6000866001600160a01b03163b115b9695505050505050565b60006130b2612286565b54600160401b900460ff16919050565b60408051600481526024810182526020810180516001600160e01b031663313ce56760e01b17905290516000918291829182916001600160a01b03871691613109916138cc565b600060405180830381855afa9150503d8060008114613144576040519150601f19603f3d011682016040523d82523d6000602084013e613149565b606091505b509150915081801561315d57506020815110155b15613191576000818060200190518101906131789190613558565b905060ff811161318f576001969095509350505050565b505b5060009485945092505050565b50805460008255906000526020600020908101906109d691905b808211156131d65780546001600160b01b03191681556001016131b8565b5090565b634e487b7160e01b600052602160045260246000fd5b600281106109d657634e487b7160e01b600052602160045260246000fd5b6020810161321b836131f0565b91905290565b60005b8381101561323c578181015183820152602001613224565b50506000910152565b6020815260008251806020840152613264816040850160208701613221565b601f01601f19169190910160400192915050565b60006020828403121561328a57600080fd5b5035919050565b6001600160a01b03811681146109d657600080fd5b600080604083850312156132b957600080fd5b82356132c481613291565b946020939093013593505050565b803580151581146132e257600080fd5b919050565b6000602082840312156132f957600080fd5b610907826132d2565b60008060006060848603121561331757600080fd5b833561332281613291565b925060208401359150604084013561333981613291565b809150509250925092565b60006020828403121561335657600080fd5b813561090781613291565b60008060006060848603121561337657600080fd5b833561338181613291565b9250602084013561339181613291565b929592945050506040919091013590565b6001600160a01b0384168152606081016133bb846131f0565b8360208301528215156040830152949350505050565b600080604083850312156133e457600080fd5b8235915060208301356133f681613291565b809150509250929050565b6000806040838503121561341457600080fd5b823561341f81613291565b915061342d602084016132d2565b90509250929050565b60008060006060848603121561344b57600080fd5b83359250602084013561345d81613291565b9150604084013561333981613291565b60008060006060848603121561348257600080fd5b833561348d81613291565b9250602084013561345d81613291565b600080604083850312156134b057600080fd5b82356134bb81613291565b915060208301356133f681613291565b600080600080608085870312156134e157600080fd5b84356134ec81613291565b935060208501359250604085013561350381613291565b9150606085013561351381613291565b939692955090935050565b600181811c9082168061353257607f821691505b60208210810361355257634e487b7160e01b600052602260045260246000fd5b50919050565b60006020828403121561356a57600080fd5b5051919050565b602080825260119082015270504f494e54535f50484153455f4f4e4c5960781b604082015260600190565b634e487b7160e01b600052601160045260246000fd5b60ff81811683821601908111156107b6576107b661359c565b818103818111156107b6576107b661359c565b6001600160a01b039390931683526020830191909152604082015260600190565b808201808211156107b6576107b661359c565b6001815b600184111561364d578085048111156136315761363161359c565b600184161561363f57908102905b60019390931c928002613616565b935093915050565b600082613664575060016107b6565b81613671575060006107b6565b81600181146136875760028114613691576136ad565b60019150506107b6565b60ff8411156136a2576136a261359c565b50506001821b6107b6565b5060208310610133831016604e8410600b84101617156136d0575081810a6107b6565b6136dd6000198484613612565b80600019048211156136f1576136f161359c565b029392505050565b600061090760ff841683613655565b60006020828403121561371a57600080fd5b815161090781613291565b634e487b7160e01b600052601260045260246000fd5b634e487b7160e01b600052603260045260246000fd5b634e487b7160e01b600052603160045260246000fd5b600060ff83168061378857634e487b7160e01b600052601260045260246000fd5b8060ff84160691505092915050565b6000600182016137a9576137a961359c565b5060010190565b634e487b7160e01b600052604160045260246000fd5b601f82111561161657806000526020600020601f840160051c810160208510156137ed5750805b601f840160051c820191505b8181101561227f57600081556001016137f9565b815167ffffffffffffffff811115613827576138276137b0565b61383b81613835845461351e565b846137c6565b6020601f82116001811461386f57600083156138575750848201515b600019600385901b1c1916600184901b17845561227f565b600084815260208120601f198516915b8281101561389f578785015182556020948501946001909201910161387f565b50848210156138bd5786840151600019600387901b60f8161c191681555b50505050600190811b01905550565b600082516138de818460208701613221565b919091019291505056fe52c63247e1f47db19d5ce0460030c497f067ca4cebf71ba98eeadabe20bace0052c63247e1f47db19d5ce0460030c497f067ca4cebf71ba98eeadabe20bace02a26469706673582212202abbf62df43a695e5f383cea7438046f9c4a42c08f22da5c1abf0675b346005f64736f6c634300081c0033",
  "linkReferences": {},
  "deployedLinkReferences": {}
}