{
  "_format": "hh-sol-artifact-1",
  "contractName": "yUSDeDepositor",
  "sourceName": "contracts/predeposit/yUSDeDepositor.sol",
  "abi": [
    {
      "inputs": [],
      "stateMutability": "nonpayable",
      "type": "constructor"
    },
    {
      "inputs": [
        {
          "internalType": "address",
          "name": "asset",
          "type": "address"
        }
      ],
      "name": "InvalidAsset",
      "type": "error"
    },
    {
      "inputs": [],
      "name": "InvalidInitialization",
      "type": "error"
    },
    {
      "inputs": [],
      "name": "NotInitializing",
      "type": "error"
    },
    {
      "inputs": [
        {
          "internalType": "address",
          "name": "owner",
          "type": "address"
        }
      ],
      "name": "OwnableInvalidOwner",
      "type": "error"
    },
    {
      "inputs": [
        {
          "internalType": "address",
          "name": "account",
          "type": "address"
        }
      ],
      "name": "OwnableUnauthorizedAccount",
      "type": "error"
    },
    {
      "inputs": [
        {
          "internalType": "address",
          "name": "token",
          "type": "address"
        }
      ],
      "name": "SafeERC20FailedOperation",
      "type": "error"
    },
    {
      "anonymous": false,
      "inputs": [
        {
          "indexed": false,
          "internalType": "uint64",
          "name": "version",
          "type": "uint64"
        }
      ],
      "name": "Initialized",
      "type": "event"
    },
    {
      "anonymous": false,
      "inputs": [
        {
          "indexed": true,
          "internalType": "address",
          "name": "previousOwner",
          "type": "address"
        },
        {
          "indexed": true,
          "internalType": "address",
          "name": "newOwner",
          "type": "address"
        }
      ],
      "name": "OwnershipTransferred",
      "type": "event"
    },
    {
      "anonymous": false,
      "inputs": [
        {
          "indexed": true,
          "internalType": "address",
          "name": "token",
          "type": "address"
        }
      ],
      "name": "SwapInfoChanged",
      "type": "event"
    },
    {
      "inputs": [
        {
          "internalType": "contract IERC20",
          "name": "asset",
          "type": "address"
        },
        {
          "internalType": "uint256",
          "name": "amount",
          "type": "uint256"
        },
        {
          "internalType": "address",
          "name": "receiver",
          "type": "address"
        }
      ],
      "name": "deposit",
      "outputs": [
        {
          "internalType": "uint256",
          "name": "",
          "type": "uint256"
        }
      ],
      "stateMutability": "nonpayable",
      "type": "function"
    },
    {
      "inputs": [
        {
          "internalType": "address",
          "name": "owner_",
          "type": "address"
        },
        {
          "internalType": "contract IERC4626",
          "name": "yUSDe_",
          "type": "address"
        },
        {
          "internalType": "contract IERC4626",
          "name": "pUSDe_",
          "type": "address"
        },
        {
          "internalType": "contract IDepositor",
          "name": "pUSDeDepositor_",
          "type": "address"
        }
      ],
      "name": "initialize",
      "outputs": [],
      "stateMutability": "nonpayable",
      "type": "function"
    },
    {
      "inputs": [],
      "name": "owner",
      "outputs": [
        {
          "internalType": "address",
          "name": "",
          "type": "address"
        }
      ],
      "stateMutability": "view",
      "type": "function"
    },
    {
      "inputs": [],
      "name": "pUSDe",
      "outputs": [
        {
          "internalType": "contract IERC4626",
          "name": "",
          "type": "address"
        }
      ],
      "stateMutability": "view",
      "type": "function"
    },
    {
      "inputs": [],
      "name": "pUSDeDepositor",
      "outputs": [
        {
          "internalType": "contract IDepositor",
          "name": "",
          "type": "address"
        }
      ],
      "stateMutability": "view",
      "type": "function"
    },
    {
      "inputs": [],
      "name": "renounceOwnership",
      "outputs": [],
      "stateMutability": "nonpayable",
      "type": "function"
    },
    {
      "inputs": [
        {
          "internalType": "address",
          "name": "newOwner",
          "type": "address"
        }
      ],
      "name": "transferOwnership",
      "outputs": [],
      "stateMutability": "nonpayable",
      "type": "function"
    },
    {
      "inputs": [],
      "name": "yUSDe",
      "outputs": [
        {
          "internalType": "contract IERC4626",
          "name": "",
          "type": "address"
        }
      ],
      "stateMutability": "view",
      "type": "function"
    }
  ],
  "bytecode": "0x6080604052348015600f57600080fd5b506016601a565b60ca565b7ff0c57e16840df040f15088dc2f81fe391c3923bec73e23a9662efc9c229c6a00805468010000000000000000900460ff161560695760405163f92ee8a960e01b815260040160405180910390fd5b80546001600160401b039081161460c75780546001600160401b0319166001600160401b0390811782556040519081527fc7f505b2f371ae2175ee4913f4499e1f2633a7b5936321eed1cdaeb6115181d29060200160405180910390a15b50565b6109f3806100d96000396000f3fe608060405234801561001057600080fd5b50600436106100885760003560e01c8063af53701e1161005b578063af53701e1461010a578063f2fde38b1461011d578063f45346dc14610130578063f8c8765e1461015157600080fd5b806365347f2a1461008d578063715018a6146100bd5780638da5cb5b146100c757806396298a19146100f7575b600080fd5b6001546100a0906001600160a01b031681565b6040516001600160a01b0390911681526020015b60405180910390f35b6100c5610164565b005b7f9016d09d72d40fdae2fd8ceac6b6234c7706214fd39c1cd1e609a0528c199300546001600160a01b03166100a0565b6000546100a0906001600160a01b031681565b6002546100a0906001600160a01b031681565b6100c561012b3660046108e9565b610178565b61014361013e366004610906565b6101bb565b6040519081526020016100b4565b6100c561015f366004610948565b6101fe565b61016c61034e565b61017660006103a9565b565b61018061034e565b6001600160a01b0381166101af57604051631e4fbdf760e01b8152600060048201526024015b60405180910390fd5b6101b8816103a9565b50565b6000805433906001600160a01b03908116908616036101e7576101df81858561041a565b9150506101f7565b6101f38186868661050f565b9150505b9392505050565b7ff0c57e16840df040f15088dc2f81fe391c3923bec73e23a9662efc9c229c6a008054600160401b810460ff16159067ffffffffffffffff166000811580156102445750825b905060008267ffffffffffffffff1660011480156102615750303b155b90508115801561026f575080155b1561028d5760405163f92ee8a960e01b815260040160405180910390fd5b845467ffffffffffffffff1916600117855583156102b757845460ff60401b1916600160401b1785555b6102c0896106c6565b600280546001600160a01b03808b166001600160a01b031992831617909255600080548a84169083161790556001805492891692909116919091179055831561034357845460ff60401b19168555604051600181527fc7f505b2f371ae2175ee4913f4499e1f2633a7b5936321eed1cdaeb6115181d29060200160405180910390a15b505050505050505050565b336103807f9016d09d72d40fdae2fd8ceac6b6234c7706214fd39c1cd1e609a0528c199300546001600160a01b031690565b6001600160a01b0316146101765760405163118cdaa760e01b81523360048201526024016101a6565b7f9016d09d72d40fdae2fd8ceac6b6234c7706214fd39c1cd1e609a0528c19930080546001600160a01b031981166001600160a01b03848116918217845560405192169182907f8be0079c531659141344cd1fd0a4f28419497f9722a3daafe3b4186f6b6457e090600090a3505050565b600080831161045d5760405162461bcd60e51b815260206004820152600f60248201526e4465706f736974206973207a65726f60881b60448201526064016101a6565b6000546001600160a01b03908116908516301461048057610480818630876106ce565b6002546104989082906001600160a01b03168661073b565b600254604051636e553f6560e01b8152600481018690526001600160a01b03858116602483015290911690636e553f65906044016020604051808303816000875af11580156104eb573d6000803e3d6000fd5b505050506040513d601f19601f820116820180604052508101906101f391906109a4565b60008083116105525760405162461bcd60e51b815260206004820152600f60248201526e4465706f736974206973207a65726f60881b60448201526064016101a6565b6040516370a0823160e01b81523060048201526000906001600160a01b038616906370a0823190602401602060405180830381865afa158015610599573d6000803e3d6000fd5b505050506040513d601f19601f820116820180604052508101906105bd91906109a4565b90506001600160a01b03861630146105e0576105db858730876106ce565b610630565b838110156106305760405162461bcd60e51b815260206004820152601860248201527f496e73756666696369656e74205553446520616d6f756e74000000000000000060448201526064016101a6565b600154604051633d14d1b760e21b81526001600160a01b03878116600483015260248201879052306044830152600092169063f45346dc906064016020604051808303816000875af115801561068a573d6000803e3d6000fd5b505050506040513d601f19601f820116820180604052508101906106ae91906109a4565b90506106bb30828661041a565b979650505050505050565b6101806107cb565b6040516001600160a01b0384811660248301528381166044830152606482018390526107359186918216906323b872dd906084015b604051602081830303815290604052915060e01b6020820180516001600160e01b038381831617835250505050610814565b50505050565b604080516001600160a01b038416602482015260448082018490528251808303909101815260649091019091526020810180516001600160e01b031663095ea7b360e01b17905261078c8482610885565b610735576040516001600160a01b038481166024830152600060448301526107c191869182169063095ea7b390606401610703565b6107358482610814565b7ff0c57e16840df040f15088dc2f81fe391c3923bec73e23a9662efc9c229c6a0054600160401b900460ff1661017657604051631afcd79f60e31b815260040160405180910390fd5b600080602060008451602086016000885af180610837576040513d6000823e3d81fd5b50506000513d9150811561084f57806001141561085c565b6001600160a01b0384163b155b1561073557604051635274afe760e01b81526001600160a01b03851660048201526024016101a6565b6000806000806020600086516020880160008a5af192503d915060005190508280156108ca575081156108bb57806001146108ca565b6000866001600160a01b03163b115b9695505050505050565b6001600160a01b03811681146101b857600080fd5b6000602082840312156108fb57600080fd5b81356101f7816108d4565b60008060006060848603121561091b57600080fd5b8335610926816108d4565b925060208401359150604084013561093d816108d4565b809150509250925092565b6000806000806080858703121561095e57600080fd5b8435610969816108d4565b93506020850135610979816108d4565b92506040850135610989816108d4565b91506060850135610999816108d4565b939692955090935050565b6000602082840312156109b657600080fd5b505191905056fea264697066735822122034b811195c874fc3f2da51006cf8829e76c6b5813ee40a224180475c8fe19af164736f6c634300081c0033",
  "linkReferences": {},
  "deployedLinkReferences": {}
}