{
  "_format": "hh-sol-artifact-1",
  "contractName": "AprPairFeed",
  "sourceName": "contracts/tranches/oracles/AprPairFeed.sol",
  "abi": [
    {
      "inputs": [
        {
          "internalType": "address",
          "name": "account",
          "type": "address"
        },
        {
          "internalType": "bytes32",
          "name": "neededRole",
          "type": "bytes32"
        }
      ],
      "name": "AccessControlUnauthorizedAccount",
      "type": "error"
    },
    {
      "inputs": [],
      "name": "InvalidInitialization",
      "type": "error"
    },
    {
      "inputs": [],
      "name": "NotInitializing",
      "type": "error"
    },
    {
      "inputs": [
        {
          "internalType": "int64",
          "name": "aprTarget",
          "type": "int64"
        },
        {
          "internalType": "int64",
          "name": "aprBase",
          "type": "int64"
        },
        {
          "internalType": "uint64",
          "name": "timestamp",
          "type": "uint64"
        }
      ],
      "name": "OutOfOrderUpdate",
      "type": "error"
    },
    {
      "inputs": [
        {
          "internalType": "address",
          "name": "owner",
          "type": "address"
        }
      ],
      "name": "OwnableInvalidOwner",
      "type": "error"
    },
    {
      "inputs": [
        {
          "internalType": "address",
          "name": "account",
          "type": "address"
        }
      ],
      "name": "OwnableUnauthorizedAccount",
      "type": "error"
    },
    {
      "inputs": [],
      "name": "ReentrancyGuardReentrantCall",
      "type": "error"
    },
    {
      "inputs": [
        {
          "internalType": "int64",
          "name": "aprTarget",
          "type": "int64"
        },
        {
          "internalType": "int64",
          "name": "aprBase",
          "type": "int64"
        },
        {
          "internalType": "uint64",
          "name": "timestamp",
          "type": "uint64"
        }
      ],
      "name": "StaleUpdate",
      "type": "error"
    },
    {
      "inputs": [
        {
          "internalType": "address",
          "name": "sender",
          "type": "address"
        },
        {
          "internalType": "address",
          "name": "calledContract",
          "type": "address"
        },
        {
          "internalType": "bytes4",
          "name": "sel",
          "type": "bytes4"
        }
      ],
      "name": "Unauthorized",
      "type": "error"
    },
    {
      "inputs": [],
      "name": "ZeroAddress",
      "type": "error"
    },
    {
      "anonymous": false,
      "inputs": [
        {
          "indexed": false,
          "internalType": "int64",
          "name": "aprTarget",
          "type": "int64"
        },
        {
          "indexed": false,
          "internalType": "int64",
          "name": "aprBase",
          "type": "int64"
        },
        {
          "indexed": false,
          "internalType": "uint64",
          "name": "roundId",
          "type": "uint64"
        },
        {
          "indexed": false,
          "internalType": "uint64",
          "name": "updatedAt",
          "type": "uint64"
        }
      ],
      "name": "AnswerUpdated",
      "type": "event"
    },
    {
      "anonymous": false,
      "inputs": [
        {
          "indexed": false,
          "internalType": "uint64",
          "name": "version",
          "type": "uint64"
        }
      ],
      "name": "Initialized",
      "type": "event"
    },
    {
      "anonymous": false,
      "inputs": [
        {
          "indexed": false,
          "internalType": "address",
          "name": "accessControlManager",
          "type": "address"
        }
      ],
      "name": "NewAccessControlManager",
      "type": "event"
    },
    {
      "anonymous": false,
      "inputs": [
        {
          "indexed": true,
          "internalType": "address",
          "name": "previousOwner",
          "type": "address"
        },
        {
          "indexed": true,
          "internalType": "address",
          "name": "newOwner",
          "type": "address"
        }
      ],
      "name": "OwnershipTransferStarted",
      "type": "event"
    },
    {
      "anonymous": false,
      "inputs": [
        {
          "indexed": true,
          "internalType": "address",
          "name": "previousOwner",
          "type": "address"
        },
        {
          "indexed": true,
          "internalType": "address",
          "name": "newOwner",
          "type": "address"
        }
      ],
      "name": "OwnershipTransferred",
      "type": "event"
    },
    {
      "anonymous": false,
      "inputs": [
        {
          "indexed": false,
          "internalType": "address",
          "name": "newProvider",
          "type": "address"
        }
      ],
      "name": "ProviderSet",
      "type": "event"
    },
    {
      "anonymous": false,
      "inputs": [],
      "name": "SourcePrefChanged",
      "type": "event"
    },
    {
      "anonymous": false,
      "inputs": [
        {
          "indexed": false,
          "internalType": "uint256",
          "name": "stalePeriod",
          "type": "uint256"
        }
      ],
      "name": "StalePeriodSet",
      "type": "event"
    },
    {
      "inputs": [],
      "name": "COOLDOWN_WORKER_ROLE",
      "outputs": [
        {
          "internalType": "bytes32",
          "name": "",
          "type": "bytes32"
        }
      ],
      "stateMutability": "view",
      "type": "function"
    },
    {
      "inputs": [],
      "name": "PAUSER_ROLE",
      "outputs": [
        {
          "internalType": "bytes32",
          "name": "",
          "type": "bytes32"
        }
      ],
      "stateMutability": "view",
      "type": "function"
    },
    {
      "inputs": [],
      "name": "RESERVE_MANAGER_ROLE",
      "outputs": [
        {
          "internalType": "bytes32",
          "name": "",
          "type": "bytes32"
        }
      ],
      "stateMutability": "view",
      "type": "function"
    },
    {
      "inputs": [],
      "name": "UPDATER_CDO_APR_ROLE",
      "outputs": [
        {
          "internalType": "bytes32",
          "name": "",
          "type": "bytes32"
        }
      ],
      "stateMutability": "view",
      "type": "function"
    },
    {
      "inputs": [],
      "name": "UPDATER_FEED_ROLE",
      "outputs": [
        {
          "internalType": "bytes32",
          "name": "",
          "type": "bytes32"
        }
      ],
      "stateMutability": "view",
      "type": "function"
    },
    {
      "inputs": [],
      "name": "UPDATER_STRAT_CONFIG_ROLE",
      "outputs": [
        {
          "internalType": "bytes32",
          "name": "",
          "type": "bytes32"
        }
      ],
      "stateMutability": "view",
      "type": "function"
    },
    {
      "inputs": [],
      "name": "acceptOwnership",
      "outputs": [],
      "stateMutability": "nonpayable",
      "type": "function"
    },
    {
      "inputs": [],
      "name": "acm",
      "outputs": [
        {
          "internalType": "contract IAccessControlManager",
          "name": "",
          "type": "address"
        }
      ],
      "stateMutability": "view",
      "type": "function"
    },
    {
      "inputs": [],
      "name": "decimals",
      "outputs": [
        {
          "internalType": "uint8",
          "name": "",
          "type": "uint8"
        }
      ],
      "stateMutability": "view",
      "type": "function"
    },
    {
      "inputs": [],
      "name": "description",
      "outputs": [
        {
          "internalType": "string",
          "name": "",
          "type": "string"
        }
      ],
      "stateMutability": "view",
      "type": "function"
    },
    {
      "inputs": [
        {
          "internalType": "uint64",
          "name": "roundId",
          "type": "uint64"
        }
      ],
      "name": "getRoundData",
      "outputs": [
        {
          "components": [
            {
              "internalType": "int64",
              "name": "aprTarget",
              "type": "int64"
            },
            {
              "internalType": "int64",
              "name": "aprBase",
              "type": "int64"
            },
            {
              "internalType": "uint64",
              "name": "updatedAt",
              "type": "uint64"
            },
            {
              "internalType": "uint64",
              "name": "answeredInRound",
              "type": "uint64"
            }
          ],
          "internalType": "struct IAprPairFeed.TRound",
          "name": "",
          "type": "tuple"
        }
      ],
      "stateMutability": "view",
      "type": "function"
    },
    {
      "inputs": [
        {
          "internalType": "address",
          "name": "owner_",
          "type": "address"
        },
        {
          "internalType": "address",
          "name": "acm_",
          "type": "address"
        },
        {
          "internalType": "contract IStrategyAprPairProvider",
          "name": "provider_",
          "type": "address"
        },
        {
          "internalType": "uint256",
          "name": "roundStaleAfter_",
          "type": "uint256"
        },
        {
          "internalType": "string",
          "name": "description_",
          "type": "string"
        }
      ],
      "name": "initialize",
      "outputs": [],
      "stateMutability": "nonpayable",
      "type": "function"
    },
    {
      "inputs": [],
      "name": "latestRound",
      "outputs": [
        {
          "internalType": "int64",
          "name": "aprTarget",
          "type": "int64"
        },
        {
          "internalType": "int64",
          "name": "aprBase",
          "type": "int64"
        },
        {
          "internalType": "uint64",
          "name": "updatedAt",
          "type": "uint64"
        },
        {
          "internalType": "uint64",
          "name": "answeredInRound",
          "type": "uint64"
        }
      ],
      "stateMutability": "view",
      "type": "function"
    },
    {
      "inputs": [],
      "name": "latestRoundData",
      "outputs": [
        {
          "components": [
            {
              "internalType": "int64",
              "name": "aprTarget",
              "type": "int64"
            },
            {
              "internalType": "int64",
              "name": "aprBase",
              "type": "int64"
            },
            {
              "internalType": "uint64",
              "name": "updatedAt",
              "type": "uint64"
            },
            {
              "internalType": "uint64",
              "name": "answeredInRound",
              "type": "uint64"
            }
          ],
          "internalType": "struct IAprPairFeed.TRound",
          "name": "",
          "type": "tuple"
        }
      ],
      "stateMutability": "view",
      "type": "function"
    },
    {
      "inputs": [],
      "name": "latestRoundId",
      "outputs": [
        {
          "internalType": "uint64",
          "name": "",
          "type": "uint64"
        }
      ],
      "stateMutability": "view",
      "type": "function"
    },
    {
      "inputs": [],
      "name": "owner",
      "outputs": [
        {
          "internalType": "address",
          "name": "",
          "type": "address"
        }
      ],
      "stateMutability": "view",
      "type": "function"
    },
    {
      "inputs": [],
      "name": "pendingOwner",
      "outputs": [
        {
          "internalType": "address",
          "name": "",
          "type": "address"
        }
      ],
      "stateMutability": "view",
      "type": "function"
    },
    {
      "inputs": [],
      "name": "provider",
      "outputs": [
        {
          "internalType": "contract IStrategyAprPairProvider",
          "name": "",
          "type": "address"
        }
      ],
      "stateMutability": "view",
      "type": "function"
    },
    {
      "inputs": [],
      "name": "renounceOwnership",
      "outputs": [],
      "stateMutability": "nonpayable",
      "type": "function"
    },
    {
      "inputs": [],
      "name": "roundStaleAfter",
      "outputs": [
        {
          "internalType": "uint256",
          "name": "",
          "type": "uint256"
        }
      ],
      "stateMutability": "view",
      "type": "function"
    },
    {
      "inputs": [
        {
          "internalType": "uint80",
          "name": "roundIdx",
          "type": "uint80"
        }
      ],
      "name": "rounds",
      "outputs": [
        {
          "internalType": "int64",
          "name": "aprTarget",
          "type": "int64"
        },
        {
          "internalType": "int64",
          "name": "aprBase",
          "type": "int64"
        },
        {
          "internalType": "uint64",
          "name": "updatedAt",
          "type": "uint64"
        },
        {
          "internalType": "uint64",
          "name": "answeredInRound",
          "type": "uint64"
        }
      ],
      "stateMutability": "view",
      "type": "function"
    },
    {
      "inputs": [],
      "name": "roundsCap",
      "outputs": [
        {
          "internalType": "uint8",
          "name": "",
          "type": "uint8"
        }
      ],
      "stateMutability": "view",
      "type": "function"
    },
    {
      "inputs": [
        {
          "internalType": "address",
          "name": "accessControlManager_",
          "type": "address"
        }
      ],
      "name": "setAccessControlManager",
      "outputs": [],
      "stateMutability": "nonpayable",
      "type": "function"
    },
    {
      "inputs": [
        {
          "internalType": "contract IStrategyAprPairProvider",
          "name": "provider_",
          "type": "address"
        }
      ],
      "name": "setProvider",
      "outputs": [],
      "stateMutability": "nonpayable",
      "type": "function"
    },
    {
      "inputs": [
        {
          "internalType": "uint256",
          "name": "roundStaleAfter_",
          "type": "uint256"
        }
      ],
      "name": "setRoundStaleAfter",
      "outputs": [],
      "stateMutability": "nonpayable",
      "type": "function"
    },
    {
      "inputs": [],
      "name": "sourcePref",
      "outputs": [
        {
          "internalType": "enum AprPairFeed.ESourcePref",
          "name": "",
          "type": "uint8"
        }
      ],
      "stateMutability": "view",
      "type": "function"
    },
    {
      "inputs": [
        {
          "internalType": "address",
          "name": "newOwner",
          "type": "address"
        }
      ],
      "name": "transferOwnership",
      "outputs": [],
      "stateMutability": "nonpayable",
      "type": "function"
    },
    {
      "inputs": [],
      "name": "updateRoundData",
      "outputs": [],
      "stateMutability": "nonpayable",
      "type": "function"
    },
    {
      "inputs": [
        {
          "internalType": "int64",
          "name": "aprTarget",
          "type": "int64"
        },
        {
          "internalType": "int64",
          "name": "aprBase",
          "type": "int64"
        },
        {
          "internalType": "uint64",
          "name": "timestamp",
          "type": "uint64"
        }
      ],
      "name": "updateRoundData",
      "outputs": [],
      "stateMutability": "nonpayable",
      "type": "function"
    }
  ],
  "bytecode": "0x6080806040523460d2577ff0c57e16840df040f15088dc2f81fe391c3923bec73e23a9662efc9c229c6a005460ff8160401c1660c1576002600160401b03196001600160401b03821601605c575b6040516117c990816100d88239f35b6001600160401b0319166001600160401b039081177ff0c57e16840df040f15088dc2f81fe391c3923bec73e23a9662efc9c229c6a005581527fc7f505b2f371ae2175ee4913f4499e1f2633a7b5936321eed1cdaeb6115181d290602090a13880604d565b63f92ee8a960e01b60005260046000fd5b600080fdfe608080604052600436101561001357600080fd5b60003560e01c908163085d48831461100a575080630e32cb8614610f9957806311a8f41314610f7257806321e541dd14610ea05780632317705f14610e055780632ede662f14610d96578063313ce56714610d7a578063668983ee14610d3f578063668a0f0214610cf35780636cfa2a82146108d6578063715018a6146108555780637284e416146107515780637338ddcc14610728578063737b332d146106ed57806379ba50971461069b5780637bc65b6e1461067d5780638da5cb5b146106475780638f3cc6571461060c578063c5f87257146105d1578063cc6f82ea1461058e578063cfd8d6c0146104a8578063e30c397814610472578063e63ab1e914610437578063f2fde38b146103b0578063f921e65c14610268578063fad7206a1461021c578063fb2fa628146101e1578063fde34130146101c55763feaf968c1461015e57600080fd5b346101c05760003660031901126101c0576101bc61017a611167565b6040519182918291909160606001600160401b03816080840195805160070b8552602081015160070b6020860152826040820151166040860152015116910152565b0390f35b600080fd5b346101c05760003660031901126101c057602060405160148152f35b346101c05760003660031901126101c05760206040517f67944e0027e2f9a2b0c3419bbf4470c579a0ff7f0007c5554d431924b9d578978152f35b346101c05760203660031901126101c0577f9581223ac1d3bd5b36bbe6388607d3c7e777da7b152cedde0a81d4c9715dbd99602060043561025b6112af565b80603655604051908152a1005b346101c05760203660031901126101c0576004356001600160401b0381168091036101c057610295611101565b506001600160401b0360148206166000526035602052604060002090604051916102be83611044565b548060070b83528060401c60070b60208401526001600160401b0360408401818360801c168152606085019260c01c835251161561037b57516001600160401b03160361034b576101bc906040519182918291909160606001600160401b03816080840195805160070b8552602081015160070b6020860152826040820151166040860152015116910152565b60405162461bcd60e51b815260206004820152600860248201526713db19149bdd5b9960c21b6044820152606490fd5b60405162461bcd60e51b815260206004820152600d60248201526c139bd1185d18541c995cd95b9d609a1b6044820152606490fd5b346101c05760203660031901126101c0576103c961102e565b6103d16112af565b60008051602061177483398151915280546001600160a01b0319166001600160a01b03928316908117909155600080516020611714833981519152549091167f38d16b8cac22d99fc7c124b9cd0de2d3fa1faef420bfe791d8c362d765e22700600080a3005b346101c05760003660031901126101c05760206040517f65d7a28e3265b37a6474929f336521b332c1681b933f6cb9f3376673440d862a8152f35b346101c05760003660031901126101c057600080516020611774833981519152546040516001600160a01b039091168152602090f35b346101c05760203660031901126101c0576104c161102e565b6104c96112af565b6040516345c703e760e01b8152906001600160a01b0316606082600481845afa908115610582576105326020927f8d84f77dfff2a0bf430ec00b0d9df1eacd1307893b17721c11558dc8969f24349460009060009261054d575b5061052d90611686565b611686565b603780546001600160a01b03191682179055604051908152a1005b61052d9250610574915060603d60601161057b575b61056c818361105f565b8101906110c8565b5091610523565b503d610562565b6040513d6000823e3d90fd5b346101c05760003660031901126101c05760ff60375460a01c1660405160028210156105bb576020918152f35b634e487b7160e01b600052602160045260246000fd5b346101c05760003660031901126101c05760206040517fcc938097bd07c9f1619d5e95c26b457140e80b889795c7c1cbd51a28005e02ac8152f35b346101c05760003660031901126101c05760206040517f2c85ecd23ea927ba843f342b5bafa7879dfdc212a00052897f68d65c2ee8491b8152f35b346101c05760003660031901126101c057600080516020611714833981519152546040516001600160a01b039091168152602090f35b346101c05760003660031901126101c0576020603654604051908152f35b346101c05760003660031901126101c05760008051602061177483398151915254336001600160a01b03909116036106d8576106d633611618565b005b63118cdaa760e01b6000523360045260246000fd5b346101c05760003660031901126101c05760206040517f97d8f58e0f008a842799f9fb6a4e6212ac93db0249409467f149ba102924e8808152f35b346101c05760003660031901126101c0576000546040516001600160a01b039091168152602090f35b346101c05760003660031901126101c05760405160325481600061077483611080565b808352926001811690811561083657506001146107e7575b6107989250038261105f565b60405190602082528181519182602083015260005b8381106107cf5750508160006040809484010152601f80199101168101030190f35b602082820181015160408784010152859350016107ad565b50906032600052600080516020611734833981519152906000915b81831061081a5750509060206107989282010161078c565b6020919350806001915483858801015201910190918392610802565b6020925061079894915060ff191682840152151560051b82010161078c565b346101c05760003660031901126101c05761086e6112af565b60008051602061177483398151915280546001600160a01b0319908116909155600080516020611714833981519152805491821690556000906001600160a01b03167f8be0079c531659141344cd1fd0a4f28419497f9722a3daafe3b4186f6b6457e08280a3005b346101c05760a03660031901126101c0576108ef61102e565b6024356001600160a01b03811691908290036101c0576044356001600160a01b038116908190036101c057608435926001600160401b0384116101c057366023850112156101c05783600401356001600160401b038111610c535760405194610962601f8301601f19166020018761105f565b81865236602483830101116101c05781600092602460209301838901378601015260008051602061175483398151915254926001600160401b0360ff8560401c1615941680159081610ceb575b6001149081610ce1575b159081610cd8575b50610cc7578360016001600160401b031960008051602061175483398151915254161760008051602061175483398151915255610c90575b610a016116e5565b610a096116e5565b6001600160a01b03811615610c7a57610a2190611618565b610a296116e5565b8015610c69576020817fea8b2c76280ebcfc6d3bce461d1446949d91929a61dc9c679740f01fddbda81d926001600160601b0360a01b6000541617600055604051908152a1610a766116e5565b610a7e6116e5565b60017f9b779b17422d0df92223018b32b4d1fa46e071723d6817e2486d003becc55f005582516001600160401b038111610c5357610abd603254611080565b601f8111610be6575b506020601f8211600114610b745781929394600092610b69575b50508160011b916000199060031b1c1916176032555b6001600160601b0360a01b6037541617603755606435603655610b1557005b60ff60401b196000805160206117548339815191525416600080516020611754833981519152557fc7f505b2f371ae2175ee4913f4499e1f2633a7b5936321eed1cdaeb6115181d2602060405160018152a1005b015190508480610ae0565b601f1982169060326000526000805160206117348339815191529160005b818110610bce57509583600195969710610bb5575b505050811b01603255610af6565b015160001960f88460031b161c19169055848080610ba7565b9192602060018192868b015181550194019201610b92565b6032600052601f820160051c600080516020611734833981519152019060208310610c3d575b601f0160051c60008051602061173483398151915201905b818110610c315750610ac6565b60008155600101610c24565b6000805160206117348339815191529150610c0c565b634e487b7160e01b600052604160045260246000fd5b63d92e233d60e01b60005260046000fd5b631e4fbdf760e01b600052600060045260246000fd5b6801000000000000000060ff60401b19600080516020611754833981519152541617600080516020611754833981519152556109f9565b63f92ee8a960e01b60005260046000fd5b905015866109c1565b303b1591506109b9565b8591506109af565b346101c05760003660031901126101c05760345460408051600783810b825283831c900b6020820152608083811c6001600160401b03169282019290925260c09290921c606083015290f35b346101c05760003660031901126101c05760206040517fb93bf808defb265d057ca8bf7be1ab7ec2ab3c0b320ee05f77fe3cb0e08fbff48152f35b346101c05760003660031901126101c0576020604051600c8152f35b346101c05760203660031901126101c05760043569ffffffffffffffffffff81168091036101c057600090815260356020908152604091829020548251600782810b825282851c900b92810192909252608081811c6001600160401b03169383019390935260c01c6060820152f35b346101c05760603660031901126101c0576004358060070b81036101c0576024358060070b81036101c057604435906001600160401b03821682036101c057610e5692610e51336112d0565b6113ba565b60375460ff8160a01c1660028110156105bb57610e6f57005b60ff60a01b19166037557f7b228967b3db7cdad5aa80d592b7ff64cb9478bc6622dcd8161216ddb4b0c26f600080a1005b346101c05760003660031901126101c057610eba336112d0565b6037546040516345c703e760e01b815290606090829060049082906001600160a01b03165afa801561058257610efc9160008091600093610f4f575b506113ba565b60375460ff8160a01c1660028110156105bb57600103610f1857005b60ff60a01b1916600160a01b176037557f7b228967b3db7cdad5aa80d592b7ff64cb9478bc6622dcd8161216ddb4b0c26f600080a1005b915050610f6b915060603d60601161057b5761056c818361105f565b9184610ef6565b346101c05760003660031901126101c05760206001600160401b0360335416604051908152f35b346101c05760203660031901126101c057610fb261102e565b610fba6112af565b6001600160a01b03168015610c69576020817fea8b2c76280ebcfc6d3bce461d1446949d91929a61dc9c679740f01fddbda81d926001600160601b0360a01b6000541617600055604051908152a1005b346101c05760003660031901126101c0576037546001600160a01b03168152602090f35b600435906001600160a01b03821682036101c057565b608081019081106001600160401b03821117610c5357604052565b90601f801991011681019081106001600160401b03821117610c5357604052565b90600182811c921680156110b0575b602083101461109a57565b634e487b7160e01b600052602260045260246000fd5b91607f169161108f565b51908160070b82036101c057565b908160609103126101c0576110dc816110ba565b9160406110eb602084016110ba565b9201516001600160401b03811681036101c05790565b6040519061110e82611044565b60006060838281528260208201528260408201520152565b9190820391821161113357565b634e487b7160e01b600052601160045260246000fd5b6001600160401b036001911601906001600160401b03821161113357565b61116f611101565b5060405161117c81611044565b603454908160070b81528160401c60070b602082015260408101916001600160401b038160801c16835260c01c60608201526037549160ff8360a01c1660028110156105bb5715611288575b50506040516345c703e760e01b815290606090829060049082906001600160a01b03165afa801561058257600090600090600090611258575b8293506001600160401b0392906112188492611686565b61122183611686565b61122e8260335416611149565b926040519561123c87611044565b60070b865260070b602086015216604084015216606082015290565b5050506001600160401b0361127c819260603d60601161057b5761056c818361105f565b91935083925090611201565b6001600160401b0361129c91511642611126565b603654116112aa57806111c8565b905090565b600080516020611714833981519152546001600160a01b031633036106d857565b600054604051632474521560e21b81527f2c85ecd23ea927ba843f342b5bafa7879dfdc212a00052897f68d65c2ee8491b60048201526001600160a01b039283166024820181905292909160209183916044918391165afa90811561058257600091611378575b50156113405750565b63e2517d3f60e01b6000526004527f2c85ecd23ea927ba843f342b5bafa7879dfdc212a00052897f68d65c2ee8491b60245260446000fd5b6020813d6020116113b2575b816113916020938361105f565b810103126113ae57519081151582036113ab575038611337565b80fd5b5080fd5b3d9150611384565b90916001600160401b0381166113d260365442611126565b81106115f6576001600160401b0360345460801c1681118015906115e3575b6115c157829161153b916114267f33abdcf03b35070062927f32494248274b0b04fbc1901ccad16cc7027ae9aeb59695611686565b61142f85611686565b6001600160401b03603354611445828216611149565b92606083851691826014810694861916176033556040519061146682611044565b8960070b82528a60070b602083015260408201520152811960345416868316176034556034548760401b600f0b67ffffffffffffffff60401b169067ffffffffffffffff60401b1916176034556034548260801b8360801b8660801b1616908360801b1916176034556034548260c01b8360c01b8560c01b16169060018060c01b031617603455166000526035602052604060002060348103611540575b506040519485948592936001600160401b0380929695606094608087019860070b875260070b602087015216604085015216910152565b0390a1565b60348054825467ffffffffffffffff1981166001600160401b039092169182178455825467ffffffffffffffff60401b166fffffffffffffffffffffffffffffffff198216831781178555835467ffffffffffffffff60801b166001600160c01b031992831684178217811786559354909116911790911717905538611504565b838363634fcbdb60e11b60005260070b60045260070b60245260445260646000fd5b50603c42018042116111335781116113f1565b8383631069c3c560e01b60005260070b60045260070b60245260445260646000fd5b60008051602061177483398151915280546001600160a01b031990811690915560008051602061171483398151915280549182166001600160a01b0393841690811790915591167f8be0079c531659141344cd1fd0a4f28419497f9722a3daafe3b4186f6b6457e0600080a3565b60070b8064746a5287ff19131590816116d4575b50156116a257565b60405162461bcd60e51b815260206004820152600a60248201526924b73b30b634b220b83960b11b6044820152606490fd5b6501d1a94a2000915013153861169a565b60ff6000805160206117548339815191525460401c161561170257565b631afcd79f60e31b60005260046000fdfe9016d09d72d40fdae2fd8ceac6b6234c7706214fd39c1cd1e609a0528c19930011df491316f14931039edfd4f8964c9a443b862f02d4c7611d18c2bc4e6ff697f0c57e16840df040f15088dc2f81fe391c3923bec73e23a9662efc9c229c6a00237e158222e3e6968b72b9db0d8043aacf074ad9f650f0d1606b4d82ee432c00a2646970667358221220502b5d7bd98156f0a857402c6e98aee0dc72166406c8f19e38e6e32266107fea64736f6c634300081c0033",
  "linkReferences": {},
  "deployedLinkReferences": {}
}