{
  "_format": "hh-sol-artifact-1",
  "contractName": "TrancheDepositor",
  "sourceName": "contracts/tranches/TrancheDepositor.sol",
  "abi": [
    {
      "inputs": [
        {
          "internalType": "address",
          "name": "account",
          "type": "address"
        },
        {
          "internalType": "bytes32",
          "name": "neededRole",
          "type": "bytes32"
        }
      ],
      "name": "AccessControlUnauthorizedAccount",
      "type": "error"
    },
    {
      "inputs": [
        {
          "internalType": "address",
          "name": "vault",
          "type": "address"
        },
        {
          "internalType": "address",
          "name": "asset",
          "type": "address"
        }
      ],
      "name": "InvalidAsset",
      "type": "error"
    },
    {
      "inputs": [],
      "name": "InvalidInitialization",
      "type": "error"
    },
    {
      "inputs": [
        {
          "internalType": "uint256",
          "name": "shares",
          "type": "uint256"
        },
        {
          "internalType": "uint256",
          "name": "minShares",
          "type": "uint256"
        }
      ],
      "name": "MintedSharesBelowMin",
      "type": "error"
    },
    {
      "inputs": [],
      "name": "NotInitializing",
      "type": "error"
    },
    {
      "inputs": [
        {
          "internalType": "address",
          "name": "owner",
          "type": "address"
        }
      ],
      "name": "OwnableInvalidOwner",
      "type": "error"
    },
    {
      "inputs": [
        {
          "internalType": "address",
          "name": "account",
          "type": "address"
        }
      ],
      "name": "OwnableUnauthorizedAccount",
      "type": "error"
    },
    {
      "inputs": [],
      "name": "ReentrancyGuardReentrantCall",
      "type": "error"
    },
    {
      "inputs": [
        {
          "internalType": "address",
          "name": "token",
          "type": "address"
        }
      ],
      "name": "SafeERC20FailedOperation",
      "type": "error"
    },
    {
      "inputs": [
        {
          "internalType": "address",
          "name": "sender",
          "type": "address"
        },
        {
          "internalType": "address",
          "name": "calledContract",
          "type": "address"
        },
        {
          "internalType": "bytes4",
          "name": "sel",
          "type": "bytes4"
        }
      ],
      "name": "Unauthorized",
      "type": "error"
    },
    {
      "inputs": [],
      "name": "ZeroAddress",
      "type": "error"
    },
    {
      "anonymous": false,
      "inputs": [],
      "name": "AutoWithdrawalsChanged",
      "type": "event"
    },
    {
      "anonymous": false,
      "inputs": [
        {
          "indexed": false,
          "internalType": "address",
          "name": "cdo",
          "type": "address"
        }
      ],
      "name": "CdoAdded",
      "type": "event"
    },
    {
      "anonymous": false,
      "inputs": [
        {
          "indexed": false,
          "internalType": "uint64",
          "name": "version",
          "type": "uint64"
        }
      ],
      "name": "Initialized",
      "type": "event"
    },
    {
      "anonymous": false,
      "inputs": [
        {
          "indexed": false,
          "internalType": "address",
          "name": "accessControlManager",
          "type": "address"
        }
      ],
      "name": "NewAccessControlManager",
      "type": "event"
    },
    {
      "anonymous": false,
      "inputs": [
        {
          "indexed": true,
          "internalType": "address",
          "name": "previousOwner",
          "type": "address"
        },
        {
          "indexed": true,
          "internalType": "address",
          "name": "newOwner",
          "type": "address"
        }
      ],
      "name": "OwnershipTransferStarted",
      "type": "event"
    },
    {
      "anonymous": false,
      "inputs": [
        {
          "indexed": true,
          "internalType": "address",
          "name": "previousOwner",
          "type": "address"
        },
        {
          "indexed": true,
          "internalType": "address",
          "name": "newOwner",
          "type": "address"
        }
      ],
      "name": "OwnershipTransferred",
      "type": "event"
    },
    {
      "anonymous": false,
      "inputs": [
        {
          "indexed": true,
          "internalType": "address",
          "name": "token",
          "type": "address"
        }
      ],
      "name": "SwapInfoChanged",
      "type": "event"
    },
    {
      "anonymous": false,
      "inputs": [],
      "name": "TranchesAdded",
      "type": "event"
    },
    {
      "inputs": [],
      "name": "COOLDOWN_WORKER_ROLE",
      "outputs": [
        {
          "internalType": "bytes32",
          "name": "",
          "type": "bytes32"
        }
      ],
      "stateMutability": "view",
      "type": "function"
    },
    {
      "inputs": [],
      "name": "DEPOSITOR_CONFIG_ROLE",
      "outputs": [
        {
          "internalType": "bytes32",
          "name": "",
          "type": "bytes32"
        }
      ],
      "stateMutability": "view",
      "type": "function"
    },
    {
      "inputs": [],
      "name": "PAUSER_ROLE",
      "outputs": [
        {
          "internalType": "bytes32",
          "name": "",
          "type": "bytes32"
        }
      ],
      "stateMutability": "view",
      "type": "function"
    },
    {
      "inputs": [],
      "name": "RESERVE_MANAGER_ROLE",
      "outputs": [
        {
          "internalType": "bytes32",
          "name": "",
          "type": "bytes32"
        }
      ],
      "stateMutability": "view",
      "type": "function"
    },
    {
      "inputs": [],
      "name": "UPDATER_CDO_APR_ROLE",
      "outputs": [
        {
          "internalType": "bytes32",
          "name": "",
          "type": "bytes32"
        }
      ],
      "stateMutability": "view",
      "type": "function"
    },
    {
      "inputs": [],
      "name": "UPDATER_FEED_ROLE",
      "outputs": [
        {
          "internalType": "bytes32",
          "name": "",
          "type": "bytes32"
        }
      ],
      "stateMutability": "view",
      "type": "function"
    },
    {
      "inputs": [],
      "name": "UPDATER_STRAT_CONFIG_ROLE",
      "outputs": [
        {
          "internalType": "bytes32",
          "name": "",
          "type": "bytes32"
        }
      ],
      "stateMutability": "view",
      "type": "function"
    },
    {
      "inputs": [],
      "name": "USDe",
      "outputs": [
        {
          "internalType": "contract IERC20",
          "name": "",
          "type": "address"
        }
      ],
      "stateMutability": "view",
      "type": "function"
    },
    {
      "inputs": [],
      "name": "acceptOwnership",
      "outputs": [],
      "stateMutability": "nonpayable",
      "type": "function"
    },
    {
      "inputs": [],
      "name": "acm",
      "outputs": [
        {
          "internalType": "contract IAccessControlManager",
          "name": "",
          "type": "address"
        }
      ],
      "stateMutability": "view",
      "type": "function"
    },
    {
      "inputs": [
        {
          "internalType": "address[]",
          "name": "tokens",
          "type": "address[]"
        },
        {
          "internalType": "bool[]",
          "name": "statuses",
          "type": "bool[]"
        }
      ],
      "name": "addAutoWithdrawals",
      "outputs": [],
      "stateMutability": "nonpayable",
      "type": "function"
    },
    {
      "inputs": [
        {
          "internalType": "contract IStrataCDO",
          "name": "cdo",
          "type": "address"
        }
      ],
      "name": "addCdo",
      "outputs": [],
      "stateMutability": "nonpayable",
      "type": "function"
    },
    {
      "inputs": [
        {
          "internalType": "contract IERC20",
          "name": "token",
          "type": "address"
        },
        {
          "components": [
            {
              "internalType": "address",
              "name": "router",
              "type": "address"
            },
            {
              "internalType": "uint24",
              "name": "fee",
              "type": "uint24"
            },
            {
              "internalType": "uint24",
              "name": "minimumReturnPercentage",
              "type": "uint24"
            }
          ],
          "internalType": "struct TrancheDepositor.TAutoSwap",
          "name": "swapInfo",
          "type": "tuple"
        }
      ],
      "name": "addSwapInfo",
      "outputs": [],
      "stateMutability": "nonpayable",
      "type": "function"
    },
    {
      "inputs": [
        {
          "internalType": "address",
          "name": "sourceToken",
          "type": "address"
        }
      ],
      "name": "autoSwaps",
      "outputs": [
        {
          "internalType": "address",
          "name": "router",
          "type": "address"
        },
        {
          "internalType": "uint24",
          "name": "fee",
          "type": "uint24"
        },
        {
          "internalType": "uint24",
          "name": "minimumReturnPercentage",
          "type": "uint24"
        }
      ],
      "stateMutability": "view",
      "type": "function"
    },
    {
      "inputs": [
        {
          "internalType": "address",
          "name": "sourceVault",
          "type": "address"
        }
      ],
      "name": "autoWithdrawals",
      "outputs": [
        {
          "internalType": "bool",
          "name": "enabled",
          "type": "bool"
        }
      ],
      "stateMutability": "view",
      "type": "function"
    },
    {
      "inputs": [
        {
          "internalType": "contract IMetaVault",
          "name": "vault",
          "type": "address"
        },
        {
          "internalType": "contract IERC20",
          "name": "asset",
          "type": "address"
        },
        {
          "internalType": "uint256",
          "name": "amount",
          "type": "uint256"
        },
        {
          "internalType": "address",
          "name": "receiver",
          "type": "address"
        },
        {
          "components": [
            {
              "internalType": "uint256",
              "name": "swapDeadline",
              "type": "uint256"
            },
            {
              "internalType": "uint256",
              "name": "swapAmountOutMinimum",
              "type": "uint256"
            },
            {
              "internalType": "address",
              "name": "swapTokenOut",
              "type": "address"
            },
            {
              "internalType": "uint256",
              "name": "minShares",
              "type": "uint256"
            }
          ],
          "internalType": "struct TrancheDepositor.TDepositParams",
          "name": "params",
          "type": "tuple"
        }
      ],
      "name": "deposit",
      "outputs": [
        {
          "internalType": "uint256",
          "name": "shares",
          "type": "uint256"
        }
      ],
      "stateMutability": "nonpayable",
      "type": "function"
    },
    {
      "inputs": [
        {
          "internalType": "contract IMetaVault",
          "name": "vault",
          "type": "address"
        },
        {
          "internalType": "contract IERC20",
          "name": "asset",
          "type": "address"
        },
        {
          "internalType": "uint256",
          "name": "amount",
          "type": "uint256"
        },
        {
          "internalType": "address",
          "name": "receiver",
          "type": "address"
        },
        {
          "components": [
            {
              "internalType": "uint256",
              "name": "swapDeadline",
              "type": "uint256"
            },
            {
              "internalType": "uint256",
              "name": "swapAmountOutMinimum",
              "type": "uint256"
            },
            {
              "internalType": "address",
              "name": "swapTokenOut",
              "type": "address"
            },
            {
              "internalType": "uint256",
              "name": "minShares",
              "type": "uint256"
            }
          ],
          "internalType": "struct TrancheDepositor.TDepositParams",
          "name": "params",
          "type": "tuple"
        },
        {
          "internalType": "uint256",
          "name": "deadline",
          "type": "uint256"
        },
        {
          "internalType": "uint8",
          "name": "v",
          "type": "uint8"
        },
        {
          "internalType": "bytes32",
          "name": "r",
          "type": "bytes32"
        },
        {
          "internalType": "bytes32",
          "name": "s",
          "type": "bytes32"
        }
      ],
      "name": "depositWithPermit",
      "outputs": [
        {
          "internalType": "uint256",
          "name": "shares",
          "type": "uint256"
        }
      ],
      "stateMutability": "nonpayable",
      "type": "function"
    },
    {
      "inputs": [
        {
          "internalType": "address",
          "name": "owner_",
          "type": "address"
        },
        {
          "internalType": "address",
          "name": "acm_",
          "type": "address"
        }
      ],
      "name": "initialize",
      "outputs": [],
      "stateMutability": "nonpayable",
      "type": "function"
    },
    {
      "inputs": [],
      "name": "owner",
      "outputs": [
        {
          "internalType": "address",
          "name": "",
          "type": "address"
        }
      ],
      "stateMutability": "view",
      "type": "function"
    },
    {
      "inputs": [],
      "name": "pUSDe",
      "outputs": [
        {
          "internalType": "contract IERC4626",
          "name": "",
          "type": "address"
        }
      ],
      "stateMutability": "view",
      "type": "function"
    },
    {
      "inputs": [],
      "name": "pendingOwner",
      "outputs": [
        {
          "internalType": "address",
          "name": "",
          "type": "address"
        }
      ],
      "stateMutability": "view",
      "type": "function"
    },
    {
      "inputs": [],
      "name": "renounceOwnership",
      "outputs": [],
      "stateMutability": "nonpayable",
      "type": "function"
    },
    {
      "inputs": [],
      "name": "sUSDe",
      "outputs": [
        {
          "internalType": "contract IERC4626",
          "name": "",
          "type": "address"
        }
      ],
      "stateMutability": "view",
      "type": "function"
    },
    {
      "inputs": [
        {
          "internalType": "address",
          "name": "accessControlManager_",
          "type": "address"
        }
      ],
      "name": "setAccessControlManager",
      "outputs": [],
      "stateMutability": "nonpayable",
      "type": "function"
    },
    {
      "inputs": [
        {
          "internalType": "address",
          "name": "tranche",
          "type": "address"
        },
        {
          "internalType": "address",
          "name": "token",
          "type": "address"
        }
      ],
      "name": "tranches",
      "outputs": [
        {
          "internalType": "bool",
          "name": "enabled",
          "type": "bool"
        }
      ],
      "stateMutability": "view",
      "type": "function"
    },
    {
      "inputs": [
        {
          "internalType": "address",
          "name": "newOwner",
          "type": "address"
        }
      ],
      "name": "transferOwnership",
      "outputs": [],
      "stateMutability": "nonpayable",
      "type": "function"
    }
  ],
  "bytecode": "0x6080806040523460d2577ff0c57e16840df040f15088dc2f81fe391c3923bec73e23a9662efc9c229c6a005460ff8160401c1660c1576002600160401b03196001600160401b03821601605c575b604051611e0790816100d88239f35b6001600160401b0319166001600160401b039081177ff0c57e16840df040f15088dc2f81fe391c3923bec73e23a9662efc9c229c6a005581527fc7f505b2f371ae2175ee4913f4499e1f2633a7b5936321eed1cdaeb6115181d290602090a13880604d565b63f92ee8a960e01b60005260046000fd5b600080fdfe6080604052600436101561001257600080fd5b6000803560e01c80630e32cb861461107657806326a4966f1461103b5780632806cb7814610eba578063485cc95514610cb55780634df9931014610c5a5780635654806514610c0057806359fbfafd14610b71578063668983ee14610b36578063715018a614610ab55780637338ddcc14610a8e578063737b332d14610a5357806379ba509714610a02578063806ff24b146108315780638da5cb5b146107fb5780638f3cc657146107c057806396298a1914610797578063a8759fc014610758578063c5f872571461071d578063d1609502146106f4578063db008bfe146105cb578063e0d05d39146105a2578063e30c39781461056c578063e63ab1e914610531578063f2fde38b146104a9578063fb2fa6281461046e5763ff953bc41461013b57600080fd5b3461044e57602036600319011261044e576004356001600160a01b0381169081900361046a5761016a33611475565b604051635463173b60e11b815282602082600481865afa801561045d578190610411575b60405163d3c7c2c760e01b81529250829060049082906001600160a01b03165afa908115610406578391610337575b50604051631f20100360e11b8152602081600481865afa90811561032c57849161030d575b506040516329bb9e4160e21b81526001600160a01b039190911690602081600481875afa9081156103025785916102d3575b5060018060a01b0316825192855b84811061025857867fa91226303a382b2f4bb7adc83a2d883a18755bd56b81fb365afa360d1f3b2781602088604051908152a180f35b81518110156102bf576020600582901b830181015185895260378083526040808b206001600160a01b0390931660008181529385528184208054600160ff199182168117909255898e52938652828d20918552945290912080549091168217905501610222565b634e487b7160e01b87526032600452602487fd5b6102f5915060203d6020116102fb575b6102ed818361119a565b810190611274565b38610214565b503d6102e3565b6040513d87823e3d90fd5b610326915060203d6020116102fb576102ed818361119a565b386101e2565b6040513d86823e3d90fd5b90503d8084833e610348818361119a565b8101906020818303126103fe5780519067ffffffffffffffff8211610402570181601f820112156103fe5780519167ffffffffffffffff83116103ea578260051b916040519361039b602085018661119a565b84526020808501938201019182116103e657602001915b8183106103c257505050386101bd565b82516001600160a01b03811681036103e2578152602092830192016103b2565b8680fd5b8580fd5b634e487b7160e01b85526041600452602485fd5b8380fd5b8480fd5b6040513d85823e3d90fd5b50506020813d602011610455575b8161042c6020938361119a565b810103126104515751826001600160a01b038216820361044e5760049161018e565b80fd5b8280fd5b3d915061041f565b50604051903d90823e3d90fd5b5080fd5b503461044e578060031936011261044e5760206040517f67944e0027e2f9a2b0c3419bbf4470c579a0ff7f0007c5554d431924b9d578978152f35b503461044e57602036600319011261044e576104c36110f5565b6104cb611293565b600080516020611db283398151915280546001600160a01b0319166001600160a01b03928316908117909155600080516020611d52833981519152549091167f38d16b8cac22d99fc7c124b9cd0de2d3fa1faef420bfe791d8c362d765e227008380a380f35b503461044e578060031936011261044e5760206040517f65d7a28e3265b37a6474929f336521b332c1681b933f6cb9f3376673440d862a8152f35b503461044e578060031936011261044e57600080516020611db2833981519152546040516001600160a01b039091168152602090f35b503461044e578060031936011261044e576033546040516001600160a01b039091168152602090f35b503461044e57604036600319011261044e5760043567ffffffffffffffff811161046a576105fd903690600401611137565b9060243567ffffffffffffffff81116103fe5761061e903690600401611137565b61062a93919333611475565b8082036106bd57845b82811061066257857f788112d6ffeadfcc9a931aac9d4419dc6273a89fba8e8d57741b1c77ec1b4ec18180a180f35b61066d81838761124e565b35908115158092036103e25761068481858761124e565b35916001600160a01b0383168084036106b9576001935088526036602052604088209060ff8019835416911617905501610633565b8880fd5b60405162461bcd60e51b815260206004820152600f60248201526e098cadccee8d09ad2e6e6dac2e8c6d608b1b6044820152606490fd5b503461044e578060031936011261044e576032546040516001600160a01b039091168152602090f35b503461044e578060031936011261044e5760206040517fcc938097bd07c9f1619d5e95c26b457140e80b889795c7c1cbd51a28005e02ac8152f35b503461044e57602036600319011261044e5760209060ff906040906001600160a01b036107836110f5565b168152603684522054166040519015158152f35b503461044e578060031936011261044e576034546040516001600160a01b039091168152602090f35b503461044e578060031936011261044e5760206040517f2c85ecd23ea927ba843f342b5bafa7879dfdc212a00052897f68d65c2ee8491b8152f35b503461044e578060031936011261044e57600080516020611d52833981519152546040516001600160a01b039091168152602090f35b503461044e57608036600319011261044e5761084b6110f5565b606036602319011261046a5761086033611475565b6001600160a01b03166108748115156111da565b61088f6001600160a01b03610887611214565b1615156111da565b62ffffff61089b61122a565b1660641115806109ea575b156109b45762ffffff6108b761123c565b1661038411158061099c575b15610957578082526035602052604082206001600160a01b036108e4611214565b82546001600160a01b03191691161781556108fd61122a565b815462ffffff60b81b61090e61123c565b60b81b169162ffffff60a01b9060a01b169065ffffffffffff60a01b1916171790557fae16a60062bfc6045e207bea236f2c6576ec256e9f5e103b4abb6875e33d13bc8280a280f35b60405162461bcd60e51b815260206004820152601760248201527f496e76616c696452657475726e50657263656e746167650000000000000000006044820152606490fd5b506103e862ffffff6109ac61123c565b1611156108c3565b60405162461bcd60e51b815260206004820152600e60248201526d24b73b30b634b22332b2aa34b2b960911b6044820152606490fd5b5061271062ffffff6109fa61122a565b1611156108a6565b503461044e578060031936011261044e57600080516020611db283398151915254336001600160a01b0390911603610a4057610a3d33611407565b80f35b63118cdaa760e01b815233600452602490fd5b503461044e578060031936011261044e5760206040517f97d8f58e0f008a842799f9fb6a4e6212ac93db0249409467f149ba102924e8808152f35b503461044e578060031936011261044e57546040516001600160a01b039091168152602090f35b503461044e578060031936011261044e57610ace611293565b600080516020611db283398151915280546001600160a01b0319908116909155600080516020611d528339815191528054918216905581906001600160a01b03167f8be0079c531659141344cd1fd0a4f28419497f9722a3daafe3b4186f6b6457e08280a380f35b503461044e578060031936011261044e5760206040517fb93bf808defb265d057ca8bf7be1ab7ec2ab3c0b320ee05f77fe3cb0e08fbff48152f35b503461044e5761010036600319011261044e57610b8c6110f5565b610b94611121565b610b9c61110b565b9160803660831901126103fe5760405193610bb685611168565b608435855260a435602086015260c435906001600160a01b038216820361044e576040860182905260e43560608701526020610bf88787604435338989611312565b604051908152f35b503461044e57604036600319011261044e576040610c1c6110f5565b91610c25611121565b9260018060a01b031681526037602052209060018060a01b0316600052602052602060ff604060002054166040519015158152f35b503461044e57602036600319011261044e576060906040906001600160a01b03610c826110f5565b1681526035602052205462ffffff6040519160018060a01b0381168352818160a01c16602084015260b81c166040820152f35b503461044e57604036600319011261044e57610ccf6110f5565b610cd7611121565b600080516020611d92833981519152549160ff8360401c16159267ffffffffffffffff811680159081610eb2575b6001149081610ea8575b159081610e9f575b50610e905767ffffffffffffffff198116600117600080516020611d928339815191525583610e63575b50610d4a611c6f565b610d52611c6f565b6001600160a01b03811615610e4f57610d6a90611407565b610d72611c6f565b6001600160a01b03168015610e405782546001600160a01b031916811783556040519081527fea8b2c76280ebcfc6d3bce461d1446949d91929a61dc9c679740f01fddbda81d90602090a1610dc5611c6f565b610dcd611c6f565b6001600080516020611d7283398151915255610de65780f35b68ff000000000000000019600080516020611d928339815191525416600080516020611d92833981519152557fc7f505b2f371ae2175ee4913f4499e1f2633a7b5936321eed1cdaeb6115181d2602060405160018152a180f35b63d92e233d60e01b8352600483fd5b631e4fbdf760e01b84526004849052602484fd5b68ffffffffffffffffff19166801000000000000000117600080516020611d928339815191525538610d41565b63f92ee8a960e01b8552600485fd5b90501538610d17565b303b159150610d0f565b859150610d05565b503461044e5761018036600319011261044e57610ed56110f5565b610edd611121565b9160443590610eea61110b565b90608036608319011261044e576101243560ff811680910361046a576002600080516020611d72833981519152541461102c576002600080516020611d72833981519152556001600160a01b03861690813b1561045157829160e48392604051948593849263d505accf60e01b84523360048501523060248501528a604485015261010435606485015260848401526101443560a48401526101643560c48401525af18015611021578290611011575b5050610fa8833033886112c9565b5060405191610fb683611168565b608435835260a435602084015260c435936001600160a01b038516850361100c57602095610ff295604086015260e43560608601523091611312565b6001600080516020611d7283398151915255604051908152f35b600080fd5b61101a9161119a565b3881610f9a565b6040513d84823e3d90fd5b633ee5aeb560e01b8252600482fd5b503461044e578060031936011261044e5760206040517f46d85652d341757f93e5867608955879c4a4bbedab1a4af0550d0c06e21107bf8152f35b503461044e57602036600319011261044e576110906110f5565b611098611293565b6001600160a01b031680156110e65781546001600160a01b031916811782556040519081527fea8b2c76280ebcfc6d3bce461d1446949d91929a61dc9c679740f01fddbda81d90602090a180f35b63d92e233d60e01b8252600482fd5b600435906001600160a01b038216820361100c57565b606435906001600160a01b038216820361100c57565b602435906001600160a01b038216820361100c57565b9181601f8401121561100c5782359167ffffffffffffffff831161100c576020808501948460051b01011161100c57565b6080810190811067ffffffffffffffff82111761118457604052565b634e487b7160e01b600052604160045260246000fd5b90601f8019910116810190811067ffffffffffffffff82111761118457604052565b6040513d6000823e3d90fd5b604051906111d86101008361119a565b565b156111e157565b60405162461bcd60e51b815260206004820152600b60248201526a5a65726f4164647265737360a81b6044820152606490fd5b6024356001600160a01b038116810361100c5790565b60443562ffffff8116810361100c5790565b60643562ffffff8116810361100c5790565b919081101561125e5760051b0190565b634e487b7160e01b600052603260045260246000fd5b9081602091031261100c57516001600160a01b038116810361100c5790565b600080516020611d52833981519152546001600160a01b031633036112b457565b63118cdaa760e01b6000523360045260246000fd5b6040516323b872dd60e01b60208201526001600160a01b0392831660248201529290911660448301526064808301939093529181526111d89161130d60848361119a565b611558565b6001600160a01b03818116600081815260376020908152604080832094871680845294909152902054919790969095909490939092909160ff1615156001146113f25760016113856113806113798b60018060a01b03166000526036602052604060002090565b5460ff1690565b151590565b146113e1576001600160a01b03888116600090815260356020526040902054166113cd576318e7368760e11b6000526001600160a01b03808816600452881660245260446000fd5b909192939495506113de9650611931565b90565b90506113de96919293949550611727565b9550909192936113de965060600151946115fc565b600080516020611db283398151915280546001600160a01b0319908116909155600080516020611d5283398151915280549182166001600160a01b0393841690811790915591167f8be0079c531659141344cd1fd0a4f28419497f9722a3daafe3b4186f6b6457e0600080a3565b600054604051632474521560e21b81527f46d85652d341757f93e5867608955879c4a4bbedab1a4af0550d0c06e21107bf60048201526001600160a01b039283166024820181905292909160209183916044918391165afa9081156111bc5760009161151d575b50156114e55750565b63e2517d3f60e01b6000526004527f46d85652d341757f93e5867608955879c4a4bbedab1a4af0550d0c06e21107bf60245260446000fd5b6020813d602011611550575b816115366020938361119a565b8101031261046a575190811515820361044e5750386114dc565b3d9150611529565b906000602091828151910182855af1156111bc576000513d6115aa57506001600160a01b0381163b155b6115895750565b635274afe760e01b60009081526001600160a01b0391909116600452602490fd5b60011415611582565b156115ba57565b60405162461bcd60e51b815260206004820152600b60248201526a16995c9bd1195c1bdcda5d60aa1b6044820152606490fd5b9081602091031261100c575190565b9060006064926020959497966116138615156115b3565b6001600160a01b0316976116288915156111da565b85306001600160a01b038316036116f1575b50506001600160a01b0316611650858285611c9d565b6040519788958694633d14d1b760e21b865260018060a01b03166004860152602485015260448401525af19182156111bc576000926116bd575b50801515806116b4575b61169c575090565b90633a12fd2960e21b60005260045260245260446000fd5b50808210611694565b90916020823d6020116116e9575b816116d86020938361119a565b8101031261044e575051903861168a565b3d91506116cb565b6116fd913090866112c9565b388561163a565b9190820391821161171157565b634e487b7160e01b600052601160045260246000fd5b90949392946117378615156115b3565b6040516338d52e0f60e01b81526001600160a01b03919091169290602081600481875afa90811561185f576000916118ab575b506040516370a0823160e01b8152306004820152966001600160a01b03919091169390602088602481885afa97881561185f57600098611881575b50604051632d182be560e21b815260048101919091523060248201526001600160a01b039092166044830152602090829081600081606481015b03925af1801561185f57611864575b506040516370a0823160e01b8152306004820152602081602481865afa95861561185f576113de9661182892600091611830575b50611704565b913091611312565b611852915060203d602011611858575b61184a818361119a565b8101906115ed565b38611822565b503d611840565b6111bc565b61187c9060203d6020116118585761184a818361119a565b6117ee565b6117df93919850916118a1602093843d86116118585761184a818361119a565b98919350916117a5565b6118c4915060203d6020116102fb576102ed818361119a565b3861176a565b906040516060810181811067ffffffffffffffff82111761118457604052604062ffffff82945460018060a01b0381168452818160a01c16602085015260b81c16910152565b8181029291811591840414171561171157565b90600f820180921161171157565b90918361194491969594963090856112c9565b6001600160a01b038216600081815260356020526040902061197f90879061196b906118ca565b80519095906001600160a01b031690611c9d565b6020850151928315611c38575b8551938415611c27575b60408701516001600160a01b0316978815611bd0575b6001600160a01b03851660008181526037602052604090206001906119e690611379908d60018060a01b0316600052602052604060002090565b1515148015611ba5575b15611b8157506040516370a0823160e01b8152306004820152986001600160a01b038116969060208b6024818b5afa9a8b1561185f5760009b611b46575b50611ab9856117df9560009895611ac595611a90611ab996611a84611a5a6020809e015162ffffff1690565b91611a75611a666111c8565b6001600160a01b03909d168d52565b6001600160a01b03168b8e0152565b62ffffff1660408a0152565b306060890152608088015260a087015260c086015260e08501889052516001600160a01b031690565b6001600160a01b031690565b6040805163414bf38960e01b815283516001600160a01b0390811660048301526020850151811660248301529184015162ffffff1660448201526060840151821660648201526080840151608482015260a084015160a482015260c084015160c482015260e0909301511660e4830152909384928391908290610104820190565b909a50602095929394953d602011611b7a575b611b63818361119a565b8101611b6e916115ed565b99389594939295611a2e565b503d611b59565b6318e7368760e11b6000526001600160a01b03908116600452891660245260446000fd5b506001611bca6113806113798d60018060a01b03166000526036602052604060002090565b146119f0565b6040516338d52e0f60e01b81529098506020816004816001600160a01b0389165afa90811561185f57600091611c08575b50976119ac565b611c21915060203d6020116102fb576102ed818361119a565b38611c01565b9350611c3242611923565b93611996565b9250611c69611c61611c5b611c53604087015162ffffff1690565b62ffffff1690565b88611910565b6103e8900490565b9261198c565b60ff600080516020611d928339815191525460401c1615611c8c57565b631afcd79f60e31b60005260046000fd5b60206000604051938285019063095ea7b360e01b825260018060a01b031695866024870152604486015260448552611cd660648661119a565b84519082855af16000513d82611d2c575b505015611cf357505050565b61130d6111d8936040519063095ea7b360e01b602083015260248201526000604482015260448152611d2660648261119a565b82611558565b909150611d4957506001600160a01b0381163b15155b3880611ce7565b600114611d4256fe9016d09d72d40fdae2fd8ceac6b6234c7706214fd39c1cd1e609a0528c1993009b779b17422d0df92223018b32b4d1fa46e071723d6817e2486d003becc55f00f0c57e16840df040f15088dc2f81fe391c3923bec73e23a9662efc9c229c6a00237e158222e3e6968b72b9db0d8043aacf074ad9f650f0d1606b4d82ee432c00a26469706673582212203c96f6ff165492a15ceba0ffb6b5be9da6bd90ef44cdbe13f9e689e4e67b341a64736f6c634300081c0033",
  "linkReferences": {},
  "deployedLinkReferences": {}
}