{
  "_format": "hh-sol-artifact-1",
  "contractName": "MockStakedUSDe",
  "sourceName": "contracts/test/MockStakedUSDe.sol",
  "abi": [
    {
      "inputs": [
        {
          "internalType": "contract IERC20",
          "name": "_asset",
          "type": "address"
        },
        {
          "internalType": "address",
          "name": "initialRewarder",
          "type": "address"
        },
        {
          "internalType": "address",
          "name": "_owner",
          "type": "address"
        }
      ],
      "stateMutability": "nonpayable",
      "type": "constructor"
    },
    {
      "inputs": [],
      "name": "AccessControlBadConfirmation",
      "type": "error"
    },
    {
      "inputs": [
        {
          "internalType": "address",
          "name": "account",
          "type": "address"
        },
        {
          "internalType": "bytes32",
          "name": "neededRole",
          "type": "bytes32"
        }
      ],
      "name": "AccessControlUnauthorizedAccount",
      "type": "error"
    },
    {
      "inputs": [],
      "name": "CantBlacklistOwner",
      "type": "error"
    },
    {
      "inputs": [],
      "name": "ECDSAInvalidSignature",
      "type": "error"
    },
    {
      "inputs": [
        {
          "internalType": "uint256",
          "name": "length",
          "type": "uint256"
        }
      ],
      "name": "ECDSAInvalidSignatureLength",
      "type": "error"
    },
    {
      "inputs": [
        {
          "internalType": "bytes32",
          "name": "s",
          "type": "bytes32"
        }
      ],
      "name": "ECDSAInvalidSignatureS",
      "type": "error"
    },
    {
      "inputs": [
        {
          "internalType": "address",
          "name": "spender",
          "type": "address"
        },
        {
          "internalType": "uint256",
          "name": "allowance",
          "type": "uint256"
        },
        {
          "internalType": "uint256",
          "name": "needed",
          "type": "uint256"
        }
      ],
      "name": "ERC20InsufficientAllowance",
      "type": "error"
    },
    {
      "inputs": [
        {
          "internalType": "address",
          "name": "sender",
          "type": "address"
        },
        {
          "internalType": "uint256",
          "name": "balance",
          "type": "uint256"
        },
        {
          "internalType": "uint256",
          "name": "needed",
          "type": "uint256"
        }
      ],
      "name": "ERC20InsufficientBalance",
      "type": "error"
    },
    {
      "inputs": [
        {
          "internalType": "address",
          "name": "approver",
          "type": "address"
        }
      ],
      "name": "ERC20InvalidApprover",
      "type": "error"
    },
    {
      "inputs": [
        {
          "internalType": "address",
          "name": "receiver",
          "type": "address"
        }
      ],
      "name": "ERC20InvalidReceiver",
      "type": "error"
    },
    {
      "inputs": [
        {
          "internalType": "address",
          "name": "sender",
          "type": "address"
        }
      ],
      "name": "ERC20InvalidSender",
      "type": "error"
    },
    {
      "inputs": [
        {
          "internalType": "address",
          "name": "spender",
          "type": "address"
        }
      ],
      "name": "ERC20InvalidSpender",
      "type": "error"
    },
    {
      "inputs": [
        {
          "internalType": "uint256",
          "name": "deadline",
          "type": "uint256"
        }
      ],
      "name": "ERC2612ExpiredSignature",
      "type": "error"
    },
    {
      "inputs": [
        {
          "internalType": "address",
          "name": "signer",
          "type": "address"
        },
        {
          "internalType": "address",
          "name": "owner",
          "type": "address"
        }
      ],
      "name": "ERC2612InvalidSigner",
      "type": "error"
    },
    {
      "inputs": [
        {
          "internalType": "address",
          "name": "receiver",
          "type": "address"
        },
        {
          "internalType": "uint256",
          "name": "assets",
          "type": "uint256"
        },
        {
          "internalType": "uint256",
          "name": "max",
          "type": "uint256"
        }
      ],
      "name": "ERC4626ExceededMaxDeposit",
      "type": "error"
    },
    {
      "inputs": [
        {
          "internalType": "address",
          "name": "receiver",
          "type": "address"
        },
        {
          "internalType": "uint256",
          "name": "shares",
          "type": "uint256"
        },
        {
          "internalType": "uint256",
          "name": "max",
          "type": "uint256"
        }
      ],
      "name": "ERC4626ExceededMaxMint",
      "type": "error"
    },
    {
      "inputs": [
        {
          "internalType": "address",
          "name": "owner",
          "type": "address"
        },
        {
          "internalType": "uint256",
          "name": "shares",
          "type": "uint256"
        },
        {
          "internalType": "uint256",
          "name": "max",
          "type": "uint256"
        }
      ],
      "name": "ERC4626ExceededMaxRedeem",
      "type": "error"
    },
    {
      "inputs": [
        {
          "internalType": "address",
          "name": "owner",
          "type": "address"
        },
        {
          "internalType": "uint256",
          "name": "assets",
          "type": "uint256"
        },
        {
          "internalType": "uint256",
          "name": "max",
          "type": "uint256"
        }
      ],
      "name": "ERC4626ExceededMaxWithdraw",
      "type": "error"
    },
    {
      "inputs": [],
      "name": "ExcessiveRedeemAmount",
      "type": "error"
    },
    {
      "inputs": [],
      "name": "ExcessiveWithdrawAmount",
      "type": "error"
    },
    {
      "inputs": [
        {
          "internalType": "address",
          "name": "account",
          "type": "address"
        },
        {
          "internalType": "uint256",
          "name": "currentNonce",
          "type": "uint256"
        }
      ],
      "name": "InvalidAccountNonce",
      "type": "error"
    },
    {
      "inputs": [],
      "name": "InvalidAdminChange",
      "type": "error"
    },
    {
      "inputs": [],
      "name": "InvalidAmount",
      "type": "error"
    },
    {
      "inputs": [],
      "name": "InvalidCooldown",
      "type": "error"
    },
    {
      "inputs": [],
      "name": "InvalidShortString",
      "type": "error"
    },
    {
      "inputs": [],
      "name": "InvalidToken",
      "type": "error"
    },
    {
      "inputs": [],
      "name": "InvalidZeroAddress",
      "type": "error"
    },
    {
      "inputs": [],
      "name": "MinSharesViolation",
      "type": "error"
    },
    {
      "inputs": [],
      "name": "NotPendingAdmin",
      "type": "error"
    },
    {
      "inputs": [],
      "name": "OperationNotAllowed",
      "type": "error"
    },
    {
      "inputs": [],
      "name": "ReentrancyGuardReentrantCall",
      "type": "error"
    },
    {
      "inputs": [
        {
          "internalType": "address",
          "name": "token",
          "type": "address"
        }
      ],
      "name": "SafeERC20FailedOperation",
      "type": "error"
    },
    {
      "inputs": [],
      "name": "StillVesting",
      "type": "error"
    },
    {
      "inputs": [
        {
          "internalType": "string",
          "name": "str",
          "type": "string"
        }
      ],
      "name": "StringTooLong",
      "type": "error"
    },
    {
      "anonymous": false,
      "inputs": [
        {
          "indexed": true,
          "internalType": "address",
          "name": "oldAdmin",
          "type": "address"
        },
        {
          "indexed": true,
          "internalType": "address",
          "name": "newAdmin",
          "type": "address"
        }
      ],
      "name": "AdminTransferRequested",
      "type": "event"
    },
    {
      "anonymous": false,
      "inputs": [
        {
          "indexed": true,
          "internalType": "address",
          "name": "oldAdmin",
          "type": "address"
        },
        {
          "indexed": true,
          "internalType": "address",
          "name": "newAdmin",
          "type": "address"
        }
      ],
      "name": "AdminTransferred",
      "type": "event"
    },
    {
      "anonymous": false,
      "inputs": [
        {
          "indexed": true,
          "internalType": "address",
          "name": "owner",
          "type": "address"
        },
        {
          "indexed": true,
          "internalType": "address",
          "name": "spender",
          "type": "address"
        },
        {
          "indexed": false,
          "internalType": "uint256",
          "name": "value",
          "type": "uint256"
        }
      ],
      "name": "Approval",
      "type": "event"
    },
    {
      "anonymous": false,
      "inputs": [
        {
          "indexed": false,
          "internalType": "uint24",
          "name": "previousDuration",
          "type": "uint24"
        },
        {
          "indexed": false,
          "internalType": "uint24",
          "name": "newDuration",
          "type": "uint24"
        }
      ],
      "name": "CooldownDurationUpdated",
      "type": "event"
    },
    {
      "anonymous": false,
      "inputs": [
        {
          "indexed": true,
          "internalType": "address",
          "name": "sender",
          "type": "address"
        },
        {
          "indexed": true,
          "internalType": "address",
          "name": "owner",
          "type": "address"
        },
        {
          "indexed": false,
          "internalType": "uint256",
          "name": "assets",
          "type": "uint256"
        },
        {
          "indexed": false,
          "internalType": "uint256",
          "name": "shares",
          "type": "uint256"
        }
      ],
      "name": "Deposit",
      "type": "event"
    },
    {
      "anonymous": false,
      "inputs": [],
      "name": "EIP712DomainChanged",
      "type": "event"
    },
    {
      "anonymous": false,
      "inputs": [
        {
          "indexed": true,
          "internalType": "address",
          "name": "from",
          "type": "address"
        },
        {
          "indexed": true,
          "internalType": "address",
          "name": "to",
          "type": "address"
        },
        {
          "indexed": false,
          "internalType": "uint256",
          "name": "amount",
          "type": "uint256"
        }
      ],
      "name": "LockedAmountRedistributed",
      "type": "event"
    },
    {
      "anonymous": false,
      "inputs": [
        {
          "indexed": false,
          "internalType": "uint256",
          "name": "amount",
          "type": "uint256"
        }
      ],
      "name": "RewardsReceived",
      "type": "event"
    },
    {
      "anonymous": false,
      "inputs": [
        {
          "indexed": true,
          "internalType": "bytes32",
          "name": "role",
          "type": "bytes32"
        },
        {
          "indexed": true,
          "internalType": "bytes32",
          "name": "previousAdminRole",
          "type": "bytes32"
        },
        {
          "indexed": true,
          "internalType": "bytes32",
          "name": "newAdminRole",
          "type": "bytes32"
        }
      ],
      "name": "RoleAdminChanged",
      "type": "event"
    },
    {
      "anonymous": false,
      "inputs": [
        {
          "indexed": true,
          "internalType": "bytes32",
          "name": "role",
          "type": "bytes32"
        },
        {
          "indexed": true,
          "internalType": "address",
          "name": "account",
          "type": "address"
        },
        {
          "indexed": true,
          "internalType": "address",
          "name": "sender",
          "type": "address"
        }
      ],
      "name": "RoleGranted",
      "type": "event"
    },
    {
      "anonymous": false,
      "inputs": [
        {
          "indexed": true,
          "internalType": "bytes32",
          "name": "role",
          "type": "bytes32"
        },
        {
          "indexed": true,
          "internalType": "address",
          "name": "account",
          "type": "address"
        },
        {
          "indexed": true,
          "internalType": "address",
          "name": "sender",
          "type": "address"
        }
      ],
      "name": "RoleRevoked",
      "type": "event"
    },
    {
      "anonymous": false,
      "inputs": [
        {
          "indexed": true,
          "internalType": "address",
          "name": "from",
          "type": "address"
        },
        {
          "indexed": true,
          "internalType": "address",
          "name": "to",
          "type": "address"
        },
        {
          "indexed": false,
          "internalType": "uint256",
          "name": "value",
          "type": "uint256"
        }
      ],
      "name": "Transfer",
      "type": "event"
    },
    {
      "anonymous": false,
      "inputs": [
        {
          "indexed": true,
          "internalType": "address",
          "name": "sender",
          "type": "address"
        },
        {
          "indexed": true,
          "internalType": "address",
          "name": "receiver",
          "type": "address"
        },
        {
          "indexed": true,
          "internalType": "address",
          "name": "owner",
          "type": "address"
        },
        {
          "indexed": false,
          "internalType": "uint256",
          "name": "assets",
          "type": "uint256"
        },
        {
          "indexed": false,
          "internalType": "uint256",
          "name": "shares",
          "type": "uint256"
        }
      ],
      "name": "Withdraw",
      "type": "event"
    },
    {
      "inputs": [],
      "name": "DEFAULT_ADMIN_ROLE",
      "outputs": [
        {
          "internalType": "bytes32",
          "name": "",
          "type": "bytes32"
        }
      ],
      "stateMutability": "view",
      "type": "function"
    },
    {
      "inputs": [],
      "name": "DOMAIN_SEPARATOR",
      "outputs": [
        {
          "internalType": "bytes32",
          "name": "",
          "type": "bytes32"
        }
      ],
      "stateMutability": "view",
      "type": "function"
    },
    {
      "inputs": [],
      "name": "MAX_COOLDOWN_DURATION",
      "outputs": [
        {
          "internalType": "uint24",
          "name": "",
          "type": "uint24"
        }
      ],
      "stateMutability": "view",
      "type": "function"
    },
    {
      "inputs": [],
      "name": "acceptAdmin",
      "outputs": [],
      "stateMutability": "nonpayable",
      "type": "function"
    },
    {
      "inputs": [
        {
          "internalType": "address",
          "name": "target",
          "type": "address"
        },
        {
          "internalType": "bool",
          "name": "isFullBlacklisting",
          "type": "bool"
        }
      ],
      "name": "addToBlacklist",
      "outputs": [],
      "stateMutability": "nonpayable",
      "type": "function"
    },
    {
      "inputs": [
        {
          "internalType": "address",
          "name": "owner",
          "type": "address"
        },
        {
          "internalType": "address",
          "name": "spender",
          "type": "address"
        }
      ],
      "name": "allowance",
      "outputs": [
        {
          "internalType": "uint256",
          "name": "",
          "type": "uint256"
        }
      ],
      "stateMutability": "view",
      "type": "function"
    },
    {
      "inputs": [
        {
          "internalType": "address",
          "name": "spender",
          "type": "address"
        },
        {
          "internalType": "uint256",
          "name": "value",
          "type": "uint256"
        }
      ],
      "name": "approve",
      "outputs": [
        {
          "internalType": "bool",
          "name": "",
          "type": "bool"
        }
      ],
      "stateMutability": "nonpayable",
      "type": "function"
    },
    {
      "inputs": [],
      "name": "asset",
      "outputs": [
        {
          "internalType": "address",
          "name": "",
          "type": "address"
        }
      ],
      "stateMutability": "view",
      "type": "function"
    },
    {
      "inputs": [
        {
          "internalType": "address",
          "name": "account",
          "type": "address"
        }
      ],
      "name": "balanceOf",
      "outputs": [
        {
          "internalType": "uint256",
          "name": "",
          "type": "uint256"
        }
      ],
      "stateMutability": "view",
      "type": "function"
    },
    {
      "inputs": [
        {
          "internalType": "uint256",
          "name": "shares",
          "type": "uint256"
        }
      ],
      "name": "convertToAssets",
      "outputs": [
        {
          "internalType": "uint256",
          "name": "",
          "type": "uint256"
        }
      ],
      "stateMutability": "view",
      "type": "function"
    },
    {
      "inputs": [
        {
          "internalType": "uint256",
          "name": "assets",
          "type": "uint256"
        }
      ],
      "name": "convertToShares",
      "outputs": [
        {
          "internalType": "uint256",
          "name": "",
          "type": "uint256"
        }
      ],
      "stateMutability": "view",
      "type": "function"
    },
    {
      "inputs": [
        {
          "internalType": "uint256",
          "name": "assets",
          "type": "uint256"
        }
      ],
      "name": "cooldownAssets",
      "outputs": [
        {
          "internalType": "uint256",
          "name": "shares",
          "type": "uint256"
        }
      ],
      "stateMutability": "nonpayable",
      "type": "function"
    },
    {
      "inputs": [],
      "name": "cooldownDuration",
      "outputs": [
        {
          "internalType": "uint24",
          "name": "",
          "type": "uint24"
        }
      ],
      "stateMutability": "view",
      "type": "function"
    },
    {
      "inputs": [
        {
          "internalType": "uint256",
          "name": "shares",
          "type": "uint256"
        }
      ],
      "name": "cooldownShares",
      "outputs": [
        {
          "internalType": "uint256",
          "name": "assets",
          "type": "uint256"
        }
      ],
      "stateMutability": "nonpayable",
      "type": "function"
    },
    {
      "inputs": [
        {
          "internalType": "address",
          "name": "",
          "type": "address"
        }
      ],
      "name": "cooldowns",
      "outputs": [
        {
          "internalType": "uint104",
          "name": "cooldownEnd",
          "type": "uint104"
        },
        {
          "internalType": "uint152",
          "name": "underlyingAmount",
          "type": "uint152"
        }
      ],
      "stateMutability": "view",
      "type": "function"
    },
    {
      "inputs": [],
      "name": "decimals",
      "outputs": [
        {
          "internalType": "uint8",
          "name": "",
          "type": "uint8"
        }
      ],
      "stateMutability": "pure",
      "type": "function"
    },
    {
      "inputs": [
        {
          "internalType": "uint256",
          "name": "assets",
          "type": "uint256"
        },
        {
          "internalType": "address",
          "name": "receiver",
          "type": "address"
        }
      ],
      "name": "deposit",
      "outputs": [
        {
          "internalType": "uint256",
          "name": "",
          "type": "uint256"
        }
      ],
      "stateMutability": "nonpayable",
      "type": "function"
    },
    {
      "inputs": [],
      "name": "eip712Domain",
      "outputs": [
        {
          "internalType": "bytes1",
          "name": "fields",
          "type": "bytes1"
        },
        {
          "internalType": "string",
          "name": "name",
          "type": "string"
        },
        {
          "internalType": "string",
          "name": "version",
          "type": "string"
        },
        {
          "internalType": "uint256",
          "name": "chainId",
          "type": "uint256"
        },
        {
          "internalType": "address",
          "name": "verifyingContract",
          "type": "address"
        },
        {
          "internalType": "bytes32",
          "name": "salt",
          "type": "bytes32"
        },
        {
          "internalType": "uint256[]",
          "name": "extensions",
          "type": "uint256[]"
        }
      ],
      "stateMutability": "view",
      "type": "function"
    },
    {
      "inputs": [
        {
          "internalType": "bytes32",
          "name": "role",
          "type": "bytes32"
        }
      ],
      "name": "getRoleAdmin",
      "outputs": [
        {
          "internalType": "bytes32",
          "name": "",
          "type": "bytes32"
        }
      ],
      "stateMutability": "view",
      "type": "function"
    },
    {
      "inputs": [],
      "name": "getUnvestedAmount",
      "outputs": [
        {
          "internalType": "uint256",
          "name": "",
          "type": "uint256"
        }
      ],
      "stateMutability": "view",
      "type": "function"
    },
    {
      "inputs": [
        {
          "internalType": "bytes32",
          "name": "role",
          "type": "bytes32"
        },
        {
          "internalType": "address",
          "name": "account",
          "type": "address"
        }
      ],
      "name": "grantRole",
      "outputs": [],
      "stateMutability": "nonpayable",
      "type": "function"
    },
    {
      "inputs": [
        {
          "internalType": "bytes32",
          "name": "role",
          "type": "bytes32"
        },
        {
          "internalType": "address",
          "name": "account",
          "type": "address"
        }
      ],
      "name": "hasRole",
      "outputs": [
        {
          "internalType": "bool",
          "name": "",
          "type": "bool"
        }
      ],
      "stateMutability": "view",
      "type": "function"
    },
    {
      "inputs": [],
      "name": "lastDistributionTimestamp",
      "outputs": [
        {
          "internalType": "uint256",
          "name": "",
          "type": "uint256"
        }
      ],
      "stateMutability": "view",
      "type": "function"
    },
    {
      "inputs": [
        {
          "internalType": "address",
          "name": "",
          "type": "address"
        }
      ],
      "name": "maxDeposit",
      "outputs": [
        {
          "internalType": "uint256",
          "name": "",
          "type": "uint256"
        }
      ],
      "stateMutability": "view",
      "type": "function"
    },
    {
      "inputs": [
        {
          "internalType": "address",
          "name": "",
          "type": "address"
        }
      ],
      "name": "maxMint",
      "outputs": [
        {
          "internalType": "uint256",
          "name": "",
          "type": "uint256"
        }
      ],
      "stateMutability": "view",
      "type": "function"
    },
    {
      "inputs": [
        {
          "internalType": "address",
          "name": "owner",
          "type": "address"
        }
      ],
      "name": "maxRedeem",
      "outputs": [
        {
          "internalType": "uint256",
          "name": "",
          "type": "uint256"
        }
      ],
      "stateMutability": "view",
      "type": "function"
    },
    {
      "inputs": [
        {
          "internalType": "address",
          "name": "owner",
          "type": "address"
        }
      ],
      "name": "maxWithdraw",
      "outputs": [
        {
          "internalType": "uint256",
          "name": "",
          "type": "uint256"
        }
      ],
      "stateMutability": "view",
      "type": "function"
    },
    {
      "inputs": [
        {
          "internalType": "uint256",
          "name": "shares",
          "type": "uint256"
        },
        {
          "internalType": "address",
          "name": "receiver",
          "type": "address"
        }
      ],
      "name": "mint",
      "outputs": [
        {
          "internalType": "uint256",
          "name": "",
          "type": "uint256"
        }
      ],
      "stateMutability": "nonpayable",
      "type": "function"
    },
    {
      "inputs": [],
      "name": "name",
      "outputs": [
        {
          "internalType": "string",
          "name": "",
          "type": "string"
        }
      ],
      "stateMutability": "view",
      "type": "function"
    },
    {
      "inputs": [
        {
          "internalType": "address",
          "name": "owner",
          "type": "address"
        }
      ],
      "name": "nonces",
      "outputs": [
        {
          "internalType": "uint256",
          "name": "",
          "type": "uint256"
        }
      ],
      "stateMutability": "view",
      "type": "function"
    },
    {
      "inputs": [],
      "name": "owner",
      "outputs": [
        {
          "internalType": "address",
          "name": "",
          "type": "address"
        }
      ],
      "stateMutability": "view",
      "type": "function"
    },
    {
      "inputs": [
        {
          "internalType": "address",
          "name": "owner",
          "type": "address"
        },
        {
          "internalType": "address",
          "name": "spender",
          "type": "address"
        },
        {
          "internalType": "uint256",
          "name": "value",
          "type": "uint256"
        },
        {
          "internalType": "uint256",
          "name": "deadline",
          "type": "uint256"
        },
        {
          "internalType": "uint8",
          "name": "v",
          "type": "uint8"
        },
        {
          "internalType": "bytes32",
          "name": "r",
          "type": "bytes32"
        },
        {
          "internalType": "bytes32",
          "name": "s",
          "type": "bytes32"
        }
      ],
      "name": "permit",
      "outputs": [],
      "stateMutability": "nonpayable",
      "type": "function"
    },
    {
      "inputs": [
        {
          "internalType": "uint256",
          "name": "assets",
          "type": "uint256"
        }
      ],
      "name": "previewDeposit",
      "outputs": [
        {
          "internalType": "uint256",
          "name": "",
          "type": "uint256"
        }
      ],
      "stateMutability": "view",
      "type": "function"
    },
    {
      "inputs": [
        {
          "internalType": "uint256",
          "name": "shares",
          "type": "uint256"
        }
      ],
      "name": "previewMint",
      "outputs": [
        {
          "internalType": "uint256",
          "name": "",
          "type": "uint256"
        }
      ],
      "stateMutability": "view",
      "type": "function"
    },
    {
      "inputs": [
        {
          "internalType": "uint256",
          "name": "shares",
          "type": "uint256"
        }
      ],
      "name": "previewRedeem",
      "outputs": [
        {
          "internalType": "uint256",
          "name": "",
          "type": "uint256"
        }
      ],
      "stateMutability": "view",
      "type": "function"
    },
    {
      "inputs": [
        {
          "internalType": "uint256",
          "name": "assets",
          "type": "uint256"
        }
      ],
      "name": "previewWithdraw",
      "outputs": [
        {
          "internalType": "uint256",
          "name": "",
          "type": "uint256"
        }
      ],
      "stateMutability": "view",
      "type": "function"
    },
    {
      "inputs": [
        {
          "internalType": "uint256",
          "name": "shares",
          "type": "uint256"
        },
        {
          "internalType": "address",
          "name": "receiver",
          "type": "address"
        },
        {
          "internalType": "address",
          "name": "_owner",
          "type": "address"
        }
      ],
      "name": "redeem",
      "outputs": [
        {
          "internalType": "uint256",
          "name": "",
          "type": "uint256"
        }
      ],
      "stateMutability": "nonpayable",
      "type": "function"
    },
    {
      "inputs": [
        {
          "internalType": "address",
          "name": "from",
          "type": "address"
        },
        {
          "internalType": "address",
          "name": "to",
          "type": "address"
        }
      ],
      "name": "redistributeLockedAmount",
      "outputs": [],
      "stateMutability": "nonpayable",
      "type": "function"
    },
    {
      "inputs": [
        {
          "internalType": "address",
          "name": "target",
          "type": "address"
        },
        {
          "internalType": "bool",
          "name": "isFullBlacklisting",
          "type": "bool"
        }
      ],
      "name": "removeFromBlacklist",
      "outputs": [],
      "stateMutability": "nonpayable",
      "type": "function"
    },
    {
      "inputs": [
        {
          "internalType": "bytes32",
          "name": "",
          "type": "bytes32"
        },
        {
          "internalType": "address",
          "name": "",
          "type": "address"
        }
      ],
      "name": "renounceRole",
      "outputs": [],
      "stateMutability": "nonpayable",
      "type": "function"
    },
    {
      "inputs": [
        {
          "internalType": "address",
          "name": "token",
          "type": "address"
        },
        {
          "internalType": "uint256",
          "name": "amount",
          "type": "uint256"
        },
        {
          "internalType": "address",
          "name": "to",
          "type": "address"
        }
      ],
      "name": "rescueTokens",
      "outputs": [],
      "stateMutability": "nonpayable",
      "type": "function"
    },
    {
      "inputs": [
        {
          "internalType": "bytes32",
          "name": "role",
          "type": "bytes32"
        },
        {
          "internalType": "address",
          "name": "account",
          "type": "address"
        }
      ],
      "name": "revokeRole",
      "outputs": [],
      "stateMutability": "nonpayable",
      "type": "function"
    },
    {
      "inputs": [
        {
          "internalType": "uint24",
          "name": "duration",
          "type": "uint24"
        }
      ],
      "name": "setCooldownDuration",
      "outputs": [],
      "stateMutability": "nonpayable",
      "type": "function"
    },
    {
      "inputs": [],
      "name": "silo",
      "outputs": [
        {
          "internalType": "contract USDeSilo",
          "name": "",
          "type": "address"
        }
      ],
      "stateMutability": "view",
      "type": "function"
    },
    {
      "inputs": [
        {
          "internalType": "bytes4",
          "name": "interfaceId",
          "type": "bytes4"
        }
      ],
      "name": "supportsInterface",
      "outputs": [
        {
          "internalType": "bool",
          "name": "",
          "type": "bool"
        }
      ],
      "stateMutability": "view",
      "type": "function"
    },
    {
      "inputs": [],
      "name": "symbol",
      "outputs": [
        {
          "internalType": "string",
          "name": "",
          "type": "string"
        }
      ],
      "stateMutability": "view",
      "type": "function"
    },
    {
      "inputs": [],
      "name": "totalAssets",
      "outputs": [
        {
          "internalType": "uint256",
          "name": "",
          "type": "uint256"
        }
      ],
      "stateMutability": "view",
      "type": "function"
    },
    {
      "inputs": [],
      "name": "totalSupply",
      "outputs": [
        {
          "internalType": "uint256",
          "name": "",
          "type": "uint256"
        }
      ],
      "stateMutability": "view",
      "type": "function"
    },
    {
      "inputs": [
        {
          "internalType": "address",
          "name": "to",
          "type": "address"
        },
        {
          "internalType": "uint256",
          "name": "value",
          "type": "uint256"
        }
      ],
      "name": "transfer",
      "outputs": [
        {
          "internalType": "bool",
          "name": "",
          "type": "bool"
        }
      ],
      "stateMutability": "nonpayable",
      "type": "function"
    },
    {
      "inputs": [
        {
          "internalType": "address",
          "name": "newAdmin",
          "type": "address"
        }
      ],
      "name": "transferAdmin",
      "outputs": [],
      "stateMutability": "nonpayable",
      "type": "function"
    },
    {
      "inputs": [
        {
          "internalType": "address",
          "name": "from",
          "type": "address"
        },
        {
          "internalType": "address",
          "name": "to",
          "type": "address"
        },
        {
          "internalType": "uint256",
          "name": "value",
          "type": "uint256"
        }
      ],
      "name": "transferFrom",
      "outputs": [
        {
          "internalType": "bool",
          "name": "",
          "type": "bool"
        }
      ],
      "stateMutability": "nonpayable",
      "type": "function"
    },
    {
      "inputs": [
        {
          "internalType": "uint256",
          "name": "amount",
          "type": "uint256"
        }
      ],
      "name": "transferInRewards",
      "outputs": [],
      "stateMutability": "nonpayable",
      "type": "function"
    },
    {
      "inputs": [
        {
          "internalType": "address",
          "name": "receiver",
          "type": "address"
        }
      ],
      "name": "unstake",
      "outputs": [],
      "stateMutability": "nonpayable",
      "type": "function"
    },
    {
      "inputs": [],
      "name": "vestingAmount",
      "outputs": [
        {
          "internalType": "uint256",
          "name": "",
          "type": "uint256"
        }
      ],
      "stateMutability": "view",
      "type": "function"
    },
    {
      "inputs": [
        {
          "internalType": "uint256",
          "name": "assets",
          "type": "uint256"
        },
        {
          "internalType": "address",
          "name": "receiver",
          "type": "address"
        },
        {
          "internalType": "address",
          "name": "_owner",
          "type": "address"
        }
      ],
      "name": "withdraw",
      "outputs": [
        {
          "internalType": "uint256",
          "name": "",
          "type": "uint256"
        }
      ],
      "stateMutability": "nonpayable",
      "type": "function"
    }
  ],
  "bytecode": "0x6101c060405234801561001157600080fd5b50604051613747380380613747833981016040819052610030916105e1565b8282828260405180604001604052806005815260200164735553446560d81b81525080604051806040016040528060018152602001603160f81b8152506040518060400160405280600b81526020016a5374616b6564205553446560a81b81525060405180604001604052806005815260200164735553446560d81b815250600160038190555081600790816100c691906106cd565b5060086100d382826106cd565b506100e3915083905060096102a6565b610120526100f281600a6102a6565b61014052815160208084019190912060e052815190820120610100524660a05261017f60e05161010051604080517f8b73c3c69bb8fe3d512ecc4cf759cc79239f7b179b0ffacaa9a75d522b39400f60208201529081019290925260608201524660808201523060a082015260009060c00160405160208183030381529060405280519060200120905090565b60805250503060c05250600080610195836102d9565b91509150816101a55760126101a7565b805b60ff166101805250506001600160a01b0390811661016052811615806101d457506001600160a01b038216155b806101e657506001600160a01b038316155b156102045760405163f6b2911f60e01b815260040160405180910390fd5b61022e7fbeec13769b5f410b0584f69811bfd923818456d5edcf426b0e31cf90eed7a3f6836103b5565b5061023a6000826103b5565b50505050308360405161024c906105bc565b6001600160a01b03928316815291166020820152604001604051809103906000f08015801561027f573d6000803e3d6000fd5b506001600160a01b03166101a0525050600f805462ffffff191662093a801790555061083b565b60006020835110156102c2576102bb83610448565b90506102d3565b816102cd84826106cd565b5060ff90505b92915050565b60408051600481526024810182526020810180516001600160e01b031663313ce56760e01b17905290516000918291829182916001600160a01b03871691610320916107af565b600060405180830381855afa9150503d806000811461035b576040519150601f19603f3d011682016040523d82523d6000602084013e610360565b606091505b509150915081801561037457506020815110155b156103a85760008180602001905181019061038f91906107cb565b905060ff81116103a6576001969095509350505050565b505b5060009485945092505050565b600082610437576001546040516001600160a01b038085169216907ff8ccb027dfcd135e000e9d45e6cc2d662578a8825d4c45b5e32e0adf67e79ec690600090a360015461040e906000906001600160a01b031661048f565b50600180546001600160a01b0384166001600160a01b0319918216179091556002805490911690555b610441838361051a565b9392505050565b600080829050601f8151111561047c578260405163305a27a960e01b815260040161047391906107e4565b60405180910390fd5b805161048782610817565b179392505050565b6000828152602081815260408083206001600160a01b038516845290915281205460ff1615610512576000838152602081815260408083206001600160a01b0386168085529252808320805460ff1916905551339286917ff6391f5c32d9c69d2a47ea670b442974b53935d1edc7fd64eb21e047a839171b9190a45060016102d3565b5060006102d3565b6000828152602081815260408083206001600160a01b038516845290915281205460ff16610512576000838152602081815260408083206001600160a01b03861684529091529020805460ff191660011790556105743390565b6001600160a01b0316826001600160a01b0316847f2f8788117e7eff1d82e926ec794901d17c78024a50270940304540a733656f0d60405160405180910390a45060016102d3565b61026b806134dc83390190565b6001600160a01b03811681146105de57600080fd5b50565b6000806000606084860312156105f657600080fd5b8351610601816105c9565b6020850151909350610612816105c9565b6040850151909250610623816105c9565b809150509250925092565b634e487b7160e01b600052604160045260246000fd5b600181811c9082168061065857607f821691505b60208210810361067857634e487b7160e01b600052602260045260246000fd5b50919050565b601f8211156106c857806000526020600020601f840160051c810160208510156106a55750805b601f840160051c820191505b818110156106c557600081556001016106b1565b50505b505050565b81516001600160401b038111156106e6576106e661062e565b6106fa816106f48454610644565b8461067e565b6020601f82116001811461072e57600083156107165750848201515b600019600385901b1c1916600184901b1784556106c5565b600084815260208120601f198516915b8281101561075e578785015182556020948501946001909201910161073e565b508482101561077c5786840151600019600387901b60f8161c191681555b50505050600190811b01905550565b60005b838110156107a657818101518382015260200161078e565b50506000910152565b600082516107c181846020870161078b565b9190910192915050565b6000602082840312156107dd57600080fd5b5051919050565b602081526000825180602084015261080381604085016020870161078b565b601f01601f19169190910160400192915050565b805160208083015191908110156106785760001960209190910360031b1b16919050565b60805160a05160c05160e05161010051610120516101405161016051610180516101a051612bf16108eb6000396000818161079c01528181610c7801528181611110015261142b01526000505060008181610515015281816107f001528181610df801528181610fb90152818161201a01526121b9015260006119490152600061191c01526000611804015260006117dc01526000611737015260006117610152600061178b0152612bf16000f3fe608060405234801561001057600080fd5b506004361061035c5760003560e01c80638da5cb5b116101d3578063c6e6f59211610104578063d905777e116100a2578063eb3beb291161007c578063eb3beb2914610797578063ef8b30f7146106be578063f2888dbb146107be578063f298f42c146107d157600080fd5b8063d905777e14610743578063dd62ed3e14610756578063e7c2a6081461078f57600080fd5b8063ce23eb3c116100de578063ce23eb3c146106f7578063ce96cb771461070a578063d505accf1461071d578063d547741f1461073057600080fd5b8063c6e6f592146106be578063c80ef110146106d1578063cdac52ed146106e457600080fd5b8063a9059cbb11610171578063b460af941161014b578063b460af9414610685578063ba08765214610698578063c336a084146106ab578063c63d75b61461054d57600080fd5b8063a9059cbb1461064c578063b37fd1901461065f578063b3d7f6b91461067257600080fd5b806394bf804d116101ad57806394bf804d1461061657806395d89b4114610629578063a0776b8214610631578063a217fddf1461064457600080fd5b80638da5cb5b146105df57806391d14854146105f05780639343d9e11461060357600080fd5b8063248a9ca3116102ad578063402d267d1161024b57806370a082311161022557806370a082311461057557806375829def1461059e5780637ecebe00146105b157806384b0196e146105c457600080fd5b8063402d267d1461054d5780634cdad5061461041f5780636e553f651461056257600080fd5b8063352693151161028757806335269315146104e95780633644e515146104f857806336568abe1461050057806338d52e0f1461051357600080fd5b8063248a9ca3146104a45780632f2ff15d146104c7578063313ce567146104da57600080fd5b8063095ea7b31161031a57806318160ddd116102f457806318160ddd146104625780631e9049cf1461046a578063209509331461048857806323b872dd1461049157600080fd5b8063095ea7b3146104325780630a28a477146104455780630e18b6811461045857600080fd5b8062728f761461036157806301320fe21461037d57806301e1d114146103df57806301ffc9a7146103e757806306fdde031461040a57806307a2d13a1461041f575b600080fd5b61036a600c5481565b6040519081526020015b60405180910390f35b6103b861038b3660046125cf565b600e602052600090815260409020546001600160681b03811690600160681b90046001600160981b031682565b604080516001600160681b0390931683526001600160981b03909116602083015201610374565b61036a6107e4565b6103fa6103f53660046125ea565b610888565b6040519015158152602001610374565b6104126108bf565b604051610374919061265a565b61036a61042d36600461266d565b610951565b6103fa610440366004612686565b61095e565b61036a61045336600461266d565b610976565b610460610983565b005b60065461036a565b61047462093a8081565b60405162ffffff9091168152602001610374565b61036a600d5481565b6103fa61049f3660046126b0565b6109bc565b61036a6104b236600461266d565b60009081526020819052604090206001015490565b6104606104d53660046126ed565b6109e2565b60405160128152602001610374565b600f546104749062ffffff1681565b61036a610a1d565b61046061050e3660046126ed565b610a27565b7f00000000000000000000000000000000000000000000000000000000000000005b6040516001600160a01b039091168152602001610374565b61036a61055b3660046125cf565b5060001990565b61036a6105703660046126ed565b610a40565b61036a6105833660046125cf565b6001600160a01b031660009081526004602052604090205490565b6104606105ac3660046125cf565b610a74565b61036a6105bf3660046125cf565b610afb565b6105cc610b19565b6040516103749796959493929190612719565b6001546001600160a01b0316610535565b6103fa6105fe3660046126ed565b610b5f565b61036a61061136600461266d565b610b88565b61036a6106243660046126ed565b610ca4565b610412610cc2565b61046061063f3660046127b1565b610cd1565b61036a600081565b6103fa61065a366004612686565b610dd5565b61046061066d3660046127db565b610de3565b61036a61068036600461266d565b610e6c565b61036a610693366004612817565b610e79565b61036a6106a6366004612817565b610ead565b6104606106b936600461284a565b610ee1565b61036a6106cc36600461266d565b610f42565b6104606106df36600461266d565b610f4f565b61036a6106f236600461266d565b611020565b610460610705366004612886565b611137565b61036a6107183660046125cf565b6111c5565b61046061072b3660046128ab565b6111e9565b61046061073e3660046126ed565b611323565b61036a6107513660046125cf565b611357565b61036a6107643660046127b1565b6001600160a01b03918216600090815260056020908152604080832093909416825291909152205490565b61036a611375565b6105357f000000000000000000000000000000000000000000000000000000000000000081565b6104606107cc3660046125cf565b6113be565b6104606107df36600461284a565b6114a5565b60006107ee611375565b7f00000000000000000000000000000000000000000000000000000000000000006040516370a0823160e01b81523060048201526001600160a01b0391909116906370a0823190602401602060405180830381865afa158015610855573d6000803e3d6000fd5b505050506040513d601f19601f82011682018060405250810190610879919061291e565b610883919061294d565b905090565b60006001600160e01b03198216637965db0b60e01b14806108b957506301ffc9a760e01b6001600160e01b03198316145b92915050565b6060600780546108ce90612960565b80601f01602080910402602001604051908101604052809291908181526020018280546108fa90612960565b80156109475780601f1061091c57610100808354040283529160200191610947565b820191906000526020600020905b81548152906001019060200180831161092a57829003601f168201915b5050505050905090565b60006108b9826000611552565b60003361096c81858561158c565b5060019392505050565b60006108b9826001611599565b6002546001600160a01b031633146109ae5760405163058d9a1b60e01b815260040160405180910390fd5b6109b96000336115c9565b50565b6000336109ca858285611655565b6109d58585856116c1565b60019150505b9392505050565b60006109ed81611720565b8280610a0c5760405163318bd07d60e11b815260040160405180910390fd5b610a1684846115c9565b5050505050565b600061088361172a565b604051637a851da960e11b815260040160405180910390fd5b6000600019610a53565b60405180910390fd5b6000610a5e85610f42565b9050610a6c33858784611855565b949350505050565b6000610a7f81611720565b336001600160a01b03831603610aa85760405163318bd07d60e11b815260040160405180910390fd5b600280546001600160a01b0319166001600160a01b03848116918217909255600154604051919216907fefdcbba819467e00b0262c12892dda980bac68580b72178e57a162368b80876690600090a35050565b6001600160a01b0381166000908152600b60205260408120546108b9565b600060608060008060006060610b2d611915565b610b35611942565b60408051600080825260208201909252600f60f81b9b939a50919850469750309650945092509050565b6000918252602082815260408084206001600160a01b0393909316845291905290205460ff1690565b600f5460009062ffffff168103610bb257604051637a851da960e11b815260040160405180910390fd5b610bbb33611357565b821115610bdb57604051630c668a7160e31b815260040160405180910390fd5b610be482610951565b600f54909150610bf99062ffffff16426129bb565b336000908152600e6020526040902080546cffffffffffffffffffffffffff19166001600160681b039290921691909117808255829190600d90610c4e908490600160681b90046001600160981b03166129da565b92506101000a8154816001600160981b0302191690836001600160981b03160217905550610c9f337f000000000000000000000000000000000000000000000000000000000000000033848661196f565b919050565b60006000196000610cb485610e6c565b9050610a6c33858388611855565b6060600880546108ce90612960565b610cd9611a4e565b6000610ce481611720565b610cfc600080516020612b9c83398151915284610b5f565b8015610d1d5750610d1b600080516020612b9c83398151915283610b5f565b155b15610a27576001600160a01b03831660009081526004602052604081205490610d4582610951565b9050610d518583611a78565b6001600160a01b038416610d6d57610d6881611aae565b610d77565b610d778483611adf565b836001600160a01b0316856001600160a01b03167fb8ef21f2b52f8ca740012254a6b10f17d2fd6e589f97ebf401fde0e8b921893784604051610dbc91815260200190565b60405180910390a3505050610dd16001600355565b5050565b60003361096c8185856116c1565b610deb611a4e565b6000610df681611720565b7f00000000000000000000000000000000000000000000000000000000000000006001600160a01b0316846001600160a01b031603610e485760405163c1ab6dc160e01b815260040160405180910390fd5b610e5c6001600160a01b0385168385611b15565b50610e676001600355565b505050565b60006108b9826001611552565b600f5460009062ffffff1615610ea257604051637a851da960e11b815260040160405180910390fd5b610a6c848484611b74565b600f5460009062ffffff1615610ed657604051637a851da960e11b815260040160405180910390fd5b610a6c848484611bcc565b7ff988e4fb62b8e14f4820fed03192306ddf4d7dbfa215595ba1c6ba4b76b369ee610f0b81611720565b600082610f2657600080516020612b7c833981519152610f36565b600080516020612b9c8339815191525b9050610a168185611c1b565b60006108b9826000611599565b610f57611a4e565b7fbeec13769b5f410b0584f69811bfd923818456d5edcf426b0e31cf90eed7a3f6610f8181611720565b8180600003610fa35760405163162908e360e11b815260040160405180910390fd5b610fac83611aae565b610fe16001600160a01b037f000000000000000000000000000000000000000000000000000000000000000016333086611c8e565b6040518381527fbb28dd7cd6be6f61828ea9158a04c5182c716a946a6d2f31f4864edb87471aa69060200160405180910390a150506109b96001600355565b600f5460009062ffffff16810361104a57604051637a851da960e11b815260040160405180910390fd5b611053336111c5565b82111561107357604051636fa9eef160e11b815260040160405180910390fd5b61107c82610976565b600f549091506110919062ffffff16426129bb565b336000908152600e6020526040902080546cffffffffffffffffffffffffff19166001600160681b039290921691909117808255839190600d906110e6908490600160681b90046001600160981b03166129da565b92506101000a8154816001600160981b0302191690836001600160981b03160217905550610c9f337f000000000000000000000000000000000000000000000000000000000000000033858561196f565b600061114281611720565b62093a8062ffffff8316111561116b57604051637475d84d60e11b815260040160405180910390fd5b600f805462ffffff84811662ffffff1983168117909355604080519190921680825260208201939093527f180eacdf7dbaeecaa983d93173b4285db2f2c0de0044697e1f932bbbb73dcaa6910160405180910390a1505050565b6001600160a01b0381166000908152600460205260408120546108b9906000611552565b8342111561120d5760405163313c898160e11b815260048101859052602401610a4a565b60007f6e71edae12b1b97f4d1f60370fef10105fa2faae0126114a169c64845d6126c988888861125a8c6001600160a01b03166000908152600b6020526040902080546001810190915590565b6040805160208101969096526001600160a01b0394851690860152929091166060840152608083015260a082015260c0810186905260e00160405160208183030381529060405280519060200120905060006112b582611cc7565b905060006112c582878787611cf4565b9050896001600160a01b0316816001600160a01b03161461130c576040516325c0072360e11b81526001600160a01b0380831660048301528b166024820152604401610a4a565b6113178a8a8a61158c565b50505050505050505050565b600061132e81611720565b828061134d5760405163318bd07d60e11b815260040160405180910390fd5b610a168484611c1b565b6001600160a01b0381166000908152600460205260408120546108b9565b600080600d5442611386919061294d565b9050617080811061139957600091505090565b600c54617080828103916113ad90836129f9565b6113b79190612a26565b9250505090565b336000908152600e6020526040902080546001600160981b03600160681b820416906001600160681b0316421015806113fc5750600f5462ffffff16155b1561148c576000825560405163f3fef3a360e01b81526001600160a01b038481166004830152602482018390527f0000000000000000000000000000000000000000000000000000000000000000169063f3fef3a390604401600060405180830381600087803b15801561146f57600080fd5b505af1158015611483573d6000803e3d6000fd5b50505050505050565b604051637475d84d60e11b815260040160405180910390fd5b7ff988e4fb62b8e14f4820fed03192306ddf4d7dbfa215595ba1c6ba4b76b369ee6114cf81611720565b826114e26001546001600160a01b031690565b6001600160a01b0316816001600160a01b031603611513576040516303f9f15d60e61b815260040160405180910390fd5b60008361152e57600080516020612b7c83398151915261153e565b600080516020612b9c8339815191525b905061154a81866115c9565b505050505050565b60006109db61155f6107e4565b61156a906001612a3a565b6115766000600a612b34565b6006546115839190612a3a565b85919085611d22565b610e678383836001611d66565b60006109db6115a982600a612b34565b6006546115b69190612a3a565b6115be6107e4565b611583906001612a3a565b60008261164b576001546040516001600160a01b038085169216907ff8ccb027dfcd135e000e9d45e6cc2d662578a8825d4c45b5e32e0adf67e79ec690600090a3600154611622906000906001600160a01b0316611c1b565b50600180546001600160a01b0384166001600160a01b0319918216179091556002805490911690555b6109db8383611e3b565b6001600160a01b038381166000908152600560209081526040808320938616835292905220546000198110156116bb57818110156116ac57828183604051637dc7a0d960e11b8152600401610a4a9392919061299a565b6116bb84848484036000611d66565b50505050565b6001600160a01b0383166116eb57604051634b637e8f60e11b815260006004820152602401610a4a565b6001600160a01b0382166117155760405163ec442f0560e01b815260006004820152602401610a4a565b610e67838383611ec5565b6109b98133611fdc565b6000306001600160a01b037f00000000000000000000000000000000000000000000000000000000000000001614801561178357507f000000000000000000000000000000000000000000000000000000000000000046145b156117ad57507f000000000000000000000000000000000000000000000000000000000000000090565b610883604080517f8b73c3c69bb8fe3d512ecc4cf759cc79239f7b179b0ffacaa9a75d522b39400f60208201527f0000000000000000000000000000000000000000000000000000000000000000918101919091527f000000000000000000000000000000000000000000000000000000000000000060608201524660808201523060a082015260009060c00160405160208183030381529060405280519060200120905090565b61185d611a4e565b818060000361187f5760405163162908e360e11b815260040160405180910390fd5b81806000036118a15760405163162908e360e11b815260040160405180910390fd5b6118b9600080516020612b7c83398151915287610b5f565b806118d757506118d7600080516020612b7c83398151915286610b5f565b156118f557604051637a851da960e11b815260040160405180910390fd5b61190186868686612015565b611909612099565b50506116bb6001600355565b60606108837f000000000000000000000000000000000000000000000000000000000000000060096120db565b60606108837f0000000000000000000000000000000000000000000000000000000000000000600a6120db565b611977611a4e565b81806000036119995760405163162908e360e11b815260040160405180910390fd5b81806000036119bb5760405163162908e360e11b815260040160405180910390fd5b6119d3600080516020612b9c83398151915288610b5f565b806119f157506119f1600080516020612b9c83398151915287610b5f565b80611a0f5750611a0f600080516020612b9c83398151915286610b5f565b15611a2d57604051637a851da960e11b815260040160405180910390fd5b611a3a8787878787612186565b611a42612099565b5050610a166001600355565b600260035403611a7157604051633ee5aeb560e01b815260040160405180910390fd5b6002600355565b6001600160a01b038216611aa257604051634b637e8f60e11b815260006004820152602401610a4a565b610dd182600083611ec5565b6000611ab8611375565b1115611ad657604051628099ef60e11b815260040160405180910390fd5b600c5542600d55565b6001600160a01b038216611b095760405163ec442f0560e01b815260006004820152602401610a4a565b610dd160008383611ec5565b6040516001600160a01b03838116602483015260448201839052610e6791859182169063a9059cbb906064015b604051602081830303815290604052915060e01b6020820180516001600160e01b038381831617835250505050612246565b600080611b80836111c5565b905080851115611ba957828582604051633fa733bb60e21b8152600401610a4a9392919061299a565b6000611bb486610976565b9050611bc3338686898561196f565b95945050505050565b600080611bd883611357565b905080851115611c0157828582604051632e52afbb60e21b8152600401610a4a9392919061299a565b6000611c0c86610951565b9050611bc3338686848a61196f565b6000611c278383610b5f565b15611c86576000838152602081815260408083206001600160a01b0386168085529252808320805460ff1916905551339286917ff6391f5c32d9c69d2a47ea670b442974b53935d1edc7fd64eb21e047a839171b9190a45060016108b9565b5060006108b9565b6040516001600160a01b0384811660248301528381166044830152606482018390526116bb9186918216906323b872dd90608401611b42565b60006108b9611cd461172a565b8360405161190160f01b8152600281019290925260228201526042902090565b600080600080611d06888888886122b7565b925092509250611d168282612386565b50909695505050505050565b6000611d51611d308361243f565b8015611d4c575060008480611d4757611d47612a10565b868809115b151590565b611d5c86868661246c565b611bc39190612a3a565b6001600160a01b038416611d905760405163e602df0560e01b815260006004820152602401610a4a565b6001600160a01b038316611dba57604051634a1406b160e11b815260006004820152602401610a4a565b6001600160a01b03808516600090815260056020908152604080832093871683529290522082905580156116bb57826001600160a01b0316846001600160a01b03167f8c5be1e5ebec7d5bd14f71427d1e84f3dd0314c0f7b2291e5b200ac8c7c3b92584604051611e2d91815260200190565b60405180910390a350505050565b6000611e478383610b5f565b611c86576000838152602081815260408083206001600160a01b03861684529091529020805460ff19166001179055611e7d3390565b6001600160a01b0316826001600160a01b0316847f2f8788117e7eff1d82e926ec794901d17c78024a50270940304540a733656f0d60405160405180910390a45060016108b9565b6001600160a01b038316611ef0578060066000828254611ee59190612a3a565b90915550611f4f9050565b6001600160a01b03831660009081526004602052604090205481811015611f305783818360405163391434e360e21b8152600401610a4a9392919061299a565b6001600160a01b03841660009081526004602052604090209082900390555b6001600160a01b038216611f6b57600680548290039055611f8a565b6001600160a01b03821660009081526004602052604090208054820190555b816001600160a01b0316836001600160a01b03167fddf252ad1be2c89b69c2b068fc378daa952ba7f163c4a11628f55a4df523b3ef83604051611fcf91815260200190565b60405180910390a3505050565b611fe68282610b5f565b610dd15760405163e2517d3f60e01b81526001600160a01b038216600482015260248101839052604401610a4a565b6120417f0000000000000000000000000000000000000000000000000000000000000000853085611c8e565b61204b8382611adf565b826001600160a01b0316846001600160a01b03167fdcbc1c05240f31ff3ad067ef1ee35ce4997762752e3a095284754544f4c709d78484604051611e2d929190918252602082015260400190565b60006120a460065490565b90506000811180156120bd5750670de0b6b3a764000081105b156109b957604051635a5c1b5560e11b815260040160405180910390fd5b606060ff83146120f5576120ee83612521565b90506108b9565b81805461210190612960565b80601f016020809104026020016040519081016040528092919081815260200182805461212d90612960565b801561217a5780601f1061214f5761010080835404028352916020019161217a565b820191906000526020600020905b81548152906001019060200180831161215d57829003601f168201915b505050505090506108b9565b826001600160a01b0316856001600160a01b0316146121aa576121aa838683611655565b6121b48382611a78565b6121df7f00000000000000000000000000000000000000000000000000000000000000008584611b15565b826001600160a01b0316846001600160a01b0316866001600160a01b03167ffbde797d201c681b91056529119e0b02407c7bb96a4a2c75c01fc9667232c8db8585604051612237929190918252602082015260400190565b60405180910390a45050505050565b600080602060008451602086016000885af180612269576040513d6000823e3d81fd5b50506000513d9150811561228157806001141561228e565b6001600160a01b0384163b155b156116bb57604051635274afe760e01b81526001600160a01b0385166004820152602401610a4a565b600080807f7fffffffffffffffffffffffffffffff5d576e7357a4501ddfe92f46681b20a08411156122f2575060009150600390508261237c565b604080516000808252602082018084528a905260ff891692820192909252606081018790526080810186905260019060a0016020604051602081039080840390855afa158015612346573d6000803e3d6000fd5b5050604051601f1901519150506001600160a01b0381166123725750600092506001915082905061237c565b9250600091508190505b9450945094915050565b600082600381111561239a5761239a612b43565b036123a3575050565b60018260038111156123b7576123b7612b43565b036123d55760405163f645eedf60e01b815260040160405180910390fd5b60028260038111156123e9576123e9612b43565b0361240a5760405163fce698f760e01b815260048101829052602401610a4a565b600382600381111561241e5761241e612b43565b03610dd1576040516335e2f38360e21b815260048101829052602401610a4a565b6000600282600381111561245557612455612b43565b61245f9190612b59565b60ff166001149050919050565b600080600061247b8686612560565b91509150816000036124a05783818161249657612496612a10565b04925050506109db565b8184116124b7576124b7600385150260111861257e565b6000848688096000868103871696879004966002600389028118808a02820302808a02820302808a02820302808a02820302808a02820302808a02909103029181900381900460010185841190960395909502919093039390930492909217029150509392505050565b6060600061252e83612590565b604080516020808252818301909252919250600091906020820181803683375050509182525060208101929092525090565b60008060001983850993909202808410938190039390930393915050565b634e487b71600052806020526024601cfd5b600060ff8216601f8111156108b957604051632cd44ac360e21b815260040160405180910390fd5b80356001600160a01b0381168114610c9f57600080fd5b6000602082840312156125e157600080fd5b6109db826125b8565b6000602082840312156125fc57600080fd5b81356001600160e01b0319811681146109db57600080fd5b6000815180845260005b8181101561263a5760208185018101518683018201520161261e565b506000602082860101526020601f19601f83011685010191505092915050565b6020815260006109db6020830184612614565b60006020828403121561267f57600080fd5b5035919050565b6000806040838503121561269957600080fd5b6126a2836125b8565b946020939093013593505050565b6000806000606084860312156126c557600080fd5b6126ce846125b8565b92506126dc602085016125b8565b929592945050506040919091013590565b6000806040838503121561270057600080fd5b82359150612710602084016125b8565b90509250929050565b60ff60f81b8816815260e06020820152600061273860e0830189612614565b828103604084015261274a8189612614565b606084018890526001600160a01b038716608085015260a0840186905283810360c08501528451808252602080870193509091019060005b818110156127a0578351835260209384019390920191600101612782565b50909b9a5050505050505050505050565b600080604083850312156127c457600080fd5b6127cd836125b8565b9150612710602084016125b8565b6000806000606084860312156127f057600080fd5b6127f9846125b8565b92506020840135915061280e604085016125b8565b90509250925092565b60008060006060848603121561282c57600080fd5b8335925061283c602085016125b8565b915061280e604085016125b8565b6000806040838503121561285d57600080fd5b612866836125b8565b91506020830135801515811461287b57600080fd5b809150509250929050565b60006020828403121561289857600080fd5b813562ffffff811681146109db57600080fd5b600080600080600080600060e0888a0312156128c657600080fd5b6128cf886125b8565b96506128dd602089016125b8565b95506040880135945060608801359350608088013560ff8116811461290157600080fd5b9699959850939692959460a0840135945060c09093013592915050565b60006020828403121561293057600080fd5b5051919050565b634e487b7160e01b600052601160045260246000fd5b818103818111156108b9576108b9612937565b600181811c9082168061297457607f821691505b60208210810361299457634e487b7160e01b600052602260045260246000fd5b50919050565b6001600160a01b039390931683526020830191909152604082015260600190565b6001600160681b0381811683821601908111156108b9576108b9612937565b6001600160981b0381811683821601908111156108b9576108b9612937565b80820281158282048414176108b9576108b9612937565b634e487b7160e01b600052601260045260246000fd5b600082612a3557612a35612a10565b500490565b808201808211156108b9576108b9612937565b6001815b6001841115612a8857808504811115612a6c57612a6c612937565b6001841615612a7a57908102905b60019390931c928002612a51565b935093915050565b600082612a9f575060016108b9565b81612aac575060006108b9565b8160018114612ac25760028114612acc57612ae8565b60019150506108b9565b60ff841115612add57612add612937565b50506001821b6108b9565b5060208310610133831016604e8410600b8410161715612b0b575081810a6108b9565b612b186000198484612a4d565b8060001904821115612b2c57612b2c612937565b029392505050565b60006109db60ff841683612a90565b634e487b7160e01b600052602160045260246000fd5b600060ff831680612b6c57612b6c612a10565b8060ff8416069150509291505056fe8f7080408a06296c6347c87c115ad99669141ae35eae974c12dff8bd01680cb60a4af4bcc1942295207d9f047442ebdae6170a6e324850f758b14cf99b65c3bda26469706673582212203d36d21566cc59e30fd8a5f42ecdf31724394277f5bf5ee4273eae643ea58d0e64736f6c634300081c003360c0604052348015600f57600080fd5b5060405161026b38038061026b833981016040819052602c91605d565b6001600160a01b039182166080521660a052608b565b80516001600160a01b0381168114605857600080fd5b919050565b60008060408385031215606f57600080fd5b6076836042565b91506082602084016042565b90509250929050565b60805160a0516101bd6100ae600039600060b401526000605001526101bd6000f3fe608060405234801561001057600080fd5b506004361061002b5760003560e01c8063f3fef3a314610030575b600080fd5b61004361003e366004610126565b610045565b005b336001600160a01b037f0000000000000000000000000000000000000000000000000000000000000000161461008e576040516317dd114560e01b815260040160405180910390fd5b60405163a9059cbb60e01b81526001600160a01b038381166004830152602482018390527f0000000000000000000000000000000000000000000000000000000000000000169063a9059cbb906044016020604051808303816000875af11580156100fd573d6000803e3d6000fd5b505050506040513d601f19601f82011682018060405250810190610121919061015e565b505050565b6000806040838503121561013957600080fd5b82356001600160a01b038116811461015057600080fd5b946020939093013593505050565b60006020828403121561017057600080fd5b8151801515811461018057600080fd5b939250505056fea2646970667358221220073c3748370361232536e327e8a1ea076a5421c5bd913166f3cacd2bb56e998264736f6c634300081c0033",
  "linkReferences": {},
  "deployedLinkReferences": {}
}