{
  "_format": "hh-sol-artifact-1",
  "contractName": "MockERC4626",
  "sourceName": "contracts/test/MockERC4626.sol",
  "abi": [
    {
      "inputs": [
        {
          "internalType": "contract IERC20",
          "name": "token",
          "type": "address"
        }
      ],
      "stateMutability": "nonpayable",
      "type": "constructor"
    },
    {
      "inputs": [
        {
          "internalType": "address",
          "name": "spender",
          "type": "address"
        },
        {
          "internalType": "uint256",
          "name": "allowance",
          "type": "uint256"
        },
        {
          "internalType": "uint256",
          "name": "needed",
          "type": "uint256"
        }
      ],
      "name": "ERC20InsufficientAllowance",
      "type": "error"
    },
    {
      "inputs": [
        {
          "internalType": "address",
          "name": "sender",
          "type": "address"
        },
        {
          "internalType": "uint256",
          "name": "balance",
          "type": "uint256"
        },
        {
          "internalType": "uint256",
          "name": "needed",
          "type": "uint256"
        }
      ],
      "name": "ERC20InsufficientBalance",
      "type": "error"
    },
    {
      "inputs": [
        {
          "internalType": "address",
          "name": "approver",
          "type": "address"
        }
      ],
      "name": "ERC20InvalidApprover",
      "type": "error"
    },
    {
      "inputs": [
        {
          "internalType": "address",
          "name": "receiver",
          "type": "address"
        }
      ],
      "name": "ERC20InvalidReceiver",
      "type": "error"
    },
    {
      "inputs": [
        {
          "internalType": "address",
          "name": "sender",
          "type": "address"
        }
      ],
      "name": "ERC20InvalidSender",
      "type": "error"
    },
    {
      "inputs": [
        {
          "internalType": "address",
          "name": "spender",
          "type": "address"
        }
      ],
      "name": "ERC20InvalidSpender",
      "type": "error"
    },
    {
      "inputs": [
        {
          "internalType": "address",
          "name": "receiver",
          "type": "address"
        },
        {
          "internalType": "uint256",
          "name": "assets",
          "type": "uint256"
        },
        {
          "internalType": "uint256",
          "name": "max",
          "type": "uint256"
        }
      ],
      "name": "ERC4626ExceededMaxDeposit",
      "type": "error"
    },
    {
      "inputs": [
        {
          "internalType": "address",
          "name": "receiver",
          "type": "address"
        },
        {
          "internalType": "uint256",
          "name": "shares",
          "type": "uint256"
        },
        {
          "internalType": "uint256",
          "name": "max",
          "type": "uint256"
        }
      ],
      "name": "ERC4626ExceededMaxMint",
      "type": "error"
    },
    {
      "inputs": [
        {
          "internalType": "address",
          "name": "owner",
          "type": "address"
        },
        {
          "internalType": "uint256",
          "name": "shares",
          "type": "uint256"
        },
        {
          "internalType": "uint256",
          "name": "max",
          "type": "uint256"
        }
      ],
      "name": "ERC4626ExceededMaxRedeem",
      "type": "error"
    },
    {
      "inputs": [
        {
          "internalType": "address",
          "name": "owner",
          "type": "address"
        },
        {
          "internalType": "uint256",
          "name": "assets",
          "type": "uint256"
        },
        {
          "internalType": "uint256",
          "name": "max",
          "type": "uint256"
        }
      ],
      "name": "ERC4626ExceededMaxWithdraw",
      "type": "error"
    },
    {
      "inputs": [
        {
          "internalType": "address",
          "name": "token",
          "type": "address"
        }
      ],
      "name": "SafeERC20FailedOperation",
      "type": "error"
    },
    {
      "anonymous": false,
      "inputs": [
        {
          "indexed": true,
          "internalType": "address",
          "name": "owner",
          "type": "address"
        },
        {
          "indexed": true,
          "internalType": "address",
          "name": "spender",
          "type": "address"
        },
        {
          "indexed": false,
          "internalType": "uint256",
          "name": "value",
          "type": "uint256"
        }
      ],
      "name": "Approval",
      "type": "event"
    },
    {
      "anonymous": false,
      "inputs": [
        {
          "indexed": true,
          "internalType": "address",
          "name": "sender",
          "type": "address"
        },
        {
          "indexed": true,
          "internalType": "address",
          "name": "owner",
          "type": "address"
        },
        {
          "indexed": false,
          "internalType": "uint256",
          "name": "assets",
          "type": "uint256"
        },
        {
          "indexed": false,
          "internalType": "uint256",
          "name": "shares",
          "type": "uint256"
        }
      ],
      "name": "Deposit",
      "type": "event"
    },
    {
      "anonymous": false,
      "inputs": [
        {
          "indexed": true,
          "internalType": "address",
          "name": "from",
          "type": "address"
        },
        {
          "indexed": true,
          "internalType": "address",
          "name": "to",
          "type": "address"
        },
        {
          "indexed": false,
          "internalType": "uint256",
          "name": "value",
          "type": "uint256"
        }
      ],
      "name": "Transfer",
      "type": "event"
    },
    {
      "anonymous": false,
      "inputs": [
        {
          "indexed": true,
          "internalType": "address",
          "name": "sender",
          "type": "address"
        },
        {
          "indexed": true,
          "internalType": "address",
          "name": "receiver",
          "type": "address"
        },
        {
          "indexed": true,
          "internalType": "address",
          "name": "owner",
          "type": "address"
        },
        {
          "indexed": false,
          "internalType": "uint256",
          "name": "assets",
          "type": "uint256"
        },
        {
          "indexed": false,
          "internalType": "uint256",
          "name": "shares",
          "type": "uint256"
        }
      ],
      "name": "Withdraw",
      "type": "event"
    },
    {
      "inputs": [
        {
          "internalType": "address",
          "name": "owner",
          "type": "address"
        },
        {
          "internalType": "address",
          "name": "spender",
          "type": "address"
        }
      ],
      "name": "allowance",
      "outputs": [
        {
          "internalType": "uint256",
          "name": "",
          "type": "uint256"
        }
      ],
      "stateMutability": "view",
      "type": "function"
    },
    {
      "inputs": [
        {
          "internalType": "address",
          "name": "spender",
          "type": "address"
        },
        {
          "internalType": "uint256",
          "name": "value",
          "type": "uint256"
        }
      ],
      "name": "approve",
      "outputs": [
        {
          "internalType": "bool",
          "name": "",
          "type": "bool"
        }
      ],
      "stateMutability": "nonpayable",
      "type": "function"
    },
    {
      "inputs": [],
      "name": "asset",
      "outputs": [
        {
          "internalType": "address",
          "name": "",
          "type": "address"
        }
      ],
      "stateMutability": "view",
      "type": "function"
    },
    {
      "inputs": [
        {
          "internalType": "address",
          "name": "account",
          "type": "address"
        }
      ],
      "name": "balanceOf",
      "outputs": [
        {
          "internalType": "uint256",
          "name": "",
          "type": "uint256"
        }
      ],
      "stateMutability": "view",
      "type": "function"
    },
    {
      "inputs": [
        {
          "internalType": "uint256",
          "name": "shares",
          "type": "uint256"
        }
      ],
      "name": "convertToAssets",
      "outputs": [
        {
          "internalType": "uint256",
          "name": "",
          "type": "uint256"
        }
      ],
      "stateMutability": "view",
      "type": "function"
    },
    {
      "inputs": [
        {
          "internalType": "uint256",
          "name": "assets",
          "type": "uint256"
        }
      ],
      "name": "convertToShares",
      "outputs": [
        {
          "internalType": "uint256",
          "name": "",
          "type": "uint256"
        }
      ],
      "stateMutability": "view",
      "type": "function"
    },
    {
      "inputs": [],
      "name": "decimals",
      "outputs": [
        {
          "internalType": "uint8",
          "name": "",
          "type": "uint8"
        }
      ],
      "stateMutability": "view",
      "type": "function"
    },
    {
      "inputs": [
        {
          "internalType": "uint256",
          "name": "assets",
          "type": "uint256"
        },
        {
          "internalType": "address",
          "name": "receiver",
          "type": "address"
        }
      ],
      "name": "deposit",
      "outputs": [
        {
          "internalType": "uint256",
          "name": "",
          "type": "uint256"
        }
      ],
      "stateMutability": "nonpayable",
      "type": "function"
    },
    {
      "inputs": [],
      "name": "enabled",
      "outputs": [
        {
          "internalType": "bool",
          "name": "",
          "type": "bool"
        }
      ],
      "stateMutability": "view",
      "type": "function"
    },
    {
      "inputs": [
        {
          "internalType": "address",
          "name": "receiver",
          "type": "address"
        }
      ],
      "name": "maxDeposit",
      "outputs": [
        {
          "internalType": "uint256",
          "name": "",
          "type": "uint256"
        }
      ],
      "stateMutability": "view",
      "type": "function"
    },
    {
      "inputs": [
        {
          "internalType": "address",
          "name": "receiver",
          "type": "address"
        }
      ],
      "name": "maxMint",
      "outputs": [
        {
          "internalType": "uint256",
          "name": "",
          "type": "uint256"
        }
      ],
      "stateMutability": "view",
      "type": "function"
    },
    {
      "inputs": [
        {
          "internalType": "address",
          "name": "owner",
          "type": "address"
        }
      ],
      "name": "maxRedeem",
      "outputs": [
        {
          "internalType": "uint256",
          "name": "",
          "type": "uint256"
        }
      ],
      "stateMutability": "view",
      "type": "function"
    },
    {
      "inputs": [
        {
          "internalType": "address",
          "name": "owner",
          "type": "address"
        }
      ],
      "name": "maxWithdraw",
      "outputs": [
        {
          "internalType": "uint256",
          "name": "",
          "type": "uint256"
        }
      ],
      "stateMutability": "view",
      "type": "function"
    },
    {
      "inputs": [
        {
          "internalType": "uint256",
          "name": "shares",
          "type": "uint256"
        },
        {
          "internalType": "address",
          "name": "receiver",
          "type": "address"
        }
      ],
      "name": "mint",
      "outputs": [
        {
          "internalType": "uint256",
          "name": "",
          "type": "uint256"
        }
      ],
      "stateMutability": "nonpayable",
      "type": "function"
    },
    {
      "inputs": [],
      "name": "name",
      "outputs": [
        {
          "internalType": "string",
          "name": "",
          "type": "string"
        }
      ],
      "stateMutability": "view",
      "type": "function"
    },
    {
      "inputs": [
        {
          "internalType": "uint256",
          "name": "assets",
          "type": "uint256"
        }
      ],
      "name": "previewDeposit",
      "outputs": [
        {
          "internalType": "uint256",
          "name": "",
          "type": "uint256"
        }
      ],
      "stateMutability": "view",
      "type": "function"
    },
    {
      "inputs": [
        {
          "internalType": "uint256",
          "name": "shares",
          "type": "uint256"
        }
      ],
      "name": "previewMint",
      "outputs": [
        {
          "internalType": "uint256",
          "name": "",
          "type": "uint256"
        }
      ],
      "stateMutability": "view",
      "type": "function"
    },
    {
      "inputs": [
        {
          "internalType": "uint256",
          "name": "shares",
          "type": "uint256"
        }
      ],
      "name": "previewRedeem",
      "outputs": [
        {
          "internalType": "uint256",
          "name": "",
          "type": "uint256"
        }
      ],
      "stateMutability": "view",
      "type": "function"
    },
    {
      "inputs": [
        {
          "internalType": "uint256",
          "name": "assets",
          "type": "uint256"
        }
      ],
      "name": "previewWithdraw",
      "outputs": [
        {
          "internalType": "uint256",
          "name": "",
          "type": "uint256"
        }
      ],
      "stateMutability": "view",
      "type": "function"
    },
    {
      "inputs": [
        {
          "internalType": "uint256",
          "name": "shares",
          "type": "uint256"
        },
        {
          "internalType": "address",
          "name": "receiver",
          "type": "address"
        },
        {
          "internalType": "address",
          "name": "owner",
          "type": "address"
        }
      ],
      "name": "redeem",
      "outputs": [
        {
          "internalType": "uint256",
          "name": "",
          "type": "uint256"
        }
      ],
      "stateMutability": "nonpayable",
      "type": "function"
    },
    {
      "inputs": [
        {
          "internalType": "bool",
          "name": "_enabled",
          "type": "bool"
        }
      ],
      "name": "setEnabled",
      "outputs": [],
      "stateMutability": "nonpayable",
      "type": "function"
    },
    {
      "inputs": [],
      "name": "symbol",
      "outputs": [
        {
          "internalType": "string",
          "name": "",
          "type": "string"
        }
      ],
      "stateMutability": "view",
      "type": "function"
    },
    {
      "inputs": [],
      "name": "totalAssets",
      "outputs": [
        {
          "internalType": "uint256",
          "name": "",
          "type": "uint256"
        }
      ],
      "stateMutability": "view",
      "type": "function"
    },
    {
      "inputs": [],
      "name": "totalSupply",
      "outputs": [
        {
          "internalType": "uint256",
          "name": "",
          "type": "uint256"
        }
      ],
      "stateMutability": "view",
      "type": "function"
    },
    {
      "inputs": [
        {
          "internalType": "address",
          "name": "to",
          "type": "address"
        },
        {
          "internalType": "uint256",
          "name": "value",
          "type": "uint256"
        }
      ],
      "name": "transfer",
      "outputs": [
        {
          "internalType": "bool",
          "name": "",
          "type": "bool"
        }
      ],
      "stateMutability": "nonpayable",
      "type": "function"
    },
    {
      "inputs": [
        {
          "internalType": "address",
          "name": "from",
          "type": "address"
        },
        {
          "internalType": "address",
          "name": "to",
          "type": "address"
        },
        {
          "internalType": "uint256",
          "name": "value",
          "type": "uint256"
        }
      ],
      "name": "transferFrom",
      "outputs": [
        {
          "internalType": "bool",
          "name": "",
          "type": "bool"
        }
      ],
      "stateMutability": "nonpayable",
      "type": "function"
    },
    {
      "inputs": [
        {
          "internalType": "uint256",
          "name": "assets",
          "type": "uint256"
        },
        {
          "internalType": "address",
          "name": "receiver",
          "type": "address"
        },
        {
          "internalType": "address",
          "name": "owner",
          "type": "address"
        }
      ],
      "name": "withdraw",
      "outputs": [
        {
          "internalType": "uint256",
          "name": "",
          "type": "uint256"
        }
      ],
      "stateMutability": "nonpayable",
      "type": "function"
    }
  ],
  "bytecode": "0x60c06040526005805460ff1916600117905534801561001d57600080fd5b506040516116c33803806116c383398101604081905261003c916101b8565b806040518060400160405280600b81526020016a26b7b1b5a2a9219a1b191b60a91b81525060405180604001604052806005815260200164269a1b191b60d91b815250816003908161008e9190610287565b50600461009b8282610287565b5050506000806100b0836100dc60201b60201c565b91509150816100c05760126100c2565b805b60ff1660a05250506001600160a01b03166080525061038d565b60408051600481526024810182526020810180516001600160e01b031663313ce56760e01b17905290516000918291829182916001600160a01b0387169161012391610345565b600060405180830381855afa9150503d806000811461015e576040519150601f19603f3d011682016040523d82523d6000602084013e610163565b606091505b509150915081801561017757506020815110155b156101ab576000818060200190518101906101929190610374565b905060ff81116101a9576001969095509350505050565b505b5060009485945092505050565b6000602082840312156101ca57600080fd5b81516001600160a01b03811681146101e157600080fd5b9392505050565b634e487b7160e01b600052604160045260246000fd5b600181811c9082168061021257607f821691505b60208210810361023257634e487b7160e01b600052602260045260246000fd5b50919050565b601f82111561028257806000526020600020601f840160051c8101602085101561025f5750805b601f840160051c820191505b8181101561027f576000815560010161026b565b50505b505050565b81516001600160401b038111156102a0576102a06101e8565b6102b4816102ae84546101fe565b84610238565b6020601f8211600181146102e857600083156102d05750848201515b600019600385901b1c1916600184901b17845561027f565b600084815260208120601f198516915b8281101561031857878501518255602094850194600190920191016102f8565b50848210156103365786840151600019600387901b60f8161c191681555b50505050600190811b01905550565b6000825160005b81811015610366576020818601810151858301520161034c565b506000920191825250919050565b60006020828403121561038657600080fd5b5051919050565b60805160a0516112fc6103c76000396000610575015260008181610299015281816103ef015281816108c9015261098901526112fc6000f3fe608060405234801561001057600080fd5b50600436106101a95760003560e01c80636e553f65116100f9578063ba08765211610097578063ce96cb7711610071578063ce96cb771461038c578063d905777e1461039f578063dd62ed3e146103b2578063ef8b30f71461037957600080fd5b8063ba08765214610366578063c63d75b6146102c3578063c6e6f5921461037957600080fd5b806395d89b41116100d357806395d89b4114610325578063a9059cbb1461032d578063b3d7f6b914610340578063b460af941461035357600080fd5b80636e553f65146102d657806370a08231146102e957806394bf804d1461031257600080fd5b8063238dafe011610166578063328d8f7211610140578063328d8f721461026957806338d52e0f1461028c578063402d267d146102c35780634cdad506146101de57600080fd5b8063238dafe01461022f57806323b872dd1461023c578063313ce5671461024f57600080fd5b806301e1d114146101ae57806306fdde03146101c957806307a2d13a146101de578063095ea7b3146101f15780630a28a4771461021457806318160ddd14610227575b600080fd5b6101b66103eb565b6040519081526020015b60405180910390f35b6101d161047d565b6040516101c09190610f05565b6101b66101ec366004610f53565b61050f565b6102046101ff366004610f88565b610522565b60405190151581526020016101c0565b6101b6610222366004610f53565b61053a565b6002546101b6565b6005546102049060ff1681565b61020461024a366004610fb2565b610547565b61025761056d565b60405160ff90911681526020016101c0565b61028a610277366004610fef565b6005805460ff1916911515919091179055565b005b6040516001600160a01b037f00000000000000000000000000000000000000000000000000000000000000001681526020016101c0565b6101b66102d1366004611011565b610599565b6101b66102e436600461102c565b6105b6565b6101b66102f7366004611011565b6001600160a01b031660009081526020819052604090205490565b6101b661032036600461102c565b610615565b6101d1610663565b61020461033b366004610f88565b610672565b6101b661034e366004610f53565b610680565b6101b6610361366004611058565b61068d565b6101b6610374366004611058565b6106e5565b6101b6610387366004610f53565b610734565b6101b661039a366004611011565b610741565b6101b66103ad366004611011565b61075f565b6101b66103c0366004611094565b6001600160a01b03918216600090815260016020908152604080832093909416825291909152205490565b60007f00000000000000000000000000000000000000000000000000000000000000006040516370a0823160e01b81523060048201526001600160a01b0391909116906370a0823190602401602060405180830381865afa158015610454573d6000803e3d6000fd5b505050506040513d601f19601f8201168201806040525081019061047891906110be565b905090565b60606003805461048c906110d7565b80601f01602080910402602001604051908101604052809291908181526020018280546104b8906110d7565b80156105055780601f106104da57610100808354040283529160200191610505565b820191906000526020600020905b8154815290600101906020018083116104e857829003601f168201915b5050505050905090565b600061051c82600061077d565b92915050565b6000336105308185856107b7565b5060019392505050565b600061051c8260016107c9565b6000336105558582856107f9565b610560858585610865565b60019150505b9392505050565b6000610478817f0000000000000000000000000000000000000000000000000000000000000000611127565b60055460009060ff166105ae57506000919050565b60001961051c565b6000806105c283610599565b9050808411156105f457828482604051633c8097d960e11b81526004016105eb93929190611140565b60405180910390fd5b60006105ff85610734565b905061060d338587846108c4565b949350505050565b60008061062183610599565b90508084111561064a5782848260405163284ff66760e01b81526004016105eb93929190611140565b600061065585610680565b905061060d338583886108c4565b60606004805461048c906110d7565b600033610530818585610865565b600061051c82600161077d565b60008061069983610741565b9050808511156106c257828582604051633fa733bb60e21b81526004016105eb93929190611140565b60006106cd8661053a565b90506106dc3386868985610956565b95945050505050565b6000806106f18361075f565b90508085111561071a57828582604051632e52afbb60e21b81526004016105eb93929190611140565b60006107258661050f565b90506106dc338686848a610956565b600061051c8260006107c9565b60055460009060ff1661075657506000919050565b61051c82610a16565b60055460009060ff1661077457506000919050565b61051c82610a3a565b600061056661078a6103eb565b610795906001611161565b6107a16000600a61125b565b6002546107ae9190611161565b85919085610a58565b6107c48383836001610a9c565b505050565b60006105666107d982600a61125b565b6002546107e69190611161565b6107ee6103eb565b6107ae906001611161565b6001600160a01b0383811660009081526001602090815260408083209386168352929052205460001981101561085f578181101561085057828183604051637dc7a0d960e11b81526004016105eb93929190611140565b61085f84848484036000610a9c565b50505050565b6001600160a01b03831661088f57604051634b637e8f60e11b8152600060048201526024016105eb565b6001600160a01b0382166108b95760405163ec442f0560e01b8152600060048201526024016105eb565b6107c4838383610b63565b6108f07f0000000000000000000000000000000000000000000000000000000000000000853085610c7a565b6108fa8382610ce1565b826001600160a01b0316846001600160a01b03167fdcbc1c05240f31ff3ad067ef1ee35ce4997762752e3a095284754544f4c709d78484604051610948929190918252602082015260400190565b60405180910390a350505050565b826001600160a01b0316856001600160a01b03161461097a5761097a8386836107f9565b6109848382610d1b565b6109af7f00000000000000000000000000000000000000000000000000000000000000008584610d51565b826001600160a01b0316846001600160a01b0316866001600160a01b03167ffbde797d201c681b91056529119e0b02407c7bb96a4a2c75c01fc9667232c8db8585604051610a07929190918252602082015260400190565b60405180910390a45050505050565b6001600160a01b03811660009081526020819052604081205461051c90600061077d565b6001600160a01b03811660009081526020819052604081205461051c565b6000610a87610a6683610d82565b8015610a82575060008480610a7d57610a7d61126a565b868809115b151590565b610a92868686610daf565b6106dc9190611161565b6001600160a01b038416610ac65760405163e602df0560e01b8152600060048201526024016105eb565b6001600160a01b038316610af057604051634a1406b160e11b8152600060048201526024016105eb565b6001600160a01b038085166000908152600160209081526040808320938716835292905220829055801561085f57826001600160a01b0316846001600160a01b03167f8c5be1e5ebec7d5bd14f71427d1e84f3dd0314c0f7b2291e5b200ac8c7c3b9258460405161094891815260200190565b6001600160a01b038316610b8e578060026000828254610b839190611161565b90915550610bed9050565b6001600160a01b03831660009081526020819052604090205481811015610bce5783818360405163391434e360e21b81526004016105eb93929190611140565b6001600160a01b03841660009081526020819052604090209082900390555b6001600160a01b038216610c0957600280548290039055610c28565b6001600160a01b03821660009081526020819052604090208054820190555b816001600160a01b0316836001600160a01b03167fddf252ad1be2c89b69c2b068fc378daa952ba7f163c4a11628f55a4df523b3ef83604051610c6d91815260200190565b60405180910390a3505050565b6040516001600160a01b03848116602483015283811660448301526064820183905261085f9186918216906323b872dd906084015b604051602081830303815290604052915060e01b6020820180516001600160e01b038381831617835250505050610e64565b6001600160a01b038216610d0b5760405163ec442f0560e01b8152600060048201526024016105eb565b610d1760008383610b63565b5050565b6001600160a01b038216610d4557604051634b637e8f60e11b8152600060048201526024016105eb565b610d1782600083610b63565b6040516001600160a01b038381166024830152604482018390526107c491859182169063a9059cbb90606401610caf565b60006002826003811115610d9857610d98611280565b610da29190611296565b60ff166001149050919050565b6000806000610dbe8686610ed5565b9150915081600003610de357838181610dd957610dd961126a565b0492505050610566565b818411610dfa57610dfa6003851502601118610ef3565b6000848688096000868103871696879004966002600389028118808a02820302808a02820302808a02820302808a02820302808a02820302808a02909103029181900381900460010185841190960395909502919093039390930492909217029150509392505050565b600080602060008451602086016000885af180610e87576040513d6000823e3d81fd5b50506000513d91508115610e9f578060011415610eac565b6001600160a01b0384163b155b1561085f57604051635274afe760e01b81526001600160a01b03851660048201526024016105eb565b60008060001983850993909202808410938190039390930393915050565b634e487b71600052806020526024601cfd5b602081526000825180602084015260005b81811015610f335760208186018101516040868401015201610f16565b506000604082850101526040601f19601f83011684010191505092915050565b600060208284031215610f6557600080fd5b5035919050565b80356001600160a01b0381168114610f8357600080fd5b919050565b60008060408385031215610f9b57600080fd5b610fa483610f6c565b946020939093013593505050565b600080600060608486031215610fc757600080fd5b610fd084610f6c565b9250610fde60208501610f6c565b929592945050506040919091013590565b60006020828403121561100157600080fd5b8135801515811461056657600080fd5b60006020828403121561102357600080fd5b61056682610f6c565b6000806040838503121561103f57600080fd5b8235915061104f60208401610f6c565b90509250929050565b60008060006060848603121561106d57600080fd5b8335925061107d60208501610f6c565b915061108b60408501610f6c565b90509250925092565b600080604083850312156110a757600080fd5b6110b083610f6c565b915061104f60208401610f6c565b6000602082840312156110d057600080fd5b5051919050565b600181811c908216806110eb57607f821691505b60208210810361110b57634e487b7160e01b600052602260045260246000fd5b50919050565b634e487b7160e01b600052601160045260246000fd5b60ff818116838216019081111561051c5761051c611111565b6001600160a01b039390931683526020830191909152604082015260600190565b8082018082111561051c5761051c611111565b6001815b60018411156111af5780850481111561119357611193611111565b60018416156111a157908102905b60019390931c928002611178565b935093915050565b6000826111c65750600161051c565b816111d35750600061051c565b81600181146111e957600281146111f35761120f565b600191505061051c565b60ff84111561120457611204611111565b50506001821b61051c565b5060208310610133831016604e8410600b8410161715611232575081810a61051c565b61123f6000198484611174565b806000190482111561125357611253611111565b029392505050565b600061056660ff8416836111b7565b634e487b7160e01b600052601260045260246000fd5b634e487b7160e01b600052602160045260246000fd5b600060ff8316806112b757634e487b7160e01b600052601260045260246000fd5b8060ff8416069150509291505056fea26469706673582212201edf1b56266eb548991a38415e14283b15f4f2f0f3139cb764218ee04a1fb72764736f6c634300081c0033",
  "linkReferences": {},
  "deployedLinkReferences": {}
}