{
  "_format": "hh-sol-artifact-1",
  "contractName": "yUSDeVault",
  "sourceName": "contracts/predeposit/yUSDeVault.sol",
  "abi": [
    {
      "inputs": [],
      "name": "DepositsDisabled",
      "type": "error"
    },
    {
      "inputs": [
        {
          "internalType": "address",
          "name": "spender",
          "type": "address"
        },
        {
          "internalType": "uint256",
          "name": "allowance",
          "type": "uint256"
        },
        {
          "internalType": "uint256",
          "name": "needed",
          "type": "uint256"
        }
      ],
      "name": "ERC20InsufficientAllowance",
      "type": "error"
    },
    {
      "inputs": [
        {
          "internalType": "address",
          "name": "sender",
          "type": "address"
        },
        {
          "internalType": "uint256",
          "name": "balance",
          "type": "uint256"
        },
        {
          "internalType": "uint256",
          "name": "needed",
          "type": "uint256"
        }
      ],
      "name": "ERC20InsufficientBalance",
      "type": "error"
    },
    {
      "inputs": [
        {
          "internalType": "address",
          "name": "approver",
          "type": "address"
        }
      ],
      "name": "ERC20InvalidApprover",
      "type": "error"
    },
    {
      "inputs": [
        {
          "internalType": "address",
          "name": "receiver",
          "type": "address"
        }
      ],
      "name": "ERC20InvalidReceiver",
      "type": "error"
    },
    {
      "inputs": [
        {
          "internalType": "address",
          "name": "sender",
          "type": "address"
        }
      ],
      "name": "ERC20InvalidSender",
      "type": "error"
    },
    {
      "inputs": [
        {
          "internalType": "address",
          "name": "spender",
          "type": "address"
        }
      ],
      "name": "ERC20InvalidSpender",
      "type": "error"
    },
    {
      "inputs": [
        {
          "internalType": "address",
          "name": "receiver",
          "type": "address"
        },
        {
          "internalType": "uint256",
          "name": "assets",
          "type": "uint256"
        },
        {
          "internalType": "uint256",
          "name": "max",
          "type": "uint256"
        }
      ],
      "name": "ERC4626ExceededMaxDeposit",
      "type": "error"
    },
    {
      "inputs": [
        {
          "internalType": "address",
          "name": "receiver",
          "type": "address"
        },
        {
          "internalType": "uint256",
          "name": "shares",
          "type": "uint256"
        },
        {
          "internalType": "uint256",
          "name": "max",
          "type": "uint256"
        }
      ],
      "name": "ERC4626ExceededMaxMint",
      "type": "error"
    },
    {
      "inputs": [
        {
          "internalType": "address",
          "name": "owner",
          "type": "address"
        },
        {
          "internalType": "uint256",
          "name": "shares",
          "type": "uint256"
        },
        {
          "internalType": "uint256",
          "name": "max",
          "type": "uint256"
        }
      ],
      "name": "ERC4626ExceededMaxRedeem",
      "type": "error"
    },
    {
      "inputs": [
        {
          "internalType": "address",
          "name": "owner",
          "type": "address"
        },
        {
          "internalType": "uint256",
          "name": "assets",
          "type": "uint256"
        },
        {
          "internalType": "uint256",
          "name": "max",
          "type": "uint256"
        }
      ],
      "name": "ERC4626ExceededMaxWithdraw",
      "type": "error"
    },
    {
      "inputs": [],
      "name": "InvalidInitialization",
      "type": "error"
    },
    {
      "inputs": [],
      "name": "MinSharesViolation",
      "type": "error"
    },
    {
      "inputs": [],
      "name": "NotInitializing",
      "type": "error"
    },
    {
      "inputs": [
        {
          "internalType": "address",
          "name": "owner",
          "type": "address"
        }
      ],
      "name": "OwnableInvalidOwner",
      "type": "error"
    },
    {
      "inputs": [
        {
          "internalType": "address",
          "name": "account",
          "type": "address"
        }
      ],
      "name": "OwnableUnauthorizedAccount",
      "type": "error"
    },
    {
      "inputs": [
        {
          "internalType": "address",
          "name": "token",
          "type": "address"
        }
      ],
      "name": "SafeERC20FailedOperation",
      "type": "error"
    },
    {
      "inputs": [],
      "name": "WithdrawalsDisabled",
      "type": "error"
    },
    {
      "anonymous": false,
      "inputs": [
        {
          "indexed": true,
          "internalType": "address",
          "name": "owner",
          "type": "address"
        },
        {
          "indexed": true,
          "internalType": "address",
          "name": "spender",
          "type": "address"
        },
        {
          "indexed": false,
          "internalType": "uint256",
          "name": "value",
          "type": "uint256"
        }
      ],
      "name": "Approval",
      "type": "event"
    },
    {
      "anonymous": false,
      "inputs": [
        {
          "indexed": true,
          "internalType": "address",
          "name": "sender",
          "type": "address"
        },
        {
          "indexed": true,
          "internalType": "address",
          "name": "owner",
          "type": "address"
        },
        {
          "indexed": false,
          "internalType": "uint256",
          "name": "assets",
          "type": "uint256"
        },
        {
          "indexed": false,
          "internalType": "uint256",
          "name": "shares",
          "type": "uint256"
        }
      ],
      "name": "Deposit",
      "type": "event"
    },
    {
      "anonymous": false,
      "inputs": [
        {
          "indexed": false,
          "internalType": "bool",
          "name": "enabled",
          "type": "bool"
        }
      ],
      "name": "DepositsStateChanged",
      "type": "event"
    },
    {
      "anonymous": false,
      "inputs": [
        {
          "indexed": false,
          "internalType": "uint64",
          "name": "version",
          "type": "uint64"
        }
      ],
      "name": "Initialized",
      "type": "event"
    },
    {
      "anonymous": false,
      "inputs": [
        {
          "indexed": true,
          "internalType": "address",
          "name": "previousOwner",
          "type": "address"
        },
        {
          "indexed": true,
          "internalType": "address",
          "name": "newOwner",
          "type": "address"
        }
      ],
      "name": "OwnershipTransferred",
      "type": "event"
    },
    {
      "anonymous": false,
      "inputs": [
        {
          "indexed": false,
          "internalType": "enum PreDepositPhase",
          "name": "phase",
          "type": "uint8"
        }
      ],
      "name": "PhaseStarted",
      "type": "event"
    },
    {
      "anonymous": false,
      "inputs": [
        {
          "indexed": true,
          "internalType": "address",
          "name": "from",
          "type": "address"
        },
        {
          "indexed": true,
          "internalType": "address",
          "name": "to",
          "type": "address"
        },
        {
          "indexed": false,
          "internalType": "uint256",
          "name": "value",
          "type": "uint256"
        }
      ],
      "name": "Transfer",
      "type": "event"
    },
    {
      "anonymous": false,
      "inputs": [
        {
          "indexed": true,
          "internalType": "address",
          "name": "sender",
          "type": "address"
        },
        {
          "indexed": true,
          "internalType": "address",
          "name": "receiver",
          "type": "address"
        },
        {
          "indexed": true,
          "internalType": "address",
          "name": "owner",
          "type": "address"
        },
        {
          "indexed": false,
          "internalType": "uint256",
          "name": "assets",
          "type": "uint256"
        },
        {
          "indexed": false,
          "internalType": "uint256",
          "name": "shares",
          "type": "uint256"
        }
      ],
      "name": "Withdraw",
      "type": "event"
    },
    {
      "anonymous": false,
      "inputs": [
        {
          "indexed": false,
          "internalType": "bool",
          "name": "enabled",
          "type": "bool"
        }
      ],
      "name": "WithdrawalsStateChanged",
      "type": "event"
    },
    {
      "inputs": [],
      "name": "USDe",
      "outputs": [
        {
          "internalType": "contract IERC20",
          "name": "",
          "type": "address"
        }
      ],
      "stateMutability": "view",
      "type": "function"
    },
    {
      "inputs": [
        {
          "internalType": "address",
          "name": "owner",
          "type": "address"
        },
        {
          "internalType": "address",
          "name": "spender",
          "type": "address"
        }
      ],
      "name": "allowance",
      "outputs": [
        {
          "internalType": "uint256",
          "name": "",
          "type": "uint256"
        }
      ],
      "stateMutability": "view",
      "type": "function"
    },
    {
      "inputs": [
        {
          "internalType": "address",
          "name": "spender",
          "type": "address"
        },
        {
          "internalType": "uint256",
          "name": "value",
          "type": "uint256"
        }
      ],
      "name": "approve",
      "outputs": [
        {
          "internalType": "bool",
          "name": "",
          "type": "bool"
        }
      ],
      "stateMutability": "nonpayable",
      "type": "function"
    },
    {
      "inputs": [],
      "name": "asset",
      "outputs": [
        {
          "internalType": "address",
          "name": "",
          "type": "address"
        }
      ],
      "stateMutability": "view",
      "type": "function"
    },
    {
      "inputs": [
        {
          "internalType": "address",
          "name": "account",
          "type": "address"
        }
      ],
      "name": "balanceOf",
      "outputs": [
        {
          "internalType": "uint256",
          "name": "",
          "type": "uint256"
        }
      ],
      "stateMutability": "view",
      "type": "function"
    },
    {
      "inputs": [
        {
          "internalType": "uint256",
          "name": "shares",
          "type": "uint256"
        }
      ],
      "name": "convertToAssets",
      "outputs": [
        {
          "internalType": "uint256",
          "name": "",
          "type": "uint256"
        }
      ],
      "stateMutability": "view",
      "type": "function"
    },
    {
      "inputs": [
        {
          "internalType": "uint256",
          "name": "assets",
          "type": "uint256"
        }
      ],
      "name": "convertToShares",
      "outputs": [
        {
          "internalType": "uint256",
          "name": "",
          "type": "uint256"
        }
      ],
      "stateMutability": "view",
      "type": "function"
    },
    {
      "inputs": [],
      "name": "currentPhase",
      "outputs": [
        {
          "internalType": "enum PreDepositPhase",
          "name": "",
          "type": "uint8"
        }
      ],
      "stateMutability": "view",
      "type": "function"
    },
    {
      "inputs": [],
      "name": "decimals",
      "outputs": [
        {
          "internalType": "uint8",
          "name": "",
          "type": "uint8"
        }
      ],
      "stateMutability": "view",
      "type": "function"
    },
    {
      "inputs": [
        {
          "internalType": "uint256",
          "name": "assets",
          "type": "uint256"
        },
        {
          "internalType": "address",
          "name": "receiver",
          "type": "address"
        }
      ],
      "name": "deposit",
      "outputs": [
        {
          "internalType": "uint256",
          "name": "",
          "type": "uint256"
        }
      ],
      "stateMutability": "nonpayable",
      "type": "function"
    },
    {
      "inputs": [],
      "name": "depositsEnabled",
      "outputs": [
        {
          "internalType": "bool",
          "name": "",
          "type": "bool"
        }
      ],
      "stateMutability": "view",
      "type": "function"
    },
    {
      "inputs": [
        {
          "internalType": "address",
          "name": "owner_",
          "type": "address"
        },
        {
          "internalType": "contract IERC20",
          "name": "USDe_",
          "type": "address"
        },
        {
          "internalType": "contract IERC4626",
          "name": "sUSDe_",
          "type": "address"
        },
        {
          "internalType": "contract IERC4626YieldVault",
          "name": "pUSDeVault_",
          "type": "address"
        }
      ],
      "name": "initialize",
      "outputs": [],
      "stateMutability": "nonpayable",
      "type": "function"
    },
    {
      "inputs": [
        {
          "internalType": "address",
          "name": "owner",
          "type": "address"
        }
      ],
      "name": "maxDeposit",
      "outputs": [
        {
          "internalType": "uint256",
          "name": "",
          "type": "uint256"
        }
      ],
      "stateMutability": "view",
      "type": "function"
    },
    {
      "inputs": [
        {
          "internalType": "address",
          "name": "owner",
          "type": "address"
        }
      ],
      "name": "maxMint",
      "outputs": [
        {
          "internalType": "uint256",
          "name": "",
          "type": "uint256"
        }
      ],
      "stateMutability": "view",
      "type": "function"
    },
    {
      "inputs": [
        {
          "internalType": "address",
          "name": "owner",
          "type": "address"
        }
      ],
      "name": "maxRedeem",
      "outputs": [
        {
          "internalType": "uint256",
          "name": "",
          "type": "uint256"
        }
      ],
      "stateMutability": "view",
      "type": "function"
    },
    {
      "inputs": [
        {
          "internalType": "address",
          "name": "owner",
          "type": "address"
        }
      ],
      "name": "maxWithdraw",
      "outputs": [
        {
          "internalType": "uint256",
          "name": "",
          "type": "uint256"
        }
      ],
      "stateMutability": "view",
      "type": "function"
    },
    {
      "inputs": [
        {
          "internalType": "uint256",
          "name": "shares",
          "type": "uint256"
        },
        {
          "internalType": "address",
          "name": "receiver",
          "type": "address"
        }
      ],
      "name": "mint",
      "outputs": [
        {
          "internalType": "uint256",
          "name": "",
          "type": "uint256"
        }
      ],
      "stateMutability": "nonpayable",
      "type": "function"
    },
    {
      "inputs": [],
      "name": "name",
      "outputs": [
        {
          "internalType": "string",
          "name": "",
          "type": "string"
        }
      ],
      "stateMutability": "view",
      "type": "function"
    },
    {
      "inputs": [],
      "name": "owner",
      "outputs": [
        {
          "internalType": "address",
          "name": "",
          "type": "address"
        }
      ],
      "stateMutability": "view",
      "type": "function"
    },
    {
      "inputs": [],
      "name": "pUSDeVault",
      "outputs": [
        {
          "internalType": "contract IERC4626YieldVault",
          "name": "",
          "type": "address"
        }
      ],
      "stateMutability": "view",
      "type": "function"
    },
    {
      "inputs": [
        {
          "internalType": "uint256",
          "name": "pUSDeAssets",
          "type": "uint256"
        }
      ],
      "name": "previewDeposit",
      "outputs": [
        {
          "internalType": "uint256",
          "name": "yUSDeShares",
          "type": "uint256"
        }
      ],
      "stateMutability": "view",
      "type": "function"
    },
    {
      "inputs": [
        {
          "internalType": "uint256",
          "name": "yUSDeShares",
          "type": "uint256"
        }
      ],
      "name": "previewMint",
      "outputs": [
        {
          "internalType": "uint256",
          "name": "pUSDeAssets",
          "type": "uint256"
        }
      ],
      "stateMutability": "view",
      "type": "function"
    },
    {
      "inputs": [
        {
          "internalType": "uint256",
          "name": "shares",
          "type": "uint256"
        }
      ],
      "name": "previewRedeem",
      "outputs": [
        {
          "internalType": "uint256",
          "name": "",
          "type": "uint256"
        }
      ],
      "stateMutability": "view",
      "type": "function"
    },
    {
      "inputs": [
        {
          "internalType": "uint256",
          "name": "assets",
          "type": "uint256"
        }
      ],
      "name": "previewWithdraw",
      "outputs": [
        {
          "internalType": "uint256",
          "name": "",
          "type": "uint256"
        }
      ],
      "stateMutability": "view",
      "type": "function"
    },
    {
      "inputs": [
        {
          "internalType": "uint256",
          "name": "shares",
          "type": "uint256"
        },
        {
          "internalType": "address",
          "name": "receiver",
          "type": "address"
        },
        {
          "internalType": "address",
          "name": "owner",
          "type": "address"
        }
      ],
      "name": "redeem",
      "outputs": [
        {
          "internalType": "uint256",
          "name": "",
          "type": "uint256"
        }
      ],
      "stateMutability": "nonpayable",
      "type": "function"
    },
    {
      "inputs": [],
      "name": "renounceOwnership",
      "outputs": [],
      "stateMutability": "nonpayable",
      "type": "function"
    },
    {
      "inputs": [],
      "name": "sUSDe",
      "outputs": [
        {
          "internalType": "contract IERC4626",
          "name": "",
          "type": "address"
        }
      ],
      "stateMutability": "view",
      "type": "function"
    },
    {
      "inputs": [
        {
          "internalType": "bool",
          "name": "depositsEnabled_",
          "type": "bool"
        }
      ],
      "name": "setDepositsEnabled",
      "outputs": [],
      "stateMutability": "nonpayable",
      "type": "function"
    },
    {
      "inputs": [
        {
          "internalType": "bool",
          "name": "withdrawalsEnabled_",
          "type": "bool"
        }
      ],
      "name": "setWithdrawalsEnabled",
      "outputs": [],
      "stateMutability": "nonpayable",
      "type": "function"
    },
    {
      "inputs": [],
      "name": "symbol",
      "outputs": [
        {
          "internalType": "string",
          "name": "",
          "type": "string"
        }
      ],
      "stateMutability": "view",
      "type": "function"
    },
    {
      "inputs": [],
      "name": "totalAccruedUSDe",
      "outputs": [
        {
          "internalType": "uint256",
          "name": "USDeAssets",
          "type": "uint256"
        }
      ],
      "stateMutability": "view",
      "type": "function"
    },
    {
      "inputs": [],
      "name": "totalAssets",
      "outputs": [
        {
          "internalType": "uint256",
          "name": "",
          "type": "uint256"
        }
      ],
      "stateMutability": "view",
      "type": "function"
    },
    {
      "inputs": [],
      "name": "totalSupply",
      "outputs": [
        {
          "internalType": "uint256",
          "name": "",
          "type": "uint256"
        }
      ],
      "stateMutability": "view",
      "type": "function"
    },
    {
      "inputs": [
        {
          "internalType": "address",
          "name": "to",
          "type": "address"
        },
        {
          "internalType": "uint256",
          "name": "value",
          "type": "uint256"
        }
      ],
      "name": "transfer",
      "outputs": [
        {
          "internalType": "bool",
          "name": "",
          "type": "bool"
        }
      ],
      "stateMutability": "nonpayable",
      "type": "function"
    },
    {
      "inputs": [
        {
          "internalType": "address",
          "name": "from",
          "type": "address"
        },
        {
          "internalType": "address",
          "name": "to",
          "type": "address"
        },
        {
          "internalType": "uint256",
          "name": "value",
          "type": "uint256"
        }
      ],
      "name": "transferFrom",
      "outputs": [
        {
          "internalType": "bool",
          "name": "",
          "type": "bool"
        }
      ],
      "stateMutability": "nonpayable",
      "type": "function"
    },
    {
      "inputs": [
        {
          "internalType": "address",
          "name": "newOwner",
          "type": "address"
        }
      ],
      "name": "transferOwnership",
      "outputs": [],
      "stateMutability": "nonpayable",
      "type": "function"
    },
    {
      "inputs": [
        {
          "internalType": "uint256",
          "name": "assets",
          "type": "uint256"
        },
        {
          "internalType": "address",
          "name": "receiver",
          "type": "address"
        },
        {
          "internalType": "address",
          "name": "owner",
          "type": "address"
        }
      ],
      "name": "withdraw",
      "outputs": [
        {
          "internalType": "uint256",
          "name": "",
          "type": "uint256"
        }
      ],
      "stateMutability": "nonpayable",
      "type": "function"
    },
    {
      "inputs": [],
      "name": "withdrawalsEnabled",
      "outputs": [
        {
          "internalType": "bool",
          "name": "",
          "type": "bool"
        }
      ],
      "stateMutability": "view",
      "type": "function"
    }
  ],
  "bytecode": "0x6080604052348015600f57600080fd5b506016601a565b60ca565b7ff0c57e16840df040f15088dc2f81fe391c3923bec73e23a9662efc9c229c6a00805468010000000000000000900460ff161560695760405163f92ee8a960e01b815260040160405180910390fd5b80546001600160401b039081161460c75780546001600160401b0319166001600160401b0390811782556040519081527fc7f505b2f371ae2175ee4913f4499e1f2633a7b5936321eed1cdaeb6115181d29060200160405180910390a15b50565b612014806100d96000396000f3fe608060405234801561001057600080fd5b50600436106102325760003560e01c806394bf804d11610130578063c82fd28a116100b8578063dd62ed3e1161007c578063dd62ed3e1461048b578063e0d05d391461049e578063ef8b30f7146104b1578063f2fde38b146104c4578063f8c8765e146104d757600080fd5b8063c82fd28a14610432578063ce96cb771461043a578063d0dbcd241461044d578063d16095021461045f578063d905777e1461047857600080fd5b8063b3d7f6b9116100ff578063b3d7f6b9146103e6578063b460af94146103f9578063ba0876521461040c578063c63d75b61461033c578063c6e6f5921461041f57600080fd5b806394bf804d146103a557806395d89b41146103b85780639f04586c146103c0578063a9059cbb146103d357600080fd5b8063313ce567116101be5780635392fd1c116101825780635392fd1c146103625780636e553f651461036f57806370a0823114610382578063715018a6146103955780638da5cb5b1461039d57600080fd5b8063313ce5671461030257806338d52e0f1461031c578063402d267d1461033c578063436e04b61461034f5780634cdad5061461027c57600080fd5b8063095ea7b311610205578063095ea7b31461028f5780630a179327146102b25780630a28a477146102c757806318160ddd146102da57806323b872dd146102ef57600080fd5b806301e1d11414610237578063055ad42e1461025257806306fdde031461026757806307a2d13a1461027c575b600080fd5b61023f6104ea565b6040519081526020015b60405180910390f35b61025a610563565b60405161024991906119fe565b61026f6105d1565b6040516102499190611a4a565b61023f61028a366004611a7d565b610694565b6102a261029d366004611aab565b6106a7565b6040519015158152602001610249565b6102c56102c0366004611ad7565b6106bf565b005b61023f6102d5366004611a7d565b61071b565b600080516020611fbf8339815191525461023f565b6102a26102fd366004611af9565b610728565b61030a61074e565b60405160ff9091168152602001610249565b610324610792565b6040516001600160a01b039091168152602001610249565b61023f61034a366004611b3a565b6107c7565b606454610324906001600160a01b031681565b6032546102a29060ff1681565b61023f61037d366004611b57565b6107e8565b61023f610390366004611b3a565b610847565b6102c561086f565b610324610883565b61023f6103b3366004611b57565b6108ac565b61026f6108fa565b6102c56103ce366004611ad7565b610939565b6102a26103e1366004611aab565b610982565b61023f6103f4366004611a7d565b610990565b61023f610407366004611b87565b610a1c565b61023f61041a366004611b87565b610a74565b61023f61042d366004611a7d565b610ac3565b61023f610ad0565b61023f610448366004611b3a565b610ae8565b6032546102a290610100900460ff1681565b603254610324906201000090046001600160a01b031681565b61023f610486366004611b3a565b610b0f565b61023f610499366004611bc9565b610b36565b603354610324906001600160a01b031681565b61023f6104bf366004611a7d565b610b80565b6102c56104d2366004611b3a565b610bab565b6102c56104e5366004611bf7565b610be9565b60006104f4610792565b6040516370a0823160e01b81523060048201526001600160a01b0391909116906370a0823190602401602060405180830381865afa15801561053a573d6000803e3d6000fd5b505050506040513d601f19601f8201168201806040525081019061055e9190611c53565b905090565b606454604080516302ad6a1760e11b815290516000926001600160a01b03169163055ad42e9160048083019260209291908290030181865afa1580156105ad573d6000803e3d6000fd5b505050506040513d601f19601f8201168201806040525081019061055e9190611c6c565b7f52c63247e1f47db19d5ce0460030c497f067ca4cebf71ba98eeadabe20bace038054606091600080516020611f9f8339815191529161061090611c8d565b80601f016020809104026020016040519081016040528092919081815260200182805461063c90611c8d565b80156106895780601f1061065e57610100808354040283529160200191610689565b820191906000526020600020905b81548152906001019060200180831161066c57829003601f168201915b505050505091505090565b60006106a1826000610d5a565b92915050565b6000336106b5818585610da1565b5060019392505050565b6106c7610db3565b603280548215156101000261ff00199091161790556040517f8bf44ce16cd7f9cc1d627a597add24085d5c8c6ac21c942fb31d44814603efa69061071090831515815260200190565b60405180910390a150565b60006106a1826001610de5565b600033610736858285610e22565b610741858585610e76565b60019150505b9392505050565b6000807f0773e532dfede91f04b12a73d3d2acd361424f41f76b4fb79f090161e36b4e0090506000815461078c9190600160a01b900460ff16611cdd565b91505090565b6000807f0773e532dfede91f04b12a73d3d2acd361424f41f76b4fb79f090161e36b4e005b546001600160a01b031692915050565b60325460009060ff16151581036107e057506000919050565b6000196106a1565b6000806107f4836107c7565b90508084111561082657828482604051633c8097d960e11b815260040161081d93929190611cf6565b60405180910390fd5b600061083185610b80565b905061083f33858784610ed5565b949350505050565b6001600160a01b03166000908152600080516020611f9f833981519152602052604090205490565b610877610db3565b6108816000610ee9565b565b6000807f9016d09d72d40fdae2fd8ceac6b6234c7706214fd39c1cd1e609a0528c1993006107b7565b6000806108b8836107c7565b9050808411156108e15782848260405163284ff66760e01b815260040161081d93929190611cf6565b60006108ec85610990565b905061083f33858388610ed5565b7f52c63247e1f47db19d5ce0460030c497f067ca4cebf71ba98eeadabe20bace048054606091600080516020611f9f8339815191529161061090611c8d565b610941610db3565b6032805460ff19168215159081179091556040519081527fa19ff7bfc86050040cb9ec5fabfe0d4e87324cf8119f9905f40cf27dc3223faf90602001610710565b6000336106b5818585610e76565b6000806109ae8361099f610ad0565b6109a76104ea565b6001610f5a565b60645460405163ef8b30f760e01b8152600481018390529192506001600160a01b03169063ef8b30f790602401602060405180830381865afa1580156109f8573d6000803e3d6000fd5b505050506040513d601f19601f820116820180604052508101906107479190611c53565b600080610a2883610ae8565b905080851115610a5157828582604051633fa733bb60e21b815260040161081d93929190611cf6565b6000610a5c8661071b565b9050610a6b3386868985610f7e565b95945050505050565b600080610a8083610b0f565b905080851115610aa957828582604051632e52afbb60e21b815260040161081d93929190611cf6565b6000610ab486610694565b9050610a6b338686848a610f7e565b60006106a1826000610de5565b600080610adb6104ea565b905061078c816001611098565b603254600090610100900460ff1615158103610b0657506000919050565b6106a1826111ae565b603254600090610100900460ff1615158103610b2d57506000919050565b6106a1826111c3565b6001600160a01b0391821660009081527f52c63247e1f47db19d5ce0460030c497f067ca4cebf71ba98eeadabe20bace016020908152604080832093909416825291909152205490565b600080610b8e836000611098565b905061074781610b9c6104ea565b610ba4610ad0565b6000610f5a565b610bb3610db3565b6001600160a01b038116610bdd57604051631e4fbdf760e01b81526000600482015260240161081d565b610be681610ee9565b50565b6000610bf36111ce565b805490915060ff600160401b820416159067ffffffffffffffff16600081158015610c1b5750825b905060008267ffffffffffffffff166001148015610c385750303b155b905081158015610c46575080155b15610c645760405163f92ee8a960e01b815260040160405180910390fd5b845467ffffffffffffffff191660011785558315610c8e57845460ff60401b1916600160401b1785555b610cee896040518060400160405280601e81526020017f537472617461205072652d6465706f736974205969656c6420546f6b656e000081525060405180604001604052806005815260200164795553446560d81b8152508b8b8b6111f7565b606480546001600160a01b0319166001600160a01b0388161790558315610d4f57845460ff60401b19168555604051600181527fc7f505b2f371ae2175ee4913f4499e1f2633a7b5936321eed1cdaeb6115181d29060200160405180910390a15b505050505050505050565b6000610747610d676104ea565b610d72906001611d17565b610d7e6000600a611e11565b600080516020611fbf83398151915254610d989190611d17565b85919085611259565b610dae838383600161129d565b505050565b33610dbc610883565b6001600160a01b0316146108815760405163118cdaa760e01b815233600482015260240161081d565b6000610747610df582600a611e11565b600080516020611fbf83398151915254610e0f9190611d17565b610e176104ea565b610d98906001611d17565b6000610e2e8484610b36565b9050600019811015610e705781811015610e6157828183604051637dc7a0d960e11b815260040161081d93929190611cf6565b610e708484848403600061129d565b50505050565b6001600160a01b038316610ea057604051634b637e8f60e11b81526000600482015260240161081d565b6001600160a01b038216610eca5760405163ec442f0560e01b81526000600482015260240161081d565b610dae838383611384565b610ee1848484846114af565b610e7061151a565b7f9016d09d72d40fdae2fd8ceac6b6234c7706214fd39c1cd1e609a0528c19930080546001600160a01b031981166001600160a01b03848116918217845560405192169182907f8be0079c531659141344cd1fd0a4f28419497f9722a3daafe3b4186f6b6457e090600090a3505050565b6000610a6b610f6a856001611d17565b610f75856001611d17565b87919085611259565b826001600160a01b0316856001600160a01b031614610fa257610fa2838683610e22565b610fac838261153d565b60648054604051635d043b2960e11b8152600481018590526001600160a01b0387811660248301523060448301529091169163ba08765291016020604051808303816000875af1158015611004573d6000803e3d6000fd5b505050506040513d601f19601f820116820180604052508101906110289190611c53565b50826001600160a01b0316846001600160a01b0316866001600160a01b03167ffbde797d201c681b91056529119e0b02407c7bb96a4a2c75c01fc9667232c8db8585604051611081929190918252602082015260400190565b60405180910390a4611091611577565b5050505050565b6000826000036110aa575060006106a1565b6064546000906001600160a01b031663cbe52ae3846110ca5760006110cc565b305b6040516001600160e01b031960e084901b1681526001600160a01b03909116600482015260248101879052604401602060405180830381865afa158015611117573d6000803e3d6000fd5b505050506040513d601f19601f8201168201806040525081019061113b9190611c53565b60335460405163266d6a8360e11b8152600481018390529192506000916001600160a01b0390911690634cdad50690602401602060405180830381865afa15801561118a573d6000803e3d6000fd5b505050506040513d601f19601f82011682018060405250810190610a6b9190611c53565b60006106a16111bc83610847565b6000610d5a565b60006106a182610847565b6000807ff0c57e16840df040f15088dc2f81fe391c3923bec73e23a9662efc9c229c6a006106a1565b6111ff6115dd565b6112098585611602565b61121281611653565b61121b866116d7565b506032805462010000600160b01b031916620100006001600160a01b0394851602179055603380546001600160a01b03191691909216179055505050565b6000611288611267836116df565b801561128357506000848061127e5761127e611e20565b868809115b151590565b61129386868661170c565b610a6b9190611d17565b600080516020611f9f8339815191526001600160a01b0385166112d65760405163e602df0560e01b81526000600482015260240161081d565b6001600160a01b03841661130057604051634a1406b160e11b81526000600482015260240161081d565b6001600160a01b0380861660009081526001830160209081526040808320938816835292905220839055811561109157836001600160a01b0316856001600160a01b03167f8c5be1e5ebec7d5bd14f71427d1e84f3dd0314c0f7b2291e5b200ac8c7c3b9258560405161137591815260200190565b60405180910390a35050505050565b600080516020611f9f8339815191526001600160a01b0384166113c057818160020160008282546113b59190611d17565b9091555061141f9050565b6001600160a01b038416600090815260208290526040902054828110156114005784818460405163391434e360e21b815260040161081d93929190611cf6565b6001600160a01b03851660009081526020839052604090209083900390555b6001600160a01b03831661143d57600281018054839003905561145c565b6001600160a01b03831660009081526020829052604090208054830190555b826001600160a01b0316846001600160a01b03167fddf252ad1be2c89b69c2b068fc378daa952ba7f163c4a11628f55a4df523b3ef846040516114a191815260200190565b60405180910390a350505050565b6114c26114ba610792565b8530856117c1565b6114cc838261181b565b826001600160a01b0316846001600160a01b03167fdcbc1c05240f31ff3ad067ef1ee35ce4997762752e3a095284754544f4c709d784846040516114a1929190918252602082015260400190565b60325460ff1661088157604051630e2f42c960e31b815260040160405180910390fd5b6001600160a01b03821661156757604051634b637e8f60e11b81526000600482015260240161081d565b61157382600083611384565b5050565b603254610100900460ff1661159f576040516346ee9e3560e01b815260040160405180910390fd5b67016345785d8a00006115be600080516020611fbf8339815191525490565b101561088157604051635a5c1b5560e11b815260040160405180910390fd5b6115e5611851565b61088157604051631afcd79f60e31b815260040160405180910390fd5b61160a6115dd565b600080516020611f9f8339815191527f52c63247e1f47db19d5ce0460030c497f067ca4cebf71ba98eeadabe20bace036116448482611e93565b5060048101610e708382611e93565b61165b6115dd565b7f0773e532dfede91f04b12a73d3d2acd361424f41f76b4fb79f090161e36b4e006000806116888461186b565b915091508161169857601261169a565b805b83546001600160a81b031916600160a01b60ff92909216919091026001600160a01b031916176001600160a01b0394909416939093179091555050565b610bb36115dd565b600060028260038111156116f5576116f56119e8565b6116ff9190611f52565b60ff166001149050919050565b600080600061171b8686611947565b91509150816000036117405783818161173657611736611e20565b0492505050610747565b818411611757576117576003851502601118611965565b6000848688096000868103871696879004966002600389028118808a02820302808a02820302808a02820302808a02820302808a02820302808a02909103029181900381900460010185841190960395909502919093039390930492909217029150509392505050565b604080516001600160a01b0385811660248301528416604482015260648082018490528251808303909101815260849091019091526020810180516001600160e01b03166323b872dd60e01b179052610e70908590611977565b6001600160a01b0382166118455760405163ec442f0560e01b81526000600482015260240161081d565b61157360008383611384565b600061185b6111ce565b54600160401b900460ff16919050565b60408051600481526024810182526020810180516001600160e01b031663313ce56760e01b17905290516000918291829182916001600160a01b038716916118b291611f82565b600060405180830381855afa9150503d80600081146118ed576040519150601f19603f3d011682016040523d82523d6000602084013e6118f2565b606091505b509150915081801561190657506020815110155b1561193a576000818060200190518101906119219190611c53565b905060ff8111611938576001969095509350505050565b505b5060009485945092505050565b60008060001983850993909202808410938190039390930393915050565b634e487b71600052806020526024601cfd5b600080602060008451602086016000885af18061199a576040513d6000823e3d81fd5b50506000513d915081156119b25780600114156119bf565b6001600160a01b0384163b155b15610e7057604051635274afe760e01b81526001600160a01b038516600482015260240161081d565b634e487b7160e01b600052602160045260246000fd5b6020810160028310611a2057634e487b7160e01b600052602160045260246000fd5b91905290565b60005b83811015611a41578181015183820152602001611a29565b50506000910152565b6020815260008251806020840152611a69816040850160208701611a26565b601f01601f19169190910160400192915050565b600060208284031215611a8f57600080fd5b5035919050565b6001600160a01b0381168114610be657600080fd5b60008060408385031215611abe57600080fd5b8235611ac981611a96565b946020939093013593505050565b600060208284031215611ae957600080fd5b8135801515811461074757600080fd5b600080600060608486031215611b0e57600080fd5b8335611b1981611a96565b92506020840135611b2981611a96565b929592945050506040919091013590565b600060208284031215611b4c57600080fd5b813561074781611a96565b60008060408385031215611b6a57600080fd5b823591506020830135611b7c81611a96565b809150509250929050565b600080600060608486031215611b9c57600080fd5b833592506020840135611bae81611a96565b91506040840135611bbe81611a96565b809150509250925092565b60008060408385031215611bdc57600080fd5b8235611be781611a96565b91506020830135611b7c81611a96565b60008060008060808587031215611c0d57600080fd5b8435611c1881611a96565b93506020850135611c2881611a96565b92506040850135611c3881611a96565b91506060850135611c4881611a96565b939692955090935050565b600060208284031215611c6557600080fd5b5051919050565b600060208284031215611c7e57600080fd5b81516002811061074757600080fd5b600181811c90821680611ca157607f821691505b602082108103611cc157634e487b7160e01b600052602260045260246000fd5b50919050565b634e487b7160e01b600052601160045260246000fd5b60ff81811683821601908111156106a1576106a1611cc7565b6001600160a01b039390931683526020830191909152604082015260600190565b808201808211156106a1576106a1611cc7565b6001815b6001841115611d6557808504811115611d4957611d49611cc7565b6001841615611d5757908102905b60019390931c928002611d2e565b935093915050565b600082611d7c575060016106a1565b81611d89575060006106a1565b8160018114611d9f5760028114611da957611dc5565b60019150506106a1565b60ff841115611dba57611dba611cc7565b50506001821b6106a1565b5060208310610133831016604e8410600b8410161715611de8575081810a6106a1565b611df56000198484611d2a565b8060001904821115611e0957611e09611cc7565b029392505050565b600061074760ff841683611d6d565b634e487b7160e01b600052601260045260246000fd5b634e487b7160e01b600052604160045260246000fd5b601f821115610dae57806000526020600020601f840160051c81016020851015611e735750805b601f840160051c820191505b818110156110915760008155600101611e7f565b815167ffffffffffffffff811115611ead57611ead611e36565b611ec181611ebb8454611c8d565b84611e4c565b6020601f821160018114611ef55760008315611edd5750848201515b600019600385901b1c1916600184901b178455611091565b600084815260208120601f198516915b82811015611f255787850151825560209485019460019092019101611f05565b5084821015611f435786840151600019600387901b60f8161c191681555b50505050600190811b01905550565b600060ff831680611f7357634e487b7160e01b600052601260045260246000fd5b8060ff84160691505092915050565b60008251611f94818460208701611a26565b919091019291505056fe52c63247e1f47db19d5ce0460030c497f067ca4cebf71ba98eeadabe20bace0052c63247e1f47db19d5ce0460030c497f067ca4cebf71ba98eeadabe20bace02a2646970667358221220d864b5959f2431431038a0c9c4b76f5e4c2b6e3282c5adab95400ebf9992740f64736f6c634300081c0033",
  "linkReferences": {},
  "deployedLinkReferences": {}
}